{
  "contractName": "AirTempMeasurement",
  "abi": [
    {
      "inputs": [],
      "stateMutability": "nonpayable",
      "type": "constructor"
    },
    {
      "inputs": [
        {
          "internalType": "uint256",
          "name": "_farm_id",
          "type": "uint256"
        }
      ],
      "name": "getAllMeasurementForAFarm",
      "outputs": [
        {
          "components": [
            {
              "internalType": "uint256",
              "name": "timestamp",
              "type": "uint256"
            },
            {
              "internalType": "uint256",
              "name": "value",
              "type": "uint256"
            }
          ],
          "internalType": "struct MeasurementRecord.Measurement[]",
          "name": "",
          "type": "tuple[]"
        }
      ],
      "stateMutability": "view",
      "type": "function"
    },
    {
      "inputs": [
        {
          "internalType": "uint256",
          "name": "_farm_id",
          "type": "uint256"
        },
        {
          "internalType": "uint256",
          "name": "_from_timestamp",
          "type": "uint256"
        },
        {
          "internalType": "uint256",
          "name": "_to_timestamp",
          "type": "uint256"
        }
      ],
      "name": "getAllMeasurementForAFarmInAPeriod",
      "outputs": [
        {
          "components": [
            {
              "internalType": "uint256",
              "name": "timestamp",
              "type": "uint256"
            },
            {
              "internalType": "uint256",
              "name": "value",
              "type": "uint256"
            }
          ],
          "internalType": "struct MeasurementRecord.Measurement[]",
          "name": "",
          "type": "tuple[]"
        }
      ],
      "stateMutability": "view",
      "type": "function"
    },
    {
      "inputs": [
        {
          "internalType": "uint256",
          "name": "_farm_id",
          "type": "uint256"
        },
        {
          "internalType": "uint256",
          "name": "_since_timestamp",
          "type": "uint256"
        }
      ],
      "name": "getAllMeasurementForAFarmSince",
      "outputs": [
        {
          "components": [
            {
              "internalType": "uint256",
              "name": "timestamp",
              "type": "uint256"
            },
            {
              "internalType": "uint256",
              "name": "value",
              "type": "uint256"
            }
          ],
          "internalType": "struct MeasurementRecord.Measurement[]",
          "name": "",
          "type": "tuple[]"
        }
      ],
      "stateMutability": "view",
      "type": "function"
    },
    {
      "inputs": [
        {
          "internalType": "uint256",
          "name": "_farm_id",
          "type": "uint256"
        },
        {
          "internalType": "uint256",
          "name": "_value",
          "type": "uint256"
        }
      ],
      "name": "record",
      "outputs": [
        {
          "components": [
            {
              "internalType": "uint256",
              "name": "timestamp",
              "type": "uint256"
            },
            {
              "internalType": "uint256",
              "name": "value",
              "type": "uint256"
            }
          ],
          "internalType": "struct MeasurementRecord.Measurement",
          "name": "",
          "type": "tuple"
        }
      ],
      "stateMutability": "nonpayable",
      "type": "function"
    }
  ],
  "bytecode": "0x6080604052600080553480156200001557600080fd5b506200003060016101036362a4f4406200112760201b60201c565b6200004a60016101106362a548a06200112760201b60201c565b62000064600161010f6362a59d006200112760201b60201c565b6200007e60016101016362a5f1606200112760201b60201c565b6200009860016101096362a645c06200112760201b60201c565b620000b260016101196362a69a206200112760201b60201c565b620000cc60016101216362a6ee806200112760201b60201c565b620000e660016101066362a742e06200112760201b60201c565b62000100600161010d6362a797406200112760201b60201c565b6200011a60016101216362a7eba06200112760201b60201c565b6200013460016101236362a840006200112760201b60201c565b6200014e60016101086362a894606200112760201b60201c565b62000168600161010d6362a8e8c06200112760201b60201c565b6200018260016101246362a93d206200112760201b60201c565b6200019c60016101296362a991806200112760201b60201c565b620001b6600161010f6362a9e5e06200112760201b60201c565b620001d060016101106362aa3a406200112760201b60201c565b620001ea600161012b6362aa8ea06200112760201b60201c565b62000204600161012a6362aae3006200112760201b60201c565b6200021e600161010d6362ab37606200112760201b60201c565b62000238600161010e6362ab8bc06200112760201b60201c565b6200025260016101286362abe0206200112760201b60201c565b6200026c60016101296362ac34806200112760201b60201c565b6200028660016101096362ac88e06200112760201b60201c565b620002a060016101066362acdd406200112760201b60201c565b620002ba60016101266362ad31a06200112760201b60201c565b620002d460016101286362ad86006200112760201b60201c565b620002ee600161010e6362adda606200112760201b60201c565b6200030860016101036362ae2ec06200112760201b60201c565b6200032260016101216362ae83206200112760201b60201c565b6200033c60016101246362aed7806200112760201b60201c565b6200035660016101046362af2be06200112760201b60201c565b6200037060016101106362af80406200112760201b60201c565b6200038a600161012d6362afd4a06200112760201b60201c565b620003a4600161012a6362b029006200112760201b60201c565b620003be600161010c6362b07d606200112760201b60201c565b620003d8600161010d6362b0d1c06200112760201b60201c565b620003f260016101236362b126206200112760201b60201c565b6200040c60016101206362b17a806200112760201b60201c565b6200042660016101066362b1cee06200112760201b60201c565b6200044060016101086362b223406200112760201b60201c565b6200045a60016101246362b277a06200112760201b60201c565b6200047460016101296362b2cc006200112760201b60201c565b6200048e60016101026362b320606200112760201b60201c565b620004a860016101046362b374c06200112760201b60201c565b620004c260016101206362b3c9206200112760201b60201c565b620004dc600161011f6362b41d806200112760201b60201c565b620004f660016101066362b471e06200112760201b60201c565b6200051060016101026362b4c6406200112760201b60201c565b6200052a60016101216362b51aa06200112760201b60201c565b62000544600161011c6362b56f006200112760201b60201c565b6200055e60016101056362b5c3606200112760201b60201c565b6200057860016101066362b617c06200112760201b60201c565b6200059260016101226362b66c206200112760201b60201c565b620005ac60016101206362b6c0806200112760201b60201c565b620005c6600161010a6362b714e06200112760201b60201c565b620005e060016101016362b769406200112760201b60201c565b620005fa60016101196362b7bda06200112760201b60201c565b62000614600161011c6362b812006200112760201b60201c565b6200062e60016101036362b866606200112760201b60201c565b6200064860016101046362b8bac06200112760201b60201c565b6200066260016101196362b90f206200112760201b60201c565b6200067c600161011c6362b963806200112760201b60201c565b6200069660016101026362b9b7e06200112760201b60201c565b620006b060016101006362ba0c406200112760201b60201c565b620006ca60016101236362ba60a06200112760201b60201c565b620006e460016101216362bab5006200112760201b60201c565b620006fe60016101026362bb09606200112760201b60201c565b6200071860016101066362bb5dc06200112760201b60201c565b62000732600161012e6362bbb2206200112760201b60201c565b6200074c60016101316362bc06806200112760201b60201c565b62000766600161010d6362bc5ae06200112760201b60201c565b62000780600161010a6362bcaf406200112760201b60201c565b6200079a600161012b6362bd03a06200112760201b60201c565b620007b460016101296362bd58006200112760201b60201c565b620007ce60016101086362bdac606200112760201b60201c565b620007e860016101056362be00c06200112760201b60201c565b62000802600161012a6362be55206200112760201b60201c565b6200081c600161012e6362bea9806200112760201b60201c565b62000836600161010a6362befde06200112760201b60201c565b6200085060016101066362bf52406200112760201b60201c565b6200086a600161012d6362bfa6a06200112760201b60201c565b6200088460016101306362bffb006200112760201b60201c565b6200089e60016101066362c04f606200112760201b60201c565b620008b860016101036362c0a3c06200112760201b60201c565b620008d260016101216362c0f8206200112760201b60201c565b620008ec60016101206362c14c806200112760201b60201c565b6200090660016101006362c1a0e06200112760201b60201c565b6200092060016101066362c1f5406200112760201b60201c565b6200093a60016101266362c249a06200112760201b60201c565b6200095460016101246362c29e006200112760201b60201c565b6200096e60016101056362c2f2606200112760201b60201c565b6200098860016101036362c346c06200112760201b60201c565b620009a260016101206362c39b206200112760201b60201c565b620009bc60016101216362c3ef806200112760201b60201c565b620009d660016101016362c443e06200112760201b60201c565b620009f060016101046362c498406200112760201b60201c565b62000a0a60016101266362c4eca06200112760201b60201c565b62000a2460016101236362c541006200112760201b60201c565b62000a3d600160ff6362c595606200112760201b60201c565b62000a56600160fe6362c5e9c06200112760201b60201c565b62000a7060016101216362c63e206200112760201b60201c565b62000a8a600161011c6362c692806200112760201b60201c565b62000aa460016101006362c6e6e06200112760201b60201c565b62000abd600160f96362c73b406200112760201b60201c565b62000ad760016101236362c78fa06200112760201b60201c565b62000af1600161011f6362c7e4006200112760201b60201c565b62000b0a600160fd6362c838606200112760201b60201c565b62000b2460016101016362c88cc06200112760201b60201c565b62000b3e600161012b6362c8e1206200112760201b60201c565b62000b5860016101266362c935806200112760201b60201c565b62000b71600160fb6362c989e06200112760201b60201c565b62000b8b60016101026362c9de406200112760201b60201c565b62000ba560016101226362ca32a06200112760201b60201c565b62000bbf60016101246362ca87006200112760201b60201c565b62000bd960016101016362cadb606200112760201b60201c565b62000bf360016101056362cb2fc06200112760201b60201c565b62000c0d600161012b6362cb84206200112760201b60201c565b62000c27600161012d6362cbd8806200112760201b60201c565b62000c41600161010a6362cc2ce06200112760201b60201c565b62000c5b600161010b6362cc81406200112760201b60201c565b62000c75600161012d6362ccd5a06200112760201b60201c565b62000c8f600161012c6362cd2a006200112760201b60201c565b62000ca9600161010b6362cd7e606200112760201b60201c565b62000cc3600161010d6362cdd2c06200112760201b60201c565b62000cdd60016101316362ce27206200112760201b60201c565b62000cf760016101346362ce7b806200112760201b60201c565b62000d11600161010f6362cecfe06200112760201b60201c565b62000d2b60016101106362cf24406200112760201b60201c565b62000d4560016101376362cf78a06200112760201b60201c565b62000d5f60016101336362cfcd006200112760201b60201c565b62000d7960016101186362d021606200112760201b60201c565b62000d9360016101156362d075c06200112760201b60201c565b62000dad60016101226362d0ca206200112760201b60201c565b62000dc760016101236362d11e806200112760201b60201c565b62000de160016101176362d172e06200112760201b60201c565b62000dfb60016101196362d1c7406200112760201b60201c565b62000e15600161012d6362d21ba06200112760201b60201c565b62000e2f60016101296362d270006200112760201b60201c565b62000e4960016101186362d2c4606200112760201b60201c565b62000e63600161011c6362d318c06200112760201b60201c565b62000e7d60016101296362d36d206200112760201b60201c565b62000e97600161012b6362d3c1806200112760201b60201c565b62000eb1600161011a6362d415e06200112760201b60201c565b62000ecb60016101176362d46a406200112760201b60201c565b62000ee5600161011f6362d4bea06200112760201b60201c565b62000eff60016101236362d513006200112760201b60201c565b62000f1960016101156362d567606200112760201b60201c565b62000f3360016101106362d5bbc06200112760201b60201c565b62000f4d60016101236362d610206200112760201b60201c565b62000f67600161012e6362d664806200112760201b60201c565b62000f8160016101176362d6b8e06200112760201b60201c565b62000f9b600161010d6362d70d406200112760201b60201c565b62000fb5600161011c6362d761a06200112760201b60201c565b62000fcf60016101156362d7b6006200112760201b60201c565b62000fe960016101066362d80a606200112760201b60201c565b62001003600161010f6362d85ec06200112760201b60201c565b6200101d60016101306362d8b3206200112760201b60201c565b6200103760016101306362d907806200112760201b60201c565b62001051600161011a6362d95be06200112760201b60201c565b6200106b60016101176362d9b0406200112760201b60201c565b6200108560016101296362da04a06200112760201b60201c565b6200109f60016101246362da59006200112760201b60201c565b620010b960016101116362daad606200112760201b60201c565b620010d360016101186362db01c06200112760201b60201c565b620010ed60016101286362db56206200112760201b60201c565b62001107600161012a6362dbaa806200112760201b60201c565b6200112160016101126362dbfee06200112760201b60201c565b62001289565b60006001600085815260200190815260200160002054036200115f5760016000808282546200115791906200122c565b925050819055505b60405180604001604052808281526020018381525060026000858152602001908152602001600020600060016000878152602001908152602001600020548152602001908152602001600020600082015181600001556020820151816001015590505060018060008581526020019081526020016000206000828254620011e791906200122c565b92505081905550505050565b6000819050919050565b7f4e487b7100000000000000000000000000000000000000000000000000000000600052601160045260246000fd5b60006200123982620011f3565b91506200124683620011f3565b9250827fffffffffffffffffffffffffffffffffffffffffffffffffffffffffffffffff038211156200127e576200127d620011fd565b5b828201905092915050565b610b7580620012996000396000f3fe608060405234801561001057600080fd5b506004361061004c5760003560e01c806317ffa15214610051578063245c19f114610081578063377144a6146100b1578063f238f3ec146100e1575b600080fd5b61006b600480360381019061006691906107c7565b610111565b60405161007891906108e1565b60405180910390f35b61009b60048036038101906100969190610903565b61021a565b6040516100a891906108e1565b60405180910390f35b6100cb60048036038101906100c69190610956565b610444565b6040516100d891906109c5565b60405180910390f35b6100fb60048036038101906100f69190610956565b610577565b60405161010891906108e1565b60405180910390f35b60606000600160008481526020019081526020016000205467ffffffffffffffff811115610142576101416109e0565b5b60405190808252806020026020018201604052801561017b57816020015b610168610772565b8152602001906001900390816101605790505b50905060005b600160008581526020019081526020016000205481101561021057600260008581526020019081526020016000206000828152602001908152602001600020604051806040016040529081600082015481526020016001820154815250508282815181106101f2576101f1610a0f565b5b6020026020010181905250808061020890610a6d565b915050610181565b5080915050919050565b60606000600160008681526020019081526020016000205467ffffffffffffffff81111561024b5761024a6109e0565b5b60405190808252806020026020018201604052801561028457816020015b610271610772565b8152602001906001900390816102695790505b5090506000805b60016000888152602001908152602001600020548110156103865785600260008981526020019081526020016000206000838152602001908152602001600020600001541061037357846002600089815260200190815260200160002060008381526020019081526020016000206000015411610386576002600088815260200190815260200160002060008281526020019081526020016000206040518060400160405290816000820154815260200160018201548152505083838151811061035857610357610a0f565b5b60200260200101819052506001826103709190610ab5565b91505b808061037e90610a6d565b91505061028b565b5060008167ffffffffffffffff8111156103a3576103a26109e0565b5b6040519080825280602002602001820160405280156103dc57816020015b6103c9610772565b8152602001906001900390816103c15790505b50905060005b82811015610436578381815181106103fd576103fc610a0f565b5b602002602001015182828151811061041857610417610a0f565b5b6020026020010181905250808061042e90610a6d565b9150506103e2565b508093505050509392505050565b61044c610772565b60006001600085815260200190815260200160002054036104815760016000808282546104799190610ab5565b925050819055505b604051806040016040528042815260200183815250600260008581526020019081526020016000206000600160008781526020019081526020016000205481526020019081526020016000206000820151816000015560208201518160010155905050600180600085815260200190815260200160002060008282546105079190610ab5565b925050819055506002600084815260200190815260200160002060006001806000878152602001908152602001600020546105429190610b0b565b815260200190815260200160002060405180604001604052908160008201548152602001600182015481525050905092915050565b60606000600160008581526020019081526020016000205467ffffffffffffffff8111156105a8576105a76109e0565b5b6040519080825280602002602001820160405280156105e157816020015b6105ce610772565b8152602001906001900390816105c65790505b5090506000805b60016000878152602001908152602001600020548110156106b5578460026000888152602001908152602001600020600083815260200190815260200160002060000154106106a2576002600087815260200190815260200160002060008281526020019081526020016000206040518060400160405290816000820154815260200160018201548152505083838151811061068757610686610a0f565b5b602002602001018190525060018261069f9190610ab5565b91505b80806106ad90610a6d565b9150506105e8565b5060008167ffffffffffffffff8111156106d2576106d16109e0565b5b60405190808252806020026020018201604052801561070b57816020015b6106f8610772565b8152602001906001900390816106f05790505b50905060005b828110156107655783818151811061072c5761072b610a0f565b5b602002602001015182828151811061074757610746610a0f565b5b6020026020010181905250808061075d90610a6d565b915050610711565b5080935050505092915050565b604051806040016040528060008152602001600081525090565b600080fd5b6000819050919050565b6107a481610791565b81146107af57600080fd5b50565b6000813590506107c18161079b565b92915050565b6000602082840312156107dd576107dc61078c565b5b60006107eb848285016107b2565b91505092915050565b600081519050919050565b600082825260208201905092915050565b6000819050602082019050919050565b61082981610791565b82525050565b6040820160008201516108456000850182610820565b5060208201516108586020850182610820565b50505050565b600061086a838361082f565b60408301905092915050565b6000602082019050919050565b600061088e826107f4565b61089881856107ff565b93506108a383610810565b8060005b838110156108d45781516108bb888261085e565b97506108c683610876565b9250506001810190506108a7565b5085935050505092915050565b600060208201905081810360008301526108fb8184610883565b905092915050565b60008060006060848603121561091c5761091b61078c565b5b600061092a868287016107b2565b935050602061093b868287016107b2565b925050604061094c868287016107b2565b9150509250925092565b6000806040838503121561096d5761096c61078c565b5b600061097b858286016107b2565b925050602061098c858286016107b2565b9150509250929050565b6040820160008201516109ac6000850182610820565b5060208201516109bf6020850182610820565b50505050565b60006040820190506109da6000830184610996565b92915050565b7f4e487b7100000000000000000000000000000000000000000000000000000000600052604160045260246000fd5b7f4e487b7100000000000000000000000000000000000000000000000000000000600052603260045260246000fd5b7f4e487b7100000000000000000000000000000000000000000000000000000000600052601160045260246000fd5b6000610a7882610791565b91507fffffffffffffffffffffffffffffffffffffffffffffffffffffffffffffffff8203610aaa57610aa9610a3e565b5b600182019050919050565b6000610ac082610791565b9150610acb83610791565b9250827fffffffffffffffffffffffffffffffffffffffffffffffffffffffffffffffff03821115610b0057610aff610a3e565b5b828201905092915050565b6000610b1682610791565b9150610b2183610791565b925082821015610b3457610b33610a3e565b5b82820390509291505056fea2646970667358221220f00f0434313760de0a6b53eaf54b3c565619153bb7d65568f3f057905be529a164736f6c634300080f0033",
  "immutableReferences": {},
  "source": "// SPDX-License-Identifier: GPL-3.0\n\npragma solidity >=0.7.0 <0.9.0;\n\nimport \"./MeasurementRecord.sol\";\n\n\n/**\n * @title AirTempMeasurement\n * @dev Store & retrieve Air Temperature Measurement\n */\ncontract AirTempMeasurement is MeasurementRecord {\n\n    // Should be kept between 18.3 - 29.4\n\n    constructor() {\n        // W ----------------------------\n        // 12.06 3, 9, 15, 21\n        recordInit(1, 259, 1654977600);\n        recordInit(1, 272, 1654999200);\n        recordInit(1, 271, 1655020800);\n        recordInit(1, 257, 1655042400);\n        // 13.06 3, 9, 15, 21\n        recordInit(1, 265, 1655064000);\n        recordInit(1, 281, 1655085600);\n        recordInit(1, 289, 1655107200);\n        recordInit(1, 262, 1655128800);\n        // 14.06 3, 9, 15, 21\n        recordInit(1, 269, 1655150400);\n        recordInit(1, 289, 1655172000);\n        recordInit(1, 291, 1655193600);\n        recordInit(1, 264, 1655215200);\n        // 15.06 3, 9, 15, 21\n        recordInit(1, 269, 1655236800);\n        recordInit(1, 292, 1655258400);\n        recordInit(1, 297, 1655280000);\n        recordInit(1, 271, 1655301600);\n        // 16.06 3, 9, 15, 21\n        recordInit(1, 272, 1655323200);\n        recordInit(1, 299, 1655344800);\n        recordInit(1, 298, 1655366400);\n        recordInit(1, 269, 1655388000);\n        // 17.06 3, 9, 15, 21\n        recordInit(1, 270, 1655409600);\n        recordInit(1, 296, 1655431200);\n        recordInit(1, 297, 1655452800);\n        recordInit(1, 265, 1655474400);\n        // 18.06 3, 9, 15, 21\n        recordInit(1, 262, 1655496000);\n        recordInit(1, 294, 1655517600);\n        recordInit(1, 296, 1655539200);\n        recordInit(1, 270, 1655560800);\n\n        // W ----------------------------\n        // 19.06 3, 9, 15, 21\n        recordInit(1, 259, 1655582400);\n        recordInit(1, 289, 1655604000);\n        recordInit(1, 292, 1655625600);\n        recordInit(1, 260, 1655647200);\n        // 20.06 3, 9, 15, 21\n        recordInit(1, 272, 1655668800);\n        recordInit(1, 301, 1655690400);\n        recordInit(1, 298, 1655712000);\n        recordInit(1, 268, 1655733600);\n        // 21.06 3, 9, 15, 21\n        recordInit(1, 269, 1655755200);\n        recordInit(1, 291, 1655776800);\n        recordInit(1, 288, 1655798400);\n        recordInit(1, 262, 1655820000);\n        // 22.06 3, 9, 15, 21\n        recordInit(1, 264, 1655841600);\n        recordInit(1, 292, 1655863200);\n        recordInit(1, 297, 1655884800);\n        recordInit(1, 258, 1655906400);\n        // 23.06 3, 9, 15, 21\n        recordInit(1, 260, 1655928000);\n        recordInit(1, 288, 1655949600);\n        recordInit(1, 287, 1655971200);\n        recordInit(1, 262, 1655992800);\n        // 24.06 3, 9, 15, 21\n        recordInit(1, 258, 1656014400);\n        recordInit(1, 289, 1656036000);\n        recordInit(1, 284, 1656057600);\n        recordInit(1, 261, 1656079200);\n        // 25.06 3, 9, 15, 21\n        recordInit(1, 262, 1656100800);\n        recordInit(1, 290, 1656122400);\n        recordInit(1, 288, 1656144000);\n        recordInit(1, 266, 1656165600);\n\n        // W ----------------------------\n        // 26.06 3, 9, 15, 21\n        recordInit(1, 257, 1656187200);\n        recordInit(1, 281, 1656208800);\n        recordInit(1, 284, 1656230400);\n        recordInit(1, 259, 1656252000);\n        // 27.06 3, 9, 15, 21\n        recordInit(1, 260, 1656273600);\n        recordInit(1, 281, 1656295200);\n        recordInit(1, 284, 1656316800);\n        recordInit(1, 258, 1656338400);\n        // 28.06 3, 9, 15, 21\n        recordInit(1, 256, 1656360000);\n        recordInit(1, 291, 1656381600);\n        recordInit(1, 289, 1656403200);\n        recordInit(1, 258, 1656424800);\n        // 29.06 3, 9, 15, 21\n        recordInit(1, 262, 1656446400);\n        recordInit(1, 302, 1656468000);\n        recordInit(1, 305, 1656489600);\n        recordInit(1, 269, 1656511200);\n        // 30.06 3, 9, 15, 21\n        recordInit(1, 266, 1656532800);\n        recordInit(1, 299, 1656554400);\n        recordInit(1, 297, 1656576000);\n        recordInit(1, 264, 1656597600);\n        // 01.07 3, 9, 15, 21\n        recordInit(1, 261, 1656619200);\n        recordInit(1, 298, 1656640800);\n        recordInit(1, 302, 1656662400);\n        recordInit(1, 266, 1656684000);\n        // 02.07 3, 9, 15, 21\n        recordInit(1, 262, 1656705600);\n        recordInit(1, 301, 1656727200);\n        recordInit(1, 304, 1656748800);\n        recordInit(1, 262, 1656770400);\n\n        // W ----------------------------\n        // 03.07 3, 9, 15, 21\n        recordInit(1, 259, 1656792000);\n        recordInit(1, 289, 1656813600);\n        recordInit(1, 288, 1656835200);\n        recordInit(1, 256, 1656856800);\n        // 04.07 3, 9, 15, 21\n        recordInit(1, 262, 1656878400);\n        recordInit(1, 294, 1656900000);\n        recordInit(1, 292, 1656921600);\n        recordInit(1, 261, 1656943200);\n        // 05.07 3, 9, 15, 21\n        recordInit(1, 259, 1656964800);\n        recordInit(1, 288, 1656986400);\n        recordInit(1, 289, 1657008000);\n        recordInit(1, 257, 1657029600);\n        // 06.07 3, 9, 15, 21\n        recordInit(1, 260, 1657051200);\n        recordInit(1, 294, 1657072800);\n        recordInit(1, 291, 1657094400);\n        recordInit(1, 255, 1657116000);\n        // 07.07 3, 9, 15, 21\n        recordInit(1, 254, 1657137600);\n        recordInit(1, 289, 1657159200);\n        recordInit(1, 284, 1657180800);\n        recordInit(1, 256, 1657202400);\n        // 08.07 3, 9, 15, 21\n        recordInit(1, 249, 1657224000);\n        recordInit(1, 291, 1657245600);\n        recordInit(1, 287, 1657267200);\n        recordInit(1, 253, 1657288800);\n        // 09.07 3, 9, 15, 21\n        recordInit(1, 257, 1657310400);\n        recordInit(1, 299, 1657332000);\n        recordInit(1, 294, 1657353600);\n        recordInit(1, 251, 1657375200);\n\n\n        // W ----------------------------\n        // 10.07 3, 9, 15, 21\n        recordInit(1, 258, 1657396800);\n        recordInit(1, 290, 1657418400);\n        recordInit(1, 292, 1657440000);\n        recordInit(1, 257, 1657461600);\n        // 11.07 3, 9, 15, 21\n        recordInit(1, 261, 1657483200);\n        recordInit(1, 299, 1657504800);\n        recordInit(1, 301, 1657526400);\n        recordInit(1, 266, 1657548000);\n        // 12.07 3, 9, 15, 21\n        recordInit(1, 267, 1657569600);\n        recordInit(1, 301, 1657591200);\n        recordInit(1, 300, 1657612800);\n        recordInit(1, 267, 1657634400);\n        // 13.07 3, 9, 15, 21\n        recordInit(1, 269, 1657656000);\n        recordInit(1, 305, 1657677600);\n        recordInit(1, 308, 1657699200);\n        recordInit(1, 271, 1657720800);\n        // 14.07 3, 9, 15, 21\n        recordInit(1, 272, 1657742400);\n        recordInit(1, 311, 1657764000);\n        recordInit(1, 307, 1657785600);\n        recordInit(1, 280, 1657807200);\n        // 15.07 3, 9, 15, 21\n        recordInit(1, 277, 1657828800);\n        recordInit(1, 290, 1657850400);\n        recordInit(1, 291, 1657872000);\n        recordInit(1, 279, 1657893600);\n        // 16.07 3, 9, 15, 21\n        recordInit(1, 281, 1657915200);\n        recordInit(1, 301, 1657936800);\n        recordInit(1, 297, 1657958400);\n        recordInit(1, 280, 1657980000);\n\n        // W ----------------------------\n        // 17.07 3, 9, 15, 21\n        recordInit(1, 284, 1658001600);\n        recordInit(1, 297, 1658023200);\n        recordInit(1, 299, 1658044800);\n        recordInit(1, 282, 1658066400);\n        // 18.07 3, 9, 15, 21\n        recordInit(1, 279, 1658088000);\n        recordInit(1, 287, 1658109600);\n        recordInit(1, 291, 1658131200);\n        recordInit(1, 277, 1658152800);\n        // 19.07 3, 9, 15, 21\n        recordInit(1, 272, 1658174400);\n        recordInit(1, 291, 1658196000);\n        recordInit(1, 302, 1658217600);\n        recordInit(1, 279, 1658239200);\n        // 20.07 3, 9, 15, 21\n        recordInit(1, 269, 1658260800);\n        recordInit(1, 284, 1658282400);\n        recordInit(1, 277, 1658304000);\n        recordInit(1, 262, 1658325600);\n        // 21.07 3, 9, 15, 21\n        recordInit(1, 271, 1658347200);\n        recordInit(1, 304, 1658368800);\n        recordInit(1, 304, 1658390400);\n        recordInit(1, 282, 1658412000);\n        // 22.07 3, 9, 15, 21\n        recordInit(1, 279, 1658433600);\n        recordInit(1, 297, 1658455200);\n        recordInit(1, 292, 1658476800);\n        recordInit(1, 273, 1658498400);\n        // 23.07 3, 9, 15, 21\n        recordInit(1, 280, 1658520000);\n        recordInit(1, 296, 1658541600);\n        recordInit(1, 298, 1658563200);\n        recordInit(1, 274, 1658584800);\n        \n    }\n\n    function recordInit(uint _farm_id, uint _value, uint _timestamp) internal {\n        if(measurementCount[_farm_id] == 0){\n            farmCount += 1;\n        }\n        measurements[_farm_id][measurementCount[_farm_id]] = Measurement(_timestamp, _value);\n        measurementCount[_farm_id] += 1;\n    }\n}",
  "sourcePath": "/Users/pongsit/Documents/iWorks/aquaponic-frontend/contracts/AirTempMeasurement.sol",
  "compiler": {
    "name": "solc",
    "version": "0.8.15+commit.e14f2714.Emscripten.clang"
  },
  "schemaVersion": "3.4.8",
  "updatedAt": "2022-07-24T14:06:18.480Z",
  "devdoc": {
    "details": "Store & retrieve Air Temperature Measurement",
    "kind": "dev",
    "methods": {},
    "title": "AirTempMeasurement",
    "version": 1
  },
  "userdoc": {
    "kind": "user",
    "methods": {},
    "version": 1
  }
}