{
  "contractName": "CertificateRequest",
  "abi": [
    {
      "inputs": [
        {
          "internalType": "uint256",
          "name": "_farm_id",
          "type": "uint256"
        }
      ],
      "name": "requestForCertificate",
      "outputs": [
        {
          "components": [
            {
              "internalType": "uint256",
              "name": "id",
              "type": "uint256"
            },
            {
              "internalType": "enum CertificateRequest.RequestStatus",
              "name": "status",
              "type": "uint8"
            },
            {
              "internalType": "uint256",
              "name": "farm_id",
              "type": "uint256"
            },
            {
              "internalType": "address",
              "name": "agriculturist_id",
              "type": "address"
            },
            {
              "internalType": "uint256",
              "name": "request_datetime",
              "type": "uint256"
            },
            {
              "internalType": "uint256",
              "name": "decision_datetime",
              "type": "uint256"
            },
            {
              "internalType": "address",
              "name": "approver",
              "type": "address"
            }
          ],
          "internalType": "struct CertificateRequest.Request",
          "name": "",
          "type": "tuple"
        }
      ],
      "stateMutability": "nonpayable",
      "type": "function"
    },
    {
      "inputs": [
        {
          "internalType": "uint256",
          "name": "_request_id",
          "type": "uint256"
        }
      ],
      "name": "rejectRequest",
      "outputs": [
        {
          "components": [
            {
              "internalType": "uint256",
              "name": "id",
              "type": "uint256"
            },
            {
              "internalType": "enum CertificateRequest.RequestStatus",
              "name": "status",
              "type": "uint8"
            },
            {
              "internalType": "uint256",
              "name": "farm_id",
              "type": "uint256"
            },
            {
              "internalType": "address",
              "name": "agriculturist_id",
              "type": "address"
            },
            {
              "internalType": "uint256",
              "name": "request_datetime",
              "type": "uint256"
            },
            {
              "internalType": "uint256",
              "name": "decision_datetime",
              "type": "uint256"
            },
            {
              "internalType": "address",
              "name": "approver",
              "type": "address"
            }
          ],
          "internalType": "struct CertificateRequest.Request",
          "name": "",
          "type": "tuple"
        }
      ],
      "stateMutability": "nonpayable",
      "type": "function"
    },
    {
      "inputs": [
        {
          "internalType": "uint256",
          "name": "_request_id",
          "type": "uint256"
        }
      ],
      "name": "approveRequest",
      "outputs": [
        {
          "components": [
            {
              "internalType": "uint256",
              "name": "id",
              "type": "uint256"
            },
            {
              "internalType": "enum CertificateRequest.RequestStatus",
              "name": "status",
              "type": "uint8"
            },
            {
              "internalType": "uint256",
              "name": "farm_id",
              "type": "uint256"
            },
            {
              "internalType": "address",
              "name": "agriculturist_id",
              "type": "address"
            },
            {
              "internalType": "uint256",
              "name": "request_datetime",
              "type": "uint256"
            },
            {
              "internalType": "uint256",
              "name": "decision_datetime",
              "type": "uint256"
            },
            {
              "internalType": "address",
              "name": "approver",
              "type": "address"
            }
          ],
          "internalType": "struct CertificateRequest.Request",
          "name": "",
          "type": "tuple"
        }
      ],
      "stateMutability": "nonpayable",
      "type": "function"
    },
    {
      "inputs": [
        {
          "internalType": "uint256",
          "name": "_request_id",
          "type": "uint256"
        }
      ],
      "name": "getById",
      "outputs": [
        {
          "components": [
            {
              "internalType": "uint256",
              "name": "id",
              "type": "uint256"
            },
            {
              "internalType": "enum CertificateRequest.RequestStatus",
              "name": "status",
              "type": "uint8"
            },
            {
              "internalType": "uint256",
              "name": "farm_id",
              "type": "uint256"
            },
            {
              "internalType": "address",
              "name": "agriculturist_id",
              "type": "address"
            },
            {
              "internalType": "uint256",
              "name": "request_datetime",
              "type": "uint256"
            },
            {
              "internalType": "uint256",
              "name": "decision_datetime",
              "type": "uint256"
            },
            {
              "internalType": "address",
              "name": "approver",
              "type": "address"
            }
          ],
          "internalType": "struct CertificateRequest.Request",
          "name": "",
          "type": "tuple"
        }
      ],
      "stateMutability": "view",
      "type": "function"
    },
    {
      "inputs": [],
      "name": "getAllMyReqests",
      "outputs": [
        {
          "components": [
            {
              "internalType": "uint256",
              "name": "id",
              "type": "uint256"
            },
            {
              "internalType": "enum CertificateRequest.RequestStatus",
              "name": "status",
              "type": "uint8"
            },
            {
              "internalType": "uint256",
              "name": "farm_id",
              "type": "uint256"
            },
            {
              "internalType": "address",
              "name": "agriculturist_id",
              "type": "address"
            },
            {
              "internalType": "uint256",
              "name": "request_datetime",
              "type": "uint256"
            },
            {
              "internalType": "uint256",
              "name": "decision_datetime",
              "type": "uint256"
            },
            {
              "internalType": "address",
              "name": "approver",
              "type": "address"
            }
          ],
          "internalType": "struct CertificateRequest.Request[]",
          "name": "",
          "type": "tuple[]"
        }
      ],
      "stateMutability": "view",
      "type": "function"
    },
    {
      "inputs": [
        {
          "internalType": "uint256",
          "name": "_q_status",
          "type": "uint256"
        }
      ],
      "name": "getAllMyReqestsByStatus",
      "outputs": [
        {
          "components": [
            {
              "internalType": "uint256",
              "name": "id",
              "type": "uint256"
            },
            {
              "internalType": "enum CertificateRequest.RequestStatus",
              "name": "status",
              "type": "uint8"
            },
            {
              "internalType": "uint256",
              "name": "farm_id",
              "type": "uint256"
            },
            {
              "internalType": "address",
              "name": "agriculturist_id",
              "type": "address"
            },
            {
              "internalType": "uint256",
              "name": "request_datetime",
              "type": "uint256"
            },
            {
              "internalType": "uint256",
              "name": "decision_datetime",
              "type": "uint256"
            },
            {
              "internalType": "address",
              "name": "approver",
              "type": "address"
            }
          ],
          "internalType": "struct CertificateRequest.Request[]",
          "name": "",
          "type": "tuple[]"
        }
      ],
      "stateMutability": "view",
      "type": "function"
    }
  ],
  "bytecode": "0x60806040526000805534801561001457600080fd5b50611c04806100246000396000f3fe608060405234801561001057600080fd5b50600436106100625760003560e01c80632d7788db1461006757806338f8685c146100975780637a1f452d146100c7578063d7d1bbdb146100e5578063de7f4ed814610115578063f4f4d23714610145575b600080fd5b610081600480360381019061007c9190611773565b610175565b60405161008e91906118f5565b60405180910390f35b6100b160048036038101906100ac9190611773565b6105c5565b6040516100be9190611a4d565b60405180910390f35b6100cf610989565b6040516100dc9190611a4d565b60405180910390f35b6100ff60048036038101906100fa9190611773565b610c0f565b60405161010c91906118f5565b60405180910390f35b61012f600480360381019061012a9190611773565b611060565b60405161013c91906118f5565b60405180910390f35b61015f600480360381019061015a9190611773565b611581565b60405161016c91906118f5565b60405180910390f35b61017d6116bd565b6000429050600180600085815260200190815260200160002060010160006101000a81548160ff021916908360028111156101bb576101ba6117af565b5b0217905550806001600085815260200190815260200160002060050181905550336001600085815260200190815260200160002060060160006101000a81548173ffffffffffffffffffffffffffffffffffffffff021916908373ffffffffffffffffffffffffffffffffffffffff16021790555060006001600085815260200190815260200160002060030160009054906101000a900473ffffffffffffffffffffffffffffffffffffffff16905060005b600260008373ffffffffffffffffffffffffffffffffffffffff1673ffffffffffffffffffffffffffffffffffffffff1681526020019081526020016000205481101561048d5784600360008473ffffffffffffffffffffffffffffffffffffffff1673ffffffffffffffffffffffffffffffffffffffff1681526020019081526020016000206000838152602001908152602001600020600001540361047a576001600360008473ffffffffffffffffffffffffffffffffffffffff1673ffffffffffffffffffffffffffffffffffffffff168152602001908152602001600020600083815260200190815260200160002060010160006101000a81548160ff02191690836002811115610386576103856117af565b5b021790555082600360008473ffffffffffffffffffffffffffffffffffffffff1673ffffffffffffffffffffffffffffffffffffffff16815260200190815260200160002060008381526020019081526020016000206005018190555033600360008473ffffffffffffffffffffffffffffffffffffffff1673ffffffffffffffffffffffffffffffffffffffff168152602001908152602001600020600083815260200190815260200160002060060160006101000a81548173ffffffffffffffffffffffffffffffffffffffff021916908373ffffffffffffffffffffffffffffffffffffffff16021790555061048d565b808061048590611a9e565b91505061026e565b5060016000805481526020019081526020016000206040518060e0016040529081600082015481526020016001820160009054906101000a900460ff1660028111156104dc576104db6117af565b5b60028111156104ee576104ed6117af565b5b8152602001600282015481526020016003820160009054906101000a900473ffffffffffffffffffffffffffffffffffffffff1673ffffffffffffffffffffffffffffffffffffffff1673ffffffffffffffffffffffffffffffffffffffff16815260200160048201548152602001600582015481526020016006820160009054906101000a900473ffffffffffffffffffffffffffffffffffffffff1673ffffffffffffffffffffffffffffffffffffffff1673ffffffffffffffffffffffffffffffffffffffff168152505092505050919050565b60606000600260003373ffffffffffffffffffffffffffffffffffffffff1673ffffffffffffffffffffffffffffffffffffffff1681526020019081526020016000205467ffffffffffffffff81111561062257610621611ae6565b5b60405190808252806020026020018201604052801561065b57816020015b6106486116bd565b8152602001906001900390816106405790505b5090506000805b600260003373ffffffffffffffffffffffffffffffffffffffff1673ffffffffffffffffffffffffffffffffffffffff168152602001908152602001600020548110156108cd5784600360003373ffffffffffffffffffffffffffffffffffffffff1673ffffffffffffffffffffffffffffffffffffffff168152602001908152602001600020600083815260200190815260200160002060010160009054906101000a900460ff16600281111561071d5761071c6117af565b5b036108ba57600360003373ffffffffffffffffffffffffffffffffffffffff1673ffffffffffffffffffffffffffffffffffffffff16815260200190815260200160002060008281526020019081526020016000206040518060e0016040529081600082015481526020016001820160009054906101000a900460ff1660028111156107ac576107ab6117af565b5b60028111156107be576107bd6117af565b5b8152602001600282015481526020016003820160009054906101000a900473ffffffffffffffffffffffffffffffffffffffff1673ffffffffffffffffffffffffffffffffffffffff1673ffffffffffffffffffffffffffffffffffffffff16815260200160048201548152602001600582015481526020016006820160009054906101000a900473ffffffffffffffffffffffffffffffffffffffff1673ffffffffffffffffffffffffffffffffffffffff1673ffffffffffffffffffffffffffffffffffffffff168152505083838151811061089f5761089e611b15565b5b60200260200101819052506001826108b79190611b44565b91505b80806108c590611a9e565b915050610662565b5060008167ffffffffffffffff8111156108ea576108e9611ae6565b5b60405190808252806020026020018201604052801561092357816020015b6109106116bd565b8152602001906001900390816109085790505b50905060005b8281101561097d5783818151811061094457610943611b15565b5b602002602001015182828151811061095f5761095e611b15565b5b6020026020010181905250808061097590611a9e565b915050610929565b50809350505050919050565b60606000600260003373ffffffffffffffffffffffffffffffffffffffff1673ffffffffffffffffffffffffffffffffffffffff1681526020019081526020016000205467ffffffffffffffff8111156109e6576109e5611ae6565b5b604051908082528060200260200182016040528015610a1f57816020015b610a0c6116bd565b815260200190600190039081610a045790505b50905060005b600260003373ffffffffffffffffffffffffffffffffffffffff1673ffffffffffffffffffffffffffffffffffffffff16815260200190815260200160002054811015610c0757600360003373ffffffffffffffffffffffffffffffffffffffff1673ffffffffffffffffffffffffffffffffffffffff16815260200190815260200160002060008281526020019081526020016000206040518060e0016040529081600082015481526020016001820160009054906101000a900460ff166002811115610af657610af56117af565b5b6002811115610b0857610b076117af565b5b8152602001600282015481526020016003820160009054906101000a900473ffffffffffffffffffffffffffffffffffffffff1673ffffffffffffffffffffffffffffffffffffffff1673ffffffffffffffffffffffffffffffffffffffff16815260200160048201548152602001600582015481526020016006820160009054906101000a900473ffffffffffffffffffffffffffffffffffffffff1673ffffffffffffffffffffffffffffffffffffffff1673ffffffffffffffffffffffffffffffffffffffff1681525050828281518110610be957610be8611b15565b5b60200260200101819052508080610bff90611a9e565b915050610a25565b508091505090565b610c176116bd565b600042905060026001600085815260200190815260200160002060010160006101000a81548160ff02191690836002811115610c5657610c556117af565b5b0217905550806001600085815260200190815260200160002060050181905550336001600085815260200190815260200160002060060160006101000a81548173ffffffffffffffffffffffffffffffffffffffff021916908373ffffffffffffffffffffffffffffffffffffffff16021790555060006001600085815260200190815260200160002060030160009054906101000a900473ffffffffffffffffffffffffffffffffffffffff16905060005b600260008373ffffffffffffffffffffffffffffffffffffffff1673ffffffffffffffffffffffffffffffffffffffff16815260200190815260200160002054811015610f285784600360008473ffffffffffffffffffffffffffffffffffffffff1673ffffffffffffffffffffffffffffffffffffffff16815260200190815260200160002060008381526020019081526020016000206000015403610f15576002600360008473ffffffffffffffffffffffffffffffffffffffff1673ffffffffffffffffffffffffffffffffffffffff168152602001908152602001600020600083815260200190815260200160002060010160006101000a81548160ff02191690836002811115610e2157610e206117af565b5b021790555082600360008473ffffffffffffffffffffffffffffffffffffffff1673ffffffffffffffffffffffffffffffffffffffff16815260200190815260200160002060008381526020019081526020016000206005018190555033600360008473ffffffffffffffffffffffffffffffffffffffff1673ffffffffffffffffffffffffffffffffffffffff168152602001908152602001600020600083815260200190815260200160002060060160006101000a81548173ffffffffffffffffffffffffffffffffffffffff021916908373ffffffffffffffffffffffffffffffffffffffff160217905550610f28565b8080610f2090611a9e565b915050610d09565b5060016000805481526020019081526020016000206040518060e0016040529081600082015481526020016001820160009054906101000a900460ff166002811115610f7757610f766117af565b5b6002811115610f8957610f886117af565b5b8152602001600282015481526020016003820160009054906101000a900473ffffffffffffffffffffffffffffffffffffffff1673ffffffffffffffffffffffffffffffffffffffff1673ffffffffffffffffffffffffffffffffffffffff16815260200160048201548152602001600582015481526020016006820160009054906101000a900473ffffffffffffffffffffffffffffffffffffffff1673ffffffffffffffffffffffffffffffffffffffff1673ffffffffffffffffffffffffffffffffffffffff168152505092505050919050565b6110686116bd565b60004290506040518060e00160405280600054815260200160006002811115611094576110936117af565b5b81526020018481526020013373ffffffffffffffffffffffffffffffffffffffff16815260200182815260200160008152602001600073ffffffffffffffffffffffffffffffffffffffff1681525060016000805481526020019081526020016000206000820151816000015560208201518160010160006101000a81548160ff0219169083600281111561112c5761112b6117af565b5b02179055506040820151816002015560608201518160030160006101000a81548173ffffffffffffffffffffffffffffffffffffffff021916908373ffffffffffffffffffffffffffffffffffffffff1602179055506080820151816004015560a0820151816005015560c08201518160060160006101000a81548173ffffffffffffffffffffffffffffffffffffffff021916908373ffffffffffffffffffffffffffffffffffffffff1602179055509050506040518060e00160405280600054815260200160006002811115611207576112066117af565b5b81526020018481526020013373ffffffffffffffffffffffffffffffffffffffff16815260200182815260200160008152602001600073ffffffffffffffffffffffffffffffffffffffff16815250600360003373ffffffffffffffffffffffffffffffffffffffff1673ffffffffffffffffffffffffffffffffffffffff1681526020019081526020016000206000600260003373ffffffffffffffffffffffffffffffffffffffff1673ffffffffffffffffffffffffffffffffffffffff1681526020019081526020016000205481526020019081526020016000206000820151816000015560208201518160010160006101000a81548160ff0219169083600281111561131a576113196117af565b5b02179055506040820151816002015560608201518160030160006101000a81548173ffffffffffffffffffffffffffffffffffffffff021916908373ffffffffffffffffffffffffffffffffffffffff1602179055506080820151816004015560a0820151816005015560c08201518160060160006101000a81548173ffffffffffffffffffffffffffffffffffffffff021916908373ffffffffffffffffffffffffffffffffffffffff16021790555090505060016000808282546113e09190611b44565b925050819055506001600260003373ffffffffffffffffffffffffffffffffffffffff1673ffffffffffffffffffffffffffffffffffffffff16815260200190815260200160002060008282546114379190611b44565b925050819055506001600060016000546114519190611b9a565b81526020019081526020016000206040518060e0016040529081600082015481526020016001820160009054906101000a900460ff166002811115611499576114986117af565b5b60028111156114ab576114aa6117af565b5b8152602001600282015481526020016003820160009054906101000a900473ffffffffffffffffffffffffffffffffffffffff1673ffffffffffffffffffffffffffffffffffffffff1673ffffffffffffffffffffffffffffffffffffffff16815260200160048201548152602001600582015481526020016006820160009054906101000a900473ffffffffffffffffffffffffffffffffffffffff1673ffffffffffffffffffffffffffffffffffffffff1673ffffffffffffffffffffffffffffffffffffffff1681525050915050919050565b6115896116bd565b600160008381526020019081526020016000206040518060e0016040529081600082015481526020016001820160009054906101000a900460ff1660028111156115d6576115d56117af565b5b60028111156115e8576115e76117af565b5b8152602001600282015481526020016003820160009054906101000a900473ffffffffffffffffffffffffffffffffffffffff1673ffffffffffffffffffffffffffffffffffffffff1673ffffffffffffffffffffffffffffffffffffffff16815260200160048201548152602001600582015481526020016006820160009054906101000a900473ffffffffffffffffffffffffffffffffffffffff1673ffffffffffffffffffffffffffffffffffffffff1673ffffffffffffffffffffffffffffffffffffffff16815250509050919050565b6040518060e0016040528060008152602001600060028111156116e3576116e26117af565b5b815260200160008152602001600073ffffffffffffffffffffffffffffffffffffffff1681526020016000815260200160008152602001600073ffffffffffffffffffffffffffffffffffffffff1681525090565b600080fd5b6000819050919050565b6117508161173d565b811461175b57600080fd5b50565b60008135905061176d81611747565b92915050565b60006020828403121561178957611788611738565b5b60006117978482850161175e565b91505092915050565b6117a98161173d565b82525050565b7f4e487b7100000000000000000000000000000000000000000000000000000000600052602160045260246000fd5b600381106117ef576117ee6117af565b5b50565b6000819050611800826117de565b919050565b6000611810826117f2565b9050919050565b61182081611805565b82525050565b600073ffffffffffffffffffffffffffffffffffffffff82169050919050565b600061185182611826565b9050919050565b61186181611846565b82525050565b60e08201600082015161187d60008501826117a0565b5060208201516118906020850182611817565b5060408201516118a360408501826117a0565b5060608201516118b66060850182611858565b5060808201516118c960808501826117a0565b5060a08201516118dc60a08501826117a0565b5060c08201516118ef60c0850182611858565b50505050565b600060e08201905061190a6000830184611867565b92915050565b600081519050919050565b600082825260208201905092915050565b6000819050602082019050919050565b60e08201600082015161195260008501826117a0565b5060208201516119656020850182611817565b50604082015161197860408501826117a0565b50606082015161198b6060850182611858565b50608082015161199e60808501826117a0565b5060a08201516119b160a08501826117a0565b5060c08201516119c460c0850182611858565b50505050565b60006119d6838361193c565b60e08301905092915050565b6000602082019050919050565b60006119fa82611910565b611a04818561191b565b9350611a0f8361192c565b8060005b83811015611a40578151611a2788826119ca565b9750611a32836119e2565b925050600181019050611a13565b5085935050505092915050565b60006020820190508181036000830152611a6781846119ef565b905092915050565b7f4e487b7100000000000000000000000000000000000000000000000000000000600052601160045260246000fd5b6000611aa98261173d565b91507fffffffffffffffffffffffffffffffffffffffffffffffffffffffffffffffff8203611adb57611ada611a6f565b5b600182019050919050565b7f4e487b7100000000000000000000000000000000000000000000000000000000600052604160045260246000fd5b7f4e487b7100000000000000000000000000000000000000000000000000000000600052603260045260246000fd5b6000611b4f8261173d565b9150611b5a8361173d565b9250827fffffffffffffffffffffffffffffffffffffffffffffffffffffffffffffffff03821115611b8f57611b8e611a6f565b5b828201905092915050565b6000611ba58261173d565b9150611bb08361173d565b925082821015611bc357611bc2611a6f565b5b82820390509291505056fea26469706673582212201bf06716174fd8c05d5074825b15b9d18a472d68d3235699a659429699a51d4b64736f6c634300080f0033",
  "immutableReferences": {},
  "source": "// SPDX-License-Identifier: GPL-3.0\n\npragma solidity >=0.7.0 <0.9.0;\n\n\n/**\n * @title Certificate Request\n * @dev Store & retrieve Certificate Request Information\n */\ncontract CertificateRequest {\n    \n    enum RequestStatus { WAITAPPROVE, REJECTED, APPROVED }\n\n    struct Request {\n        uint id;\n        RequestStatus status;\n        uint farm_id;\n        address agriculturist_id;\n        uint request_datetime;\n        uint decision_datetime;\n        address approver;\n    }\n\n    uint256 requestCount = 0;\n    mapping(uint => Request) requests;\n\n    mapping(address => uint) requestByAgriculturistCount;\n    mapping(address => mapping(uint => Request)) requestByAgriculturistMapping;\n\n\n    function requestForCertificate(uint _farm_id) public returns(Request memory){\n\n        uint currentTime = block.timestamp;\n\n        requests[requestCount] = Request(requestCount, RequestStatus.WAITAPPROVE ,_farm_id, msg.sender, currentTime, 0, address(0));\n        requestByAgriculturistMapping[msg.sender][requestByAgriculturistCount[msg.sender]] = Request(requestCount, RequestStatus.WAITAPPROVE ,_farm_id, msg.sender, currentTime, 0, address(0));\n\n        requestCount += 1;\n        requestByAgriculturistCount[msg.sender] += 1;\n\n        return requests[requestCount-1];\n    }\n\n    function rejectRequest(uint _request_id) public returns(Request memory){\n        uint currentTime = block.timestamp;\n\n        requests[_request_id].status = RequestStatus.REJECTED;\n        requests[_request_id].decision_datetime = currentTime;\n        requests[_request_id].approver = msg.sender;\n\n        address agriculturistId = requests[_request_id].agriculturist_id;\n\n        for(uint i=0; i<requestByAgriculturistCount[agriculturistId]; i++){\n            if(requestByAgriculturistMapping[agriculturistId][i].id == _request_id){\n                requestByAgriculturistMapping[agriculturistId][i].status = RequestStatus.REJECTED;\n                requestByAgriculturistMapping[agriculturistId][i].decision_datetime = currentTime;\n                requestByAgriculturistMapping[agriculturistId][i].approver = msg.sender;\n                break;\n            }\n        }\n\n        return requests[requestCount];\n    }\n\n    function approveRequest(uint _request_id) public returns(Request memory){\n        uint currentTime = block.timestamp;\n\n        requests[_request_id].status = RequestStatus.APPROVED;\n        requests[_request_id].decision_datetime = currentTime;\n        requests[_request_id].approver = msg.sender;\n\n        address agriculturistId = requests[_request_id].agriculturist_id;\n\n        for(uint i=0; i<requestByAgriculturistCount[agriculturistId]; i++){\n            if(requestByAgriculturistMapping[agriculturistId][i].id == _request_id){\n                requestByAgriculturistMapping[agriculturistId][i].status = RequestStatus.APPROVED;\n                requestByAgriculturistMapping[agriculturistId][i].decision_datetime = currentTime;\n                requestByAgriculturistMapping[agriculturistId][i].approver = msg.sender;\n                break;\n            }\n        }\n\n        return requests[requestCount];\n    }\n\n    function getById(uint _request_id) public view returns(Request memory){\n        return requests[_request_id];\n    }\n\n    function getAllMyReqests() public view returns(Request[] memory){\n        Request[] memory ret = new Request[](requestByAgriculturistCount[msg.sender]);\n\n        for(uint i=0; i<requestByAgriculturistCount[msg.sender]; i++){\n            ret[i] = requestByAgriculturistMapping[msg.sender][i];\n        }\n\n        return ret;\n    }\n\n    function getAllMyReqestsByStatus(uint _q_status) public view returns(Request[] memory){\n        Request[] memory retBuffer = new Request[](requestByAgriculturistCount[msg.sender]);\n\n        uint retBufferCount = 0;\n        for(uint i=0; i<requestByAgriculturistCount[msg.sender]; i++){\n            if(uint(requestByAgriculturistMapping[msg.sender][i].status) == _q_status){\n                retBuffer[retBufferCount] = requestByAgriculturistMapping[msg.sender][i];\n                retBufferCount += 1;\n            }\n        }\n\n        Request[] memory ret = new Request[](retBufferCount);\n\n        for(uint i=0; i<retBufferCount; i++){\n            ret[i] = retBuffer[i];\n        }\n\n        return ret;\n    }   \n}",
  "sourcePath": "/Users/pongsit/Documents/iWorks/aquaponic-frontend/contracts/CertificateRequest.sol",
  "compiler": {
    "name": "solc",
    "version": "0.8.15+commit.e14f2714.Emscripten.clang"
  },
  "schemaVersion": "3.4.8",
  "updatedAt": "2022-07-24T14:06:18.498Z",
  "devdoc": {
    "details": "Store & retrieve Certificate Request Information",
    "kind": "dev",
    "methods": {},
    "title": "Certificate Request",
    "version": 1
  },
  "userdoc": {
    "kind": "user",
    "methods": {},
    "version": 1
  }
}