{
  "contractName": "Certificate",
  "abi": [
    {
      "inputs": [
        {
          "internalType": "uint256",
          "name": "_referenced_request_id",
          "type": "uint256"
        },
        {
          "internalType": "uint256",
          "name": "_farm_id",
          "type": "uint256"
        },
        {
          "internalType": "address",
          "name": "_agriculturist_id",
          "type": "address"
        }
      ],
      "name": "issueNewCertificate",
      "outputs": [
        {
          "internalType": "uint256",
          "name": "",
          "type": "uint256"
        },
        {
          "internalType": "enum Certificate.CertificateUnitStatus",
          "name": "",
          "type": "uint8"
        },
        {
          "internalType": "uint256",
          "name": "",
          "type": "uint256"
        },
        {
          "internalType": "uint256",
          "name": "",
          "type": "uint256"
        },
        {
          "internalType": "address",
          "name": "",
          "type": "address"
        },
        {
          "internalType": "uint256",
          "name": "",
          "type": "uint256"
        },
        {
          "internalType": "address",
          "name": "",
          "type": "address"
        }
      ],
      "stateMutability": "nonpayable",
      "type": "function"
    },
    {
      "inputs": [
        {
          "internalType": "uint256",
          "name": "_id",
          "type": "uint256"
        }
      ],
      "name": "getById",
      "outputs": [
        {
          "components": [
            {
              "internalType": "uint256",
              "name": "_id",
              "type": "uint256"
            },
            {
              "internalType": "enum Certificate.CertificateUnitStatus",
              "name": "_status",
              "type": "uint8"
            },
            {
              "internalType": "uint256",
              "name": "_referenced_request_id",
              "type": "uint256"
            },
            {
              "internalType": "uint256",
              "name": "_farm_id",
              "type": "uint256"
            },
            {
              "internalType": "address",
              "name": "_agriculturist_id",
              "type": "address"
            },
            {
              "internalType": "uint256",
              "name": "_issue_datetime",
              "type": "uint256"
            },
            {
              "internalType": "address",
              "name": "_issuer",
              "type": "address"
            }
          ],
          "internalType": "struct Certificate.CertificateUnit",
          "name": "",
          "type": "tuple"
        }
      ],
      "stateMutability": "view",
      "type": "function"
    },
    {
      "inputs": [],
      "name": "getAllMyCertificate",
      "outputs": [
        {
          "components": [
            {
              "internalType": "uint256",
              "name": "_id",
              "type": "uint256"
            },
            {
              "internalType": "enum Certificate.CertificateUnitStatus",
              "name": "_status",
              "type": "uint8"
            },
            {
              "internalType": "uint256",
              "name": "_referenced_request_id",
              "type": "uint256"
            },
            {
              "internalType": "uint256",
              "name": "_farm_id",
              "type": "uint256"
            },
            {
              "internalType": "address",
              "name": "_agriculturist_id",
              "type": "address"
            },
            {
              "internalType": "uint256",
              "name": "_issue_datetime",
              "type": "uint256"
            },
            {
              "internalType": "address",
              "name": "_issuer",
              "type": "address"
            }
          ],
          "internalType": "struct Certificate.CertificateUnit[]",
          "name": "",
          "type": "tuple[]"
        }
      ],
      "stateMutability": "view",
      "type": "function"
    }
  ],
  "bytecode": "0x60806040526000805534801561001457600080fd5b506111cf806100246000396000f3fe608060405234801561001057600080fd5b50600436106100415760003560e01c8063c1756c4514610046578063d8341e071461007c578063f4f4d2371461009a575b600080fd5b610060600480360381019061005b9190610c81565b6100ca565b6040516100739796959493929190610d69565b60405180910390f35b6100846107ab565b6040516100919190610f42565b60405180910390f35b6100b460048036038101906100af9190610f64565b610a31565b6040516100c1919061101f565b60405180910390f35b6000806000806000806000804290506040518060e00160405280600054815260200160006001811115610100576100ff610ce3565b5b81526020018c81526020018b81526020018a73ffffffffffffffffffffffffffffffffffffffff1681526020018281526020013373ffffffffffffffffffffffffffffffffffffffff1681525060016000805481526020019081526020016000206000820151816000015560208201518160010160006101000a81548160ff0219169083600181111561019657610195610ce3565b5b0217905550604082015181600201556060820151816003015560808201518160040160006101000a81548173ffffffffffffffffffffffffffffffffffffffff021916908373ffffffffffffffffffffffffffffffffffffffff16021790555060a0820151816005015560c08201518160060160006101000a81548173ffffffffffffffffffffffffffffffffffffffff021916908373ffffffffffffffffffffffffffffffffffffffff1602179055509050506001600080548152602001908152602001600020600560008b73ffffffffffffffffffffffffffffffffffffffff1673ffffffffffffffffffffffffffffffffffffffff1681526020019081526020016000206000600460008d73ffffffffffffffffffffffffffffffffffffffff1673ffffffffffffffffffffffffffffffffffffffff168152602001908152602001600020548152602001908152602001600020600082015481600001556001820160009054906101000a900460ff168160010160006101000a81548160ff0219169083600181111561032f5761032e610ce3565b5b021790555060028201548160020155600382015481600301556004820160009054906101000a900473ffffffffffffffffffffffffffffffffffffffff168160040160006101000a81548173ffffffffffffffffffffffffffffffffffffffff021916908373ffffffffffffffffffffffffffffffffffffffff160217905550600582015481600501556006820160009054906101000a900473ffffffffffffffffffffffffffffffffffffffff168160060160006101000a81548173ffffffffffffffffffffffffffffffffffffffff021916908373ffffffffffffffffffffffffffffffffffffffff1602179055509050506001600080548152602001908152602001600020600360008c81526020019081526020016000206000600260008e8152602001908152602001600020548152602001908152602001600020600082015481600001556001820160009054906101000a900460ff168160010160006101000a81548160ff021916908360018111156104b0576104af610ce3565b5b021790555060028201548160020155600382015481600301556004820160009054906101000a900473ffffffffffffffffffffffffffffffffffffffff168160040160006101000a81548173ffffffffffffffffffffffffffffffffffffffff021916908373ffffffffffffffffffffffffffffffffffffffff160217905550600582015481600501556006820160009054906101000a900473ffffffffffffffffffffffffffffffffffffffff168160060160006101000a81548173ffffffffffffffffffffffffffffffffffffffff021916908373ffffffffffffffffffffffffffffffffffffffff16021790555090505060016000808282546105b69190611069565b925050819055506001600460008b73ffffffffffffffffffffffffffffffffffffffff1673ffffffffffffffffffffffffffffffffffffffff168152602001908152602001600020600082825461060d9190611069565b925050819055506001600260008c815260200190815260200160002060008282546106389190611069565b9250508190555060016000600160005461065291906110bf565b81526020019081526020016000206000015460016000600160005461067791906110bf565b815260200190815260200160002060010160009054906101000a900460ff166001600060016000546106a991906110bf565b8152602001908152602001600020600201546001600060016000546106ce91906110bf565b8152602001908152602001600020600301546001600060016000546106f391906110bf565b815260200190815260200160002060040160009054906101000a900473ffffffffffffffffffffffffffffffffffffffff1660016000600160005461073891906110bf565b81526020019081526020016000206005015460016000600160005461075d91906110bf565b815260200190815260200160002060060160009054906101000a900473ffffffffffffffffffffffffffffffffffffffff169750975097509750975097509750509397509397509397909450565b60606000600460003373ffffffffffffffffffffffffffffffffffffffff1673ffffffffffffffffffffffffffffffffffffffff1681526020019081526020016000205467ffffffffffffffff811115610808576108076110f3565b5b60405190808252806020026020018201604052801561084157816020015b61082e610b6d565b8152602001906001900390816108265790505b50905060005b600460003373ffffffffffffffffffffffffffffffffffffffff1673ffffffffffffffffffffffffffffffffffffffff16815260200190815260200160002054811015610a2957600560003373ffffffffffffffffffffffffffffffffffffffff1673ffffffffffffffffffffffffffffffffffffffff16815260200190815260200160002060008281526020019081526020016000206040518060e0016040529081600082015481526020016001820160009054906101000a900460ff16600181111561091857610917610ce3565b5b600181111561092a57610929610ce3565b5b815260200160028201548152602001600382015481526020016004820160009054906101000a900473ffffffffffffffffffffffffffffffffffffffff1673ffffffffffffffffffffffffffffffffffffffff1673ffffffffffffffffffffffffffffffffffffffff168152602001600582015481526020016006820160009054906101000a900473ffffffffffffffffffffffffffffffffffffffff1673ffffffffffffffffffffffffffffffffffffffff1673ffffffffffffffffffffffffffffffffffffffff1681525050828281518110610a0b57610a0a611122565b5b60200260200101819052508080610a2190611151565b915050610847565b508091505090565b610a39610b6d565b600160008381526020019081526020016000206040518060e0016040529081600082015481526020016001820160009054906101000a900460ff166001811115610a8657610a85610ce3565b5b6001811115610a9857610a97610ce3565b5b815260200160028201548152602001600382015481526020016004820160009054906101000a900473ffffffffffffffffffffffffffffffffffffffff1673ffffffffffffffffffffffffffffffffffffffff1673ffffffffffffffffffffffffffffffffffffffff168152602001600582015481526020016006820160009054906101000a900473ffffffffffffffffffffffffffffffffffffffff1673ffffffffffffffffffffffffffffffffffffffff1673ffffffffffffffffffffffffffffffffffffffff16815250509050919050565b6040518060e001604052806000815260200160006001811115610b9357610b92610ce3565b5b81526020016000815260200160008152602001600073ffffffffffffffffffffffffffffffffffffffff16815260200160008152602001600073ffffffffffffffffffffffffffffffffffffffff1681525090565b600080fd5b6000819050919050565b610c0081610bed565b8114610c0b57600080fd5b50565b600081359050610c1d81610bf7565b92915050565b600073ffffffffffffffffffffffffffffffffffffffff82169050919050565b6000610c4e82610c23565b9050919050565b610c5e81610c43565b8114610c6957600080fd5b50565b600081359050610c7b81610c55565b92915050565b600080600060608486031215610c9a57610c99610be8565b5b6000610ca886828701610c0e565b9350506020610cb986828701610c0e565b9250506040610cca86828701610c6c565b9150509250925092565b610cdd81610bed565b82525050565b7f4e487b7100000000000000000000000000000000000000000000000000000000600052602160045260246000fd5b60028110610d2357610d22610ce3565b5b50565b6000819050610d3482610d12565b919050565b6000610d4482610d26565b9050919050565b610d5481610d39565b82525050565b610d6381610c43565b82525050565b600060e082019050610d7e600083018a610cd4565b610d8b6020830189610d4b565b610d986040830188610cd4565b610da56060830187610cd4565b610db26080830186610d5a565b610dbf60a0830185610cd4565b610dcc60c0830184610d5a565b98975050505050505050565b600081519050919050565b600082825260208201905092915050565b6000819050602082019050919050565b610e0d81610bed565b82525050565b610e1c81610d39565b82525050565b610e2b81610c43565b82525050565b60e082016000820151610e476000850182610e04565b506020820151610e5a6020850182610e13565b506040820151610e6d6040850182610e04565b506060820151610e806060850182610e04565b506080820151610e936080850182610e22565b5060a0820151610ea660a0850182610e04565b5060c0820151610eb960c0850182610e22565b50505050565b6000610ecb8383610e31565b60e08301905092915050565b6000602082019050919050565b6000610eef82610dd8565b610ef98185610de3565b9350610f0483610df4565b8060005b83811015610f35578151610f1c8882610ebf565b9750610f2783610ed7565b925050600181019050610f08565b5085935050505092915050565b60006020820190508181036000830152610f5c8184610ee4565b905092915050565b600060208284031215610f7a57610f79610be8565b5b6000610f8884828501610c0e565b91505092915050565b60e082016000820151610fa76000850182610e04565b506020820151610fba6020850182610e13565b506040820151610fcd6040850182610e04565b506060820151610fe06060850182610e04565b506080820151610ff36080850182610e22565b5060a082015161100660a0850182610e04565b5060c082015161101960c0850182610e22565b50505050565b600060e0820190506110346000830184610f91565b92915050565b7f4e487b7100000000000000000000000000000000000000000000000000000000600052601160045260246000fd5b600061107482610bed565b915061107f83610bed565b9250827fffffffffffffffffffffffffffffffffffffffffffffffffffffffffffffffff038211156110b4576110b361103a565b5b828201905092915050565b60006110ca82610bed565b91506110d583610bed565b9250828210156110e8576110e761103a565b5b828203905092915050565b7f4e487b7100000000000000000000000000000000000000000000000000000000600052604160045260246000fd5b7f4e487b7100000000000000000000000000000000000000000000000000000000600052603260045260246000fd5b600061115c82610bed565b91507fffffffffffffffffffffffffffffffffffffffffffffffffffffffffffffffff820361118e5761118d61103a565b5b60018201905091905056fea2646970667358221220e4c853783fc03da8a7b56eb994a873d113ae822e88dc4710c91223535e54c4f564736f6c634300080f0033",
  "immutableReferences": {},
  "source": "// SPDX-License-Identifier: GPL-3.0\n\npragma solidity >=0.7.0 <0.9.0;\n\n\n/**\n * @title Certificate\n * @dev Store & retrieve Certificate Information\n */\ncontract Certificate {\n\n    enum CertificateUnitStatus { ACTIVE, INACTIVE }\n\n    struct CertificateUnit {\n        uint _id;\n        CertificateUnitStatus _status;\n        uint _referenced_request_id;\n        uint _farm_id;\n        address _agriculturist_id;\n        uint _issue_datetime;\n        address _issuer;\n    }\n\n    uint256 certificateCount = 0;\n    mapping(uint => CertificateUnit) certificates;\n\n    mapping(uint => uint) certificateByFarmIdCount;\n    mapping(uint => mapping(uint => CertificateUnit)) certificateByFarmIdMapping;\n\n    mapping(address => uint) certificateByAgriculturistCount;\n    mapping(address => mapping(uint => CertificateUnit)) certificateByAgriculturistMapping;\n\n\n\n    function issueNewCertificate(uint _referenced_request_id, uint _farm_id, address _agriculturist_id) \n        public \n        returns(uint, CertificateUnitStatus, uint, uint, address, uint, address) \n    {\n\n        uint currentTime = block.timestamp;\n\n        certificates[certificateCount] = \n            CertificateUnit(certificateCount, CertificateUnitStatus.ACTIVE, _referenced_request_id, _farm_id, _agriculturist_id, currentTime, msg.sender);\n\n        certificateByAgriculturistMapping[_agriculturist_id][certificateByAgriculturistCount[_agriculturist_id]] = certificates[certificateCount];\n        certificateByFarmIdMapping[_farm_id][certificateByFarmIdCount[_farm_id]] = certificates[certificateCount];\n\n        certificateCount += 1;\n        certificateByAgriculturistCount[_agriculturist_id] += 1;\n        certificateByFarmIdCount[_farm_id] += 1;\n\n        return (\n            certificates[certificateCount-1]._id,\n            certificates[certificateCount-1]._status,\n            certificates[certificateCount-1]._referenced_request_id,\n            certificates[certificateCount-1]._farm_id,\n            certificates[certificateCount-1]._agriculturist_id,\n            certificates[certificateCount-1]._issue_datetime,\n            certificates[certificateCount-1]._issuer\n        );\n    }\n\n    function getById(uint _id) public view returns(CertificateUnit memory) {\n        return certificates[_id];\n    }\n\n    function getAllMyCertificate() public view returns(CertificateUnit[] memory){\n        CertificateUnit[] memory ret = new CertificateUnit[](certificateByAgriculturistCount[msg.sender]);\n\n        for(uint i=0; i<certificateByAgriculturistCount[msg.sender]; i++){\n            ret[i] = certificateByAgriculturistMapping[msg.sender][i];\n        }\n\n        return ret;\n    } \n}",
  "sourcePath": "/Users/pongsit/Documents/iWorks/aquaponic-frontend/contracts/Certificate.sol",
  "compiler": {
    "name": "solc",
    "version": "0.8.15+commit.e14f2714.Emscripten.clang"
  },
  "schemaVersion": "3.4.8",
  "updatedAt": "2022-07-24T07:10:18.795Z",
  "devdoc": {
    "details": "Store & retrieve Certificate Information",
    "kind": "dev",
    "methods": {},
    "title": "Certificate",
    "version": 1
  },
  "userdoc": {
    "kind": "user",
    "methods": {},
    "version": 1
  }
}