{
  "contractName": "CertificateRequest",
  "abi": [
    {
      "inputs": [
        {
          "internalType": "uint256",
          "name": "_farm_id",
          "type": "uint256"
        }
      ],
      "name": "requestForCertificate",
      "outputs": [
        {
          "internalType": "uint256",
          "name": "",
          "type": "uint256"
        },
        {
          "internalType": "enum CertificateRequest.RequestStatus",
          "name": "",
          "type": "uint8"
        },
        {
          "internalType": "uint256",
          "name": "",
          "type": "uint256"
        },
        {
          "internalType": "uint256",
          "name": "",
          "type": "uint256"
        }
      ],
      "stateMutability": "nonpayable",
      "type": "function"
    },
    {
      "inputs": [
        {
          "internalType": "uint256",
          "name": "_request_id",
          "type": "uint256"
        }
      ],
      "name": "rejectRequest",
      "outputs": [
        {
          "internalType": "uint256",
          "name": "",
          "type": "uint256"
        },
        {
          "internalType": "enum CertificateRequest.RequestStatus",
          "name": "",
          "type": "uint8"
        },
        {
          "internalType": "uint256",
          "name": "",
          "type": "uint256"
        },
        {
          "internalType": "uint256",
          "name": "",
          "type": "uint256"
        },
        {
          "internalType": "address",
          "name": "",
          "type": "address"
        }
      ],
      "stateMutability": "nonpayable",
      "type": "function"
    },
    {
      "inputs": [
        {
          "internalType": "uint256",
          "name": "_request_id",
          "type": "uint256"
        }
      ],
      "name": "approveRequest",
      "outputs": [
        {
          "internalType": "uint256",
          "name": "",
          "type": "uint256"
        },
        {
          "internalType": "enum CertificateRequest.RequestStatus",
          "name": "",
          "type": "uint8"
        },
        {
          "internalType": "uint256",
          "name": "",
          "type": "uint256"
        },
        {
          "internalType": "uint256",
          "name": "",
          "type": "uint256"
        },
        {
          "internalType": "address",
          "name": "",
          "type": "address"
        }
      ],
      "stateMutability": "nonpayable",
      "type": "function"
    },
    {
      "inputs": [
        {
          "internalType": "uint256",
          "name": "_request_id",
          "type": "uint256"
        }
      ],
      "name": "getById",
      "outputs": [
        {
          "components": [
            {
              "internalType": "uint256",
              "name": "_id",
              "type": "uint256"
            },
            {
              "internalType": "enum CertificateRequest.RequestStatus",
              "name": "_status",
              "type": "uint8"
            },
            {
              "internalType": "uint256",
              "name": "_farm_id",
              "type": "uint256"
            },
            {
              "internalType": "address",
              "name": "_agriculturist_id",
              "type": "address"
            },
            {
              "internalType": "uint256",
              "name": "_request_datetime",
              "type": "uint256"
            },
            {
              "internalType": "uint256",
              "name": "_decision_datetime",
              "type": "uint256"
            },
            {
              "internalType": "address",
              "name": "_approver",
              "type": "address"
            }
          ],
          "internalType": "struct CertificateRequest.Request",
          "name": "",
          "type": "tuple"
        }
      ],
      "stateMutability": "view",
      "type": "function"
    },
    {
      "inputs": [],
      "name": "getAllMyReqests",
      "outputs": [
        {
          "components": [
            {
              "internalType": "uint256",
              "name": "_id",
              "type": "uint256"
            },
            {
              "internalType": "enum CertificateRequest.RequestStatus",
              "name": "_status",
              "type": "uint8"
            },
            {
              "internalType": "uint256",
              "name": "_farm_id",
              "type": "uint256"
            },
            {
              "internalType": "address",
              "name": "_agriculturist_id",
              "type": "address"
            },
            {
              "internalType": "uint256",
              "name": "_request_datetime",
              "type": "uint256"
            },
            {
              "internalType": "uint256",
              "name": "_decision_datetime",
              "type": "uint256"
            },
            {
              "internalType": "address",
              "name": "_approver",
              "type": "address"
            }
          ],
          "internalType": "struct CertificateRequest.Request[]",
          "name": "",
          "type": "tuple[]"
        }
      ],
      "stateMutability": "view",
      "type": "function"
    },
    {
      "inputs": [
        {
          "internalType": "uint256",
          "name": "_q_status",
          "type": "uint256"
        }
      ],
      "name": "getAllMyReqestsByStatus",
      "outputs": [
        {
          "components": [
            {
              "internalType": "uint256",
              "name": "_id",
              "type": "uint256"
            },
            {
              "internalType": "enum CertificateRequest.RequestStatus",
              "name": "_status",
              "type": "uint8"
            },
            {
              "internalType": "uint256",
              "name": "_farm_id",
              "type": "uint256"
            },
            {
              "internalType": "address",
              "name": "_agriculturist_id",
              "type": "address"
            },
            {
              "internalType": "uint256",
              "name": "_request_datetime",
              "type": "uint256"
            },
            {
              "internalType": "uint256",
              "name": "_decision_datetime",
              "type": "uint256"
            },
            {
              "internalType": "address",
              "name": "_approver",
              "type": "address"
            }
          ],
          "internalType": "struct CertificateRequest.Request[]",
          "name": "",
          "type": "tuple[]"
        }
      ],
      "stateMutability": "view",
      "type": "function"
    }
  ],
  "bytecode": "0x60806040526000805534801561001457600080fd5b50611b44806100246000396000f3fe608060405234801561001057600080fd5b50600436106100625760003560e01c80632d7788db1461006757806338f8685c1461009b5780637a1f452d146100cb578063d7d1bbdb146100e9578063de7f4ed81461011d578063f4f4d23714610150575b600080fd5b610081600480360381019061007c91906115ee565b610180565b6040516100929594939291906116e2565b60405180910390f35b6100b560048036038101906100b091906115ee565b610552565b6040516100c2919061189f565b60405180910390f35b6100d3610916565b6040516100e0919061189f565b60405180910390f35b61010360048036038101906100fe91906115ee565b610b9c565b6040516101149594939291906116e2565b60405180910390f35b610137600480360381019061013291906115ee565b610f6f565b60405161014794939291906118c1565b60405180910390f35b61016a600480360381019061016591906115ee565b6113fc565b6040516101779190611994565b60405180910390f35b600080600080600080429050600180600089815260200190815260200160002060010160006101000a81548160ff021916908360028111156101c5576101c461162a565b5b0217905550806001600089815260200190815260200160002060050181905550336001600089815260200190815260200160002060060160006101000a81548173ffffffffffffffffffffffffffffffffffffffff021916908373ffffffffffffffffffffffffffffffffffffffff16021790555060006001600089815260200190815260200160002060030160009054906101000a900473ffffffffffffffffffffffffffffffffffffffff16905060005b600260008373ffffffffffffffffffffffffffffffffffffffff1673ffffffffffffffffffffffffffffffffffffffff168152602001908152602001600020548110156104975788600360008473ffffffffffffffffffffffffffffffffffffffff1673ffffffffffffffffffffffffffffffffffffffff16815260200190815260200160002060008381526020019081526020016000206000015403610484576001600360008473ffffffffffffffffffffffffffffffffffffffff1673ffffffffffffffffffffffffffffffffffffffff168152602001908152602001600020600083815260200190815260200160002060010160006101000a81548160ff021916908360028111156103905761038f61162a565b5b021790555082600360008473ffffffffffffffffffffffffffffffffffffffff1673ffffffffffffffffffffffffffffffffffffffff16815260200190815260200160002060008381526020019081526020016000206005018190555033600360008473ffffffffffffffffffffffffffffffffffffffff1673ffffffffffffffffffffffffffffffffffffffff168152602001908152602001600020600083815260200190815260200160002060060160006101000a81548173ffffffffffffffffffffffffffffffffffffffff021916908373ffffffffffffffffffffffffffffffffffffffff160217905550610497565b808061048f906119de565b915050610278565b50600160008054815260200190815260200160002060000154600160008054815260200190815260200160002060010160009054906101000a900460ff16600160008054815260200190815260200160002060020154600160008054815260200190815260200160002060050154600160008054815260200190815260200160002060060160009054906101000a900473ffffffffffffffffffffffffffffffffffffffff1696509650965096509650505091939590929450565b60606000600260003373ffffffffffffffffffffffffffffffffffffffff1673ffffffffffffffffffffffffffffffffffffffff1681526020019081526020016000205467ffffffffffffffff8111156105af576105ae611a26565b5b6040519080825280602002602001820160405280156105e857816020015b6105d5611538565b8152602001906001900390816105cd5790505b5090506000805b600260003373ffffffffffffffffffffffffffffffffffffffff1673ffffffffffffffffffffffffffffffffffffffff1681526020019081526020016000205481101561085a5784600360003373ffffffffffffffffffffffffffffffffffffffff1673ffffffffffffffffffffffffffffffffffffffff168152602001908152602001600020600083815260200190815260200160002060010160009054906101000a900460ff1660028111156106aa576106a961162a565b5b0361084757600360003373ffffffffffffffffffffffffffffffffffffffff1673ffffffffffffffffffffffffffffffffffffffff16815260200190815260200160002060008281526020019081526020016000206040518060e0016040529081600082015481526020016001820160009054906101000a900460ff1660028111156107395761073861162a565b5b600281111561074b5761074a61162a565b5b8152602001600282015481526020016003820160009054906101000a900473ffffffffffffffffffffffffffffffffffffffff1673ffffffffffffffffffffffffffffffffffffffff1673ffffffffffffffffffffffffffffffffffffffff16815260200160048201548152602001600582015481526020016006820160009054906101000a900473ffffffffffffffffffffffffffffffffffffffff1673ffffffffffffffffffffffffffffffffffffffff1673ffffffffffffffffffffffffffffffffffffffff168152505083838151811061082c5761082b611a55565b5b60200260200101819052506001826108449190611a84565b91505b8080610852906119de565b9150506105ef565b5060008167ffffffffffffffff81111561087757610876611a26565b5b6040519080825280602002602001820160405280156108b057816020015b61089d611538565b8152602001906001900390816108955790505b50905060005b8281101561090a578381815181106108d1576108d0611a55565b5b60200260200101518282815181106108ec576108eb611a55565b5b60200260200101819052508080610902906119de565b9150506108b6565b50809350505050919050565b60606000600260003373ffffffffffffffffffffffffffffffffffffffff1673ffffffffffffffffffffffffffffffffffffffff1681526020019081526020016000205467ffffffffffffffff81111561097357610972611a26565b5b6040519080825280602002602001820160405280156109ac57816020015b610999611538565b8152602001906001900390816109915790505b50905060005b600260003373ffffffffffffffffffffffffffffffffffffffff1673ffffffffffffffffffffffffffffffffffffffff16815260200190815260200160002054811015610b9457600360003373ffffffffffffffffffffffffffffffffffffffff1673ffffffffffffffffffffffffffffffffffffffff16815260200190815260200160002060008281526020019081526020016000206040518060e0016040529081600082015481526020016001820160009054906101000a900460ff166002811115610a8357610a8261162a565b5b6002811115610a9557610a9461162a565b5b8152602001600282015481526020016003820160009054906101000a900473ffffffffffffffffffffffffffffffffffffffff1673ffffffffffffffffffffffffffffffffffffffff1673ffffffffffffffffffffffffffffffffffffffff16815260200160048201548152602001600582015481526020016006820160009054906101000a900473ffffffffffffffffffffffffffffffffffffffff1673ffffffffffffffffffffffffffffffffffffffff1673ffffffffffffffffffffffffffffffffffffffff1681525050828281518110610b7657610b75611a55565b5b60200260200101819052508080610b8c906119de565b9150506109b2565b508091505090565b60008060008060008042905060026001600089815260200190815260200160002060010160006101000a81548160ff02191690836002811115610be257610be161162a565b5b0217905550806001600089815260200190815260200160002060050181905550336001600089815260200190815260200160002060060160006101000a81548173ffffffffffffffffffffffffffffffffffffffff021916908373ffffffffffffffffffffffffffffffffffffffff16021790555060006001600089815260200190815260200160002060030160009054906101000a900473ffffffffffffffffffffffffffffffffffffffff16905060005b600260008373ffffffffffffffffffffffffffffffffffffffff1673ffffffffffffffffffffffffffffffffffffffff16815260200190815260200160002054811015610eb45788600360008473ffffffffffffffffffffffffffffffffffffffff1673ffffffffffffffffffffffffffffffffffffffff16815260200190815260200160002060008381526020019081526020016000206000015403610ea1576002600360008473ffffffffffffffffffffffffffffffffffffffff1673ffffffffffffffffffffffffffffffffffffffff168152602001908152602001600020600083815260200190815260200160002060010160006101000a81548160ff02191690836002811115610dad57610dac61162a565b5b021790555082600360008473ffffffffffffffffffffffffffffffffffffffff1673ffffffffffffffffffffffffffffffffffffffff16815260200190815260200160002060008381526020019081526020016000206005018190555033600360008473ffffffffffffffffffffffffffffffffffffffff1673ffffffffffffffffffffffffffffffffffffffff168152602001908152602001600020600083815260200190815260200160002060060160006101000a81548173ffffffffffffffffffffffffffffffffffffffff021916908373ffffffffffffffffffffffffffffffffffffffff160217905550610eb4565b8080610eac906119de565b915050610c95565b50600160008054815260200190815260200160002060000154600160008054815260200190815260200160002060010160009054906101000a900460ff16600160008054815260200190815260200160002060020154600160008054815260200190815260200160002060050154600160008054815260200190815260200160002060060160009054906101000a900473ffffffffffffffffffffffffffffffffffffffff1696509650965096509650505091939590929450565b60008060008060004290506040518060e00160405280600054815260200160006002811115610fa157610fa061162a565b5b81526020018781526020013373ffffffffffffffffffffffffffffffffffffffff16815260200182815260200160008152602001600073ffffffffffffffffffffffffffffffffffffffff1681525060016000805481526020019081526020016000206000820151816000015560208201518160010160006101000a81548160ff021916908360028111156110395761103861162a565b5b02179055506040820151816002015560608201518160030160006101000a81548173ffffffffffffffffffffffffffffffffffffffff021916908373ffffffffffffffffffffffffffffffffffffffff1602179055506080820151816004015560a0820151816005015560c08201518160060160006101000a81548173ffffffffffffffffffffffffffffffffffffffff021916908373ffffffffffffffffffffffffffffffffffffffff1602179055509050506040518060e001604052806000548152602001600060028111156111145761111361162a565b5b81526020018781526020013373ffffffffffffffffffffffffffffffffffffffff16815260200182815260200160008152602001600073ffffffffffffffffffffffffffffffffffffffff16815250600360003373ffffffffffffffffffffffffffffffffffffffff1673ffffffffffffffffffffffffffffffffffffffff1681526020019081526020016000206000600260003373ffffffffffffffffffffffffffffffffffffffff1673ffffffffffffffffffffffffffffffffffffffff1681526020019081526020016000205481526020019081526020016000206000820151816000015560208201518160010160006101000a81548160ff021916908360028111156112275761122661162a565b5b02179055506040820151816002015560608201518160030160006101000a81548173ffffffffffffffffffffffffffffffffffffffff021916908373ffffffffffffffffffffffffffffffffffffffff1602179055506080820151816004015560a0820151816005015560c08201518160060160006101000a81548173ffffffffffffffffffffffffffffffffffffffff021916908373ffffffffffffffffffffffffffffffffffffffff16021790555090505060016000808282546112ed9190611a84565b925050819055506001600260003373ffffffffffffffffffffffffffffffffffffffff1673ffffffffffffffffffffffffffffffffffffffff16815260200190815260200160002060008282546113449190611a84565b9250508190555060016000600160005461135e9190611ada565b8152602001908152602001600020600001546001600060016000546113839190611ada565b815260200190815260200160002060010160009054906101000a900460ff166001600060016000546113b59190611ada565b8152602001908152602001600020600201546001600060016000546113da9190611ada565b8152602001908152602001600020600401549450945094509450509193509193565b611404611538565b600160008381526020019081526020016000206040518060e0016040529081600082015481526020016001820160009054906101000a900460ff1660028111156114515761145061162a565b5b60028111156114635761146261162a565b5b8152602001600282015481526020016003820160009054906101000a900473ffffffffffffffffffffffffffffffffffffffff1673ffffffffffffffffffffffffffffffffffffffff1673ffffffffffffffffffffffffffffffffffffffff16815260200160048201548152602001600582015481526020016006820160009054906101000a900473ffffffffffffffffffffffffffffffffffffffff1673ffffffffffffffffffffffffffffffffffffffff1673ffffffffffffffffffffffffffffffffffffffff16815250509050919050565b6040518060e00160405280600081526020016000600281111561155e5761155d61162a565b5b815260200160008152602001600073ffffffffffffffffffffffffffffffffffffffff1681526020016000815260200160008152602001600073ffffffffffffffffffffffffffffffffffffffff1681525090565b600080fd5b6000819050919050565b6115cb816115b8565b81146115d657600080fd5b50565b6000813590506115e8816115c2565b92915050565b600060208284031215611604576116036115b3565b5b6000611612848285016115d9565b91505092915050565b611624816115b8565b82525050565b7f4e487b7100000000000000000000000000000000000000000000000000000000600052602160045260246000fd5b6003811061166a5761166961162a565b5b50565b600081905061167b82611659565b919050565b600061168b8261166d565b9050919050565b61169b81611680565b82525050565b600073ffffffffffffffffffffffffffffffffffffffff82169050919050565b60006116cc826116a1565b9050919050565b6116dc816116c1565b82525050565b600060a0820190506116f7600083018861161b565b6117046020830187611692565b611711604083018661161b565b61171e606083018561161b565b61172b60808301846116d3565b9695505050505050565b600081519050919050565b600082825260208201905092915050565b6000819050602082019050919050565b61176a816115b8565b82525050565b61177981611680565b82525050565b611788816116c1565b82525050565b60e0820160008201516117a46000850182611761565b5060208201516117b76020850182611770565b5060408201516117ca6040850182611761565b5060608201516117dd606085018261177f565b5060808201516117f06080850182611761565b5060a082015161180360a0850182611761565b5060c082015161181660c085018261177f565b50505050565b6000611828838361178e565b60e08301905092915050565b6000602082019050919050565b600061184c82611735565b6118568185611740565b935061186183611751565b8060005b83811015611892578151611879888261181c565b975061188483611834565b925050600181019050611865565b5085935050505092915050565b600060208201905081810360008301526118b98184611841565b905092915050565b60006080820190506118d6600083018761161b565b6118e36020830186611692565b6118f0604083018561161b565b6118fd606083018461161b565b95945050505050565b60e08201600082015161191c6000850182611761565b50602082015161192f6020850182611770565b5060408201516119426040850182611761565b506060820151611955606085018261177f565b5060808201516119686080850182611761565b5060a082015161197b60a0850182611761565b5060c082015161198e60c085018261177f565b50505050565b600060e0820190506119a96000830184611906565b92915050565b7f4e487b7100000000000000000000000000000000000000000000000000000000600052601160045260246000fd5b60006119e9826115b8565b91507fffffffffffffffffffffffffffffffffffffffffffffffffffffffffffffffff8203611a1b57611a1a6119af565b5b600182019050919050565b7f4e487b7100000000000000000000000000000000000000000000000000000000600052604160045260246000fd5b7f4e487b7100000000000000000000000000000000000000000000000000000000600052603260045260246000fd5b6000611a8f826115b8565b9150611a9a836115b8565b9250827fffffffffffffffffffffffffffffffffffffffffffffffffffffffffffffffff03821115611acf57611ace6119af565b5b828201905092915050565b6000611ae5826115b8565b9150611af0836115b8565b925082821015611b0357611b026119af565b5b82820390509291505056fea264697066735822122076eece259761aca408dcbbd421fbdc66416be7b47ea806e24a456bb6494181f164736f6c634300080f0033",
  "immutableReferences": {},
  "source": "// SPDX-License-Identifier: GPL-3.0\n\npragma solidity >=0.7.0 <0.9.0;\n\n\n/**\n * @title Certificate Request\n * @dev Store & retrieve Certificate Request Information\n */\ncontract CertificateRequest {\n    \n    enum RequestStatus { WAITAPPROVE, REJECTED, APPROVED }\n\n    struct Request {\n        uint _id;\n        RequestStatus _status;\n        uint _farm_id;\n        address _agriculturist_id;\n        uint _request_datetime;\n        uint _decision_datetime;\n        address _approver;\n    }\n\n    uint256 requestCount = 0;\n    mapping(uint => Request) requests;\n\n    mapping(address => uint) requestByAgriculturistCount;\n    mapping(address => mapping(uint => Request)) requestByAgriculturistMapping;\n\n\n    function requestForCertificate(uint _farm_id) public returns(uint, RequestStatus, uint, uint){\n\n        uint currentTime = block.timestamp;\n\n        requests[requestCount] = Request(requestCount, RequestStatus.WAITAPPROVE ,_farm_id, msg.sender, currentTime, 0, address(0));\n        requestByAgriculturistMapping[msg.sender][requestByAgriculturistCount[msg.sender]] = Request(requestCount, RequestStatus.WAITAPPROVE ,_farm_id, msg.sender, currentTime, 0, address(0));\n\n        requestCount += 1;\n        requestByAgriculturistCount[msg.sender] += 1;\n\n        return (\n            requests[requestCount-1]._id,\n            requests[requestCount-1]._status,\n            requests[requestCount-1]._farm_id,\n            requests[requestCount-1]._request_datetime\n        );\n    }\n\n    function rejectRequest(uint _request_id) public returns(uint, RequestStatus, uint, uint, address){\n        uint currentTime = block.timestamp;\n\n        requests[_request_id]._status = RequestStatus.REJECTED;\n        requests[_request_id]._decision_datetime = currentTime;\n        requests[_request_id]._approver = msg.sender;\n\n        address agriculturistId = requests[_request_id]._agriculturist_id;\n\n        for(uint i=0; i<requestByAgriculturistCount[agriculturistId]; i++){\n            if(requestByAgriculturistMapping[agriculturistId][i]._id == _request_id){\n                requestByAgriculturistMapping[agriculturistId][i]._status = RequestStatus.REJECTED;\n                requestByAgriculturistMapping[agriculturistId][i]._decision_datetime = currentTime;\n                requestByAgriculturistMapping[agriculturistId][i]._approver = msg.sender;\n                break;\n            }\n        }\n\n        return (\n            requests[requestCount]._id,\n            requests[requestCount]._status,\n            requests[requestCount]._farm_id,\n            requests[requestCount]._decision_datetime,\n            requests[requestCount]._approver\n        );\n    }\n\n    function approveRequest(uint _request_id) public returns(uint, RequestStatus, uint, uint, address){\n        uint currentTime = block.timestamp;\n\n        requests[_request_id]._status = RequestStatus.APPROVED;\n        requests[_request_id]._decision_datetime = currentTime;\n        requests[_request_id]._approver = msg.sender;\n\n        address agriculturistId = requests[_request_id]._agriculturist_id;\n\n        for(uint i=0; i<requestByAgriculturistCount[agriculturistId]; i++){\n            if(requestByAgriculturistMapping[agriculturistId][i]._id == _request_id){\n                requestByAgriculturistMapping[agriculturistId][i]._status = RequestStatus.APPROVED;\n                requestByAgriculturistMapping[agriculturistId][i]._decision_datetime = currentTime;\n                requestByAgriculturistMapping[agriculturistId][i]._approver = msg.sender;\n                break;\n            }\n        }\n\n        return (\n            requests[requestCount]._id,\n            requests[requestCount]._status,\n            requests[requestCount]._farm_id,\n            requests[requestCount]._decision_datetime,\n            requests[requestCount]._approver\n        );\n    }\n\n    function getById(uint _request_id) public view returns(Request memory){\n        return requests[_request_id];\n    }\n\n    function getAllMyReqests() public view returns(Request[] memory){\n        Request[] memory ret = new Request[](requestByAgriculturistCount[msg.sender]);\n\n        for(uint i=0; i<requestByAgriculturistCount[msg.sender]; i++){\n            ret[i] = requestByAgriculturistMapping[msg.sender][i];\n        }\n\n        return ret;\n    }\n\n    function getAllMyReqestsByStatus(uint _q_status) public view returns(Request[] memory){\n        Request[] memory retBuffer = new Request[](requestByAgriculturistCount[msg.sender]);\n\n        uint retBufferCount = 0;\n        for(uint i=0; i<requestByAgriculturistCount[msg.sender]; i++){\n            if(uint(requestByAgriculturistMapping[msg.sender][i]._status) == _q_status){\n                retBuffer[retBufferCount] = requestByAgriculturistMapping[msg.sender][i];\n                retBufferCount += 1;\n            }\n        }\n\n        Request[] memory ret = new Request[](retBufferCount);\n\n        for(uint i=0; i<retBufferCount; i++){\n            ret[i] = retBuffer[i];\n        }\n\n        return ret;\n    }   \n}",
  "sourcePath": "/Users/pongsit/Documents/iWorks/aquaponic-frontend/contracts/CertificateRequest.sol",
  "compiler": {
    "name": "solc",
    "version": "0.8.15+commit.e14f2714.Emscripten.clang"
  },
  "schemaVersion": "3.4.8",
  "updatedAt": "2022-07-24T07:10:18.826Z",
  "devdoc": {
    "details": "Store & retrieve Certificate Request Information",
    "kind": "dev",
    "methods": {},
    "title": "Certificate Request",
    "version": 1
  },
  "userdoc": {
    "kind": "user",
    "methods": {},
    "version": 1
  }
}