{
  "contractName": "Certificate",
  "abi": [
    {
      "inputs": [
        {
          "internalType": "uint256",
          "name": "_referenced_request_id",
          "type": "uint256"
        },
        {
          "internalType": "uint256",
          "name": "_farm_id",
          "type": "uint256"
        },
        {
          "internalType": "address",
          "name": "_agriculturist_id",
          "type": "address"
        }
      ],
      "name": "issueNewCertificate",
      "outputs": [
        {
          "components": [
            {
              "internalType": "uint256",
              "name": "id",
              "type": "uint256"
            },
            {
              "internalType": "enum Certificate.CertificateUnitStatus",
              "name": "status",
              "type": "uint8"
            },
            {
              "internalType": "uint256",
              "name": "referenced_request_id",
              "type": "uint256"
            },
            {
              "internalType": "uint256",
              "name": "farm_id",
              "type": "uint256"
            },
            {
              "internalType": "address",
              "name": "agriculturist_id",
              "type": "address"
            },
            {
              "internalType": "uint256",
              "name": "issue_datetime",
              "type": "uint256"
            },
            {
              "internalType": "address",
              "name": "issuer",
              "type": "address"
            }
          ],
          "internalType": "struct Certificate.CertificateUnit",
          "name": "",
          "type": "tuple"
        }
      ],
      "stateMutability": "nonpayable",
      "type": "function"
    },
    {
      "inputs": [
        {
          "internalType": "uint256",
          "name": "_id",
          "type": "uint256"
        }
      ],
      "name": "getById",
      "outputs": [
        {
          "components": [
            {
              "internalType": "uint256",
              "name": "id",
              "type": "uint256"
            },
            {
              "internalType": "enum Certificate.CertificateUnitStatus",
              "name": "status",
              "type": "uint8"
            },
            {
              "internalType": "uint256",
              "name": "referenced_request_id",
              "type": "uint256"
            },
            {
              "internalType": "uint256",
              "name": "farm_id",
              "type": "uint256"
            },
            {
              "internalType": "address",
              "name": "agriculturist_id",
              "type": "address"
            },
            {
              "internalType": "uint256",
              "name": "issue_datetime",
              "type": "uint256"
            },
            {
              "internalType": "address",
              "name": "issuer",
              "type": "address"
            }
          ],
          "internalType": "struct Certificate.CertificateUnit",
          "name": "",
          "type": "tuple"
        }
      ],
      "stateMutability": "view",
      "type": "function"
    },
    {
      "inputs": [],
      "name": "getAllMyCertificate",
      "outputs": [
        {
          "components": [
            {
              "internalType": "uint256",
              "name": "id",
              "type": "uint256"
            },
            {
              "internalType": "enum Certificate.CertificateUnitStatus",
              "name": "status",
              "type": "uint8"
            },
            {
              "internalType": "uint256",
              "name": "referenced_request_id",
              "type": "uint256"
            },
            {
              "internalType": "uint256",
              "name": "farm_id",
              "type": "uint256"
            },
            {
              "internalType": "address",
              "name": "agriculturist_id",
              "type": "address"
            },
            {
              "internalType": "uint256",
              "name": "issue_datetime",
              "type": "uint256"
            },
            {
              "internalType": "address",
              "name": "issuer",
              "type": "address"
            }
          ],
          "internalType": "struct Certificate.CertificateUnit[]",
          "name": "",
          "type": "tuple[]"
        }
      ],
      "stateMutability": "view",
      "type": "function"
    }
  ],
  "bytecode": "0x60806040526000805534801561001457600080fd5b50611104806100246000396000f3fe608060405234801561001057600080fd5b50600436106100415760003560e01c8063c1756c4514610046578063d8341e0714610076578063f4f4d23714610094575b600080fd5b610060600480360381019061005b9190610c52565b6100c4565b60405161006d9190610dc8565b60405180910390f35b61007e61077c565b60405161008b9190610f20565b60405180910390f35b6100ae60048036038101906100a99190610f42565b610a02565b6040516100bb9190610dc8565b60405180910390f35b6100cc610b3e565b60004290506040518060e001604052806000548152602001600060018111156100f8576100f7610cb4565b5b81526020018681526020018581526020018473ffffffffffffffffffffffffffffffffffffffff1681526020018281526020013373ffffffffffffffffffffffffffffffffffffffff1681525060016000805481526020019081526020016000206000820151816000015560208201518160010160006101000a81548160ff0219169083600181111561018e5761018d610cb4565b5b0217905550604082015181600201556060820151816003015560808201518160040160006101000a81548173ffffffffffffffffffffffffffffffffffffffff021916908373ffffffffffffffffffffffffffffffffffffffff16021790555060a0820151816005015560c08201518160060160006101000a81548173ffffffffffffffffffffffffffffffffffffffff021916908373ffffffffffffffffffffffffffffffffffffffff1602179055509050506001600080548152602001908152602001600020600560008573ffffffffffffffffffffffffffffffffffffffff1673ffffffffffffffffffffffffffffffffffffffff1681526020019081526020016000206000600460008773ffffffffffffffffffffffffffffffffffffffff1673ffffffffffffffffffffffffffffffffffffffff168152602001908152602001600020548152602001908152602001600020600082015481600001556001820160009054906101000a900460ff168160010160006101000a81548160ff0219169083600181111561032757610326610cb4565b5b021790555060028201548160020155600382015481600301556004820160009054906101000a900473ffffffffffffffffffffffffffffffffffffffff168160040160006101000a81548173ffffffffffffffffffffffffffffffffffffffff021916908373ffffffffffffffffffffffffffffffffffffffff160217905550600582015481600501556006820160009054906101000a900473ffffffffffffffffffffffffffffffffffffffff168160060160006101000a81548173ffffffffffffffffffffffffffffffffffffffff021916908373ffffffffffffffffffffffffffffffffffffffff160217905550905050600160008054815260200190815260200160002060036000868152602001908152602001600020600060026000888152602001908152602001600020548152602001908152602001600020600082015481600001556001820160009054906101000a900460ff168160010160006101000a81548160ff021916908360018111156104a8576104a7610cb4565b5b021790555060028201548160020155600382015481600301556004820160009054906101000a900473ffffffffffffffffffffffffffffffffffffffff168160040160006101000a81548173ffffffffffffffffffffffffffffffffffffffff021916908373ffffffffffffffffffffffffffffffffffffffff160217905550600582015481600501556006820160009054906101000a900473ffffffffffffffffffffffffffffffffffffffff168160060160006101000a81548173ffffffffffffffffffffffffffffffffffffffff021916908373ffffffffffffffffffffffffffffffffffffffff16021790555090505060016000808282546105ae9190610f9e565b925050819055506001600460008573ffffffffffffffffffffffffffffffffffffffff1673ffffffffffffffffffffffffffffffffffffffff16815260200190815260200160002060008282546106059190610f9e565b9250508190555060016002600086815260200190815260200160002060008282546106309190610f9e565b9250508190555060016000600160005461064a9190610ff4565b81526020019081526020016000206040518060e0016040529081600082015481526020016001820160009054906101000a900460ff16600181111561069257610691610cb4565b5b60018111156106a4576106a3610cb4565b5b815260200160028201548152602001600382015481526020016004820160009054906101000a900473ffffffffffffffffffffffffffffffffffffffff1673ffffffffffffffffffffffffffffffffffffffff1673ffffffffffffffffffffffffffffffffffffffff168152602001600582015481526020016006820160009054906101000a900473ffffffffffffffffffffffffffffffffffffffff1673ffffffffffffffffffffffffffffffffffffffff1673ffffffffffffffffffffffffffffffffffffffff16815250509150509392505050565b60606000600460003373ffffffffffffffffffffffffffffffffffffffff1673ffffffffffffffffffffffffffffffffffffffff1681526020019081526020016000205467ffffffffffffffff8111156107d9576107d8611028565b5b60405190808252806020026020018201604052801561081257816020015b6107ff610b3e565b8152602001906001900390816107f75790505b50905060005b600460003373ffffffffffffffffffffffffffffffffffffffff1673ffffffffffffffffffffffffffffffffffffffff168152602001908152602001600020548110156109fa57600560003373ffffffffffffffffffffffffffffffffffffffff1673ffffffffffffffffffffffffffffffffffffffff16815260200190815260200160002060008281526020019081526020016000206040518060e0016040529081600082015481526020016001820160009054906101000a900460ff1660018111156108e9576108e8610cb4565b5b60018111156108fb576108fa610cb4565b5b815260200160028201548152602001600382015481526020016004820160009054906101000a900473ffffffffffffffffffffffffffffffffffffffff1673ffffffffffffffffffffffffffffffffffffffff1673ffffffffffffffffffffffffffffffffffffffff168152602001600582015481526020016006820160009054906101000a900473ffffffffffffffffffffffffffffffffffffffff1673ffffffffffffffffffffffffffffffffffffffff1673ffffffffffffffffffffffffffffffffffffffff16815250508282815181106109dc576109db611057565b5b602002602001018190525080806109f290611086565b915050610818565b508091505090565b610a0a610b3e565b600160008381526020019081526020016000206040518060e0016040529081600082015481526020016001820160009054906101000a900460ff166001811115610a5757610a56610cb4565b5b6001811115610a6957610a68610cb4565b5b815260200160028201548152602001600382015481526020016004820160009054906101000a900473ffffffffffffffffffffffffffffffffffffffff1673ffffffffffffffffffffffffffffffffffffffff1673ffffffffffffffffffffffffffffffffffffffff168152602001600582015481526020016006820160009054906101000a900473ffffffffffffffffffffffffffffffffffffffff1673ffffffffffffffffffffffffffffffffffffffff1673ffffffffffffffffffffffffffffffffffffffff16815250509050919050565b6040518060e001604052806000815260200160006001811115610b6457610b63610cb4565b5b81526020016000815260200160008152602001600073ffffffffffffffffffffffffffffffffffffffff16815260200160008152602001600073ffffffffffffffffffffffffffffffffffffffff1681525090565b600080fd5b6000819050919050565b610bd181610bbe565b8114610bdc57600080fd5b50565b600081359050610bee81610bc8565b92915050565b600073ffffffffffffffffffffffffffffffffffffffff82169050919050565b6000610c1f82610bf4565b9050919050565b610c2f81610c14565b8114610c3a57600080fd5b50565b600081359050610c4c81610c26565b92915050565b600080600060608486031215610c6b57610c6a610bb9565b5b6000610c7986828701610bdf565b9350506020610c8a86828701610bdf565b9250506040610c9b86828701610c3d565b9150509250925092565b610cae81610bbe565b82525050565b7f4e487b7100000000000000000000000000000000000000000000000000000000600052602160045260246000fd5b60028110610cf457610cf3610cb4565b5b50565b6000819050610d0582610ce3565b919050565b6000610d1582610cf7565b9050919050565b610d2581610d0a565b82525050565b610d3481610c14565b82525050565b60e082016000820151610d506000850182610ca5565b506020820151610d636020850182610d1c565b506040820151610d766040850182610ca5565b506060820151610d896060850182610ca5565b506080820151610d9c6080850182610d2b565b5060a0820151610daf60a0850182610ca5565b5060c0820151610dc260c0850182610d2b565b50505050565b600060e082019050610ddd6000830184610d3a565b92915050565b600081519050919050565b600082825260208201905092915050565b6000819050602082019050919050565b60e082016000820151610e256000850182610ca5565b506020820151610e386020850182610d1c565b506040820151610e4b6040850182610ca5565b506060820151610e5e6060850182610ca5565b506080820151610e716080850182610d2b565b5060a0820151610e8460a0850182610ca5565b5060c0820151610e9760c0850182610d2b565b50505050565b6000610ea98383610e0f565b60e08301905092915050565b6000602082019050919050565b6000610ecd82610de3565b610ed78185610dee565b9350610ee283610dff565b8060005b83811015610f13578151610efa8882610e9d565b9750610f0583610eb5565b925050600181019050610ee6565b5085935050505092915050565b60006020820190508181036000830152610f3a8184610ec2565b905092915050565b600060208284031215610f5857610f57610bb9565b5b6000610f6684828501610bdf565b91505092915050565b7f4e487b7100000000000000000000000000000000000000000000000000000000600052601160045260246000fd5b6000610fa982610bbe565b9150610fb483610bbe565b9250827fffffffffffffffffffffffffffffffffffffffffffffffffffffffffffffffff03821115610fe957610fe8610f6f565b5b828201905092915050565b6000610fff82610bbe565b915061100a83610bbe565b92508282101561101d5761101c610f6f565b5b828203905092915050565b7f4e487b7100000000000000000000000000000000000000000000000000000000600052604160045260246000fd5b7f4e487b7100000000000000000000000000000000000000000000000000000000600052603260045260246000fd5b600061109182610bbe565b91507fffffffffffffffffffffffffffffffffffffffffffffffffffffffffffffffff82036110c3576110c2610f6f565b5b60018201905091905056fea2646970667358221220f262322cab980ba799411ab4bbcb0ded10dd57246f0158e281115dfab78924b164736f6c634300080f0033",
  "immutableReferences": {},
  "source": "// SPDX-License-Identifier: GPL-3.0\n\npragma solidity >=0.7.0 <0.9.0;\n\n\n/**\n * @title Certificate\n * @dev Store & retrieve Certificate Information\n */\ncontract Certificate {\n\n    enum CertificateUnitStatus { ACTIVE, INACTIVE }\n\n    struct CertificateUnit {\n        uint id;\n        CertificateUnitStatus status;\n        uint referenced_request_id;\n        uint farm_id;\n        address agriculturist_id;\n        uint issue_datetime;\n        address issuer;\n    }\n\n    uint256 certificateCount = 0;\n    mapping(uint => CertificateUnit) certificates;\n\n    mapping(uint => uint) certificateByFarmIdCount;\n    mapping(uint => mapping(uint => CertificateUnit)) certificateByFarmIdMapping;\n\n    mapping(address => uint) certificateByAgriculturistCount;\n    mapping(address => mapping(uint => CertificateUnit)) certificateByAgriculturistMapping;\n\n\n\n    function issueNewCertificate(uint _referenced_request_id, uint _farm_id, address _agriculturist_id) \n        public \n        returns(CertificateUnit memory) \n    {\n\n        uint currentTime = block.timestamp;\n\n        certificates[certificateCount] = \n            CertificateUnit(certificateCount, CertificateUnitStatus.ACTIVE, _referenced_request_id, _farm_id, _agriculturist_id, currentTime, msg.sender);\n\n        certificateByAgriculturistMapping[_agriculturist_id][certificateByAgriculturistCount[_agriculturist_id]] = certificates[certificateCount];\n        certificateByFarmIdMapping[_farm_id][certificateByFarmIdCount[_farm_id]] = certificates[certificateCount];\n\n        certificateCount += 1;\n        certificateByAgriculturistCount[_agriculturist_id] += 1;\n        certificateByFarmIdCount[_farm_id] += 1;\n\n        return certificates[certificateCount-1];\n    }\n\n    function getById(uint _id) public view returns(CertificateUnit memory) {\n        return certificates[_id];\n    }\n\n    function getAllMyCertificate() public view returns(CertificateUnit[] memory){\n        CertificateUnit[] memory ret = new CertificateUnit[](certificateByAgriculturistCount[msg.sender]);\n\n        for(uint i=0; i<certificateByAgriculturistCount[msg.sender]; i++){\n            ret[i] = certificateByAgriculturistMapping[msg.sender][i];\n        }\n\n        return ret;\n    } \n\n\n   \n}",
  "sourcePath": "/Users/pongsit/Documents/iWorks/aquaponic-frontend/contracts/Certificate.sol",
  "compiler": {
    "name": "solc",
    "version": "0.8.15+commit.e14f2714.Emscripten.clang"
  },
  "schemaVersion": "3.4.8",
  "updatedAt": "2022-07-24T14:06:18.491Z",
  "devdoc": {
    "details": "Store & retrieve Certificate Information",
    "kind": "dev",
    "methods": {},
    "title": "Certificate",
    "version": 1
  },
  "userdoc": {
    "kind": "user",
    "methods": {},
    "version": 1
  }
}