{
  "contractName": "Farm",
  "abi": [
    {
      "inputs": [],
      "stateMutability": "nonpayable",
      "type": "constructor"
    },
    {
      "inputs": [
        {
          "internalType": "string",
          "name": "_name",
          "type": "string"
        },
        {
          "internalType": "string",
          "name": "_plantType",
          "type": "string"
        },
        {
          "internalType": "string",
          "name": "_fishType",
          "type": "string"
        }
      ],
      "name": "register",
      "outputs": [
        {
          "components": [
            {
              "internalType": "uint256",
              "name": "id",
              "type": "uint256"
            },
            {
              "internalType": "string",
              "name": "name",
              "type": "string"
            },
            {
              "internalType": "address",
              "name": "owner",
              "type": "address"
            },
            {
              "internalType": "string",
              "name": "plantType",
              "type": "string"
            },
            {
              "internalType": "string",
              "name": "fishType",
              "type": "string"
            }
          ],
          "internalType": "struct Farm.FarmUnit",
          "name": "",
          "type": "tuple"
        }
      ],
      "stateMutability": "nonpayable",
      "type": "function"
    },
    {
      "inputs": [
        {
          "internalType": "uint256",
          "name": "_id",
          "type": "uint256"
        }
      ],
      "name": "getById",
      "outputs": [
        {
          "components": [
            {
              "internalType": "uint256",
              "name": "id",
              "type": "uint256"
            },
            {
              "internalType": "string",
              "name": "name",
              "type": "string"
            },
            {
              "internalType": "address",
              "name": "owner",
              "type": "address"
            },
            {
              "internalType": "string",
              "name": "plantType",
              "type": "string"
            },
            {
              "internalType": "string",
              "name": "fishType",
              "type": "string"
            }
          ],
          "internalType": "struct Farm.FarmUnit",
          "name": "",
          "type": "tuple"
        }
      ],
      "stateMutability": "view",
      "type": "function"
    },
    {
      "inputs": [],
      "name": "getAllMyFarms",
      "outputs": [
        {
          "components": [
            {
              "internalType": "uint256",
              "name": "id",
              "type": "uint256"
            },
            {
              "internalType": "string",
              "name": "name",
              "type": "string"
            },
            {
              "internalType": "address",
              "name": "owner",
              "type": "address"
            },
            {
              "internalType": "string",
              "name": "plantType",
              "type": "string"
            },
            {
              "internalType": "string",
              "name": "fishType",
              "type": "string"
            }
          ],
          "internalType": "struct Farm.FarmUnit[]",
          "name": "",
          "type": "tuple[]"
        }
      ],
      "stateMutability": "view",
      "type": "function"
    }
  ],
  "bytecode": "0x6080604052600080553480156200001557600080fd5b50620000c86040518060400160405280601081526020017f41717561706f6e6963204661726d2031000000000000000000000000000000008152506040518060400160405280600581526020017f426173696c0000000000000000000000000000000000000000000000000000008152506040518060400160405280600781526020017f54696c6170696100000000000000000000000000000000000000000000000000815250620000ce60201b60201c565b620005ca565b6001600080828254620000e2919062000216565b925050819055506040518060a0016040528060005481526020018481526020013373ffffffffffffffffffffffffffffffffffffffff1681526020018381526020018281525060016000805481526020019081526020016000206000820151816000015560208201518160010190816200015d9190620004e3565b5060408201518160020160006101000a81548173ffffffffffffffffffffffffffffffffffffffff021916908373ffffffffffffffffffffffffffffffffffffffff1602179055506060820151816003019081620001bc9190620004e3565b506080820151816004019081620001d49190620004e3565b50905050505050565b6000819050919050565b7f4e487b7100000000000000000000000000000000000000000000000000000000600052601160045260246000fd5b60006200022382620001dd565b91506200023083620001dd565b9250827fffffffffffffffffffffffffffffffffffffffffffffffffffffffffffffffff03821115620002685762000267620001e7565b5b828201905092915050565b600081519050919050565b7f4e487b7100000000000000000000000000000000000000000000000000000000600052604160045260246000fd5b7f4e487b7100000000000000000000000000000000000000000000000000000000600052602260045260246000fd5b60006002820490506001821680620002f557607f821691505b6020821081036200030b576200030a620002ad565b5b50919050565b60008190508160005260206000209050919050565b60006020601f8301049050919050565b600082821b905092915050565b600060088302620003757fffffffffffffffffffffffffffffffffffffffffffffffffffffffffffffffff8262000336565b62000381868362000336565b95508019841693508086168417925050509392505050565b6000819050919050565b6000620003c4620003be620003b884620001dd565b62000399565b620001dd565b9050919050565b6000819050919050565b620003e083620003a3565b620003f8620003ef82620003cb565b84845462000343565b825550505050565b600090565b6200040f62000400565b6200041c818484620003d5565b505050565b5b8181101562000444576200043860008262000405565b60018101905062000422565b5050565b601f82111562000493576200045d8162000311565b620004688462000326565b8101602085101562000478578190505b62000490620004878562000326565b83018262000421565b50505b505050565b600082821c905092915050565b6000620004b86000198460080262000498565b1980831691505092915050565b6000620004d38383620004a5565b9150826002028217905092915050565b620004ee8262000273565b67ffffffffffffffff8111156200050a57620005096200027e565b5b620005168254620002dc565b6200052382828562000448565b600060209050601f8311600181146200055b576000841562000546578287015190505b620005528582620004c5565b865550620005c2565b601f1984166200056b8662000311565b60005b8281101562000595578489015182556001820191506020850194506020810190506200056e565b86831015620005b55784890151620005b1601f891682620004a5565b8355505b6001600288020188555050505b505050505050565b61140780620005da6000396000f3fe608060405234801561001057600080fd5b50600436106100415760003560e01c80634cd08d0314610046578063a34cdda514610076578063f4f4d23714610094575b600080fd5b610060600480360381019061005b9190610c07565b6100c4565b60405161006d9190610e14565b60405180910390f35b61007e61040c565b60405161008b9190610f7c565b60405180910390f35b6100ae60048036038101906100a99190610fca565b610825565b6040516100bb9190610e14565b60405180910390f35b6100cc610a68565b60016000808282546100de9190611026565b925050819055506040518060a0016040528060005481526020018581526020013373ffffffffffffffffffffffffffffffffffffffff1681526020018481526020018381525060016000805481526020019081526020016000206000820151816000015560208201518160010190816101579190611288565b5060408201518160020160006101000a81548173ffffffffffffffffffffffffffffffffffffffff021916908373ffffffffffffffffffffffffffffffffffffffff16021790555060608201518160030190816101b49190611288565b5060808201518160040190816101ca9190611288565b5090505060016000805481526020019081526020016000206040518060a001604052908160008201548152602001600182018054610207906110ab565b80601f0160208091040260200160405190810160405280929190818152602001828054610233906110ab565b80156102805780601f1061025557610100808354040283529160200191610280565b820191906000526020600020905b81548152906001019060200180831161026357829003601f168201915b505050505081526020016002820160009054906101000a900473ffffffffffffffffffffffffffffffffffffffff1673ffffffffffffffffffffffffffffffffffffffff1673ffffffffffffffffffffffffffffffffffffffff1681526020016003820180546102ef906110ab565b80601f016020809104026020016040519081016040528092919081815260200182805461031b906110ab565b80156103685780601f1061033d57610100808354040283529160200191610368565b820191906000526020600020905b81548152906001019060200180831161034b57829003601f168201915b50505050508152602001600482018054610381906110ab565b80601f01602080910402602001604051908101604052809291908181526020018280546103ad906110ab565b80156103fa5780601f106103cf576101008083540402835291602001916103fa565b820191906000526020600020905b8154815290600101906020018083116103dd57829003601f168201915b50505050508152505090509392505050565b60606000805467ffffffffffffffff81111561042b5761042a610adc565b5b60405190808252806020026020018201604052801561046457816020015b610451610a68565b8152602001906001900390816104495790505b5090506000805b60005481101561076b573373ffffffffffffffffffffffffffffffffffffffff166001600060018461049d9190611026565b815260200190815260200160002060020160009054906101000a900473ffffffffffffffffffffffffffffffffffffffff1673ffffffffffffffffffffffffffffffffffffffff160361075857600160006001836104fb9190611026565b81526020019081526020016000206040518060a00160405290816000820154815260200160018201805461052e906110ab565b80601f016020809104026020016040519081016040528092919081815260200182805461055a906110ab565b80156105a75780601f1061057c576101008083540402835291602001916105a7565b820191906000526020600020905b81548152906001019060200180831161058a57829003601f168201915b505050505081526020016002820160009054906101000a900473ffffffffffffffffffffffffffffffffffffffff1673ffffffffffffffffffffffffffffffffffffffff1673ffffffffffffffffffffffffffffffffffffffff168152602001600382018054610616906110ab565b80601f0160208091040260200160405190810160405280929190818152602001828054610642906110ab565b801561068f5780601f106106645761010080835404028352916020019161068f565b820191906000526020600020905b81548152906001019060200180831161067257829003601f168201915b505050505081526020016004820180546106a8906110ab565b80601f01602080910402602001604051908101604052809291908181526020018280546106d4906110ab565b80156107215780601f106106f657610100808354040283529160200191610721565b820191906000526020600020905b81548152906001019060200180831161070457829003601f168201915b50505050508152505083838151811061073d5761073c61135a565b5b60200260200101819052506001826107559190611026565b91505b808061076390611389565b91505061046b565b5060008167ffffffffffffffff81111561078857610787610adc565b5b6040519080825280602002602001820160405280156107c157816020015b6107ae610a68565b8152602001906001900390816107a65790505b50905060005b8281101561081b578381815181106107e2576107e161135a565b5b60200260200101518282815181106107fd576107fc61135a565b5b6020026020010181905250808061081390611389565b9150506107c7565b5080935050505090565b61082d610a68565b600160008381526020019081526020016000206040518060a001604052908160008201548152602001600182018054610865906110ab565b80601f0160208091040260200160405190810160405280929190818152602001828054610891906110ab565b80156108de5780601f106108b3576101008083540402835291602001916108de565b820191906000526020600020905b8154815290600101906020018083116108c157829003601f168201915b505050505081526020016002820160009054906101000a900473ffffffffffffffffffffffffffffffffffffffff1673ffffffffffffffffffffffffffffffffffffffff1673ffffffffffffffffffffffffffffffffffffffff16815260200160038201805461094d906110ab565b80601f0160208091040260200160405190810160405280929190818152602001828054610979906110ab565b80156109c65780601f1061099b576101008083540402835291602001916109c6565b820191906000526020600020905b8154815290600101906020018083116109a957829003601f168201915b505050505081526020016004820180546109df906110ab565b80601f0160208091040260200160405190810160405280929190818152602001828054610a0b906110ab565b8015610a585780601f10610a2d57610100808354040283529160200191610a58565b820191906000526020600020905b815481529060010190602001808311610a3b57829003601f168201915b5050505050815250509050919050565b6040518060a001604052806000815260200160608152602001600073ffffffffffffffffffffffffffffffffffffffff16815260200160608152602001606081525090565b6000604051905090565b600080fd5b600080fd5b600080fd5b600080fd5b6000601f19601f8301169050919050565b7f4e487b7100000000000000000000000000000000000000000000000000000000600052604160045260246000fd5b610b1482610acb565b810181811067ffffffffffffffff82111715610b3357610b32610adc565b5b80604052505050565b6000610b46610aad565b9050610b528282610b0b565b919050565b600067ffffffffffffffff821115610b7257610b71610adc565b5b610b7b82610acb565b9050602081019050919050565b82818337600083830152505050565b6000610baa610ba584610b57565b610b3c565b905082815260208101848484011115610bc657610bc5610ac6565b5b610bd1848285610b88565b509392505050565b600082601f830112610bee57610bed610ac1565b5b8135610bfe848260208601610b97565b91505092915050565b600080600060608486031215610c2057610c1f610ab7565b5b600084013567ffffffffffffffff811115610c3e57610c3d610abc565b5b610c4a86828701610bd9565b935050602084013567ffffffffffffffff811115610c6b57610c6a610abc565b5b610c7786828701610bd9565b925050604084013567ffffffffffffffff811115610c9857610c97610abc565b5b610ca486828701610bd9565b9150509250925092565b6000819050919050565b610cc181610cae565b82525050565b600081519050919050565b600082825260208201905092915050565b60005b83811015610d01578082015181840152602081019050610ce6565b83811115610d10576000848401525b50505050565b6000610d2182610cc7565b610d2b8185610cd2565b9350610d3b818560208601610ce3565b610d4481610acb565b840191505092915050565b600073ffffffffffffffffffffffffffffffffffffffff82169050919050565b6000610d7a82610d4f565b9050919050565b610d8a81610d6f565b82525050565b600060a083016000830151610da86000860182610cb8565b5060208301518482036020860152610dc08282610d16565b9150506040830151610dd56040860182610d81565b5060608301518482036060860152610ded8282610d16565b91505060808301518482036080860152610e078282610d16565b9150508091505092915050565b60006020820190508181036000830152610e2e8184610d90565b905092915050565b600081519050919050565b600082825260208201905092915050565b6000819050602082019050919050565b600060a083016000830151610e7a6000860182610cb8565b5060208301518482036020860152610e928282610d16565b9150506040830151610ea76040860182610d81565b5060608301518482036060860152610ebf8282610d16565b91505060808301518482036080860152610ed98282610d16565b9150508091505092915050565b6000610ef28383610e62565b905092915050565b6000602082019050919050565b6000610f1282610e36565b610f1c8185610e41565b935083602082028501610f2e85610e52565b8060005b85811015610f6a5784840389528151610f4b8582610ee6565b9450610f5683610efa565b925060208a01995050600181019050610f32565b50829750879550505050505092915050565b60006020820190508181036000830152610f968184610f07565b905092915050565b610fa781610cae565b8114610fb257600080fd5b50565b600081359050610fc481610f9e565b92915050565b600060208284031215610fe057610fdf610ab7565b5b6000610fee84828501610fb5565b91505092915050565b7f4e487b7100000000000000000000000000000000000000000000000000000000600052601160045260246000fd5b600061103182610cae565b915061103c83610cae565b9250827fffffffffffffffffffffffffffffffffffffffffffffffffffffffffffffffff0382111561107157611070610ff7565b5b828201905092915050565b7f4e487b7100000000000000000000000000000000000000000000000000000000600052602260045260246000fd5b600060028204905060018216806110c357607f821691505b6020821081036110d6576110d561107c565b5b50919050565b60008190508160005260206000209050919050565b60006020601f8301049050919050565b600082821b905092915050565b60006008830261113e7fffffffffffffffffffffffffffffffffffffffffffffffffffffffffffffffff82611101565b6111488683611101565b95508019841693508086168417925050509392505050565b6000819050919050565b600061118561118061117b84610cae565b611160565b610cae565b9050919050565b6000819050919050565b61119f8361116a565b6111b36111ab8261118c565b84845461110e565b825550505050565b600090565b6111c86111bb565b6111d3818484611196565b505050565b5b818110156111f7576111ec6000826111c0565b6001810190506111d9565b5050565b601f82111561123c5761120d816110dc565b611216846110f1565b81016020851015611225578190505b611239611231856110f1565b8301826111d8565b50505b505050565b600082821c905092915050565b600061125f60001984600802611241565b1980831691505092915050565b6000611278838361124e565b9150826002028217905092915050565b61129182610cc7565b67ffffffffffffffff8111156112aa576112a9610adc565b5b6112b482546110ab565b6112bf8282856111fb565b600060209050601f8311600181146112f257600084156112e0578287015190505b6112ea858261126c565b865550611352565b601f198416611300866110dc565b60005b8281101561132857848901518255600182019150602085019450602081019050611303565b868310156113455784890151611341601f89168261124e565b8355505b6001600288020188555050505b505050505050565b7f4e487b7100000000000000000000000000000000000000000000000000000000600052603260045260246000fd5b600061139482610cae565b91507fffffffffffffffffffffffffffffffffffffffffffffffffffffffffffffffff82036113c6576113c5610ff7565b5b60018201905091905056fea2646970667358221220544756555f0bf73f3a0c69f657dd22febeaa31b0d5edf6b5cd8927504172856c64736f6c634300080f0033",
  "immutableReferences": {},
  "source": "// SPDX-License-Identifier: GPL-3.0\n\npragma solidity >=0.7.0 <0.9.0;\n\n\n/**\n * @title Farm\n * @dev Store & retrieve Aquaponic farm information\n */\ncontract Farm {\n\n    \n    struct FarmUnit {\n        uint id;\n        string name;\n        address owner;\n        string plantType;\n        string fishType;\n    }\n\n    constructor(){\n        recordInit(\"Aquaponic Farm 1\", \"Basil\", \"Tilapia\");\n    }\n\n    uint256 farmCount = 0;\n    mapping(uint => FarmUnit) farms;\n\n    function recordInit(string memory _name, string memory _plantType, string memory _fishType) internal{\n       farmCount += 1;\n       farms[farmCount] = FarmUnit(farmCount, _name, msg.sender, _plantType, _fishType);\n    }\n\n    function register(string memory _name, string memory _plantType, string memory _fishType) public returns(FarmUnit memory){\n       farmCount += 1;\n       farms[farmCount] = FarmUnit(farmCount, _name, msg.sender, _plantType, _fishType);\n       return farms[farmCount];\n    }\n\n\n    function getById(uint _id) public view returns(FarmUnit memory) {\n        return farms[_id];\n    }\n\n    function getAllMyFarms() public view returns(FarmUnit[] memory) {\n        FarmUnit[] memory retBuffer = new FarmUnit[](farmCount);\n        uint256 retCount = 0;\n        for (uint i = 0; i < farmCount; i++) {\n            if(farms[i+1].owner == msg.sender) {\n                retBuffer[retCount] = farms[i+1];\n                retCount += 1;\n            }\n        }\n\n        FarmUnit[] memory ret = new FarmUnit[](retCount);\n        for (uint i = 0; i < retCount; i++) {\n            ret[i] = retBuffer[i];\n        }\n\n        return ret;\n    }\n    \n}",
  "sourcePath": "/Users/pongsit/Documents/iWorks/aquaponic-frontend/contracts/Farm.sol",
  "compiler": {
    "name": "solc",
    "version": "0.8.15+commit.e14f2714.Emscripten.clang"
  },
  "schemaVersion": "3.4.8",
  "updatedAt": "2022-07-24T14:06:18.506Z",
  "devdoc": {
    "details": "Store & retrieve Aquaponic farm information",
    "kind": "dev",
    "methods": {},
    "title": "Farm",
    "version": 1
  },
  "userdoc": {
    "kind": "user",
    "methods": {},
    "version": 1
  }
}