{
  "contractName": "FishFeedingRecord",
  "abi": [
    {
      "inputs": [
        {
          "internalType": "uint256",
          "name": "_farm_id",
          "type": "uint256"
        },
        {
          "internalType": "string",
          "name": "_formula",
          "type": "string"
        },
        {
          "internalType": "uint256",
          "name": "_quantity",
          "type": "uint256"
        }
      ],
      "name": "feedFish",
      "outputs": [
        {
          "internalType": "uint256",
          "name": "",
          "type": "uint256"
        },
        {
          "internalType": "uint256",
          "name": "",
          "type": "uint256"
        },
        {
          "internalType": "string",
          "name": "",
          "type": "string"
        },
        {
          "internalType": "uint256",
          "name": "",
          "type": "uint256"
        },
        {
          "internalType": "uint256",
          "name": "",
          "type": "uint256"
        }
      ],
      "stateMutability": "nonpayable",
      "type": "function"
    },
    {
      "inputs": [
        {
          "internalType": "uint256",
          "name": "_farm_id",
          "type": "uint256"
        },
        {
          "internalType": "uint256",
          "name": "_since_timestamp",
          "type": "uint256"
        }
      ],
      "name": "getByFarmIdSince",
      "outputs": [
        {
          "components": [
            {
              "internalType": "uint256",
              "name": "_id",
              "type": "uint256"
            },
            {
              "internalType": "uint256",
              "name": "_farm_id",
              "type": "uint256"
            },
            {
              "internalType": "string",
              "name": "_formula",
              "type": "string"
            },
            {
              "internalType": "uint256",
              "name": "_quantity",
              "type": "uint256"
            },
            {
              "internalType": "uint256",
              "name": "_timestamp",
              "type": "uint256"
            }
          ],
          "internalType": "struct FishFeedingRecord.FeedRecord[]",
          "name": "",
          "type": "tuple[]"
        }
      ],
      "stateMutability": "view",
      "type": "function"
    },
    {
      "inputs": [
        {
          "internalType": "uint256",
          "name": "_farm_id",
          "type": "uint256"
        },
        {
          "internalType": "uint256",
          "name": "_from_timestamp",
          "type": "uint256"
        },
        {
          "internalType": "uint256",
          "name": "_to_timestamp",
          "type": "uint256"
        }
      ],
      "name": "getByFarmIdInAPeriod",
      "outputs": [
        {
          "components": [
            {
              "internalType": "uint256",
              "name": "_id",
              "type": "uint256"
            },
            {
              "internalType": "uint256",
              "name": "_farm_id",
              "type": "uint256"
            },
            {
              "internalType": "string",
              "name": "_formula",
              "type": "string"
            },
            {
              "internalType": "uint256",
              "name": "_quantity",
              "type": "uint256"
            },
            {
              "internalType": "uint256",
              "name": "_timestamp",
              "type": "uint256"
            }
          ],
          "internalType": "struct FishFeedingRecord.FeedRecord[]",
          "name": "",
          "type": "tuple[]"
        }
      ],
      "stateMutability": "view",
      "type": "function"
    }
  ],
  "bytecode": "0x60806040526000805534801561001457600080fd5b5061121a806100246000396000f3fe608060405234801561001057600080fd5b50600436106100415760003560e01c806323a68a4914610046578063416ccf851461007a5780637aa747c8146100aa575b600080fd5b610060600480360381019061005b9190610a30565b6100da565b604051610071959493929190610b36565b60405180910390f35b610094600480360381019061008f9190610b90565b610300565b6040516100a19190610d74565b60405180910390f35b6100c460048036038101906100bf9190610d96565b6105d0565b6040516100d19190610d74565b60405180910390f35b60008060606000806040518060a00160405280600054815260200189815260200188815260200187815260200142815250600260008a81526020019081526020016000206000600160008c81526020019081526020016000205481526020019081526020016000206000820151816000015560208201518160010155604082015181600201908161016b9190610fe2565b506060820151816003015560808201518160040155905050600160008082825461019591906110e3565b9250508190555060018060008a815260200190815260200160002060008282546101bf91906110e3565b925050819055506000600260008a8152602001908152602001600020600060018060008d8152602001908152602001600020546101fc9190611139565b81526020019081526020016000206040518060a0016040529081600082015481526020016001820154815260200160028201805461023990610e05565b80601f016020809104026020016040519081016040528092919081815260200182805461026590610e05565b80156102b25780601f10610287576101008083540402835291602001916102b2565b820191906000526020600020905b81548152906001019060200180831161029557829003601f168201915b50505050508152602001600382015481526020016004820154815250509050806000015181602001518260400151836060015184608001519550955095509550955050939792965093509350565b60606000600160008681526020019081526020016000205467ffffffffffffffff81111561033157610330610905565b5b60405190808252806020026020018201604052801561036a57816020015b610357610871565b81526020019060019003908161034f5790505b5090506000805b6001600088815260200190815260200160002054811015610512578560026000898152602001908152602001600020600083815260200190815260200160002060040154106104ff57846002600089815260200190815260200160002060008381526020019081526020016000206004015411610512576002600088815260200190815260200160002060008281526020019081526020016000206040518060a0016040529081600082015481526020016001820154815260200160028201805461043b90610e05565b80601f016020809104026020016040519081016040528092919081815260200182805461046790610e05565b80156104b45780601f10610489576101008083540402835291602001916104b4565b820191906000526020600020905b81548152906001019060200180831161049757829003601f168201915b50505050508152602001600382015481526020016004820154815250508383815181106104e4576104e361116d565b5b60200260200101819052506001826104fc91906110e3565b91505b808061050a9061119c565b915050610371565b5060008167ffffffffffffffff81111561052f5761052e610905565b5b60405190808252806020026020018201604052801561056857816020015b610555610871565b81526020019060019003908161054d5790505b50905060005b828110156105c2578381815181106105895761058861116d565b5b60200260200101518282815181106105a4576105a361116d565b5b602002602001018190525080806105ba9061119c565b91505061056e565b508093505050509392505050565b60606000600160008581526020019081526020016000205467ffffffffffffffff81111561060157610600610905565b5b60405190808252806020026020018201604052801561063a57816020015b610627610871565b81526020019060019003908161061f5790505b5090506000805b60016000878152602001908152602001600020548110156107b4578460026000888152602001908152602001600020600083815260200190815260200160002060040154106107a1576002600087815260200190815260200160002060008281526020019081526020016000206040518060a001604052908160008201548152602001600182015481526020016002820180546106dd90610e05565b80601f016020809104026020016040519081016040528092919081815260200182805461070990610e05565b80156107565780601f1061072b57610100808354040283529160200191610756565b820191906000526020600020905b81548152906001019060200180831161073957829003601f168201915b50505050508152602001600382015481526020016004820154815250508383815181106107865761078561116d565b5b602002602001018190525060018261079e91906110e3565b91505b80806107ac9061119c565b915050610641565b5060008167ffffffffffffffff8111156107d1576107d0610905565b5b60405190808252806020026020018201604052801561080a57816020015b6107f7610871565b8152602001906001900390816107ef5790505b50905060005b828110156108645783818151811061082b5761082a61116d565b5b60200260200101518282815181106108465761084561116d565b5b6020026020010181905250808061085c9061119c565b915050610810565b5080935050505092915050565b6040518060a0016040528060008152602001600081526020016060815260200160008152602001600081525090565b6000604051905090565b600080fd5b600080fd5b6000819050919050565b6108c7816108b4565b81146108d257600080fd5b50565b6000813590506108e4816108be565b92915050565b600080fd5b600080fd5b6000601f19601f8301169050919050565b7f4e487b7100000000000000000000000000000000000000000000000000000000600052604160045260246000fd5b61093d826108f4565b810181811067ffffffffffffffff8211171561095c5761095b610905565b5b80604052505050565b600061096f6108a0565b905061097b8282610934565b919050565b600067ffffffffffffffff82111561099b5761099a610905565b5b6109a4826108f4565b9050602081019050919050565b82818337600083830152505050565b60006109d36109ce84610980565b610965565b9050828152602081018484840111156109ef576109ee6108ef565b5b6109fa8482856109b1565b509392505050565b600082601f830112610a1757610a166108ea565b5b8135610a278482602086016109c0565b91505092915050565b600080600060608486031215610a4957610a486108aa565b5b6000610a57868287016108d5565b935050602084013567ffffffffffffffff811115610a7857610a776108af565b5b610a8486828701610a02565b9250506040610a95868287016108d5565b9150509250925092565b610aa8816108b4565b82525050565b600081519050919050565b600082825260208201905092915050565b60005b83811015610ae8578082015181840152602081019050610acd565b83811115610af7576000848401525b50505050565b6000610b0882610aae565b610b128185610ab9565b9350610b22818560208601610aca565b610b2b816108f4565b840191505092915050565b600060a082019050610b4b6000830188610a9f565b610b586020830187610a9f565b8181036040830152610b6a8186610afd565b9050610b796060830185610a9f565b610b866080830184610a9f565b9695505050505050565b600080600060608486031215610ba957610ba86108aa565b5b6000610bb7868287016108d5565b9350506020610bc8868287016108d5565b9250506040610bd9868287016108d5565b9150509250925092565b600081519050919050565b600082825260208201905092915050565b6000819050602082019050919050565b610c18816108b4565b82525050565b600082825260208201905092915050565b6000610c3a82610aae565b610c448185610c1e565b9350610c54818560208601610aca565b610c5d816108f4565b840191505092915050565b600060a083016000830151610c806000860182610c0f565b506020830151610c936020860182610c0f565b5060408301518482036040860152610cab8282610c2f565b9150506060830151610cc06060860182610c0f565b506080830151610cd36080860182610c0f565b508091505092915050565b6000610cea8383610c68565b905092915050565b6000602082019050919050565b6000610d0a82610be3565b610d148185610bee565b935083602082028501610d2685610bff565b8060005b85811015610d625784840389528151610d438582610cde565b9450610d4e83610cf2565b925060208a01995050600181019050610d2a565b50829750879550505050505092915050565b60006020820190508181036000830152610d8e8184610cff565b905092915050565b60008060408385031215610dad57610dac6108aa565b5b6000610dbb858286016108d5565b9250506020610dcc858286016108d5565b9150509250929050565b7f4e487b7100000000000000000000000000000000000000000000000000000000600052602260045260246000fd5b60006002820490506001821680610e1d57607f821691505b602082108103610e3057610e2f610dd6565b5b50919050565b60008190508160005260206000209050919050565b60006020601f8301049050919050565b600082821b905092915050565b600060088302610e987fffffffffffffffffffffffffffffffffffffffffffffffffffffffffffffffff82610e5b565b610ea28683610e5b565b95508019841693508086168417925050509392505050565b6000819050919050565b6000610edf610eda610ed5846108b4565b610eba565b6108b4565b9050919050565b6000819050919050565b610ef983610ec4565b610f0d610f0582610ee6565b848454610e68565b825550505050565b600090565b610f22610f15565b610f2d818484610ef0565b505050565b5b81811015610f5157610f46600082610f1a565b600181019050610f33565b5050565b601f821115610f9657610f6781610e36565b610f7084610e4b565b81016020851015610f7f578190505b610f93610f8b85610e4b565b830182610f32565b50505b505050565b600082821c905092915050565b6000610fb960001984600802610f9b565b1980831691505092915050565b6000610fd28383610fa8565b9150826002028217905092915050565b610feb82610aae565b67ffffffffffffffff81111561100457611003610905565b5b61100e8254610e05565b611019828285610f55565b600060209050601f83116001811461104c576000841561103a578287015190505b6110448582610fc6565b8655506110ac565b601f19841661105a86610e36565b60005b828110156110825784890151825560018201915060208501945060208101905061105d565b8683101561109f578489015161109b601f891682610fa8565b8355505b6001600288020188555050505b505050505050565b7f4e487b7100000000000000000000000000000000000000000000000000000000600052601160045260246000fd5b60006110ee826108b4565b91506110f9836108b4565b9250827fffffffffffffffffffffffffffffffffffffffffffffffffffffffffffffffff0382111561112e5761112d6110b4565b5b828201905092915050565b6000611144826108b4565b915061114f836108b4565b925082821015611162576111616110b4565b5b828203905092915050565b7f4e487b7100000000000000000000000000000000000000000000000000000000600052603260045260246000fd5b60006111a7826108b4565b91507fffffffffffffffffffffffffffffffffffffffffffffffffffffffffffffffff82036111d9576111d86110b4565b5b60018201905091905056fea264697066735822122050574a4a951a44d978c80e69fdc0fa02b8297d868dad8ad3656647565fc5149564736f6c634300080f0033",
  "immutableReferences": {},
  "source": "// SPDX-License-Identifier: GPL-3.0\n\npragma solidity >=0.7.0 <0.9.0;\n\n\n/**\n * @title FishFeedingRecord\n * @dev Store & retrieve Fish feeding record Information\n */\ncontract FishFeedingRecord {\n    \n    struct FeedRecord {\n        uint _id;\n        uint _farm_id;\n        string _formula;\n        uint _quantity;\n        uint _timestamp;\n    }\n\n    uint256 feedRecordCount = 0;\n    mapping(uint => uint) feedRecordByFarmCount;\n    mapping(uint => mapping(uint => FeedRecord)) feedRecordByFarmMapping;\n\n\n    function feedFish(uint _farm_id, string memory _formula, uint _quantity) public returns(uint, uint, string memory, uint, uint){\n        feedRecordByFarmMapping[_farm_id][ feedRecordByFarmCount[_farm_id] ] =\n            FeedRecord(feedRecordCount, _farm_id ,_formula, _quantity, block.timestamp);\n\n        feedRecordCount += 1;\n        feedRecordByFarmCount[_farm_id] += 1;\n\n        FeedRecord memory f = feedRecordByFarmMapping[_farm_id][ feedRecordByFarmCount[_farm_id] - 1];\n\n        return (\n            f._id,\n            f._farm_id,\n            f._formula,\n            f._quantity,\n            f._timestamp\n        );\n    }\n\n\n    function getByFarmIdSince(uint _farm_id, uint _since_timestamp) public view returns(FeedRecord[] memory){\n        FeedRecord[] memory retBuffer = new FeedRecord[]( feedRecordByFarmCount[_farm_id] );\n\n        uint retBufferCount = 0;\n        for(uint i=0; i<feedRecordByFarmCount[_farm_id]; i++){\n            if(feedRecordByFarmMapping[_farm_id][i]._timestamp < _since_timestamp){\n                continue;\n            } else {\n                retBuffer[retBufferCount] = feedRecordByFarmMapping[_farm_id][i];\n                retBufferCount += 1;\n            }\n        }\n\n        FeedRecord[] memory ret = new FeedRecord[]( retBufferCount );\n        for(uint i=0; i<retBufferCount; i++){\n            ret[i] = retBuffer[i];\n        }\n\n        return ret;\n    }\n\n    function getByFarmIdInAPeriod(uint _farm_id, uint _from_timestamp, uint _to_timestamp) public view returns(FeedRecord[] memory){\n        FeedRecord[] memory retBuffer = new FeedRecord[]( feedRecordByFarmCount[_farm_id] );\n\n        uint retBufferCount = 0;\n        for(uint i=0; i<feedRecordByFarmCount[_farm_id]; i++){\n            if(feedRecordByFarmMapping[_farm_id][i]._timestamp < _from_timestamp){\n                continue;\n            } else if (feedRecordByFarmMapping[_farm_id][i]._timestamp > _to_timestamp) {\n                break;\n            } else {\n                retBuffer[retBufferCount] = feedRecordByFarmMapping[_farm_id][i];\n                retBufferCount += 1;\n            }\n        }\n\n        FeedRecord[] memory ret = new FeedRecord[]( retBufferCount );\n        for(uint i=0; i<retBufferCount; i++){\n            ret[i] = retBuffer[i];\n        }\n\n        return ret;\n    }\n}",
  "sourcePath": "/Users/pongsit/Documents/iWorks/aquaponic-frontend/contracts/FishFeedingRecord.sol",
  "compiler": {
    "name": "solc",
    "version": "0.8.15+commit.e14f2714.Emscripten.clang"
  },
  "schemaVersion": "3.4.8",
  "updatedAt": "2022-07-24T07:10:18.837Z",
  "devdoc": {
    "details": "Store & retrieve Fish feeding record Information",
    "kind": "dev",
    "methods": {},
    "title": "FishFeedingRecord",
    "version": 1
  },
  "userdoc": {
    "kind": "user",
    "methods": {},
    "version": 1
  }
}