{
  "contractName": "FishFeedingRecord",
  "abi": [
    {
      "inputs": [
        {
          "internalType": "uint256",
          "name": "_farm_id",
          "type": "uint256"
        },
        {
          "internalType": "string",
          "name": "_formula",
          "type": "string"
        },
        {
          "internalType": "uint256",
          "name": "_quantity",
          "type": "uint256"
        }
      ],
      "name": "feedFish",
      "outputs": [
        {
          "components": [
            {
              "internalType": "uint256",
              "name": "id",
              "type": "uint256"
            },
            {
              "internalType": "uint256",
              "name": "farm_id",
              "type": "uint256"
            },
            {
              "internalType": "string",
              "name": "formula",
              "type": "string"
            },
            {
              "internalType": "uint256",
              "name": "quantity",
              "type": "uint256"
            },
            {
              "internalType": "uint256",
              "name": "timestamp",
              "type": "uint256"
            }
          ],
          "internalType": "struct FishFeedingRecord.FeedRecord",
          "name": "",
          "type": "tuple"
        }
      ],
      "stateMutability": "nonpayable",
      "type": "function"
    },
    {
      "inputs": [
        {
          "internalType": "uint256",
          "name": "_farm_id",
          "type": "uint256"
        },
        {
          "internalType": "uint256",
          "name": "_since_timestamp",
          "type": "uint256"
        }
      ],
      "name": "getByFarmIdSince",
      "outputs": [
        {
          "components": [
            {
              "internalType": "uint256",
              "name": "id",
              "type": "uint256"
            },
            {
              "internalType": "uint256",
              "name": "farm_id",
              "type": "uint256"
            },
            {
              "internalType": "string",
              "name": "formula",
              "type": "string"
            },
            {
              "internalType": "uint256",
              "name": "quantity",
              "type": "uint256"
            },
            {
              "internalType": "uint256",
              "name": "timestamp",
              "type": "uint256"
            }
          ],
          "internalType": "struct FishFeedingRecord.FeedRecord[]",
          "name": "",
          "type": "tuple[]"
        }
      ],
      "stateMutability": "view",
      "type": "function"
    },
    {
      "inputs": [
        {
          "internalType": "uint256",
          "name": "_farm_id",
          "type": "uint256"
        },
        {
          "internalType": "uint256",
          "name": "_from_timestamp",
          "type": "uint256"
        },
        {
          "internalType": "uint256",
          "name": "_to_timestamp",
          "type": "uint256"
        }
      ],
      "name": "getByFarmIdInAPeriod",
      "outputs": [
        {
          "components": [
            {
              "internalType": "uint256",
              "name": "id",
              "type": "uint256"
            },
            {
              "internalType": "uint256",
              "name": "farm_id",
              "type": "uint256"
            },
            {
              "internalType": "string",
              "name": "formula",
              "type": "string"
            },
            {
              "internalType": "uint256",
              "name": "quantity",
              "type": "uint256"
            },
            {
              "internalType": "uint256",
              "name": "timestamp",
              "type": "uint256"
            }
          ],
          "internalType": "struct FishFeedingRecord.FeedRecord[]",
          "name": "",
          "type": "tuple[]"
        }
      ],
      "stateMutability": "view",
      "type": "function"
    }
  ],
  "bytecode": "0x60806040526000805534801561001457600080fd5b506111d1806100246000396000f3fe608060405234801561001057600080fd5b50600436106100415760003560e01c806323a68a4914610046578063416ccf85146100765780637aa747c8146100a6575b600080fd5b610060600480360381019061005b9190610a02565b6100d6565b60405161006d9190610b7e565b60405180910390f35b610090600480360381019061008b9190610ba0565b6102d2565b60405161009d9190610d2b565b60405180910390f35b6100c060048036038101906100bb9190610d4d565b6105a2565b6040516100cd9190610d2b565b60405180910390f35b6100de610843565b6040518060a0016040528060005481526020018581526020018481526020018381526020014281525060026000868152602001908152602001600020600060016000888152602001908152602001600020548152602001908152602001600020600082015181600001556020820151816001015560408201518160020190816101679190610f99565b5060608201518160030155608082015181600401559050506001600080828254610191919061109a565b92505081905550600180600086815260200190815260200160002060008282546101bb919061109a565b925050819055506002600085815260200190815260200160002060006001806000888152602001908152602001600020546101f691906110f0565b81526020019081526020016000206040518060a0016040529081600082015481526020016001820154815260200160028201805461023390610dbc565b80601f016020809104026020016040519081016040528092919081815260200182805461025f90610dbc565b80156102ac5780601f10610281576101008083540402835291602001916102ac565b820191906000526020600020905b81548152906001019060200180831161028f57829003601f168201915b505050505081526020016003820154815260200160048201548152505090509392505050565b60606000600160008681526020019081526020016000205467ffffffffffffffff811115610303576103026108d7565b5b60405190808252806020026020018201604052801561033c57816020015b610329610843565b8152602001906001900390816103215790505b5090506000805b60016000888152602001908152602001600020548110156104e4578560026000898152602001908152602001600020600083815260200190815260200160002060040154106104d1578460026000898152602001908152602001600020600083815260200190815260200160002060040154116104e4576002600088815260200190815260200160002060008281526020019081526020016000206040518060a0016040529081600082015481526020016001820154815260200160028201805461040d90610dbc565b80601f016020809104026020016040519081016040528092919081815260200182805461043990610dbc565b80156104865780601f1061045b57610100808354040283529160200191610486565b820191906000526020600020905b81548152906001019060200180831161046957829003601f168201915b50505050508152602001600382015481526020016004820154815250508383815181106104b6576104b5611124565b5b60200260200101819052506001826104ce919061109a565b91505b80806104dc90611153565b915050610343565b5060008167ffffffffffffffff811115610501576105006108d7565b5b60405190808252806020026020018201604052801561053a57816020015b610527610843565b81526020019060019003908161051f5790505b50905060005b828110156105945783818151811061055b5761055a611124565b5b602002602001015182828151811061057657610575611124565b5b6020026020010181905250808061058c90611153565b915050610540565b508093505050509392505050565b60606000600160008581526020019081526020016000205467ffffffffffffffff8111156105d3576105d26108d7565b5b60405190808252806020026020018201604052801561060c57816020015b6105f9610843565b8152602001906001900390816105f15790505b5090506000805b600160008781526020019081526020016000205481101561078657846002600088815260200190815260200160002060008381526020019081526020016000206004015410610773576002600087815260200190815260200160002060008281526020019081526020016000206040518060a001604052908160008201548152602001600182015481526020016002820180546106af90610dbc565b80601f01602080910402602001604051908101604052809291908181526020018280546106db90610dbc565b80156107285780601f106106fd57610100808354040283529160200191610728565b820191906000526020600020905b81548152906001019060200180831161070b57829003601f168201915b505050505081526020016003820154815260200160048201548152505083838151811061075857610757611124565b5b6020026020010181905250600182610770919061109a565b91505b808061077e90611153565b915050610613565b5060008167ffffffffffffffff8111156107a3576107a26108d7565b5b6040519080825280602002602001820160405280156107dc57816020015b6107c9610843565b8152602001906001900390816107c15790505b50905060005b82811015610836578381815181106107fd576107fc611124565b5b602002602001015182828151811061081857610817611124565b5b6020026020010181905250808061082e90611153565b9150506107e2565b5080935050505092915050565b6040518060a0016040528060008152602001600081526020016060815260200160008152602001600081525090565b6000604051905090565b600080fd5b600080fd5b6000819050919050565b61089981610886565b81146108a457600080fd5b50565b6000813590506108b681610890565b92915050565b600080fd5b600080fd5b6000601f19601f8301169050919050565b7f4e487b7100000000000000000000000000000000000000000000000000000000600052604160045260246000fd5b61090f826108c6565b810181811067ffffffffffffffff8211171561092e5761092d6108d7565b5b80604052505050565b6000610941610872565b905061094d8282610906565b919050565b600067ffffffffffffffff82111561096d5761096c6108d7565b5b610976826108c6565b9050602081019050919050565b82818337600083830152505050565b60006109a56109a084610952565b610937565b9050828152602081018484840111156109c1576109c06108c1565b5b6109cc848285610983565b509392505050565b600082601f8301126109e9576109e86108bc565b5b81356109f9848260208601610992565b91505092915050565b600080600060608486031215610a1b57610a1a61087c565b5b6000610a29868287016108a7565b935050602084013567ffffffffffffffff811115610a4a57610a49610881565b5b610a56868287016109d4565b9250506040610a67868287016108a7565b9150509250925092565b610a7a81610886565b82525050565b600081519050919050565b600082825260208201905092915050565b60005b83811015610aba578082015181840152602081019050610a9f565b83811115610ac9576000848401525b50505050565b6000610ada82610a80565b610ae48185610a8b565b9350610af4818560208601610a9c565b610afd816108c6565b840191505092915050565b600060a083016000830151610b206000860182610a71565b506020830151610b336020860182610a71565b5060408301518482036040860152610b4b8282610acf565b9150506060830151610b606060860182610a71565b506080830151610b736080860182610a71565b508091505092915050565b60006020820190508181036000830152610b988184610b08565b905092915050565b600080600060608486031215610bb957610bb861087c565b5b6000610bc7868287016108a7565b9350506020610bd8868287016108a7565b9250506040610be9868287016108a7565b9150509250925092565b600081519050919050565b600082825260208201905092915050565b6000819050602082019050919050565b600060a083016000830151610c376000860182610a71565b506020830151610c4a6020860182610a71565b5060408301518482036040860152610c628282610acf565b9150506060830151610c776060860182610a71565b506080830151610c8a6080860182610a71565b508091505092915050565b6000610ca18383610c1f565b905092915050565b6000602082019050919050565b6000610cc182610bf3565b610ccb8185610bfe565b935083602082028501610cdd85610c0f565b8060005b85811015610d195784840389528151610cfa8582610c95565b9450610d0583610ca9565b925060208a01995050600181019050610ce1565b50829750879550505050505092915050565b60006020820190508181036000830152610d458184610cb6565b905092915050565b60008060408385031215610d6457610d6361087c565b5b6000610d72858286016108a7565b9250506020610d83858286016108a7565b9150509250929050565b7f4e487b7100000000000000000000000000000000000000000000000000000000600052602260045260246000fd5b60006002820490506001821680610dd457607f821691505b602082108103610de757610de6610d8d565b5b50919050565b60008190508160005260206000209050919050565b60006020601f8301049050919050565b600082821b905092915050565b600060088302610e4f7fffffffffffffffffffffffffffffffffffffffffffffffffffffffffffffffff82610e12565b610e598683610e12565b95508019841693508086168417925050509392505050565b6000819050919050565b6000610e96610e91610e8c84610886565b610e71565b610886565b9050919050565b6000819050919050565b610eb083610e7b565b610ec4610ebc82610e9d565b848454610e1f565b825550505050565b600090565b610ed9610ecc565b610ee4818484610ea7565b505050565b5b81811015610f0857610efd600082610ed1565b600181019050610eea565b5050565b601f821115610f4d57610f1e81610ded565b610f2784610e02565b81016020851015610f36578190505b610f4a610f4285610e02565b830182610ee9565b50505b505050565b600082821c905092915050565b6000610f7060001984600802610f52565b1980831691505092915050565b6000610f898383610f5f565b9150826002028217905092915050565b610fa282610a80565b67ffffffffffffffff811115610fbb57610fba6108d7565b5b610fc58254610dbc565b610fd0828285610f0c565b600060209050601f8311600181146110035760008415610ff1578287015190505b610ffb8582610f7d565b865550611063565b601f19841661101186610ded565b60005b8281101561103957848901518255600182019150602085019450602081019050611014565b868310156110565784890151611052601f891682610f5f565b8355505b6001600288020188555050505b505050505050565b7f4e487b7100000000000000000000000000000000000000000000000000000000600052601160045260246000fd5b60006110a582610886565b91506110b083610886565b9250827fffffffffffffffffffffffffffffffffffffffffffffffffffffffffffffffff038211156110e5576110e461106b565b5b828201905092915050565b60006110fb82610886565b915061110683610886565b9250828210156111195761111861106b565b5b828203905092915050565b7f4e487b7100000000000000000000000000000000000000000000000000000000600052603260045260246000fd5b600061115e82610886565b91507fffffffffffffffffffffffffffffffffffffffffffffffffffffffffffffffff82036111905761118f61106b565b5b60018201905091905056fea2646970667358221220b6baca55ca30c68e7145cd2245dfaa709c168fa7ab08ee9d8226c7f252fa7ae464736f6c634300080f0033",
  "immutableReferences": {},
  "source": "// SPDX-License-Identifier: GPL-3.0\n\npragma solidity >=0.7.0 <0.9.0;\n\n\n/**\n * @title FishFeedingRecord\n * @dev Store & retrieve Fish feeding record Information\n */\ncontract FishFeedingRecord {\n    \n    struct FeedRecord {\n        uint id;\n        uint farm_id;\n        string formula;\n        uint quantity;\n        uint timestamp;\n    }\n\n    uint256 feedRecordCount = 0;\n    mapping(uint => uint) feedRecordByFarmCount;\n    mapping(uint => mapping(uint => FeedRecord)) feedRecordByFarmMapping;\n\n\n    function feedFish(uint _farm_id, string memory _formula, uint _quantity) public returns(FeedRecord memory){\n        feedRecordByFarmMapping[_farm_id][ feedRecordByFarmCount[_farm_id] ] =\n            FeedRecord(feedRecordCount, _farm_id ,_formula, _quantity, block.timestamp);\n\n        feedRecordCount += 1;\n        feedRecordByFarmCount[_farm_id] += 1;\n\n        return feedRecordByFarmMapping[_farm_id][ feedRecordByFarmCount[_farm_id] - 1];\n    }\n\n\n    function getByFarmIdSince(uint _farm_id, uint _since_timestamp) public view returns(FeedRecord[] memory){\n        FeedRecord[] memory retBuffer = new FeedRecord[]( feedRecordByFarmCount[_farm_id] );\n\n        uint retBufferCount = 0;\n        for(uint i=0; i<feedRecordByFarmCount[_farm_id]; i++){\n            if(feedRecordByFarmMapping[_farm_id][i].timestamp < _since_timestamp){\n                continue;\n            } else {\n                retBuffer[retBufferCount] = feedRecordByFarmMapping[_farm_id][i];\n                retBufferCount += 1;\n            }\n        }\n\n        FeedRecord[] memory ret = new FeedRecord[]( retBufferCount );\n        for(uint i=0; i<retBufferCount; i++){\n            ret[i] = retBuffer[i];\n        }\n\n        return ret;\n    }\n\n    function getByFarmIdInAPeriod(uint _farm_id, uint _from_timestamp, uint _to_timestamp) public view returns(FeedRecord[] memory){\n        FeedRecord[] memory retBuffer = new FeedRecord[]( feedRecordByFarmCount[_farm_id] );\n\n        uint retBufferCount = 0;\n        for(uint i=0; i<feedRecordByFarmCount[_farm_id]; i++){\n            if(feedRecordByFarmMapping[_farm_id][i].timestamp < _from_timestamp){\n                continue;\n            } else if (feedRecordByFarmMapping[_farm_id][i].timestamp > _to_timestamp) {\n                break;\n            } else {\n                retBuffer[retBufferCount] = feedRecordByFarmMapping[_farm_id][i];\n                retBufferCount += 1;\n            }\n        }\n\n        FeedRecord[] memory ret = new FeedRecord[]( retBufferCount );\n        for(uint i=0; i<retBufferCount; i++){\n            ret[i] = retBuffer[i];\n        }\n\n        return ret;\n    }\n}",
  "sourcePath": "/Users/pongsit/Documents/iWorks/aquaponic-frontend/contracts/FishFeedingRecord.sol",
  "compiler": {
    "name": "solc",
    "version": "0.8.15+commit.e14f2714.Emscripten.clang"
  },
  "schemaVersion": "3.4.8",
  "updatedAt": "2022-07-24T14:06:18.514Z",
  "devdoc": {
    "details": "Store & retrieve Fish feeding record Information",
    "kind": "dev",
    "methods": {},
    "title": "FishFeedingRecord",
    "version": 1
  },
  "userdoc": {
    "kind": "user",
    "methods": {},
    "version": 1
  }
}