{
  "contractName": "FishMedicationRecord",
  "abi": [
    {
      "inputs": [
        {
          "internalType": "uint256",
          "name": "_farm_id",
          "type": "uint256"
        },
        {
          "internalType": "string",
          "name": "_formula",
          "type": "string"
        },
        {
          "internalType": "uint256",
          "name": "_quantity",
          "type": "uint256"
        }
      ],
      "name": "medicateFish",
      "outputs": [
        {
          "internalType": "uint256",
          "name": "",
          "type": "uint256"
        },
        {
          "internalType": "uint256",
          "name": "",
          "type": "uint256"
        },
        {
          "internalType": "string",
          "name": "",
          "type": "string"
        },
        {
          "internalType": "uint256",
          "name": "",
          "type": "uint256"
        },
        {
          "internalType": "uint256",
          "name": "",
          "type": "uint256"
        }
      ],
      "stateMutability": "nonpayable",
      "type": "function"
    },
    {
      "inputs": [
        {
          "internalType": "uint256",
          "name": "_farm_id",
          "type": "uint256"
        },
        {
          "internalType": "uint256",
          "name": "_since_timestamp",
          "type": "uint256"
        }
      ],
      "name": "getByFarmIdSince",
      "outputs": [
        {
          "components": [
            {
              "internalType": "uint256",
              "name": "_id",
              "type": "uint256"
            },
            {
              "internalType": "uint256",
              "name": "_farm_id",
              "type": "uint256"
            },
            {
              "internalType": "string",
              "name": "_formula",
              "type": "string"
            },
            {
              "internalType": "uint256",
              "name": "_quantity",
              "type": "uint256"
            },
            {
              "internalType": "uint256",
              "name": "_timestamp",
              "type": "uint256"
            }
          ],
          "internalType": "struct FishMedicationRecord.MedicationRecord[]",
          "name": "",
          "type": "tuple[]"
        }
      ],
      "stateMutability": "view",
      "type": "function"
    },
    {
      "inputs": [
        {
          "internalType": "uint256",
          "name": "_farm_id",
          "type": "uint256"
        },
        {
          "internalType": "uint256",
          "name": "_from_timestamp",
          "type": "uint256"
        },
        {
          "internalType": "uint256",
          "name": "_to_timestamp",
          "type": "uint256"
        }
      ],
      "name": "getByFarmIdInAPeriod",
      "outputs": [
        {
          "components": [
            {
              "internalType": "uint256",
              "name": "_id",
              "type": "uint256"
            },
            {
              "internalType": "uint256",
              "name": "_farm_id",
              "type": "uint256"
            },
            {
              "internalType": "string",
              "name": "_formula",
              "type": "string"
            },
            {
              "internalType": "uint256",
              "name": "_quantity",
              "type": "uint256"
            },
            {
              "internalType": "uint256",
              "name": "_timestamp",
              "type": "uint256"
            }
          ],
          "internalType": "struct FishMedicationRecord.MedicationRecord[]",
          "name": "",
          "type": "tuple[]"
        }
      ],
      "stateMutability": "view",
      "type": "function"
    }
  ],
  "bytecode": "0x60806040526000805534801561001457600080fd5b5061121a806100246000396000f3fe608060405234801561001057600080fd5b50600436106100415760003560e01c8063416ccf851461004657806361cd3972146100765780637aa747c8146100aa575b600080fd5b610060600480360381019061005b91906108ea565b6100da565b60405161006d9190610b1d565b60405180910390f35b610090600480360381019061008b9190610c74565b6103aa565b6040516100a1959493929190610d3c565b60405180910390f35b6100c460048036038101906100bf9190610d96565b6105d0565b6040516100d19190610b1d565b60405180910390f35b60606000600160008681526020019081526020016000205467ffffffffffffffff81111561010b5761010a610b49565b5b60405190808252806020026020018201604052801561014457816020015b610131610871565b8152602001906001900390816101295790505b5090506000805b60016000888152602001908152602001600020548110156102ec578560026000898152602001908152602001600020600083815260200190815260200160002060040154106102d9578460026000898152602001908152602001600020600083815260200190815260200160002060040154116102ec576002600088815260200190815260200160002060008281526020019081526020016000206040518060a0016040529081600082015481526020016001820154815260200160028201805461021590610e05565b80601f016020809104026020016040519081016040528092919081815260200182805461024190610e05565b801561028e5780601f106102635761010080835404028352916020019161028e565b820191906000526020600020905b81548152906001019060200180831161027157829003601f168201915b50505050508152602001600382015481526020016004820154815250508383815181106102be576102bd610e36565b5b60200260200101819052506001826102d69190610e94565b91505b80806102e490610eea565b91505061014b565b5060008167ffffffffffffffff81111561030957610308610b49565b5b60405190808252806020026020018201604052801561034257816020015b61032f610871565b8152602001906001900390816103275790505b50905060005b8281101561039c5783818151811061036357610362610e36565b5b602002602001015182828151811061037e5761037d610e36565b5b6020026020010181905250808061039490610eea565b915050610348565b508093505050509392505050565b60008060606000806040518060a00160405280600054815260200189815260200188815260200187815260200142815250600260008a81526020019081526020016000206000600160008c81526020019081526020016000205481526020019081526020016000206000820151816000015560208201518160010155604082015181600201908161043b91906110de565b50606082015181600301556080820151816004015590505060016000808282546104659190610e94565b9250508190555060018060008a8152602001908152602001600020600082825461048f9190610e94565b925050819055506000600260008a8152602001908152602001600020600060018060008d8152602001908152602001600020546104cc91906111b0565b81526020019081526020016000206040518060a0016040529081600082015481526020016001820154815260200160028201805461050990610e05565b80601f016020809104026020016040519081016040528092919081815260200182805461053590610e05565b80156105825780601f1061055757610100808354040283529160200191610582565b820191906000526020600020905b81548152906001019060200180831161056557829003601f168201915b50505050508152602001600382015481526020016004820154815250509050806000015181602001518260400151836060015184608001519550955095509550955050939792965093509350565b60606000600160008581526020019081526020016000205467ffffffffffffffff81111561060157610600610b49565b5b60405190808252806020026020018201604052801561063a57816020015b610627610871565b81526020019060019003908161061f5790505b5090506000805b60016000878152602001908152602001600020548110156107b4578460026000888152602001908152602001600020600083815260200190815260200160002060040154106107a1576002600087815260200190815260200160002060008281526020019081526020016000206040518060a001604052908160008201548152602001600182015481526020016002820180546106dd90610e05565b80601f016020809104026020016040519081016040528092919081815260200182805461070990610e05565b80156107565780601f1061072b57610100808354040283529160200191610756565b820191906000526020600020905b81548152906001019060200180831161073957829003601f168201915b505050505081526020016003820154815260200160048201548152505083838151811061078657610785610e36565b5b602002602001018190525060018261079e9190610e94565b91505b80806107ac90610eea565b915050610641565b5060008167ffffffffffffffff8111156107d1576107d0610b49565b5b60405190808252806020026020018201604052801561080a57816020015b6107f7610871565b8152602001906001900390816107ef5790505b50905060005b828110156108645783818151811061082b5761082a610e36565b5b602002602001015182828151811061084657610845610e36565b5b6020026020010181905250808061085c90610eea565b915050610810565b5080935050505092915050565b6040518060a0016040528060008152602001600081526020016060815260200160008152602001600081525090565b6000604051905090565b600080fd5b600080fd5b6000819050919050565b6108c7816108b4565b81146108d257600080fd5b50565b6000813590506108e4816108be565b92915050565b600080600060608486031215610903576109026108aa565b5b6000610911868287016108d5565b9350506020610922868287016108d5565b9250506040610933868287016108d5565b9150509250925092565b600081519050919050565b600082825260208201905092915050565b6000819050602082019050919050565b610972816108b4565b82525050565b600081519050919050565b600082825260208201905092915050565b60005b838110156109b2578082015181840152602081019050610997565b838111156109c1576000848401525b50505050565b6000601f19601f8301169050919050565b60006109e382610978565b6109ed8185610983565b93506109fd818560208601610994565b610a06816109c7565b840191505092915050565b600060a083016000830151610a296000860182610969565b506020830151610a3c6020860182610969565b5060408301518482036040860152610a5482826109d8565b9150506060830151610a696060860182610969565b506080830151610a7c6080860182610969565b508091505092915050565b6000610a938383610a11565b905092915050565b6000602082019050919050565b6000610ab38261093d565b610abd8185610948565b935083602082028501610acf85610959565b8060005b85811015610b0b5784840389528151610aec8582610a87565b9450610af783610a9b565b925060208a01995050600181019050610ad3565b50829750879550505050505092915050565b60006020820190508181036000830152610b378184610aa8565b905092915050565b600080fd5b600080fd5b7f4e487b7100000000000000000000000000000000000000000000000000000000600052604160045260246000fd5b610b81826109c7565b810181811067ffffffffffffffff82111715610ba057610b9f610b49565b5b80604052505050565b6000610bb36108a0565b9050610bbf8282610b78565b919050565b600067ffffffffffffffff821115610bdf57610bde610b49565b5b610be8826109c7565b9050602081019050919050565b82818337600083830152505050565b6000610c17610c1284610bc4565b610ba9565b905082815260208101848484011115610c3357610c32610b44565b5b610c3e848285610bf5565b509392505050565b600082601f830112610c5b57610c5a610b3f565b5b8135610c6b848260208601610c04565b91505092915050565b600080600060608486031215610c8d57610c8c6108aa565b5b6000610c9b868287016108d5565b935050602084013567ffffffffffffffff811115610cbc57610cbb6108af565b5b610cc886828701610c46565b9250506040610cd9868287016108d5565b9150509250925092565b610cec816108b4565b82525050565b600082825260208201905092915050565b6000610d0e82610978565b610d188185610cf2565b9350610d28818560208601610994565b610d31816109c7565b840191505092915050565b600060a082019050610d516000830188610ce3565b610d5e6020830187610ce3565b8181036040830152610d708186610d03565b9050610d7f6060830185610ce3565b610d8c6080830184610ce3565b9695505050505050565b60008060408385031215610dad57610dac6108aa565b5b6000610dbb858286016108d5565b9250506020610dcc858286016108d5565b9150509250929050565b7f4e487b7100000000000000000000000000000000000000000000000000000000600052602260045260246000fd5b60006002820490506001821680610e1d57607f821691505b602082108103610e3057610e2f610dd6565b5b50919050565b7f4e487b7100000000000000000000000000000000000000000000000000000000600052603260045260246000fd5b7f4e487b7100000000000000000000000000000000000000000000000000000000600052601160045260246000fd5b6000610e9f826108b4565b9150610eaa836108b4565b9250827fffffffffffffffffffffffffffffffffffffffffffffffffffffffffffffffff03821115610edf57610ede610e65565b5b828201905092915050565b6000610ef5826108b4565b91507fffffffffffffffffffffffffffffffffffffffffffffffffffffffffffffffff8203610f2757610f26610e65565b5b600182019050919050565b60008190508160005260206000209050919050565b60006020601f8301049050919050565b600082821b905092915050565b600060088302610f947fffffffffffffffffffffffffffffffffffffffffffffffffffffffffffffffff82610f57565b610f9e8683610f57565b95508019841693508086168417925050509392505050565b6000819050919050565b6000610fdb610fd6610fd1846108b4565b610fb6565b6108b4565b9050919050565b6000819050919050565b610ff583610fc0565b61100961100182610fe2565b848454610f64565b825550505050565b600090565b61101e611011565b611029818484610fec565b505050565b5b8181101561104d57611042600082611016565b60018101905061102f565b5050565b601f8211156110925761106381610f32565b61106c84610f47565b8101602085101561107b578190505b61108f61108785610f47565b83018261102e565b50505b505050565b600082821c905092915050565b60006110b560001984600802611097565b1980831691505092915050565b60006110ce83836110a4565b9150826002028217905092915050565b6110e782610978565b67ffffffffffffffff811115611100576110ff610b49565b5b61110a8254610e05565b611115828285611051565b600060209050601f8311600181146111485760008415611136578287015190505b61114085826110c2565b8655506111a8565b601f19841661115686610f32565b60005b8281101561117e57848901518255600182019150602085019450602081019050611159565b8683101561119b5784890151611197601f8916826110a4565b8355505b6001600288020188555050505b505050505050565b60006111bb826108b4565b91506111c6836108b4565b9250828210156111d9576111d8610e65565b5b82820390509291505056fea2646970667358221220b118219a3c9283f6b9429098e1ce2516f0ec390431b9cc1277ae9767fbb0935464736f6c634300080f0033",
  "immutableReferences": {},
  "source": "// SPDX-License-Identifier: GPL-3.0\n\npragma solidity >=0.7.0 <0.9.0;\n\n\n/**\n * @title FishMedicationRecord\n * @dev Store & retrieve Fish medication record Information\n */\ncontract FishMedicationRecord {\n    \n    struct MedicationRecord {\n        uint _id;\n        uint _farm_id;\n        string _formula;\n        uint _quantity;\n        uint _timestamp;\n    }\n\n    uint256 medicationRecordCount = 0;\n    mapping(uint => uint) medicationRecordByFarmCount;\n    mapping(uint => mapping(uint => MedicationRecord)) medicationRecordByFarmMapping;\n\n\n    function medicateFish(uint _farm_id, string memory _formula, uint _quantity) public returns(uint, uint, string memory, uint, uint){\n        medicationRecordByFarmMapping[_farm_id][ medicationRecordByFarmCount[_farm_id] ] =\n            MedicationRecord(medicationRecordCount, _farm_id ,_formula, _quantity, block.timestamp);\n\n        medicationRecordCount += 1;\n        medicationRecordByFarmCount[_farm_id] += 1;\n\n        MedicationRecord memory m = medicationRecordByFarmMapping[_farm_id][ medicationRecordByFarmCount[_farm_id] - 1];\n\n        return (\n            m._id,\n            m._farm_id,\n            m._formula,\n            m._quantity,\n            m._timestamp\n        );\n    }\n\n\n    function getByFarmIdSince(uint _farm_id, uint _since_timestamp) public view returns(MedicationRecord[] memory){\n        MedicationRecord[] memory retBuffer = new MedicationRecord[]( medicationRecordByFarmCount[_farm_id] );\n\n        uint retBufferCount = 0;\n        for(uint i=0; i<medicationRecordByFarmCount[_farm_id]; i++){\n            if(medicationRecordByFarmMapping[_farm_id][i]._timestamp < _since_timestamp){\n                continue;\n            } else {\n                retBuffer[retBufferCount] = medicationRecordByFarmMapping[_farm_id][i];\n                retBufferCount += 1;\n            }\n        }\n\n        MedicationRecord[] memory ret = new MedicationRecord[]( retBufferCount );\n        for(uint i=0; i<retBufferCount; i++){\n            ret[i] = retBuffer[i];\n        }\n\n        return ret;\n    }\n\n    function getByFarmIdInAPeriod(uint _farm_id, uint _from_timestamp, uint _to_timestamp) public view returns(MedicationRecord[] memory){\n        MedicationRecord[] memory retBuffer = new MedicationRecord[]( medicationRecordByFarmCount[_farm_id] );\n\n        uint retBufferCount = 0;\n        for(uint i=0; i<medicationRecordByFarmCount[_farm_id]; i++){\n            if(medicationRecordByFarmMapping[_farm_id][i]._timestamp < _from_timestamp){\n                continue;\n            } else if (medicationRecordByFarmMapping[_farm_id][i]._timestamp > _to_timestamp) {\n                break;\n            } else {\n                retBuffer[retBufferCount] = medicationRecordByFarmMapping[_farm_id][i];\n                retBufferCount += 1;\n            }\n        }\n\n        MedicationRecord[] memory ret = new MedicationRecord[]( retBufferCount );\n        for(uint i=0; i<retBufferCount; i++){\n            ret[i] = retBuffer[i];\n        }\n\n        return ret;\n    }\n}",
  "sourcePath": "/Users/pongsit/Documents/iWorks/aquaponic-frontend/contracts/FishMedicationRecord.sol",
  "compiler": {
    "name": "solc",
    "version": "0.8.15+commit.e14f2714.Emscripten.clang"
  },
  "schemaVersion": "3.4.8",
  "updatedAt": "2022-07-24T07:10:18.847Z",
  "devdoc": {
    "details": "Store & retrieve Fish medication record Information",
    "kind": "dev",
    "methods": {},
    "title": "FishMedicationRecord",
    "version": 1
  },
  "userdoc": {
    "kind": "user",
    "methods": {},
    "version": 1
  }
}