{
  "contractName": "FishMedicationRecord",
  "abi": [
    {
      "inputs": [
        {
          "internalType": "uint256",
          "name": "_farm_id",
          "type": "uint256"
        },
        {
          "internalType": "string",
          "name": "_formula",
          "type": "string"
        },
        {
          "internalType": "uint256",
          "name": "_quantity",
          "type": "uint256"
        }
      ],
      "name": "medicateFish",
      "outputs": [
        {
          "components": [
            {
              "internalType": "uint256",
              "name": "id",
              "type": "uint256"
            },
            {
              "internalType": "uint256",
              "name": "farm_id",
              "type": "uint256"
            },
            {
              "internalType": "string",
              "name": "formula",
              "type": "string"
            },
            {
              "internalType": "uint256",
              "name": "quantity",
              "type": "uint256"
            },
            {
              "internalType": "uint256",
              "name": "timestamp",
              "type": "uint256"
            }
          ],
          "internalType": "struct FishMedicationRecord.MedicationRecord",
          "name": "",
          "type": "tuple"
        }
      ],
      "stateMutability": "nonpayable",
      "type": "function"
    },
    {
      "inputs": [
        {
          "internalType": "uint256",
          "name": "_farm_id",
          "type": "uint256"
        },
        {
          "internalType": "uint256",
          "name": "_since_timestamp",
          "type": "uint256"
        }
      ],
      "name": "getByFarmIdSince",
      "outputs": [
        {
          "components": [
            {
              "internalType": "uint256",
              "name": "id",
              "type": "uint256"
            },
            {
              "internalType": "uint256",
              "name": "farm_id",
              "type": "uint256"
            },
            {
              "internalType": "string",
              "name": "formula",
              "type": "string"
            },
            {
              "internalType": "uint256",
              "name": "quantity",
              "type": "uint256"
            },
            {
              "internalType": "uint256",
              "name": "timestamp",
              "type": "uint256"
            }
          ],
          "internalType": "struct FishMedicationRecord.MedicationRecord[]",
          "name": "",
          "type": "tuple[]"
        }
      ],
      "stateMutability": "view",
      "type": "function"
    },
    {
      "inputs": [
        {
          "internalType": "uint256",
          "name": "_farm_id",
          "type": "uint256"
        },
        {
          "internalType": "uint256",
          "name": "_from_timestamp",
          "type": "uint256"
        },
        {
          "internalType": "uint256",
          "name": "_to_timestamp",
          "type": "uint256"
        }
      ],
      "name": "getByFarmIdInAPeriod",
      "outputs": [
        {
          "components": [
            {
              "internalType": "uint256",
              "name": "id",
              "type": "uint256"
            },
            {
              "internalType": "uint256",
              "name": "farm_id",
              "type": "uint256"
            },
            {
              "internalType": "string",
              "name": "formula",
              "type": "string"
            },
            {
              "internalType": "uint256",
              "name": "quantity",
              "type": "uint256"
            },
            {
              "internalType": "uint256",
              "name": "timestamp",
              "type": "uint256"
            }
          ],
          "internalType": "struct FishMedicationRecord.MedicationRecord[]",
          "name": "",
          "type": "tuple[]"
        }
      ],
      "stateMutability": "view",
      "type": "function"
    }
  ],
  "bytecode": "0x60806040526000805534801561001457600080fd5b506111d1806100246000396000f3fe608060405234801561001057600080fd5b50600436106100415760003560e01c8063416ccf851461004657806361cd3972146100765780637aa747c8146100a6575b600080fd5b610060600480360381019061005b91906108bc565b6100d6565b60405161006d9190610aef565b60405180910390f35b610090600480360381019061008b9190610c46565b6103a6565b60405161009d9190610d2b565b60405180910390f35b6100c060048036038101906100bb9190610d4d565b6105a2565b6040516100cd9190610aef565b60405180910390f35b60606000600160008681526020019081526020016000205467ffffffffffffffff81111561010757610106610b1b565b5b60405190808252806020026020018201604052801561014057816020015b61012d610843565b8152602001906001900390816101255790505b5090506000805b60016000888152602001908152602001600020548110156102e8578560026000898152602001908152602001600020600083815260200190815260200160002060040154106102d5578460026000898152602001908152602001600020600083815260200190815260200160002060040154116102e8576002600088815260200190815260200160002060008281526020019081526020016000206040518060a0016040529081600082015481526020016001820154815260200160028201805461021190610dbc565b80601f016020809104026020016040519081016040528092919081815260200182805461023d90610dbc565b801561028a5780601f1061025f5761010080835404028352916020019161028a565b820191906000526020600020905b81548152906001019060200180831161026d57829003601f168201915b50505050508152602001600382015481526020016004820154815250508383815181106102ba576102b9610ded565b5b60200260200101819052506001826102d29190610e4b565b91505b80806102e090610ea1565b915050610147565b5060008167ffffffffffffffff81111561030557610304610b1b565b5b60405190808252806020026020018201604052801561033e57816020015b61032b610843565b8152602001906001900390816103235790505b50905060005b828110156103985783818151811061035f5761035e610ded565b5b602002602001015182828151811061037a57610379610ded565b5b6020026020010181905250808061039090610ea1565b915050610344565b508093505050509392505050565b6103ae610843565b6040518060a0016040528060005481526020018581526020018481526020018381526020014281525060026000868152602001908152602001600020600060016000888152602001908152602001600020548152602001908152602001600020600082015181600001556020820151816001015560408201518160020190816104379190611095565b50606082015181600301556080820151816004015590505060016000808282546104619190610e4b565b925050819055506001806000868152602001908152602001600020600082825461048b9190610e4b565b925050819055506002600085815260200190815260200160002060006001806000888152602001908152602001600020546104c69190611167565b81526020019081526020016000206040518060a0016040529081600082015481526020016001820154815260200160028201805461050390610dbc565b80601f016020809104026020016040519081016040528092919081815260200182805461052f90610dbc565b801561057c5780601f106105515761010080835404028352916020019161057c565b820191906000526020600020905b81548152906001019060200180831161055f57829003601f168201915b505050505081526020016003820154815260200160048201548152505090509392505050565b60606000600160008581526020019081526020016000205467ffffffffffffffff8111156105d3576105d2610b1b565b5b60405190808252806020026020018201604052801561060c57816020015b6105f9610843565b8152602001906001900390816105f15790505b5090506000805b600160008781526020019081526020016000205481101561078657846002600088815260200190815260200160002060008381526020019081526020016000206004015410610773576002600087815260200190815260200160002060008281526020019081526020016000206040518060a001604052908160008201548152602001600182015481526020016002820180546106af90610dbc565b80601f01602080910402602001604051908101604052809291908181526020018280546106db90610dbc565b80156107285780601f106106fd57610100808354040283529160200191610728565b820191906000526020600020905b81548152906001019060200180831161070b57829003601f168201915b505050505081526020016003820154815260200160048201548152505083838151811061075857610757610ded565b5b60200260200101819052506001826107709190610e4b565b91505b808061077e90610ea1565b915050610613565b5060008167ffffffffffffffff8111156107a3576107a2610b1b565b5b6040519080825280602002602001820160405280156107dc57816020015b6107c9610843565b8152602001906001900390816107c15790505b50905060005b82811015610836578381815181106107fd576107fc610ded565b5b602002602001015182828151811061081857610817610ded565b5b6020026020010181905250808061082e90610ea1565b9150506107e2565b5080935050505092915050565b6040518060a0016040528060008152602001600081526020016060815260200160008152602001600081525090565b6000604051905090565b600080fd5b600080fd5b6000819050919050565b61089981610886565b81146108a457600080fd5b50565b6000813590506108b681610890565b92915050565b6000806000606084860312156108d5576108d461087c565b5b60006108e3868287016108a7565b93505060206108f4868287016108a7565b9250506040610905868287016108a7565b9150509250925092565b600081519050919050565b600082825260208201905092915050565b6000819050602082019050919050565b61094481610886565b82525050565b600081519050919050565b600082825260208201905092915050565b60005b83811015610984578082015181840152602081019050610969565b83811115610993576000848401525b50505050565b6000601f19601f8301169050919050565b60006109b58261094a565b6109bf8185610955565b93506109cf818560208601610966565b6109d881610999565b840191505092915050565b600060a0830160008301516109fb600086018261093b565b506020830151610a0e602086018261093b565b5060408301518482036040860152610a2682826109aa565b9150506060830151610a3b606086018261093b565b506080830151610a4e608086018261093b565b508091505092915050565b6000610a6583836109e3565b905092915050565b6000602082019050919050565b6000610a858261090f565b610a8f818561091a565b935083602082028501610aa18561092b565b8060005b85811015610add5784840389528151610abe8582610a59565b9450610ac983610a6d565b925060208a01995050600181019050610aa5565b50829750879550505050505092915050565b60006020820190508181036000830152610b098184610a7a565b905092915050565b600080fd5b600080fd5b7f4e487b7100000000000000000000000000000000000000000000000000000000600052604160045260246000fd5b610b5382610999565b810181811067ffffffffffffffff82111715610b7257610b71610b1b565b5b80604052505050565b6000610b85610872565b9050610b918282610b4a565b919050565b600067ffffffffffffffff821115610bb157610bb0610b1b565b5b610bba82610999565b9050602081019050919050565b82818337600083830152505050565b6000610be9610be484610b96565b610b7b565b905082815260208101848484011115610c0557610c04610b16565b5b610c10848285610bc7565b509392505050565b600082601f830112610c2d57610c2c610b11565b5b8135610c3d848260208601610bd6565b91505092915050565b600080600060608486031215610c5f57610c5e61087c565b5b6000610c6d868287016108a7565b935050602084013567ffffffffffffffff811115610c8e57610c8d610881565b5b610c9a86828701610c18565b9250506040610cab868287016108a7565b9150509250925092565b600060a083016000830151610ccd600086018261093b565b506020830151610ce0602086018261093b565b5060408301518482036040860152610cf882826109aa565b9150506060830151610d0d606086018261093b565b506080830151610d20608086018261093b565b508091505092915050565b60006020820190508181036000830152610d458184610cb5565b905092915050565b60008060408385031215610d6457610d6361087c565b5b6000610d72858286016108a7565b9250506020610d83858286016108a7565b9150509250929050565b7f4e487b7100000000000000000000000000000000000000000000000000000000600052602260045260246000fd5b60006002820490506001821680610dd457607f821691505b602082108103610de757610de6610d8d565b5b50919050565b7f4e487b7100000000000000000000000000000000000000000000000000000000600052603260045260246000fd5b7f4e487b7100000000000000000000000000000000000000000000000000000000600052601160045260246000fd5b6000610e5682610886565b9150610e6183610886565b9250827fffffffffffffffffffffffffffffffffffffffffffffffffffffffffffffffff03821115610e9657610e95610e1c565b5b828201905092915050565b6000610eac82610886565b91507fffffffffffffffffffffffffffffffffffffffffffffffffffffffffffffffff8203610ede57610edd610e1c565b5b600182019050919050565b60008190508160005260206000209050919050565b60006020601f8301049050919050565b600082821b905092915050565b600060088302610f4b7fffffffffffffffffffffffffffffffffffffffffffffffffffffffffffffffff82610f0e565b610f558683610f0e565b95508019841693508086168417925050509392505050565b6000819050919050565b6000610f92610f8d610f8884610886565b610f6d565b610886565b9050919050565b6000819050919050565b610fac83610f77565b610fc0610fb882610f99565b848454610f1b565b825550505050565b600090565b610fd5610fc8565b610fe0818484610fa3565b505050565b5b8181101561100457610ff9600082610fcd565b600181019050610fe6565b5050565b601f8211156110495761101a81610ee9565b61102384610efe565b81016020851015611032578190505b61104661103e85610efe565b830182610fe5565b50505b505050565b600082821c905092915050565b600061106c6000198460080261104e565b1980831691505092915050565b6000611085838361105b565b9150826002028217905092915050565b61109e8261094a565b67ffffffffffffffff8111156110b7576110b6610b1b565b5b6110c18254610dbc565b6110cc828285611008565b600060209050601f8311600181146110ff57600084156110ed578287015190505b6110f78582611079565b86555061115f565b601f19841661110d86610ee9565b60005b8281101561113557848901518255600182019150602085019450602081019050611110565b86831015611152578489015161114e601f89168261105b565b8355505b6001600288020188555050505b505050505050565b600061117282610886565b915061117d83610886565b9250828210156111905761118f610e1c565b5b82820390509291505056fea2646970667358221220d532980b539ba6d1bbffb4392c7091259c6641a4bb3273611efa8a61ceb0066564736f6c634300080f0033",
  "immutableReferences": {},
  "source": "// SPDX-License-Identifier: GPL-3.0\n\npragma solidity >=0.7.0 <0.9.0;\n\n\n/**\n * @title FishMedicationRecord\n * @dev Store & retrieve Fish medication record Information\n */\ncontract FishMedicationRecord {\n    \n    struct MedicationRecord {\n        uint id;\n        uint farm_id;\n        string formula;\n        uint quantity;\n        uint timestamp;\n    }\n\n    uint256 medicationRecordCount = 0;\n    mapping(uint => uint) medicationRecordByFarmCount;\n    mapping(uint => mapping(uint => MedicationRecord)) medicationRecordByFarmMapping;\n\n\n    function medicateFish(uint _farm_id, string memory _formula, uint _quantity) public returns(MedicationRecord memory){\n        medicationRecordByFarmMapping[_farm_id][ medicationRecordByFarmCount[_farm_id] ] =\n            MedicationRecord(medicationRecordCount, _farm_id ,_formula, _quantity, block.timestamp);\n\n        medicationRecordCount += 1;\n        medicationRecordByFarmCount[_farm_id] += 1;\n\n        return medicationRecordByFarmMapping[_farm_id][ medicationRecordByFarmCount[_farm_id] - 1];\n    }\n\n\n    function getByFarmIdSince(uint _farm_id, uint _since_timestamp) public view returns(MedicationRecord[] memory){\n        MedicationRecord[] memory retBuffer = new MedicationRecord[]( medicationRecordByFarmCount[_farm_id] );\n\n        uint retBufferCount = 0;\n        for(uint i=0; i<medicationRecordByFarmCount[_farm_id]; i++){\n            if(medicationRecordByFarmMapping[_farm_id][i].timestamp < _since_timestamp){\n                continue;\n            } else {\n                retBuffer[retBufferCount] = medicationRecordByFarmMapping[_farm_id][i];\n                retBufferCount += 1;\n            }\n        }\n\n        MedicationRecord[] memory ret = new MedicationRecord[]( retBufferCount );\n        for(uint i=0; i<retBufferCount; i++){\n            ret[i] = retBuffer[i];\n        }\n\n        return ret;\n    }\n\n    function getByFarmIdInAPeriod(uint _farm_id, uint _from_timestamp, uint _to_timestamp) public view returns(MedicationRecord[] memory){\n        MedicationRecord[] memory retBuffer = new MedicationRecord[]( medicationRecordByFarmCount[_farm_id] );\n\n        uint retBufferCount = 0;\n        for(uint i=0; i<medicationRecordByFarmCount[_farm_id]; i++){\n            if(medicationRecordByFarmMapping[_farm_id][i].timestamp < _from_timestamp){\n                continue;\n            } else if (medicationRecordByFarmMapping[_farm_id][i].timestamp > _to_timestamp) {\n                break;\n            } else {\n                retBuffer[retBufferCount] = medicationRecordByFarmMapping[_farm_id][i];\n                retBufferCount += 1;\n            }\n        }\n\n        MedicationRecord[] memory ret = new MedicationRecord[]( retBufferCount );\n        for(uint i=0; i<retBufferCount; i++){\n            ret[i] = retBuffer[i];\n        }\n\n        return ret;\n    }\n}",
  "sourcePath": "/Users/pongsit/Documents/iWorks/aquaponic-frontend/contracts/FishMedicationRecord.sol",
  "compiler": {
    "name": "solc",
    "version": "0.8.15+commit.e14f2714.Emscripten.clang"
  },
  "schemaVersion": "3.4.8",
  "updatedAt": "2022-07-24T14:06:18.538Z",
  "devdoc": {
    "details": "Store & retrieve Fish medication record Information",
    "kind": "dev",
    "methods": {},
    "title": "FishMedicationRecord",
    "version": 1
  },
  "userdoc": {
    "kind": "user",
    "methods": {},
    "version": 1
  }
}