{
  "contractName": "FishLot",
  "abi": [
    {
      "inputs": [
        {
          "internalType": "uint256",
          "name": "_farm_id",
          "type": "uint256"
        }
      ],
      "name": "startNewLot",
      "outputs": [
        {
          "internalType": "uint256",
          "name": "",
          "type": "uint256"
        },
        {
          "internalType": "enum FishLot.LotStatus",
          "name": "",
          "type": "uint8"
        },
        {
          "internalType": "uint256",
          "name": "",
          "type": "uint256"
        },
        {
          "internalType": "uint256",
          "name": "",
          "type": "uint256"
        }
      ],
      "stateMutability": "nonpayable",
      "type": "function"
    },
    {
      "inputs": [
        {
          "internalType": "uint256",
          "name": "_lot_number",
          "type": "uint256"
        },
        {
          "internalType": "uint256",
          "name": "_harvested_quantity",
          "type": "uint256"
        }
      ],
      "name": "harvestLot",
      "outputs": [
        {
          "internalType": "uint256",
          "name": "",
          "type": "uint256"
        },
        {
          "internalType": "enum FishLot.LotStatus",
          "name": "",
          "type": "uint8"
        },
        {
          "internalType": "uint256",
          "name": "",
          "type": "uint256"
        },
        {
          "internalType": "uint256",
          "name": "",
          "type": "uint256"
        },
        {
          "internalType": "uint256",
          "name": "",
          "type": "uint256"
        }
      ],
      "stateMutability": "nonpayable",
      "type": "function"
    },
    {
      "inputs": [
        {
          "internalType": "uint256",
          "name": "_lot_number",
          "type": "uint256"
        },
        {
          "internalType": "uint256",
          "name": "_unit_price",
          "type": "uint256"
        }
      ],
      "name": "setUnitPrice",
      "outputs": [
        {
          "internalType": "uint256",
          "name": "",
          "type": "uint256"
        },
        {
          "internalType": "enum FishLot.LotStatus",
          "name": "",
          "type": "uint8"
        },
        {
          "internalType": "uint256",
          "name": "",
          "type": "uint256"
        },
        {
          "internalType": "uint256",
          "name": "",
          "type": "uint256"
        }
      ],
      "stateMutability": "nonpayable",
      "type": "function"
    },
    {
      "inputs": [
        {
          "internalType": "uint256",
          "name": "_lot_number",
          "type": "uint256"
        }
      ],
      "name": "getById",
      "outputs": [
        {
          "components": [
            {
              "internalType": "uint256",
              "name": "_lot_number",
              "type": "uint256"
            },
            {
              "internalType": "enum FishLot.LotStatus",
              "name": "_status",
              "type": "uint8"
            },
            {
              "internalType": "uint256",
              "name": "_farm_id",
              "type": "uint256"
            },
            {
              "internalType": "uint256",
              "name": "_start_datetime",
              "type": "uint256"
            },
            {
              "internalType": "uint256",
              "name": "_harvest_datetime",
              "type": "uint256"
            },
            {
              "internalType": "uint256",
              "name": "_harvested_quantity",
              "type": "uint256"
            },
            {
              "internalType": "uint256",
              "name": "_unit_price",
              "type": "uint256"
            }
          ],
          "internalType": "struct FishLot.Lot",
          "name": "",
          "type": "tuple"
        }
      ],
      "stateMutability": "view",
      "type": "function"
    },
    {
      "inputs": [
        {
          "internalType": "uint256",
          "name": "_farm_id",
          "type": "uint256"
        }
      ],
      "name": "getByFarmId",
      "outputs": [
        {
          "components": [
            {
              "internalType": "uint256",
              "name": "_lot_number",
              "type": "uint256"
            },
            {
              "internalType": "enum FishLot.LotStatus",
              "name": "_status",
              "type": "uint8"
            },
            {
              "internalType": "uint256",
              "name": "_farm_id",
              "type": "uint256"
            },
            {
              "internalType": "uint256",
              "name": "_start_datetime",
              "type": "uint256"
            },
            {
              "internalType": "uint256",
              "name": "_harvest_datetime",
              "type": "uint256"
            },
            {
              "internalType": "uint256",
              "name": "_harvested_quantity",
              "type": "uint256"
            },
            {
              "internalType": "uint256",
              "name": "_unit_price",
              "type": "uint256"
            }
          ],
          "internalType": "struct FishLot.Lot[]",
          "name": "",
          "type": "tuple[]"
        }
      ],
      "stateMutability": "view",
      "type": "function"
    },
    {
      "inputs": [
        {
          "internalType": "uint256",
          "name": "_q_status",
          "type": "uint256"
        }
      ],
      "name": "getByStatus",
      "outputs": [
        {
          "components": [
            {
              "internalType": "uint256",
              "name": "_lot_number",
              "type": "uint256"
            },
            {
              "internalType": "enum FishLot.LotStatus",
              "name": "_status",
              "type": "uint8"
            },
            {
              "internalType": "uint256",
              "name": "_farm_id",
              "type": "uint256"
            },
            {
              "internalType": "uint256",
              "name": "_start_datetime",
              "type": "uint256"
            },
            {
              "internalType": "uint256",
              "name": "_harvest_datetime",
              "type": "uint256"
            },
            {
              "internalType": "uint256",
              "name": "_harvested_quantity",
              "type": "uint256"
            },
            {
              "internalType": "uint256",
              "name": "_unit_price",
              "type": "uint256"
            }
          ],
          "internalType": "struct FishLot.Lot[]",
          "name": "",
          "type": "tuple[]"
        }
      ],
      "stateMutability": "view",
      "type": "function"
    },
    {
      "inputs": [
        {
          "internalType": "uint256",
          "name": "_farm_id",
          "type": "uint256"
        },
        {
          "internalType": "uint256",
          "name": "_q_status",
          "type": "uint256"
        }
      ],
      "name": "getByFarmIdByStatus",
      "outputs": [
        {
          "components": [
            {
              "internalType": "uint256",
              "name": "_lot_number",
              "type": "uint256"
            },
            {
              "internalType": "enum FishLot.LotStatus",
              "name": "_status",
              "type": "uint8"
            },
            {
              "internalType": "uint256",
              "name": "_farm_id",
              "type": "uint256"
            },
            {
              "internalType": "uint256",
              "name": "_start_datetime",
              "type": "uint256"
            },
            {
              "internalType": "uint256",
              "name": "_harvest_datetime",
              "type": "uint256"
            },
            {
              "internalType": "uint256",
              "name": "_harvested_quantity",
              "type": "uint256"
            },
            {
              "internalType": "uint256",
              "name": "_unit_price",
              "type": "uint256"
            }
          ],
          "internalType": "struct FishLot.Lot[]",
          "name": "",
          "type": "tuple[]"
        }
      ],
      "stateMutability": "view",
      "type": "function"
    }
  ],
  "bytecode": "0x60806040526000805534801561001457600080fd5b506114c5806100246000396000f3fe608060405234801561001057600080fd5b506004361061007d5760003560e01c806384ba881d1161005b57806384ba881d14610112578063ba78508d14610146578063dc63383914610179578063f4f4d237146101ac5761007d565b80631614d57e1461008257806324e9fd49146100b257806350dc920c146100e2575b600080fd5b61009c60048036038101906100979190610f7f565b6101dc565b6040516100a9919061116f565b60405180910390f35b6100cc60048036038101906100c79190611191565b610413565b6040516100d9919061116f565b60405180910390f35b6100fc60048036038101906100f79190610f7f565b610690565b604051610109919061116f565b60405180910390f35b61012c60048036038101906101279190611191565b6107fc565b60405161013d9594939291906111ef565b60405180910390f35b610160600480360381019061015b9190610f7f565b610a4a565b6040516101709493929190611242565b60405180910390f35b610193600480360381019061018e9190611191565b610d09565b6040516101a39493929190611242565b60405180910390f35b6101c660048036038101906101c19190610f7f565b610e51565b6040516101d39190611315565b60405180910390f35b60606000805467ffffffffffffffff8111156101fb576101fa611330565b5b60405190808252806020026020018201604052801561023457816020015b610221610ef5565b8152602001906001900390816102195790505b5090506000805b60005481101561035757846001600083815260200190815260200160002060010160009054906101000a900460ff16600181111561027c5761027b610fe7565b5b0361034457600160008281526020019081526020016000206040518060e0016040529081600082015481526020016001820160009054906101000a900460ff1660018111156102ce576102cd610fe7565b5b60018111156102e0576102df610fe7565b5b8152602001600282015481526020016003820154815260200160048201548152602001600582015481526020016006820154815250508383815181106103295761032861135f565b5b602002602001018190525060018261034191906113bd565b91505b808061034f90611413565b91505061023b565b5060008167ffffffffffffffff81111561037457610373611330565b5b6040519080825280602002602001820160405280156103ad57816020015b61039a610ef5565b8152602001906001900390816103925790505b50905060005b82811015610407578381815181106103ce576103cd61135f565b5b60200260200101518282815181106103e9576103e861135f565b5b602002602001018190525080806103ff90611413565b9150506103b3565b50809350505050919050565b60606000600260008581526020019081526020016000205467ffffffffffffffff81111561044457610443611330565b5b60405190808252806020026020018201604052801561047d57816020015b61046a610ef5565b8152602001906001900390816104625790505b5090506000805b60026000878152602001908152602001600020548110156105d3578460036000888152602001908152602001600020600083815260200190815260200160002060010160009054906101000a900460ff1660018111156104e7576104e6610fe7565b5b036105c0576003600087815260200190815260200160002060008281526020019081526020016000206040518060e0016040529081600082015481526020016001820160009054906101000a900460ff16600181111561054a57610549610fe7565b5b600181111561055c5761055b610fe7565b5b8152602001600282015481526020016003820154815260200160048201548152602001600582015481526020016006820154815250508383815181106105a5576105a461135f565b5b60200260200101819052506001826105bd91906113bd565b91505b80806105cb90611413565b915050610484565b5060008167ffffffffffffffff8111156105f0576105ef611330565b5b60405190808252806020026020018201604052801561062957816020015b610616610ef5565b81526020019060019003908161060e5790505b50905060005b828110156106835783818151811061064a5761064961135f565b5b60200260200101518282815181106106655761066461135f565b5b6020026020010181905250808061067b90611413565b91505061062f565b5080935050505092915050565b60606000600260008481526020019081526020016000205467ffffffffffffffff8111156106c1576106c0611330565b5b6040519080825280602002602001820160405280156106fa57816020015b6106e7610ef5565b8152602001906001900390816106df5790505b50905060005b60026000858152602001908152602001600020548110156107f2576003600085815260200190815260200160002060008281526020019081526020016000206040518060e0016040529081600082015481526020016001820160009054906101000a900460ff16600181111561077957610778610fe7565b5b600181111561078b5761078a610fe7565b5b8152602001600282015481526020016003820154815260200160048201548152602001600582015481526020016006820154815250508282815181106107d4576107d361135f565b5b602002602001018190525080806107ea90611413565b915050610700565b5080915050919050565b6000806000806000806001600089815260200190815260200160002060020154905042600160008a81526020019081526020016000206004018190555060018060008a815260200190815260200160002060010160006101000a81548160ff0219169083600181111561087257610871610fe7565b5b021790555086600160008a81526020019081526020016000206005018190555060005b60026000838152602001908152602001600020548110156109b4578860036000848152602001908152602001600020600083815260200190815260200160002060000154036109a157600160008a81526020019081526020016000206004015460036000848152602001908152602001600020600083815260200190815260200160002060040181905550600160036000848152602001908152602001600020600083815260200190815260200160002060010160006101000a81548160ff0219169083600181111561096b5761096a610fe7565b5b021790555087600360008481526020019081526020016000206000838152602001908152602001600020600501819055506109b4565b80806109ac90611413565b915050610895565b506001600089815260200190815260200160002060000154600160008a815260200190815260200160002060010160009054906101000a900460ff16600160008b815260200190815260200160002060020154600160008c815260200190815260200160002060040154600160008d81526020019081526020016000206005015495509550955095509550509295509295909350565b60008060008060004290506040518060e00160405280600054815260200160006001811115610a7c57610a7b610fe7565b5b81526020018781526020018281526020016000815260200160008152602001600081525060016000805481526020019081526020016000206000820151816000015560208201518160010160006101000a81548160ff02191690836001811115610ae957610ae8610fe7565b5b021790555060408201518160020155606082015181600301556080820151816004015560a0820151816005015560c082015181600601559050506040518060e00160405280600054815260200160006001811115610b4a57610b49610fe7565b5b815260200187815260200182815260200160008152602001600081526020016000815250600360008881526020019081526020016000206000600260008a81526020019081526020016000205481526020019081526020016000206000820151816000015560208201518160010160006101000a81548160ff02191690836001811115610bda57610bd9610fe7565b5b021790555060408201518160020155606082015181600301556080820151816004015560a0820151816005015560c082015181600601559050506001600080828254610c2691906113bd565b925050819055506001600260008881526020019081526020016000206000828254610c5191906113bd565b92505081905550600160006001600054610c6b919061145b565b815260200190815260200160002060000154600160006001600054610c90919061145b565b815260200190815260200160002060010160009054906101000a900460ff16600160006001600054610cc2919061145b565b815260200190815260200160002060020154600160006001600054610ce7919061145b565b8152602001908152602001600020600301549450945094509450509193509193565b60008060008060006001600088815260200190815260200160002060020154905085600160008981526020019081526020016000206006018190555060005b6002600083815260200190815260200160002054811015610dd557876003600084815260200190815260200160002060008381526020019081526020016000206000015403610dc2578660036000848152602001908152602001600020600083815260200190815260200160002060060181905550610dd5565b8080610dcd90611413565b915050610d48565b5060016000888152602001908152602001600020600001546001600089815260200190815260200160002060010160009054906101000a900460ff16600160008a815260200190815260200160002060020154600160008b81526020019081526020016000206006015494509450945094505092959194509250565b610e59610ef5565b600160008381526020019081526020016000206040518060e0016040529081600082015481526020016001820160009054906101000a900460ff166001811115610ea657610ea5610fe7565b5b6001811115610eb857610eb7610fe7565b5b8152602001600282015481526020016003820154815260200160048201548152602001600582015481526020016006820154815250509050919050565b6040518060e001604052806000815260200160006001811115610f1b57610f1a610fe7565b5b815260200160008152602001600081526020016000815260200160008152602001600081525090565b600080fd5b6000819050919050565b610f5c81610f49565b8114610f6757600080fd5b50565b600081359050610f7981610f53565b92915050565b600060208284031215610f9557610f94610f44565b5b6000610fa384828501610f6a565b91505092915050565b600081519050919050565b600082825260208201905092915050565b6000819050602082019050919050565b610fe181610f49565b82525050565b7f4e487b7100000000000000000000000000000000000000000000000000000000600052602160045260246000fd5b6002811061102757611026610fe7565b5b50565b600081905061103882611016565b919050565b60006110488261102a565b9050919050565b6110588161103d565b82525050565b60e0820160008201516110746000850182610fd8565b506020820151611087602085018261104f565b50604082015161109a6040850182610fd8565b5060608201516110ad6060850182610fd8565b5060808201516110c06080850182610fd8565b5060a08201516110d360a0850182610fd8565b5060c08201516110e660c0850182610fd8565b50505050565b60006110f8838361105e565b60e08301905092915050565b6000602082019050919050565b600061111c82610fac565b6111268185610fb7565b935061113183610fc8565b8060005b8381101561116257815161114988826110ec565b975061115483611104565b925050600181019050611135565b5085935050505092915050565b600060208201905081810360008301526111898184611111565b905092915050565b600080604083850312156111a8576111a7610f44565b5b60006111b685828601610f6a565b92505060206111c785828601610f6a565b9150509250929050565b6111da81610f49565b82525050565b6111e98161103d565b82525050565b600060a08201905061120460008301886111d1565b61121160208301876111e0565b61121e60408301866111d1565b61122b60608301856111d1565b61123860808301846111d1565b9695505050505050565b600060808201905061125760008301876111d1565b61126460208301866111e0565b61127160408301856111d1565b61127e60608301846111d1565b95945050505050565b60e08201600082015161129d6000850182610fd8565b5060208201516112b0602085018261104f565b5060408201516112c36040850182610fd8565b5060608201516112d66060850182610fd8565b5060808201516112e96080850182610fd8565b5060a08201516112fc60a0850182610fd8565b5060c082015161130f60c0850182610fd8565b50505050565b600060e08201905061132a6000830184611287565b92915050565b7f4e487b7100000000000000000000000000000000000000000000000000000000600052604160045260246000fd5b7f4e487b7100000000000000000000000000000000000000000000000000000000600052603260045260246000fd5b7f4e487b7100000000000000000000000000000000000000000000000000000000600052601160045260246000fd5b60006113c882610f49565b91506113d383610f49565b9250827fffffffffffffffffffffffffffffffffffffffffffffffffffffffffffffffff038211156114085761140761138e565b5b828201905092915050565b600061141e82610f49565b91507fffffffffffffffffffffffffffffffffffffffffffffffffffffffffffffffff82036114505761144f61138e565b5b600182019050919050565b600061146682610f49565b915061147183610f49565b9250828210156114845761148361138e565b5b82820390509291505056fea26469706673582212207a193b321fd1d8785b34376965c3979f721b4e31f9d3e8a9c37363b7a9a101af64736f6c634300080f0033",
  "immutableReferences": {},
  "source": "// SPDX-License-Identifier: GPL-3.0\n\npragma solidity >=0.7.0 <0.9.0;\n\n\n/**\n * @title Fish Lot\n * @dev Store & retrieve Fish Lot Information\n */\ncontract FishLot {\n\n    enum LotStatus{ INPROD, HARVESTED }\n    \n    struct Lot {\n        uint _lot_number;\n        LotStatus _status;\n        uint _farm_id;\n        uint _start_datetime;\n        uint _harvest_datetime;\n        uint _harvested_quantity;\n        uint _unit_price;\n    }\n\n    uint256 lotCount = 0;\n    mapping(uint => Lot) lots;\n\n    mapping(uint => uint) lotByFarmCount;\n    mapping(uint => mapping(uint => Lot)) lotByFarmMapping;\n\n\n    function startNewLot(uint _farm_id) public returns(uint, LotStatus, uint, uint){\n\n        uint currentTime = block.timestamp;\n\n        lots[lotCount] = Lot(lotCount, LotStatus.INPROD ,_farm_id, currentTime, 0, 0, 0);\n        lotByFarmMapping[_farm_id][lotByFarmCount[_farm_id]] = Lot(lotCount, LotStatus.INPROD ,_farm_id, currentTime, 0, 0, 0);\n        lotCount += 1;\n        lotByFarmCount[_farm_id] += 1;\n\n        return (\n            lots[lotCount-1]._lot_number,\n            lots[lotCount-1]._status,\n            lots[lotCount-1]._farm_id,\n            lots[lotCount-1]._start_datetime\n        );\n    }\n\n    function harvestLot(uint _lot_number, uint _harvested_quantity) public returns(uint, LotStatus, uint, uint, uint) {\n        \n        uint farmId = lots[_lot_number]._farm_id;\n\n        lots[_lot_number]._harvest_datetime = block.timestamp;\n        lots[_lot_number]._status = LotStatus.HARVESTED;\n        lots[_lot_number]._harvested_quantity = _harvested_quantity;\n\n        for(uint i=0; i<lotByFarmCount[farmId]; i++){\n            if(lotByFarmMapping[farmId][i]._lot_number == _lot_number){\n                lotByFarmMapping[farmId][i]._harvest_datetime = lots[_lot_number]._harvest_datetime;\n                lotByFarmMapping[farmId][i]._status = LotStatus.HARVESTED;\n                lotByFarmMapping[farmId][i]._harvested_quantity = _harvested_quantity;\n                break;\n            }\n        }\n\n        return (\n            lots[_lot_number]._lot_number,\n            lots[_lot_number]._status,\n            lots[_lot_number]._farm_id,\n            lots[_lot_number]._harvest_datetime,\n            lots[_lot_number]._harvested_quantity\n        );\n    }\n\n    function setUnitPrice(uint _lot_number, uint _unit_price) public returns(uint, LotStatus, uint, uint) {\n        uint farmId = lots[_lot_number]._farm_id;\n\n        lots[_lot_number]._unit_price = _unit_price;\n\n        for(uint i=0; i<lotByFarmCount[farmId]; i++){\n            if(lotByFarmMapping[farmId][i]._lot_number == _lot_number){\n                lotByFarmMapping[farmId][i]._unit_price = _unit_price;\n                break;\n            }\n        }\n\n        return (\n            lots[_lot_number]._lot_number,\n            lots[_lot_number]._status,\n            lots[_lot_number]._farm_id,\n            lots[_lot_number]._unit_price\n        );\n    }\n\n\n    function getById(uint _lot_number) public view returns(Lot memory){\n        return lots[_lot_number];\n    }\n\n    function getByFarmId(uint _farm_id) public view returns(Lot[] memory){\n        Lot[] memory ret = new Lot[](lotByFarmCount[_farm_id]);\n\n        for(uint i=0; i<lotByFarmCount[_farm_id]; i++){\n            ret[i] = lotByFarmMapping[_farm_id][i];\n        }\n\n        return ret;\n    }\n\n    function getByStatus(uint _q_status) public view returns(Lot[] memory){\n        Lot[] memory retBuffer = new Lot[](lotCount);\n\n        uint retBufferCount = 0;\n        for(uint i=0; i<lotCount; i++){\n            if(uint(lots[i]._status) == _q_status){\n                retBuffer[retBufferCount] = lots[i];\n                retBufferCount += 1;\n            }\n        }\n\n        Lot[] memory ret = new Lot[](retBufferCount);\n\n         for(uint i=0; i<retBufferCount; i++){\n            ret[i] = retBuffer[i];\n        }\n\n        return ret;\n    }\n\n    function getByFarmIdByStatus(uint _farm_id, uint _q_status) public view returns(Lot[] memory){\n        Lot[] memory retBuffer = new Lot[](lotByFarmCount[_farm_id]);\n\n        uint retBufferCount = 0;\n        for(uint i=0; i<lotByFarmCount[_farm_id]; i++){\n            if(uint(lotByFarmMapping[_farm_id][i]._status) == _q_status){\n                retBuffer[retBufferCount] = lotByFarmMapping[_farm_id][i];\n                retBufferCount += 1;\n            }\n        }\n        \n\n        Lot[] memory ret = new Lot[](retBufferCount);\n\n         for(uint i=0; i<retBufferCount; i++){\n            ret[i] = retBuffer[i];\n        }\n\n        return ret;\n    }\n\n    \n    \n}",
  "sourcePath": "/Users/pongsit/Documents/iWorks/aquaponic-frontend/contracts/FishLot.sol",
  "compiler": {
    "name": "solc",
    "version": "0.8.15+commit.e14f2714.Emscripten.clang"
  },
  "schemaVersion": "3.4.8",
  "updatedAt": "2022-07-24T07:10:18.842Z",
  "devdoc": {
    "details": "Store & retrieve Fish Lot Information",
    "kind": "dev",
    "methods": {},
    "title": "Fish Lot",
    "version": 1
  },
  "userdoc": {
    "kind": "user",
    "methods": {},
    "version": 1
  }
}