{
  "contractName": "ItemLot",
  "abi": [
    {
      "inputs": [
        {
          "internalType": "uint256",
          "name": "_farm_id",
          "type": "uint256"
        }
      ],
      "name": "startNewLot",
      "outputs": [
        {
          "components": [
            {
              "internalType": "uint256",
              "name": "lot_number",
              "type": "uint256"
            },
            {
              "internalType": "enum ItemLot.LotStatus",
              "name": "status",
              "type": "uint8"
            },
            {
              "internalType": "uint256",
              "name": "farm_id",
              "type": "uint256"
            },
            {
              "internalType": "uint256",
              "name": "start_datetime",
              "type": "uint256"
            },
            {
              "internalType": "uint256",
              "name": "harvest_datetime",
              "type": "uint256"
            },
            {
              "internalType": "uint256",
              "name": "harvested_quantity",
              "type": "uint256"
            },
            {
              "internalType": "uint256",
              "name": "unit_price",
              "type": "uint256"
            }
          ],
          "internalType": "struct ItemLot.Lot",
          "name": "",
          "type": "tuple"
        }
      ],
      "stateMutability": "nonpayable",
      "type": "function"
    },
    {
      "inputs": [
        {
          "internalType": "uint256",
          "name": "_lot_number",
          "type": "uint256"
        },
        {
          "internalType": "uint256",
          "name": "_harvested_quantity",
          "type": "uint256"
        }
      ],
      "name": "harvestLot",
      "outputs": [
        {
          "components": [
            {
              "internalType": "uint256",
              "name": "lot_number",
              "type": "uint256"
            },
            {
              "internalType": "enum ItemLot.LotStatus",
              "name": "status",
              "type": "uint8"
            },
            {
              "internalType": "uint256",
              "name": "farm_id",
              "type": "uint256"
            },
            {
              "internalType": "uint256",
              "name": "start_datetime",
              "type": "uint256"
            },
            {
              "internalType": "uint256",
              "name": "harvest_datetime",
              "type": "uint256"
            },
            {
              "internalType": "uint256",
              "name": "harvested_quantity",
              "type": "uint256"
            },
            {
              "internalType": "uint256",
              "name": "unit_price",
              "type": "uint256"
            }
          ],
          "internalType": "struct ItemLot.Lot",
          "name": "",
          "type": "tuple"
        }
      ],
      "stateMutability": "nonpayable",
      "type": "function"
    },
    {
      "inputs": [
        {
          "internalType": "uint256",
          "name": "_lot_number",
          "type": "uint256"
        },
        {
          "internalType": "uint256",
          "name": "_unit_price",
          "type": "uint256"
        }
      ],
      "name": "setUnitPrice",
      "outputs": [
        {
          "components": [
            {
              "internalType": "uint256",
              "name": "lot_number",
              "type": "uint256"
            },
            {
              "internalType": "enum ItemLot.LotStatus",
              "name": "status",
              "type": "uint8"
            },
            {
              "internalType": "uint256",
              "name": "farm_id",
              "type": "uint256"
            },
            {
              "internalType": "uint256",
              "name": "start_datetime",
              "type": "uint256"
            },
            {
              "internalType": "uint256",
              "name": "harvest_datetime",
              "type": "uint256"
            },
            {
              "internalType": "uint256",
              "name": "harvested_quantity",
              "type": "uint256"
            },
            {
              "internalType": "uint256",
              "name": "unit_price",
              "type": "uint256"
            }
          ],
          "internalType": "struct ItemLot.Lot",
          "name": "",
          "type": "tuple"
        }
      ],
      "stateMutability": "nonpayable",
      "type": "function"
    },
    {
      "inputs": [
        {
          "internalType": "uint256",
          "name": "_lot_number",
          "type": "uint256"
        }
      ],
      "name": "getById",
      "outputs": [
        {
          "components": [
            {
              "internalType": "uint256",
              "name": "lot_number",
              "type": "uint256"
            },
            {
              "internalType": "enum ItemLot.LotStatus",
              "name": "status",
              "type": "uint8"
            },
            {
              "internalType": "uint256",
              "name": "farm_id",
              "type": "uint256"
            },
            {
              "internalType": "uint256",
              "name": "start_datetime",
              "type": "uint256"
            },
            {
              "internalType": "uint256",
              "name": "harvest_datetime",
              "type": "uint256"
            },
            {
              "internalType": "uint256",
              "name": "harvested_quantity",
              "type": "uint256"
            },
            {
              "internalType": "uint256",
              "name": "unit_price",
              "type": "uint256"
            }
          ],
          "internalType": "struct ItemLot.Lot",
          "name": "",
          "type": "tuple"
        }
      ],
      "stateMutability": "view",
      "type": "function"
    },
    {
      "inputs": [
        {
          "internalType": "uint256",
          "name": "_farm_id",
          "type": "uint256"
        }
      ],
      "name": "getByFarmId",
      "outputs": [
        {
          "components": [
            {
              "internalType": "uint256",
              "name": "lot_number",
              "type": "uint256"
            },
            {
              "internalType": "enum ItemLot.LotStatus",
              "name": "status",
              "type": "uint8"
            },
            {
              "internalType": "uint256",
              "name": "farm_id",
              "type": "uint256"
            },
            {
              "internalType": "uint256",
              "name": "start_datetime",
              "type": "uint256"
            },
            {
              "internalType": "uint256",
              "name": "harvest_datetime",
              "type": "uint256"
            },
            {
              "internalType": "uint256",
              "name": "harvested_quantity",
              "type": "uint256"
            },
            {
              "internalType": "uint256",
              "name": "unit_price",
              "type": "uint256"
            }
          ],
          "internalType": "struct ItemLot.Lot[]",
          "name": "",
          "type": "tuple[]"
        }
      ],
      "stateMutability": "view",
      "type": "function"
    },
    {
      "inputs": [
        {
          "internalType": "uint256",
          "name": "_q_status",
          "type": "uint256"
        }
      ],
      "name": "getByStatus",
      "outputs": [
        {
          "components": [
            {
              "internalType": "uint256",
              "name": "lot_number",
              "type": "uint256"
            },
            {
              "internalType": "enum ItemLot.LotStatus",
              "name": "status",
              "type": "uint8"
            },
            {
              "internalType": "uint256",
              "name": "farm_id",
              "type": "uint256"
            },
            {
              "internalType": "uint256",
              "name": "start_datetime",
              "type": "uint256"
            },
            {
              "internalType": "uint256",
              "name": "harvest_datetime",
              "type": "uint256"
            },
            {
              "internalType": "uint256",
              "name": "harvested_quantity",
              "type": "uint256"
            },
            {
              "internalType": "uint256",
              "name": "unit_price",
              "type": "uint256"
            }
          ],
          "internalType": "struct ItemLot.Lot[]",
          "name": "",
          "type": "tuple[]"
        }
      ],
      "stateMutability": "view",
      "type": "function"
    },
    {
      "inputs": [
        {
          "internalType": "uint256",
          "name": "_farm_id",
          "type": "uint256"
        },
        {
          "internalType": "uint256",
          "name": "_q_status",
          "type": "uint256"
        }
      ],
      "name": "getByFarmIdByStatus",
      "outputs": [
        {
          "components": [
            {
              "internalType": "uint256",
              "name": "lot_number",
              "type": "uint256"
            },
            {
              "internalType": "enum ItemLot.LotStatus",
              "name": "status",
              "type": "uint8"
            },
            {
              "internalType": "uint256",
              "name": "farm_id",
              "type": "uint256"
            },
            {
              "internalType": "uint256",
              "name": "start_datetime",
              "type": "uint256"
            },
            {
              "internalType": "uint256",
              "name": "harvest_datetime",
              "type": "uint256"
            },
            {
              "internalType": "uint256",
              "name": "harvested_quantity",
              "type": "uint256"
            },
            {
              "internalType": "uint256",
              "name": "unit_price",
              "type": "uint256"
            }
          ],
          "internalType": "struct ItemLot.Lot[]",
          "name": "",
          "type": "tuple[]"
        }
      ],
      "stateMutability": "view",
      "type": "function"
    }
  ],
  "bytecode": "0x60806040526000805534801561001457600080fd5b50611430806100246000396000f3fe608060405234801561001057600080fd5b506004361061007d5760003560e01c806384ba881d1161005b57806384ba881d14610112578063ba78508d14610142578063dc63383914610172578063f4f4d237146101a25761007d565b80631614d57e1461008257806324e9fd49146100b257806350dc920c146100e2575b600080fd5b61009c60048036038101906100979190610fa0565b6101d2565b6040516100a99190611190565b60405180910390f35b6100cc60048036038101906100c791906111b2565b610409565b6040516100d99190611190565b60405180910390f35b6100fc60048036038101906100f79190610fa0565b610686565b6040516101099190611190565b60405180910390f35b61012c600480360381019061012791906111b2565b6107f2565b6040516101399190611280565b60405180910390f35b61015c60048036038101906101579190610fa0565b610a4a565b6040516101699190611280565b60405180910390f35b61018c600480360381019061018791906111b2565b610d05565b6040516101999190611280565b60405180910390f35b6101bc60048036038101906101b79190610fa0565b610e72565b6040516101c99190611280565b60405180910390f35b60606000805467ffffffffffffffff8111156101f1576101f061129b565b5b60405190808252806020026020018201604052801561022a57816020015b610217610f16565b81526020019060019003908161020f5790505b5090506000805b60005481101561034d57846001600083815260200190815260200160002060010160009054906101000a900460ff16600181111561027257610271611008565b5b0361033a57600160008281526020019081526020016000206040518060e0016040529081600082015481526020016001820160009054906101000a900460ff1660018111156102c4576102c3611008565b5b60018111156102d6576102d5611008565b5b81526020016002820154815260200160038201548152602001600482015481526020016005820154815260200160068201548152505083838151811061031f5761031e6112ca565b5b60200260200101819052506001826103379190611328565b91505b80806103459061137e565b915050610231565b5060008167ffffffffffffffff81111561036a5761036961129b565b5b6040519080825280602002602001820160405280156103a357816020015b610390610f16565b8152602001906001900390816103885790505b50905060005b828110156103fd578381815181106103c4576103c36112ca565b5b60200260200101518282815181106103df576103de6112ca565b5b602002602001018190525080806103f59061137e565b9150506103a9565b50809350505050919050565b60606000600260008581526020019081526020016000205467ffffffffffffffff81111561043a5761043961129b565b5b60405190808252806020026020018201604052801561047357816020015b610460610f16565b8152602001906001900390816104585790505b5090506000805b60026000878152602001908152602001600020548110156105c9578460036000888152602001908152602001600020600083815260200190815260200160002060010160009054906101000a900460ff1660018111156104dd576104dc611008565b5b036105b6576003600087815260200190815260200160002060008281526020019081526020016000206040518060e0016040529081600082015481526020016001820160009054906101000a900460ff1660018111156105405761053f611008565b5b600181111561055257610551611008565b5b81526020016002820154815260200160038201548152602001600482015481526020016005820154815260200160068201548152505083838151811061059b5761059a6112ca565b5b60200260200101819052506001826105b39190611328565b91505b80806105c19061137e565b91505061047a565b5060008167ffffffffffffffff8111156105e6576105e561129b565b5b60405190808252806020026020018201604052801561061f57816020015b61060c610f16565b8152602001906001900390816106045790505b50905060005b82811015610679578381815181106106405761063f6112ca565b5b602002602001015182828151811061065b5761065a6112ca565b5b602002602001018190525080806106719061137e565b915050610625565b5080935050505092915050565b60606000600260008481526020019081526020016000205467ffffffffffffffff8111156106b7576106b661129b565b5b6040519080825280602002602001820160405280156106f057816020015b6106dd610f16565b8152602001906001900390816106d55790505b50905060005b60026000858152602001908152602001600020548110156107e8576003600085815260200190815260200160002060008281526020019081526020016000206040518060e0016040529081600082015481526020016001820160009054906101000a900460ff16600181111561076f5761076e611008565b5b600181111561078157610780611008565b5b8152602001600282015481526020016003820154815260200160048201548152602001600582015481526020016006820154815250508282815181106107ca576107c96112ca565b5b602002602001018190525080806107e09061137e565b9150506106f6565b5080915050919050565b6107fa610f16565b600060016000858152602001908152602001600020600201549050426001600086815260200190815260200160002060040181905550600180600086815260200190815260200160002060010160006101000a81548160ff0219169083600181111561086957610868611008565b5b021790555082600160008681526020019081526020016000206005018190555060005b60026000838152602001908152602001600020548110156109ab5784600360008481526020019081526020016000206000838152602001908152602001600020600001540361099857600160008681526020019081526020016000206004015460036000848152602001908152602001600020600083815260200190815260200160002060040181905550600160036000848152602001908152602001600020600083815260200190815260200160002060010160006101000a81548160ff0219169083600181111561096257610961611008565b5b021790555083600360008481526020019081526020016000206000838152602001908152602001600020600501819055506109ab565b80806109a39061137e565b91505061088c565b50600160008581526020019081526020016000206040518060e0016040529081600082015481526020016001820160009054906101000a900460ff1660018111156109f9576109f8611008565b5b6001811115610a0b57610a0a611008565b5b81526020016002820154815260200160038201548152602001600482015481526020016005820154815260200160068201548152505091505092915050565b610a52610f16565b60004290506040518060e00160405280600054815260200160006001811115610a7e57610a7d611008565b5b81526020018481526020018281526020016000815260200160008152602001600081525060016000805481526020019081526020016000206000820151816000015560208201518160010160006101000a81548160ff02191690836001811115610aeb57610aea611008565b5b021790555060408201518160020155606082015181600301556080820151816004015560a0820151816005015560c082015181600601559050506040518060e00160405280600054815260200160006001811115610b4c57610b4b611008565b5b815260200184815260200182815260200160008152602001600081526020016000815250600360008581526020019081526020016000206000600260008781526020019081526020016000205481526020019081526020016000206000820151816000015560208201518160010160006101000a81548160ff02191690836001811115610bdc57610bdb611008565b5b021790555060408201518160020155606082015181600301556080820151816004015560a0820151816005015560c082015181600601559050506001600080828254610c289190611328565b925050819055506001600260008581526020019081526020016000206000828254610c539190611328565b92505081905550600160006001600054610c6d91906113c6565b81526020019081526020016000206040518060e0016040529081600082015481526020016001820160009054906101000a900460ff166001811115610cb557610cb4611008565b5b6001811115610cc757610cc6611008565b5b815260200160028201548152602001600382015481526020016004820154815260200160058201548152602001600682015481525050915050919050565b610d0d610f16565b60006001600085815260200190815260200160002060020154905082600160008681526020019081526020016000206006018190555060005b6002600083815260200190815260200160002054811015610dd357846003600084815260200190815260200160002060008381526020019081526020016000206000015403610dc0578360036000848152602001908152602001600020600083815260200190815260200160002060060181905550610dd3565b8080610dcb9061137e565b915050610d46565b50600160008581526020019081526020016000206040518060e0016040529081600082015481526020016001820160009054906101000a900460ff166001811115610e2157610e20611008565b5b6001811115610e3357610e32611008565b5b81526020016002820154815260200160038201548152602001600482015481526020016005820154815260200160068201548152505091505092915050565b610e7a610f16565b600160008381526020019081526020016000206040518060e0016040529081600082015481526020016001820160009054906101000a900460ff166001811115610ec757610ec6611008565b5b6001811115610ed957610ed8611008565b5b8152602001600282015481526020016003820154815260200160048201548152602001600582015481526020016006820154815250509050919050565b6040518060e001604052806000815260200160006001811115610f3c57610f3b611008565b5b815260200160008152602001600081526020016000815260200160008152602001600081525090565b600080fd5b6000819050919050565b610f7d81610f6a565b8114610f8857600080fd5b50565b600081359050610f9a81610f74565b92915050565b600060208284031215610fb657610fb5610f65565b5b6000610fc484828501610f8b565b91505092915050565b600081519050919050565b600082825260208201905092915050565b6000819050602082019050919050565b61100281610f6a565b82525050565b7f4e487b7100000000000000000000000000000000000000000000000000000000600052602160045260246000fd5b6002811061104857611047611008565b5b50565b600081905061105982611037565b919050565b60006110698261104b565b9050919050565b6110798161105e565b82525050565b60e0820160008201516110956000850182610ff9565b5060208201516110a86020850182611070565b5060408201516110bb6040850182610ff9565b5060608201516110ce6060850182610ff9565b5060808201516110e16080850182610ff9565b5060a08201516110f460a0850182610ff9565b5060c082015161110760c0850182610ff9565b50505050565b6000611119838361107f565b60e08301905092915050565b6000602082019050919050565b600061113d82610fcd565b6111478185610fd8565b935061115283610fe9565b8060005b8381101561118357815161116a888261110d565b975061117583611125565b925050600181019050611156565b5085935050505092915050565b600060208201905081810360008301526111aa8184611132565b905092915050565b600080604083850312156111c9576111c8610f65565b5b60006111d785828601610f8b565b92505060206111e885828601610f8b565b9150509250929050565b60e0820160008201516112086000850182610ff9565b50602082015161121b6020850182611070565b50604082015161122e6040850182610ff9565b5060608201516112416060850182610ff9565b5060808201516112546080850182610ff9565b5060a082015161126760a0850182610ff9565b5060c082015161127a60c0850182610ff9565b50505050565b600060e08201905061129560008301846111f2565b92915050565b7f4e487b7100000000000000000000000000000000000000000000000000000000600052604160045260246000fd5b7f4e487b7100000000000000000000000000000000000000000000000000000000600052603260045260246000fd5b7f4e487b7100000000000000000000000000000000000000000000000000000000600052601160045260246000fd5b600061133382610f6a565b915061133e83610f6a565b9250827fffffffffffffffffffffffffffffffffffffffffffffffffffffffffffffffff03821115611373576113726112f9565b5b828201905092915050565b600061138982610f6a565b91507fffffffffffffffffffffffffffffffffffffffffffffffffffffffffffffffff82036113bb576113ba6112f9565b5b600182019050919050565b60006113d182610f6a565b91506113dc83610f6a565b9250828210156113ef576113ee6112f9565b5b82820390509291505056fea264697066735822122064d1e6a78ed815ffe4fe3009185f16856058866171427c6e29c22dabccc9dc2b64736f6c634300080f0033",
  "immutableReferences": {},
  "source": "// SPDX-License-Identifier: GPL-3.0\n\npragma solidity >=0.7.0 <0.9.0;\n\n\n/**\n * @title Item Lot\n * @dev Store & retrieve Plant Lot Information\n */\ncontract ItemLot {\n\n    enum LotStatus{ INPROD, HARVESTED }\n    \n    struct Lot {\n        uint lot_number;\n        LotStatus status;\n        uint farm_id;\n        uint start_datetime;\n        uint harvest_datetime;\n        uint harvested_quantity;\n        uint unit_price;\n    }\n\n    uint256 lotCount = 0;\n    mapping(uint => Lot) lots;\n\n    mapping(uint => uint) lotByFarmCount;\n    mapping(uint => mapping(uint => Lot)) lotByFarmMapping;\n\n    function recordInit(uint _farm_id, uint _start_datetime) internal {\n\n        lots[lotCount] = Lot(lotCount, LotStatus.INPROD ,_farm_id, _start_datetime, 0, 0, 0);\n        lotByFarmMapping[_farm_id][lotByFarmCount[_farm_id]] = Lot(lotCount, LotStatus.INPROD ,_farm_id, _start_datetime, 0, 0, 0);\n        lotCount += 1;\n        lotByFarmCount[_farm_id] += 1;\n\n    }\n\n    function recordInitHarvested(uint _farm_id, uint _start_datetime, uint _harvest_datetime, uint _harvested_quantity, uint _unit_price) internal {\n\n        lots[lotCount] = Lot(lotCount, LotStatus.HARVESTED ,_farm_id, _start_datetime, _harvest_datetime, _harvested_quantity, _unit_price);\n        lotByFarmMapping[_farm_id][lotByFarmCount[_farm_id]] = Lot(lotCount, LotStatus.HARVESTED ,_farm_id, _start_datetime, _harvest_datetime, _harvested_quantity, _unit_price);\n        lotCount += 1;\n        lotByFarmCount[_farm_id] += 1;\n\n    }\n\n\n    function startNewLot(uint _farm_id) public returns(Lot memory){\n\n        uint currentTime = block.timestamp;\n\n        lots[lotCount] = Lot(lotCount, LotStatus.INPROD ,_farm_id, currentTime, 0, 0, 0);\n        lotByFarmMapping[_farm_id][lotByFarmCount[_farm_id]] = Lot(lotCount, LotStatus.INPROD ,_farm_id, currentTime, 0, 0, 0);\n        lotCount += 1;\n        lotByFarmCount[_farm_id] += 1;\n\n        return lots[lotCount-1];\n    }\n\n    function harvestLot(uint _lot_number, uint _harvested_quantity) public returns(Lot memory) {\n        \n        uint farmId = lots[_lot_number].farm_id;\n\n        lots[_lot_number].harvest_datetime = block.timestamp;\n        lots[_lot_number].status = LotStatus.HARVESTED;\n        lots[_lot_number].harvested_quantity = _harvested_quantity;\n\n        for(uint i=0; i<lotByFarmCount[farmId]; i++){\n            if(lotByFarmMapping[farmId][i].lot_number == _lot_number){\n                lotByFarmMapping[farmId][i].harvest_datetime = lots[_lot_number].harvest_datetime;\n                lotByFarmMapping[farmId][i].status = LotStatus.HARVESTED;\n                lotByFarmMapping[farmId][i].harvested_quantity = _harvested_quantity;\n                break;\n            }\n        }\n\n        return lots[_lot_number];\n    }\n\n    function setUnitPrice(uint _lot_number, uint _unit_price) public returns(Lot memory) {\n        uint farmId = lots[_lot_number].farm_id;\n\n        lots[_lot_number].unit_price = _unit_price;\n\n        for(uint i=0; i<lotByFarmCount[farmId]; i++){\n            if(lotByFarmMapping[farmId][i].lot_number == _lot_number){\n                lotByFarmMapping[farmId][i].unit_price = _unit_price;\n                break;\n            }\n        }\n\n        return lots[_lot_number];\n    }\n\n\n    function getById(uint _lot_number) public view returns(Lot memory){\n        return lots[_lot_number];\n    }\n\n    function getByFarmId(uint _farm_id) public view returns(Lot[] memory){\n        Lot[] memory ret = new Lot[](lotByFarmCount[_farm_id]);\n\n        for(uint i=0; i<lotByFarmCount[_farm_id]; i++){\n            ret[i] = lotByFarmMapping[_farm_id][i];\n        }\n\n        return ret;\n    }\n\n    function getByStatus(uint _q_status) public view returns(Lot[] memory){\n        Lot[] memory retBuffer = new Lot[](lotCount);\n\n        uint retBufferCount = 0;\n        for(uint i=0; i<lotCount; i++){\n            if(uint(lots[i].status) == _q_status){\n                retBuffer[retBufferCount] = lots[i];\n                retBufferCount += 1;\n            }\n        }\n\n        Lot[] memory ret = new Lot[](retBufferCount);\n\n         for(uint i=0; i<retBufferCount; i++){\n            ret[i] = retBuffer[i];\n        }\n\n        return ret;\n    }\n\n    function getByFarmIdByStatus(uint _farm_id, uint _q_status) public view returns(Lot[] memory){\n        Lot[] memory retBuffer = new Lot[](lotByFarmCount[_farm_id]);\n\n        uint retBufferCount = 0;\n        for(uint i=0; i<lotByFarmCount[_farm_id]; i++){\n            if(uint(lotByFarmMapping[_farm_id][i].status) == _q_status){\n                retBuffer[retBufferCount] = lotByFarmMapping[_farm_id][i];\n                retBufferCount += 1;\n            }\n        }\n        \n\n        Lot[] memory ret = new Lot[](retBufferCount);\n\n         for(uint i=0; i<retBufferCount; i++){\n            ret[i] = retBuffer[i];\n        }\n\n        return ret;\n    }\n\n    \n    \n}",
  "sourcePath": "/Users/pongsit/Documents/iWorks/aquaponic-frontend/contracts/ItemLot.sol",
  "compiler": {
    "name": "solc",
    "version": "0.8.15+commit.e14f2714.Emscripten.clang"
  },
  "schemaVersion": "3.4.8",
  "updatedAt": "2022-07-24T14:06:18.545Z",
  "devdoc": {
    "details": "Store & retrieve Plant Lot Information",
    "kind": "dev",
    "methods": {},
    "title": "Item Lot",
    "version": 1
  },
  "userdoc": {
    "kind": "user",
    "methods": {},
    "version": 1
  }
}