{
  "contractName": "MeasurementRecord",
  "abi": [
    {
      "inputs": [
        {
          "internalType": "uint256",
          "name": "_farm_id",
          "type": "uint256"
        },
        {
          "internalType": "uint256",
          "name": "_value",
          "type": "uint256"
        }
      ],
      "name": "record",
      "outputs": [
        {
          "internalType": "uint256",
          "name": "",
          "type": "uint256"
        },
        {
          "internalType": "uint256",
          "name": "",
          "type": "uint256"
        },
        {
          "internalType": "uint256",
          "name": "",
          "type": "uint256"
        }
      ],
      "stateMutability": "nonpayable",
      "type": "function"
    },
    {
      "inputs": [
        {
          "internalType": "uint256",
          "name": "_farm_id",
          "type": "uint256"
        }
      ],
      "name": "getAllMeasurementForAFarm",
      "outputs": [
        {
          "components": [
            {
              "internalType": "uint256",
              "name": "_timestamp",
              "type": "uint256"
            },
            {
              "internalType": "uint256",
              "name": "_value",
              "type": "uint256"
            }
          ],
          "internalType": "struct MeasurementRecord.Measurement[]",
          "name": "",
          "type": "tuple[]"
        }
      ],
      "stateMutability": "view",
      "type": "function"
    },
    {
      "inputs": [
        {
          "internalType": "uint256",
          "name": "_farm_id",
          "type": "uint256"
        },
        {
          "internalType": "uint256",
          "name": "_since_timestamp",
          "type": "uint256"
        }
      ],
      "name": "getAllMeasurementForAFarmSince",
      "outputs": [
        {
          "components": [
            {
              "internalType": "uint256",
              "name": "_timestamp",
              "type": "uint256"
            },
            {
              "internalType": "uint256",
              "name": "_value",
              "type": "uint256"
            }
          ],
          "internalType": "struct MeasurementRecord.Measurement[]",
          "name": "",
          "type": "tuple[]"
        }
      ],
      "stateMutability": "view",
      "type": "function"
    },
    {
      "inputs": [
        {
          "internalType": "uint256",
          "name": "_farm_id",
          "type": "uint256"
        },
        {
          "internalType": "uint256",
          "name": "_from_timestamp",
          "type": "uint256"
        },
        {
          "internalType": "uint256",
          "name": "_to_timestamp",
          "type": "uint256"
        }
      ],
      "name": "getAllMeasurementForAFarmInAPeriod",
      "outputs": [
        {
          "components": [
            {
              "internalType": "uint256",
              "name": "_timestamp",
              "type": "uint256"
            },
            {
              "internalType": "uint256",
              "name": "_value",
              "type": "uint256"
            }
          ],
          "internalType": "struct MeasurementRecord.Measurement[]",
          "name": "",
          "type": "tuple[]"
        }
      ],
      "stateMutability": "view",
      "type": "function"
    }
  ],
  "bytecode": "0x60806040526000805534801561001457600080fd5b50610ba0806100246000396000f3fe608060405234801561001057600080fd5b506004361061004c5760003560e01c806317ffa15214610051578063245c19f114610081578063377144a6146100b1578063f238f3ec146100e3575b600080fd5b61006b600480360381019061006691906107f6565b610113565b6040516100789190610910565b60405180910390f35b61009b60048036038101906100969190610932565b61021c565b6040516100a89190610910565b60405180910390f35b6100cb60048036038101906100c69190610985565b610446565b6040516100da939291906109d4565b60405180910390f35b6100fd60048036038101906100f89190610985565b6105a6565b60405161010a9190610910565b60405180910390f35b60606000600160008481526020019081526020016000205467ffffffffffffffff81111561014457610143610a0b565b5b60405190808252806020026020018201604052801561017d57816020015b61016a6107a1565b8152602001906001900390816101625790505b50905060005b600160008581526020019081526020016000205481101561021257600260008581526020019081526020016000206000828152602001908152602001600020604051806040016040529081600082015481526020016001820154815250508282815181106101f4576101f3610a3a565b5b6020026020010181905250808061020a90610a98565b915050610183565b5080915050919050565b60606000600160008681526020019081526020016000205467ffffffffffffffff81111561024d5761024c610a0b565b5b60405190808252806020026020018201604052801561028657816020015b6102736107a1565b81526020019060019003908161026b5790505b5090506000805b60016000888152602001908152602001600020548110156103885785600260008981526020019081526020016000206000838152602001908152602001600020600001541061037557846002600089815260200190815260200160002060008381526020019081526020016000206000015411610388576002600088815260200190815260200160002060008281526020019081526020016000206040518060400160405290816000820154815260200160018201548152505083838151811061035a57610359610a3a565b5b60200260200101819052506001826103729190610ae0565b91505b808061038090610a98565b91505061028d565b5060008167ffffffffffffffff8111156103a5576103a4610a0b565b5b6040519080825280602002602001820160405280156103de57816020015b6103cb6107a1565b8152602001906001900390816103c35790505b50905060005b82811015610438578381815181106103ff576103fe610a3a565b5b602002602001015182828151811061041a57610419610a3a565b5b6020026020010181905250808061043090610a98565b9150506103e4565b508093505050509392505050565b60008060008060016000878152602001908152602001600020540361047f5760016000808282546104779190610ae0565b925050819055505b604051806040016040528042815260200185815250600260008781526020019081526020016000206000600160008981526020019081526020016000205481526020019081526020016000206000820151816000015560208201518160010155905050600180600087815260200190815260200160002060008282546105059190610ae0565b925050819055508460026000878152602001908152602001600020600060018060008a8152602001908152602001600020546105419190610b36565b81526020019081526020016000206000015460026000888152602001908152602001600020600060018060008b8152602001908152602001600020546105879190610b36565b8152602001908152602001600020600101549250925092509250925092565b60606000600160008581526020019081526020016000205467ffffffffffffffff8111156105d7576105d6610a0b565b5b60405190808252806020026020018201604052801561061057816020015b6105fd6107a1565b8152602001906001900390816105f55790505b5090506000805b60016000878152602001908152602001600020548110156106e4578460026000888152602001908152602001600020600083815260200190815260200160002060000154106106d157600260008781526020019081526020016000206000828152602001908152602001600020604051806040016040529081600082015481526020016001820154815250508383815181106106b6576106b5610a3a565b5b60200260200101819052506001826106ce9190610ae0565b91505b80806106dc90610a98565b915050610617565b5060008167ffffffffffffffff81111561070157610700610a0b565b5b60405190808252806020026020018201604052801561073a57816020015b6107276107a1565b81526020019060019003908161071f5790505b50905060005b828110156107945783818151811061075b5761075a610a3a565b5b602002602001015182828151811061077657610775610a3a565b5b6020026020010181905250808061078c90610a98565b915050610740565b5080935050505092915050565b604051806040016040528060008152602001600081525090565b600080fd5b6000819050919050565b6107d3816107c0565b81146107de57600080fd5b50565b6000813590506107f0816107ca565b92915050565b60006020828403121561080c5761080b6107bb565b5b600061081a848285016107e1565b91505092915050565b600081519050919050565b600082825260208201905092915050565b6000819050602082019050919050565b610858816107c0565b82525050565b604082016000820151610874600085018261084f565b506020820151610887602085018261084f565b50505050565b6000610899838361085e565b60408301905092915050565b6000602082019050919050565b60006108bd82610823565b6108c7818561082e565b93506108d28361083f565b8060005b838110156109035781516108ea888261088d565b97506108f5836108a5565b9250506001810190506108d6565b5085935050505092915050565b6000602082019050818103600083015261092a81846108b2565b905092915050565b60008060006060848603121561094b5761094a6107bb565b5b6000610959868287016107e1565b935050602061096a868287016107e1565b925050604061097b868287016107e1565b9150509250925092565b6000806040838503121561099c5761099b6107bb565b5b60006109aa858286016107e1565b92505060206109bb858286016107e1565b9150509250929050565b6109ce816107c0565b82525050565b60006060820190506109e960008301866109c5565b6109f660208301856109c5565b610a0360408301846109c5565b949350505050565b7f4e487b7100000000000000000000000000000000000000000000000000000000600052604160045260246000fd5b7f4e487b7100000000000000000000000000000000000000000000000000000000600052603260045260246000fd5b7f4e487b7100000000000000000000000000000000000000000000000000000000600052601160045260246000fd5b6000610aa3826107c0565b91507fffffffffffffffffffffffffffffffffffffffffffffffffffffffffffffffff8203610ad557610ad4610a69565b5b600182019050919050565b6000610aeb826107c0565b9150610af6836107c0565b9250827fffffffffffffffffffffffffffffffffffffffffffffffffffffffffffffffff03821115610b2b57610b2a610a69565b5b828201905092915050565b6000610b41826107c0565b9150610b4c836107c0565b925082821015610b5f57610b5e610a69565b5b82820390509291505056fea2646970667358221220384297bd43aa209a6df5dcc004cb566acd0c93bb5821765806dead81ce1a9e2c64736f6c634300080f0033",
  "immutableReferences": {},
  "source": "// SPDX-License-Identifier: GPL-3.0\n\npragma solidity >=0.7.0 <0.9.0;\n\n\n/**\n * @title MeasurementRecord\n * @dev Store & retrieve MeasurementRecord Measurement\n */\ncontract MeasurementRecord {\n\n    \n    struct Measurement {\n        uint _timestamp;\n        uint _value;\n    }\n\n    uint256 farmCount = 0;\n    mapping(uint => uint) measurementCount;\n    mapping(uint => mapping(uint => Measurement)) measurements;\n\n    function record(uint _farm_id, uint _value) public returns(uint, uint, uint){\n        if(measurementCount[_farm_id] == 0){\n            farmCount += 1;\n        }\n        measurements[_farm_id][measurementCount[_farm_id]] = Measurement(block.timestamp, _value);\n        measurementCount[_farm_id] += 1;\n        return (\n            _farm_id,\n            measurements[_farm_id][measurementCount[_farm_id]-1]._timestamp,\n            measurements[_farm_id][measurementCount[_farm_id]-1]._value\n        );\n    }\n\n    function getAllMeasurementForAFarm(uint _farm_id) public view returns (Measurement[] memory){\n        Measurement[] memory ret = new Measurement[](measurementCount[_farm_id]);\n\n        for(uint i=0; i<measurementCount[_farm_id]; i++){\n            ret[i] = measurements[_farm_id][i];\n        }\n\n        return ret;\n    }\n\n    function getAllMeasurementForAFarmSince(uint _farm_id, uint _since_timestamp) public view returns (Measurement[] memory){\n        Measurement[] memory retBuffer = new Measurement[](measurementCount[_farm_id]);\n\n        uint retBufferCount = 0;\n        for(uint i=0; i<measurementCount[_farm_id]; i++){\n            if(measurements[_farm_id][i]._timestamp < _since_timestamp){\n                continue;\n            } else {\n                retBuffer[retBufferCount] = measurements[_farm_id][i];\n                retBufferCount += 1;\n            }\n        }\n\n        Measurement[] memory ret = new Measurement[](retBufferCount);\n\n        for(uint i=0; i<retBufferCount; i++){\n            ret[i] = retBuffer[i];\n        }\n\n        return ret;\n    }\n\n    function getAllMeasurementForAFarmInAPeriod(uint _farm_id, uint _from_timestamp, uint _to_timestamp) public view returns (Measurement[] memory){\n        Measurement[] memory retBuffer = new Measurement[](measurementCount[_farm_id]);\n\n        uint retBufferCount = 0;\n        for(uint i=0; i<measurementCount[_farm_id]; i++){\n            if(measurements[_farm_id][i]._timestamp < _from_timestamp){\n                continue;\n            } else if(measurements[_farm_id][i]._timestamp > _to_timestamp){\n                break;\n            } else {\n                retBuffer[retBufferCount] = measurements[_farm_id][i];\n                retBufferCount += 1;\n            }\n        }\n\n        Measurement[] memory ret = new Measurement[](retBufferCount);\n\n        for(uint i=0; i<retBufferCount; i++){\n            ret[i] = retBuffer[i];\n        }\n\n        return ret;\n    }\n    \n}",
  "sourcePath": "/Users/pongsit/Documents/iWorks/aquaponic-frontend/contracts/MeasurementRecord.sol",
  "compiler": {
    "name": "solc",
    "version": "0.8.15+commit.e14f2714.Emscripten.clang"
  },
  "schemaVersion": "3.4.8",
  "updatedAt": "2022-07-24T07:10:18.854Z",
  "devdoc": {
    "details": "Store & retrieve MeasurementRecord Measurement",
    "kind": "dev",
    "methods": {},
    "title": "MeasurementRecord",
    "version": 1
  },
  "userdoc": {
    "kind": "user",
    "methods": {},
    "version": 1
  }
}