{
  "contractName": "MeasurementRecord",
  "abi": [
    {
      "inputs": [
        {
          "internalType": "uint256",
          "name": "_farm_id",
          "type": "uint256"
        },
        {
          "internalType": "uint256",
          "name": "_value",
          "type": "uint256"
        }
      ],
      "name": "record",
      "outputs": [
        {
          "components": [
            {
              "internalType": "uint256",
              "name": "timestamp",
              "type": "uint256"
            },
            {
              "internalType": "uint256",
              "name": "value",
              "type": "uint256"
            }
          ],
          "internalType": "struct MeasurementRecord.Measurement",
          "name": "",
          "type": "tuple"
        }
      ],
      "stateMutability": "nonpayable",
      "type": "function"
    },
    {
      "inputs": [
        {
          "internalType": "uint256",
          "name": "_farm_id",
          "type": "uint256"
        }
      ],
      "name": "getAllMeasurementForAFarm",
      "outputs": [
        {
          "components": [
            {
              "internalType": "uint256",
              "name": "timestamp",
              "type": "uint256"
            },
            {
              "internalType": "uint256",
              "name": "value",
              "type": "uint256"
            }
          ],
          "internalType": "struct MeasurementRecord.Measurement[]",
          "name": "",
          "type": "tuple[]"
        }
      ],
      "stateMutability": "view",
      "type": "function"
    },
    {
      "inputs": [
        {
          "internalType": "uint256",
          "name": "_farm_id",
          "type": "uint256"
        },
        {
          "internalType": "uint256",
          "name": "_since_timestamp",
          "type": "uint256"
        }
      ],
      "name": "getAllMeasurementForAFarmSince",
      "outputs": [
        {
          "components": [
            {
              "internalType": "uint256",
              "name": "timestamp",
              "type": "uint256"
            },
            {
              "internalType": "uint256",
              "name": "value",
              "type": "uint256"
            }
          ],
          "internalType": "struct MeasurementRecord.Measurement[]",
          "name": "",
          "type": "tuple[]"
        }
      ],
      "stateMutability": "view",
      "type": "function"
    },
    {
      "inputs": [
        {
          "internalType": "uint256",
          "name": "_farm_id",
          "type": "uint256"
        },
        {
          "internalType": "uint256",
          "name": "_from_timestamp",
          "type": "uint256"
        },
        {
          "internalType": "uint256",
          "name": "_to_timestamp",
          "type": "uint256"
        }
      ],
      "name": "getAllMeasurementForAFarmInAPeriod",
      "outputs": [
        {
          "components": [
            {
              "internalType": "uint256",
              "name": "timestamp",
              "type": "uint256"
            },
            {
              "internalType": "uint256",
              "name": "value",
              "type": "uint256"
            }
          ],
          "internalType": "struct MeasurementRecord.Measurement[]",
          "name": "",
          "type": "tuple[]"
        }
      ],
      "stateMutability": "view",
      "type": "function"
    }
  ],
  "bytecode": "0x60806040526000805534801561001457600080fd5b50610b75806100246000396000f3fe608060405234801561001057600080fd5b506004361061004c5760003560e01c806317ffa15214610051578063245c19f114610081578063377144a6146100b1578063f238f3ec146100e1575b600080fd5b61006b600480360381019061006691906107c7565b610111565b60405161007891906108e1565b60405180910390f35b61009b60048036038101906100969190610903565b61021a565b6040516100a891906108e1565b60405180910390f35b6100cb60048036038101906100c69190610956565b610444565b6040516100d891906109c5565b60405180910390f35b6100fb60048036038101906100f69190610956565b610577565b60405161010891906108e1565b60405180910390f35b60606000600160008481526020019081526020016000205467ffffffffffffffff811115610142576101416109e0565b5b60405190808252806020026020018201604052801561017b57816020015b610168610772565b8152602001906001900390816101605790505b50905060005b600160008581526020019081526020016000205481101561021057600260008581526020019081526020016000206000828152602001908152602001600020604051806040016040529081600082015481526020016001820154815250508282815181106101f2576101f1610a0f565b5b6020026020010181905250808061020890610a6d565b915050610181565b5080915050919050565b60606000600160008681526020019081526020016000205467ffffffffffffffff81111561024b5761024a6109e0565b5b60405190808252806020026020018201604052801561028457816020015b610271610772565b8152602001906001900390816102695790505b5090506000805b60016000888152602001908152602001600020548110156103865785600260008981526020019081526020016000206000838152602001908152602001600020600001541061037357846002600089815260200190815260200160002060008381526020019081526020016000206000015411610386576002600088815260200190815260200160002060008281526020019081526020016000206040518060400160405290816000820154815260200160018201548152505083838151811061035857610357610a0f565b5b60200260200101819052506001826103709190610ab5565b91505b808061037e90610a6d565b91505061028b565b5060008167ffffffffffffffff8111156103a3576103a26109e0565b5b6040519080825280602002602001820160405280156103dc57816020015b6103c9610772565b8152602001906001900390816103c15790505b50905060005b82811015610436578381815181106103fd576103fc610a0f565b5b602002602001015182828151811061041857610417610a0f565b5b6020026020010181905250808061042e90610a6d565b9150506103e2565b508093505050509392505050565b61044c610772565b60006001600085815260200190815260200160002054036104815760016000808282546104799190610ab5565b925050819055505b604051806040016040528042815260200183815250600260008581526020019081526020016000206000600160008781526020019081526020016000205481526020019081526020016000206000820151816000015560208201518160010155905050600180600085815260200190815260200160002060008282546105079190610ab5565b925050819055506002600084815260200190815260200160002060006001806000878152602001908152602001600020546105429190610b0b565b815260200190815260200160002060405180604001604052908160008201548152602001600182015481525050905092915050565b60606000600160008581526020019081526020016000205467ffffffffffffffff8111156105a8576105a76109e0565b5b6040519080825280602002602001820160405280156105e157816020015b6105ce610772565b8152602001906001900390816105c65790505b5090506000805b60016000878152602001908152602001600020548110156106b5578460026000888152602001908152602001600020600083815260200190815260200160002060000154106106a2576002600087815260200190815260200160002060008281526020019081526020016000206040518060400160405290816000820154815260200160018201548152505083838151811061068757610686610a0f565b5b602002602001018190525060018261069f9190610ab5565b91505b80806106ad90610a6d565b9150506105e8565b5060008167ffffffffffffffff8111156106d2576106d16109e0565b5b60405190808252806020026020018201604052801561070b57816020015b6106f8610772565b8152602001906001900390816106f05790505b50905060005b828110156107655783818151811061072c5761072b610a0f565b5b602002602001015182828151811061074757610746610a0f565b5b6020026020010181905250808061075d90610a6d565b915050610711565b5080935050505092915050565b604051806040016040528060008152602001600081525090565b600080fd5b6000819050919050565b6107a481610791565b81146107af57600080fd5b50565b6000813590506107c18161079b565b92915050565b6000602082840312156107dd576107dc61078c565b5b60006107eb848285016107b2565b91505092915050565b600081519050919050565b600082825260208201905092915050565b6000819050602082019050919050565b61082981610791565b82525050565b6040820160008201516108456000850182610820565b5060208201516108586020850182610820565b50505050565b600061086a838361082f565b60408301905092915050565b6000602082019050919050565b600061088e826107f4565b61089881856107ff565b93506108a383610810565b8060005b838110156108d45781516108bb888261085e565b97506108c683610876565b9250506001810190506108a7565b5085935050505092915050565b600060208201905081810360008301526108fb8184610883565b905092915050565b60008060006060848603121561091c5761091b61078c565b5b600061092a868287016107b2565b935050602061093b868287016107b2565b925050604061094c868287016107b2565b9150509250925092565b6000806040838503121561096d5761096c61078c565b5b600061097b858286016107b2565b925050602061098c858286016107b2565b9150509250929050565b6040820160008201516109ac6000850182610820565b5060208201516109bf6020850182610820565b50505050565b60006040820190506109da6000830184610996565b92915050565b7f4e487b7100000000000000000000000000000000000000000000000000000000600052604160045260246000fd5b7f4e487b7100000000000000000000000000000000000000000000000000000000600052603260045260246000fd5b7f4e487b7100000000000000000000000000000000000000000000000000000000600052601160045260246000fd5b6000610a7882610791565b91507fffffffffffffffffffffffffffffffffffffffffffffffffffffffffffffffff8203610aaa57610aa9610a3e565b5b600182019050919050565b6000610ac082610791565b9150610acb83610791565b9250827fffffffffffffffffffffffffffffffffffffffffffffffffffffffffffffffff03821115610b0057610aff610a3e565b5b828201905092915050565b6000610b1682610791565b9150610b2183610791565b925082821015610b3457610b33610a3e565b5b82820390509291505056fea2646970667358221220c1c5c1e5e3f05de0923c566046806c23d1d367f462457af929f8c3d56d8e414e64736f6c634300080f0033",
  "immutableReferences": {},
  "source": "// SPDX-License-Identifier: GPL-3.0\n\npragma solidity >=0.7.0 <0.9.0;\n\n\n/**\n * @title MeasurementRecord\n * @dev Store & retrieve MeasurementRecord Measurement\n */\ncontract MeasurementRecord {\n\n    \n    struct Measurement {\n        uint timestamp;\n        uint value;\n    }\n\n    uint256 farmCount = 0;\n    mapping(uint => uint) measurementCount;\n    mapping(uint => mapping(uint => Measurement)) measurements;\n\n    function record(uint _farm_id, uint _value) public returns(Measurement memory){\n        if(measurementCount[_farm_id] == 0){\n            farmCount += 1;\n        }\n        measurements[_farm_id][measurementCount[_farm_id]] = Measurement(block.timestamp, _value);\n        measurementCount[_farm_id] += 1;\n        \n        return measurements[_farm_id][measurementCount[_farm_id]-1];\n    }\n\n    function getAllMeasurementForAFarm(uint _farm_id) public view returns (Measurement[] memory){\n        Measurement[] memory ret = new Measurement[](measurementCount[_farm_id]);\n\n        for(uint i=0; i<measurementCount[_farm_id]; i++){\n            ret[i] = measurements[_farm_id][i];\n        }\n\n        return ret;\n    }\n\n    function getAllMeasurementForAFarmSince(uint _farm_id, uint _since_timestamp) public view returns (Measurement[] memory){\n        Measurement[] memory retBuffer = new Measurement[](measurementCount[_farm_id]);\n\n        uint retBufferCount = 0;\n        for(uint i=0; i<measurementCount[_farm_id]; i++){\n            if(measurements[_farm_id][i].timestamp < _since_timestamp){\n                continue;\n            } else {\n                retBuffer[retBufferCount] = measurements[_farm_id][i];\n                retBufferCount += 1;\n            }\n        }\n\n        Measurement[] memory ret = new Measurement[](retBufferCount);\n\n        for(uint i=0; i<retBufferCount; i++){\n            ret[i] = retBuffer[i];\n        }\n\n        return ret;\n    }\n\n    function getAllMeasurementForAFarmInAPeriod(uint _farm_id, uint _from_timestamp, uint _to_timestamp) public view returns (Measurement[] memory){\n        Measurement[] memory retBuffer = new Measurement[](measurementCount[_farm_id]);\n\n        uint retBufferCount = 0;\n        for(uint i=0; i<measurementCount[_farm_id]; i++){\n            if(measurements[_farm_id][i].timestamp < _from_timestamp){\n                continue;\n            } else if(measurements[_farm_id][i].timestamp > _to_timestamp){\n                break;\n            } else {\n                retBuffer[retBufferCount] = measurements[_farm_id][i];\n                retBufferCount += 1;\n            }\n        }\n\n        Measurement[] memory ret = new Measurement[](retBufferCount);\n\n        for(uint i=0; i<retBufferCount; i++){\n            ret[i] = retBuffer[i];\n        }\n\n        return ret;\n    }\n\n    \n    \n}",
  "sourcePath": "/Users/pongsit/Documents/iWorks/aquaponic-frontend/contracts/MeasurementRecord.sol",
  "compiler": {
    "name": "solc",
    "version": "0.8.15+commit.e14f2714.Emscripten.clang"
  },
  "schemaVersion": "3.4.8",
  "updatedAt": "2022-07-24T14:06:18.552Z",
  "devdoc": {
    "details": "Store & retrieve MeasurementRecord Measurement",
    "kind": "dev",
    "methods": {},
    "title": "MeasurementRecord",
    "version": 1
  },
  "userdoc": {
    "kind": "user",
    "methods": {},
    "version": 1
  }
}