{
  "contractName": "TradeTransaction",
  "abi": [
    {
      "inputs": [
        {
          "internalType": "address",
          "name": "_agriculturist_id",
          "type": "address"
        },
        {
          "internalType": "uint256",
          "name": "_lot_number",
          "type": "uint256"
        },
        {
          "internalType": "uint256",
          "name": "_quantity_purchased",
          "type": "uint256"
        },
        {
          "internalType": "uint256",
          "name": "_value",
          "type": "uint256"
        }
      ],
      "name": "create",
      "outputs": [
        {
          "components": [
            {
              "internalType": "uint256",
              "name": "id",
              "type": "uint256"
            },
            {
              "internalType": "address",
              "name": "buyer_id",
              "type": "address"
            },
            {
              "internalType": "address",
              "name": "agriculturist_id",
              "type": "address"
            },
            {
              "internalType": "uint256",
              "name": "lot_number",
              "type": "uint256"
            },
            {
              "internalType": "uint256",
              "name": "quantity_purchased",
              "type": "uint256"
            },
            {
              "internalType": "uint256",
              "name": "value",
              "type": "uint256"
            },
            {
              "internalType": "uint256",
              "name": "timestamp",
              "type": "uint256"
            }
          ],
          "internalType": "struct TradeTransaction.Transaction",
          "name": "",
          "type": "tuple"
        }
      ],
      "stateMutability": "nonpayable",
      "type": "function"
    },
    {
      "inputs": [
        {
          "internalType": "uint256",
          "name": "_id",
          "type": "uint256"
        }
      ],
      "name": "getById",
      "outputs": [
        {
          "components": [
            {
              "internalType": "uint256",
              "name": "id",
              "type": "uint256"
            },
            {
              "internalType": "address",
              "name": "buyer_id",
              "type": "address"
            },
            {
              "internalType": "address",
              "name": "agriculturist_id",
              "type": "address"
            },
            {
              "internalType": "uint256",
              "name": "lot_number",
              "type": "uint256"
            },
            {
              "internalType": "uint256",
              "name": "quantity_purchased",
              "type": "uint256"
            },
            {
              "internalType": "uint256",
              "name": "value",
              "type": "uint256"
            },
            {
              "internalType": "uint256",
              "name": "timestamp",
              "type": "uint256"
            }
          ],
          "internalType": "struct TradeTransaction.Transaction",
          "name": "",
          "type": "tuple"
        }
      ],
      "stateMutability": "view",
      "type": "function"
    },
    {
      "inputs": [
        {
          "internalType": "uint256",
          "name": "_lot_number",
          "type": "uint256"
        }
      ],
      "name": "getByLotNumber",
      "outputs": [
        {
          "components": [
            {
              "internalType": "uint256",
              "name": "id",
              "type": "uint256"
            },
            {
              "internalType": "address",
              "name": "buyer_id",
              "type": "address"
            },
            {
              "internalType": "address",
              "name": "agriculturist_id",
              "type": "address"
            },
            {
              "internalType": "uint256",
              "name": "lot_number",
              "type": "uint256"
            },
            {
              "internalType": "uint256",
              "name": "quantity_purchased",
              "type": "uint256"
            },
            {
              "internalType": "uint256",
              "name": "value",
              "type": "uint256"
            },
            {
              "internalType": "uint256",
              "name": "timestamp",
              "type": "uint256"
            }
          ],
          "internalType": "struct TradeTransaction.Transaction[]",
          "name": "",
          "type": "tuple[]"
        }
      ],
      "stateMutability": "view",
      "type": "function"
    },
    {
      "inputs": [
        {
          "internalType": "address",
          "name": "_agriculturist_id",
          "type": "address"
        }
      ],
      "name": "getByAgriculturistId",
      "outputs": [
        {
          "components": [
            {
              "internalType": "uint256",
              "name": "id",
              "type": "uint256"
            },
            {
              "internalType": "address",
              "name": "buyer_id",
              "type": "address"
            },
            {
              "internalType": "address",
              "name": "agriculturist_id",
              "type": "address"
            },
            {
              "internalType": "uint256",
              "name": "lot_number",
              "type": "uint256"
            },
            {
              "internalType": "uint256",
              "name": "quantity_purchased",
              "type": "uint256"
            },
            {
              "internalType": "uint256",
              "name": "value",
              "type": "uint256"
            },
            {
              "internalType": "uint256",
              "name": "timestamp",
              "type": "uint256"
            }
          ],
          "internalType": "struct TradeTransaction.Transaction[]",
          "name": "",
          "type": "tuple[]"
        }
      ],
      "stateMutability": "view",
      "type": "function"
    }
  ],
  "bytecode": "0x60806040526000805534801561001457600080fd5b506111b3806100246000396000f3fe608060405234801561001057600080fd5b506004361061004c5760003560e01c80636f30e878146100515780638c71ec1614610081578063cf0a5cb5146100b1578063f4f4d237146100e1575b600080fd5b61006b60048036038101906100669190610cd9565b610111565b6040516100789190610e93565b60405180910390f35b61009b60048036038101906100969190610ee1565b6102e4565b6040516100a89190610fd6565b60405180910390f35b6100cb60048036038101906100c69190610ff1565b6108d3565b6040516100d89190610e93565b60405180910390f35b6100fb60048036038101906100f69190610cd9565b610b2a565b6040516101089190610fd6565b60405180910390f35b60606000600260008481526020019081526020016000205467ffffffffffffffff8111156101425761014161101e565b5b60405190808252806020026020018201604052801561017b57816020015b610168610c35565b8152602001906001900390816101605790505b50905060005b60026000858152602001908152602001600020548110156102da576003600085815260200190815260200160002060008281526020019081526020016000206040518060e0016040529081600082015481526020016001820160009054906101000a900473ffffffffffffffffffffffffffffffffffffffff1673ffffffffffffffffffffffffffffffffffffffff1673ffffffffffffffffffffffffffffffffffffffff1681526020016002820160009054906101000a900473ffffffffffffffffffffffffffffffffffffffff1673ffffffffffffffffffffffffffffffffffffffff1673ffffffffffffffffffffffffffffffffffffffff1681526020016003820154815260200160048201548152602001600582015481526020016006820154815250508282815181106102bc576102bb61104d565b5b602002602001018190525080806102d2906110ab565b915050610181565b5080915050919050565b6102ec610c35565b60004290506040518060e0016040528060005481526020013373ffffffffffffffffffffffffffffffffffffffff1681526020018773ffffffffffffffffffffffffffffffffffffffff1681526020018681526020018581526020018481526020018281525060016000805481526020019081526020016000206000820151816000015560208201518160010160006101000a81548173ffffffffffffffffffffffffffffffffffffffff021916908373ffffffffffffffffffffffffffffffffffffffff16021790555060408201518160020160006101000a81548173ffffffffffffffffffffffffffffffffffffffff021916908373ffffffffffffffffffffffffffffffffffffffff160217905550606082015181600301556080820151816004015560a0820151816005015560c08201518160060155905050600160008054815260200190815260200160002060036000878152602001908152602001600020600060026000898152602001908152602001600020548152602001908152602001600020600082015481600001556001820160009054906101000a900473ffffffffffffffffffffffffffffffffffffffff168160010160006101000a81548173ffffffffffffffffffffffffffffffffffffffff021916908373ffffffffffffffffffffffffffffffffffffffff1602179055506002820160009054906101000a900473ffffffffffffffffffffffffffffffffffffffff168160020160006101000a81548173ffffffffffffffffffffffffffffffffffffffff021916908373ffffffffffffffffffffffffffffffffffffffff160217905550600382015481600301556004820154816004015560058201548160050155600682015481600601559050506000600460008873ffffffffffffffffffffffffffffffffffffffff1673ffffffffffffffffffffffffffffffffffffffff1681526020019081526020016000205490506001600080548152602001908152602001600020600560008973ffffffffffffffffffffffffffffffffffffffff1673ffffffffffffffffffffffffffffffffffffffff1681526020019081526020016000206000838152602001908152602001600020600082015481600001556001820160009054906101000a900473ffffffffffffffffffffffffffffffffffffffff168160010160006101000a81548173ffffffffffffffffffffffffffffffffffffffff021916908373ffffffffffffffffffffffffffffffffffffffff1602179055506002820160009054906101000a900473ffffffffffffffffffffffffffffffffffffffff168160020160006101000a81548173ffffffffffffffffffffffffffffffffffffffff021916908373ffffffffffffffffffffffffffffffffffffffff16021790555060038201548160030155600482015481600401556005820154816005015560068201548160060155905050600160008082825461073491906110f3565b92505081905550600160026000888152602001908152602001600020600082825461075f91906110f3565b925050819055506001600460008973ffffffffffffffffffffffffffffffffffffffff1673ffffffffffffffffffffffffffffffffffffffff16815260200190815260200160002060008282546107b691906110f3565b925050819055506001600060016000546107d09190611149565b81526020019081526020016000206040518060e0016040529081600082015481526020016001820160009054906101000a900473ffffffffffffffffffffffffffffffffffffffff1673ffffffffffffffffffffffffffffffffffffffff1673ffffffffffffffffffffffffffffffffffffffff1681526020016002820160009054906101000a900473ffffffffffffffffffffffffffffffffffffffff1673ffffffffffffffffffffffffffffffffffffffff1673ffffffffffffffffffffffffffffffffffffffff16815260200160038201548152602001600482015481526020016005820154815260200160068201548152505092505050949350505050565b60606000600460008473ffffffffffffffffffffffffffffffffffffffff1673ffffffffffffffffffffffffffffffffffffffff1681526020019081526020016000205467ffffffffffffffff8111156109305761092f61101e565b5b60405190808252806020026020018201604052801561096957816020015b610956610c35565b81526020019060019003908161094e5790505b50905060005b600460008573ffffffffffffffffffffffffffffffffffffffff1673ffffffffffffffffffffffffffffffffffffffff16815260200190815260200160002054811015610b2057600560008573ffffffffffffffffffffffffffffffffffffffff1673ffffffffffffffffffffffffffffffffffffffff16815260200190815260200160002060008281526020019081526020016000206040518060e0016040529081600082015481526020016001820160009054906101000a900473ffffffffffffffffffffffffffffffffffffffff1673ffffffffffffffffffffffffffffffffffffffff1673ffffffffffffffffffffffffffffffffffffffff1681526020016002820160009054906101000a900473ffffffffffffffffffffffffffffffffffffffff1673ffffffffffffffffffffffffffffffffffffffff1673ffffffffffffffffffffffffffffffffffffffff168152602001600382015481526020016004820154815260200160058201548152602001600682015481525050828281518110610b0257610b0161104d565b5b60200260200101819052508080610b18906110ab565b91505061096f565b5080915050919050565b610b32610c35565b600160008381526020019081526020016000206040518060e0016040529081600082015481526020016001820160009054906101000a900473ffffffffffffffffffffffffffffffffffffffff1673ffffffffffffffffffffffffffffffffffffffff1673ffffffffffffffffffffffffffffffffffffffff1681526020016002820160009054906101000a900473ffffffffffffffffffffffffffffffffffffffff1673ffffffffffffffffffffffffffffffffffffffff1673ffffffffffffffffffffffffffffffffffffffff1681526020016003820154815260200160048201548152602001600582015481526020016006820154815250509050919050565b6040518060e0016040528060008152602001600073ffffffffffffffffffffffffffffffffffffffff168152602001600073ffffffffffffffffffffffffffffffffffffffff168152602001600081526020016000815260200160008152602001600081525090565b600080fd5b6000819050919050565b610cb681610ca3565b8114610cc157600080fd5b50565b600081359050610cd381610cad565b92915050565b600060208284031215610cef57610cee610c9e565b5b6000610cfd84828501610cc4565b91505092915050565b600081519050919050565b600082825260208201905092915050565b6000819050602082019050919050565b610d3b81610ca3565b82525050565b600073ffffffffffffffffffffffffffffffffffffffff82169050919050565b6000610d6c82610d41565b9050919050565b610d7c81610d61565b82525050565b60e082016000820151610d986000850182610d32565b506020820151610dab6020850182610d73565b506040820151610dbe6040850182610d73565b506060820151610dd16060850182610d32565b506080820151610de46080850182610d32565b5060a0820151610df760a0850182610d32565b5060c0820151610e0a60c0850182610d32565b50505050565b6000610e1c8383610d82565b60e08301905092915050565b6000602082019050919050565b6000610e4082610d06565b610e4a8185610d11565b9350610e5583610d22565b8060005b83811015610e86578151610e6d8882610e10565b9750610e7883610e28565b925050600181019050610e59565b5085935050505092915050565b60006020820190508181036000830152610ead8184610e35565b905092915050565b610ebe81610d61565b8114610ec957600080fd5b50565b600081359050610edb81610eb5565b92915050565b60008060008060808587031215610efb57610efa610c9e565b5b6000610f0987828801610ecc565b9450506020610f1a87828801610cc4565b9350506040610f2b87828801610cc4565b9250506060610f3c87828801610cc4565b91505092959194509250565b60e082016000820151610f5e6000850182610d32565b506020820151610f716020850182610d73565b506040820151610f846040850182610d73565b506060820151610f976060850182610d32565b506080820151610faa6080850182610d32565b5060a0820151610fbd60a0850182610d32565b5060c0820151610fd060c0850182610d32565b50505050565b600060e082019050610feb6000830184610f48565b92915050565b60006020828403121561100757611006610c9e565b5b600061101584828501610ecc565b91505092915050565b7f4e487b7100000000000000000000000000000000000000000000000000000000600052604160045260246000fd5b7f4e487b7100000000000000000000000000000000000000000000000000000000600052603260045260246000fd5b7f4e487b7100000000000000000000000000000000000000000000000000000000600052601160045260246000fd5b60006110b682610ca3565b91507fffffffffffffffffffffffffffffffffffffffffffffffffffffffffffffffff82036110e8576110e761107c565b5b600182019050919050565b60006110fe82610ca3565b915061110983610ca3565b9250827fffffffffffffffffffffffffffffffffffffffffffffffffffffffffffffffff0382111561113e5761113d61107c565b5b828201905092915050565b600061115482610ca3565b915061115f83610ca3565b9250828210156111725761117161107c565b5b82820390509291505056fea2646970667358221220ce3cb5ac41099a26383bea16fde152892db925f748ef3d2b26e8dd0ebed52d1a64736f6c634300080f0033",
  "immutableReferences": {},
  "source": "// SPDX-License-Identifier: GPL-3.0\n\npragma solidity >=0.7.0 <0.9.0;\n\n\n/**\n * @title TradeTransaction\n * @dev Store & retrieve Trade transaction Information\n */\ncontract TradeTransaction {\n\n    struct Transaction {\n        uint id;\n        address buyer_id;\n        address agriculturist_id;\n        uint lot_number;\n        uint quantity_purchased;\n        uint value;\n        uint timestamp;\n    }\n\n    uint256 transactionCount = 0;\n    mapping(uint => Transaction) transactions;\n\n    mapping(uint => uint) transactionByLotNumberCount;\n    mapping(uint => mapping(uint => Transaction)) transactionByLotNumberMapping;\n\n    mapping(address => uint) transactionByAgriculturistCount;\n    mapping(address => mapping(uint => Transaction)) transactionByAgriculturistMapping;\n\n\n\n    function create(address _agriculturist_id, uint _lot_number, uint _quantity_purchased, uint _value) \n        public \n        returns(Transaction memory) \n    {\n\n        uint currentTime = block.timestamp;\n\n        transactions[transactionCount] = \n            Transaction(transactionCount, msg.sender, _agriculturist_id, _lot_number, _quantity_purchased, _value, currentTime);\n\n        transactionByLotNumberMapping[_lot_number][transactionByLotNumberCount[_lot_number]] = transactions[transactionCount];\n\n        uint tempCount = transactionByAgriculturistCount[_agriculturist_id];\n        transactionByAgriculturistMapping[_agriculturist_id][tempCount] = transactions[transactionCount] ;\n\n        transactionCount += 1;\n        transactionByLotNumberCount[_lot_number] += 1;\n        transactionByAgriculturistCount[_agriculturist_id] += 1;\n\n        return transactions[transactionCount-1];\n    }\n\n    function getById(uint _id) public view returns(Transaction memory) {\n        return transactions[_id];\n    }\n\n    function getByLotNumber(uint _lot_number) public view returns(Transaction[] memory){\n        Transaction[] memory ret = new Transaction[](transactionByLotNumberCount[_lot_number]);\n\n        for(uint i=0; i<transactionByLotNumberCount[_lot_number]; i++){\n            ret[i] = transactionByLotNumberMapping[_lot_number][i];\n        }\n\n        return ret;\n    } \n\n    function getByAgriculturistId(address _agriculturist_id) public view returns(Transaction[] memory){\n        Transaction[] memory ret = new Transaction[](transactionByAgriculturistCount[_agriculturist_id]);\n\n        for(uint i=0; i<transactionByAgriculturistCount[_agriculturist_id]; i++){\n            ret[i] = transactionByAgriculturistMapping[_agriculturist_id][i];\n        }\n\n        return ret;\n    } \n}",
  "sourcePath": "/Users/pongsit/Documents/iWorks/aquaponic-frontend/contracts/TradeTransaction.sol",
  "compiler": {
    "name": "solc",
    "version": "0.8.15+commit.e14f2714.Emscripten.clang"
  },
  "schemaVersion": "3.4.8",
  "updatedAt": "2022-07-24T14:06:18.577Z",
  "devdoc": {
    "details": "Store & retrieve Trade transaction Information",
    "kind": "dev",
    "methods": {},
    "title": "TradeTransaction",
    "version": 1
  },
  "userdoc": {
    "kind": "user",
    "methods": {},
    "version": 1
  }
}