{
  "contractName": "TradeTransaction",
  "abi": [
    {
      "inputs": [
        {
          "internalType": "address",
          "name": "_agriculturist_id",
          "type": "address"
        },
        {
          "internalType": "uint256",
          "name": "_lot_number",
          "type": "uint256"
        },
        {
          "internalType": "uint256",
          "name": "_quantity_purchased",
          "type": "uint256"
        },
        {
          "internalType": "uint256",
          "name": "_value",
          "type": "uint256"
        }
      ],
      "name": "create",
      "outputs": [
        {
          "internalType": "uint256",
          "name": "",
          "type": "uint256"
        },
        {
          "internalType": "address",
          "name": "",
          "type": "address"
        },
        {
          "internalType": "address",
          "name": "",
          "type": "address"
        },
        {
          "internalType": "uint256",
          "name": "",
          "type": "uint256"
        },
        {
          "internalType": "uint256",
          "name": "",
          "type": "uint256"
        },
        {
          "internalType": "uint256",
          "name": "",
          "type": "uint256"
        },
        {
          "internalType": "uint256",
          "name": "",
          "type": "uint256"
        }
      ],
      "stateMutability": "nonpayable",
      "type": "function"
    },
    {
      "inputs": [
        {
          "internalType": "uint256",
          "name": "_id",
          "type": "uint256"
        }
      ],
      "name": "getById",
      "outputs": [
        {
          "components": [
            {
              "internalType": "uint256",
              "name": "_id",
              "type": "uint256"
            },
            {
              "internalType": "address",
              "name": "_buyer_id",
              "type": "address"
            },
            {
              "internalType": "address",
              "name": "_agriculturist_id",
              "type": "address"
            },
            {
              "internalType": "uint256",
              "name": "_lot_number",
              "type": "uint256"
            },
            {
              "internalType": "uint256",
              "name": "_quantity_purchased",
              "type": "uint256"
            },
            {
              "internalType": "uint256",
              "name": "_value",
              "type": "uint256"
            },
            {
              "internalType": "uint256",
              "name": "_timestamp",
              "type": "uint256"
            }
          ],
          "internalType": "struct TradeTransaction.Transaction",
          "name": "",
          "type": "tuple"
        }
      ],
      "stateMutability": "view",
      "type": "function"
    },
    {
      "inputs": [
        {
          "internalType": "uint256",
          "name": "_lot_number",
          "type": "uint256"
        }
      ],
      "name": "getByLotNumber",
      "outputs": [
        {
          "components": [
            {
              "internalType": "uint256",
              "name": "_id",
              "type": "uint256"
            },
            {
              "internalType": "address",
              "name": "_buyer_id",
              "type": "address"
            },
            {
              "internalType": "address",
              "name": "_agriculturist_id",
              "type": "address"
            },
            {
              "internalType": "uint256",
              "name": "_lot_number",
              "type": "uint256"
            },
            {
              "internalType": "uint256",
              "name": "_quantity_purchased",
              "type": "uint256"
            },
            {
              "internalType": "uint256",
              "name": "_value",
              "type": "uint256"
            },
            {
              "internalType": "uint256",
              "name": "_timestamp",
              "type": "uint256"
            }
          ],
          "internalType": "struct TradeTransaction.Transaction[]",
          "name": "",
          "type": "tuple[]"
        }
      ],
      "stateMutability": "view",
      "type": "function"
    },
    {
      "inputs": [
        {
          "internalType": "address",
          "name": "_agriculturist_id",
          "type": "address"
        }
      ],
      "name": "getByAgriculturistId",
      "outputs": [
        {
          "components": [
            {
              "internalType": "uint256",
              "name": "_id",
              "type": "uint256"
            },
            {
              "internalType": "address",
              "name": "_buyer_id",
              "type": "address"
            },
            {
              "internalType": "address",
              "name": "_agriculturist_id",
              "type": "address"
            },
            {
              "internalType": "uint256",
              "name": "_lot_number",
              "type": "uint256"
            },
            {
              "internalType": "uint256",
              "name": "_quantity_purchased",
              "type": "uint256"
            },
            {
              "internalType": "uint256",
              "name": "_value",
              "type": "uint256"
            },
            {
              "internalType": "uint256",
              "name": "_timestamp",
              "type": "uint256"
            }
          ],
          "internalType": "struct TradeTransaction.Transaction[]",
          "name": "",
          "type": "tuple[]"
        }
      ],
      "stateMutability": "view",
      "type": "function"
    }
  ],
  "bytecode": "0x60806040526000805534801561001457600080fd5b50611293806100246000396000f3fe608060405234801561001057600080fd5b506004361061004c5760003560e01c80636f30e878146100515780638c71ec1614610081578063cf0a5cb5146100b7578063f4f4d237146100e7575b600080fd5b61006b60048036038101906100669190610d2c565b610117565b6040516100789190610ee6565b60405180910390f35b61009b60048036038101906100969190610f34565b6102ea565b6040516100ae9796959493929190610fb9565b60405180910390f35b6100d160048036038101906100cc9190611028565b610926565b6040516100de9190610ee6565b60405180910390f35b61010160048036038101906100fc9190610d2c565b610b7d565b60405161010e91906110e3565b60405180910390f35b60606000600260008481526020019081526020016000205467ffffffffffffffff811115610148576101476110fe565b5b60405190808252806020026020018201604052801561018157816020015b61016e610c88565b8152602001906001900390816101665790505b50905060005b60026000858152602001908152602001600020548110156102e0576003600085815260200190815260200160002060008281526020019081526020016000206040518060e0016040529081600082015481526020016001820160009054906101000a900473ffffffffffffffffffffffffffffffffffffffff1673ffffffffffffffffffffffffffffffffffffffff1673ffffffffffffffffffffffffffffffffffffffff1681526020016002820160009054906101000a900473ffffffffffffffffffffffffffffffffffffffff1673ffffffffffffffffffffffffffffffffffffffff1673ffffffffffffffffffffffffffffffffffffffff1681526020016003820154815260200160048201548152602001600582015481526020016006820154815250508282815181106102c2576102c161112d565b5b602002602001018190525080806102d89061118b565b915050610187565b5080915050919050565b6000806000806000806000804290506040518060e0016040528060005481526020013373ffffffffffffffffffffffffffffffffffffffff1681526020018d73ffffffffffffffffffffffffffffffffffffffff1681526020018c81526020018b81526020018a81526020018281525060016000805481526020019081526020016000206000820151816000015560208201518160010160006101000a81548173ffffffffffffffffffffffffffffffffffffffff021916908373ffffffffffffffffffffffffffffffffffffffff16021790555060408201518160020160006101000a81548173ffffffffffffffffffffffffffffffffffffffff021916908373ffffffffffffffffffffffffffffffffffffffff160217905550606082015181600301556080820151816004015560a0820151816005015560c082015181600601559050506001600080548152602001908152602001600020600360008d81526020019081526020016000206000600260008f8152602001908152602001600020548152602001908152602001600020600082015481600001556001820160009054906101000a900473ffffffffffffffffffffffffffffffffffffffff168160010160006101000a81548173ffffffffffffffffffffffffffffffffffffffff021916908373ffffffffffffffffffffffffffffffffffffffff1602179055506002820160009054906101000a900473ffffffffffffffffffffffffffffffffffffffff168160020160006101000a81548173ffffffffffffffffffffffffffffffffffffffff021916908373ffffffffffffffffffffffffffffffffffffffff160217905550600382015481600301556004820154816004015560058201548160050155600682015481600601559050506000600460008e73ffffffffffffffffffffffffffffffffffffffff1673ffffffffffffffffffffffffffffffffffffffff1681526020019081526020016000205490506001600080548152602001908152602001600020600560008f73ffffffffffffffffffffffffffffffffffffffff1673ffffffffffffffffffffffffffffffffffffffff1681526020019081526020016000206000838152602001908152602001600020600082015481600001556001820160009054906101000a900473ffffffffffffffffffffffffffffffffffffffff168160010160006101000a81548173ffffffffffffffffffffffffffffffffffffffff021916908373ffffffffffffffffffffffffffffffffffffffff1602179055506002820160009054906101000a900473ffffffffffffffffffffffffffffffffffffffff168160020160006101000a81548173ffffffffffffffffffffffffffffffffffffffff021916908373ffffffffffffffffffffffffffffffffffffffff16021790555060038201548160030155600482015481600401556005820154816005015560068201548160060155905050600160008082825461073c91906111d3565b925050819055506001600260008e8152602001908152602001600020600082825461076791906111d3565b925050819055506001600460008f73ffffffffffffffffffffffffffffffffffffffff1673ffffffffffffffffffffffffffffffffffffffff16815260200190815260200160002060008282546107be91906111d3565b925050819055506001600060016000546107d89190611229565b8152602001908152602001600020600001546001600060016000546107fd9190611229565b815260200190815260200160002060010160009054906101000a900473ffffffffffffffffffffffffffffffffffffffff166001600060016000546108429190611229565b815260200190815260200160002060020160009054906101000a900473ffffffffffffffffffffffffffffffffffffffff166001600060016000546108879190611229565b8152602001908152602001600020600301546001600060016000546108ac9190611229565b8152602001908152602001600020600401546001600060016000546108d19190611229565b8152602001908152602001600020600501546001600060016000546108f69190611229565b81526020019081526020016000206006015498509850985098509850985098505050949950949992975094509450565b60606000600460008473ffffffffffffffffffffffffffffffffffffffff1673ffffffffffffffffffffffffffffffffffffffff1681526020019081526020016000205467ffffffffffffffff811115610983576109826110fe565b5b6040519080825280602002602001820160405280156109bc57816020015b6109a9610c88565b8152602001906001900390816109a15790505b50905060005b600460008573ffffffffffffffffffffffffffffffffffffffff1673ffffffffffffffffffffffffffffffffffffffff16815260200190815260200160002054811015610b7357600560008573ffffffffffffffffffffffffffffffffffffffff1673ffffffffffffffffffffffffffffffffffffffff16815260200190815260200160002060008281526020019081526020016000206040518060e0016040529081600082015481526020016001820160009054906101000a900473ffffffffffffffffffffffffffffffffffffffff1673ffffffffffffffffffffffffffffffffffffffff1673ffffffffffffffffffffffffffffffffffffffff1681526020016002820160009054906101000a900473ffffffffffffffffffffffffffffffffffffffff1673ffffffffffffffffffffffffffffffffffffffff1673ffffffffffffffffffffffffffffffffffffffff168152602001600382015481526020016004820154815260200160058201548152602001600682015481525050828281518110610b5557610b5461112d565b5b60200260200101819052508080610b6b9061118b565b9150506109c2565b5080915050919050565b610b85610c88565b600160008381526020019081526020016000206040518060e0016040529081600082015481526020016001820160009054906101000a900473ffffffffffffffffffffffffffffffffffffffff1673ffffffffffffffffffffffffffffffffffffffff1673ffffffffffffffffffffffffffffffffffffffff1681526020016002820160009054906101000a900473ffffffffffffffffffffffffffffffffffffffff1673ffffffffffffffffffffffffffffffffffffffff1673ffffffffffffffffffffffffffffffffffffffff1681526020016003820154815260200160048201548152602001600582015481526020016006820154815250509050919050565b6040518060e0016040528060008152602001600073ffffffffffffffffffffffffffffffffffffffff168152602001600073ffffffffffffffffffffffffffffffffffffffff168152602001600081526020016000815260200160008152602001600081525090565b600080fd5b6000819050919050565b610d0981610cf6565b8114610d1457600080fd5b50565b600081359050610d2681610d00565b92915050565b600060208284031215610d4257610d41610cf1565b5b6000610d5084828501610d17565b91505092915050565b600081519050919050565b600082825260208201905092915050565b6000819050602082019050919050565b610d8e81610cf6565b82525050565b600073ffffffffffffffffffffffffffffffffffffffff82169050919050565b6000610dbf82610d94565b9050919050565b610dcf81610db4565b82525050565b60e082016000820151610deb6000850182610d85565b506020820151610dfe6020850182610dc6565b506040820151610e116040850182610dc6565b506060820151610e246060850182610d85565b506080820151610e376080850182610d85565b5060a0820151610e4a60a0850182610d85565b5060c0820151610e5d60c0850182610d85565b50505050565b6000610e6f8383610dd5565b60e08301905092915050565b6000602082019050919050565b6000610e9382610d59565b610e9d8185610d64565b9350610ea883610d75565b8060005b83811015610ed9578151610ec08882610e63565b9750610ecb83610e7b565b925050600181019050610eac565b5085935050505092915050565b60006020820190508181036000830152610f008184610e88565b905092915050565b610f1181610db4565b8114610f1c57600080fd5b50565b600081359050610f2e81610f08565b92915050565b60008060008060808587031215610f4e57610f4d610cf1565b5b6000610f5c87828801610f1f565b9450506020610f6d87828801610d17565b9350506040610f7e87828801610d17565b9250506060610f8f87828801610d17565b91505092959194509250565b610fa481610cf6565b82525050565b610fb381610db4565b82525050565b600060e082019050610fce600083018a610f9b565b610fdb6020830189610faa565b610fe86040830188610faa565b610ff56060830187610f9b565b6110026080830186610f9b565b61100f60a0830185610f9b565b61101c60c0830184610f9b565b98975050505050505050565b60006020828403121561103e5761103d610cf1565b5b600061104c84828501610f1f565b91505092915050565b60e08201600082015161106b6000850182610d85565b50602082015161107e6020850182610dc6565b5060408201516110916040850182610dc6565b5060608201516110a46060850182610d85565b5060808201516110b76080850182610d85565b5060a08201516110ca60a0850182610d85565b5060c08201516110dd60c0850182610d85565b50505050565b600060e0820190506110f86000830184611055565b92915050565b7f4e487b7100000000000000000000000000000000000000000000000000000000600052604160045260246000fd5b7f4e487b7100000000000000000000000000000000000000000000000000000000600052603260045260246000fd5b7f4e487b7100000000000000000000000000000000000000000000000000000000600052601160045260246000fd5b600061119682610cf6565b91507fffffffffffffffffffffffffffffffffffffffffffffffffffffffffffffffff82036111c8576111c761115c565b5b600182019050919050565b60006111de82610cf6565b91506111e983610cf6565b9250827fffffffffffffffffffffffffffffffffffffffffffffffffffffffffffffffff0382111561121e5761121d61115c565b5b828201905092915050565b600061123482610cf6565b915061123f83610cf6565b9250828210156112525761125161115c565b5b82820390509291505056fea2646970667358221220afae0089776e9b12ecfb82a28bb7c0ba696870ab871adbeaf7f57035a28cb67964736f6c634300080f0033",
  "immutableReferences": {},
  "source": "// SPDX-License-Identifier: GPL-3.0\n\npragma solidity >=0.7.0 <0.9.0;\n\n\n/**\n * @title TradeTransaction\n * @dev Store & retrieve Trade transaction Information\n */\ncontract TradeTransaction {\n\n    struct Transaction {\n        uint _id;\n        address _buyer_id;\n        address _agriculturist_id;\n        uint _lot_number;\n        uint _quantity_purchased;\n        uint _value;\n        uint _timestamp;\n    }\n\n    uint256 transactionCount = 0;\n    mapping(uint => Transaction) transactions;\n\n    mapping(uint => uint) transactionByLotNumberCount;\n    mapping(uint => mapping(uint => Transaction)) transactionByLotNumberMapping;\n\n    mapping(address => uint) transactionByAgriculturistCount;\n    mapping(address => mapping(uint => Transaction)) transactionByAgriculturistMapping;\n\n\n\n    function create(address _agriculturist_id, uint _lot_number, uint _quantity_purchased, uint _value) \n        public \n        returns(uint, address, address, uint, uint, uint, uint) \n    {\n\n        uint currentTime = block.timestamp;\n\n        transactions[transactionCount] = \n            Transaction(transactionCount, msg.sender, _agriculturist_id, _lot_number, _quantity_purchased, _value, currentTime);\n\n        transactionByLotNumberMapping[_lot_number][transactionByLotNumberCount[_lot_number]] = transactions[transactionCount];\n\n        uint tempCount = transactionByAgriculturistCount[_agriculturist_id];\n        transactionByAgriculturistMapping[_agriculturist_id][tempCount] = transactions[transactionCount] ;\n\n        transactionCount += 1;\n        transactionByLotNumberCount[_lot_number] += 1;\n        transactionByAgriculturistCount[_agriculturist_id] += 1;\n\n\n\n        return (\n            transactions[transactionCount-1]._id,\n            transactions[transactionCount-1]._buyer_id,\n            transactions[transactionCount-1]._agriculturist_id,\n            transactions[transactionCount-1]._lot_number,\n            transactions[transactionCount-1]._quantity_purchased,\n            transactions[transactionCount-1]._value,\n            transactions[transactionCount-1]._timestamp\n        );\n    }\n\n    function getById(uint _id) public view returns(Transaction memory) {\n        return transactions[_id];\n    }\n\n    function getByLotNumber(uint _lot_number) public view returns(Transaction[] memory){\n        Transaction[] memory ret = new Transaction[](transactionByLotNumberCount[_lot_number]);\n\n        for(uint i=0; i<transactionByLotNumberCount[_lot_number]; i++){\n            ret[i] = transactionByLotNumberMapping[_lot_number][i];\n        }\n\n        return ret;\n    } \n\n    function getByAgriculturistId(address _agriculturist_id) public view returns(Transaction[] memory){\n        Transaction[] memory ret = new Transaction[](transactionByAgriculturistCount[_agriculturist_id]);\n\n        for(uint i=0; i<transactionByAgriculturistCount[_agriculturist_id]; i++){\n            ret[i] = transactionByAgriculturistMapping[_agriculturist_id][i];\n        }\n\n        return ret;\n    } \n}",
  "sourcePath": "/projects/aquaponic-frontend/contracts/TradeTransaction.sol",
  "compiler": {
    "name": "solc",
    "version": "0.8.15+commit.e14f2714.Emscripten.clang"
  },
  "schemaVersion": "3.4.8",
  "updatedAt": "2022-07-24T09:16:56.406Z",
  "devdoc": {
    "details": "Store & retrieve Trade transaction Information",
    "kind": "dev",
    "methods": {},
    "title": "TradeTransaction",
    "version": 1
  },
  "userdoc": {
    "kind": "user",
    "methods": {},
    "version": 1
  }
}