{
  "contractName": "WaterPHMeasurement",
  "abi": [
    {
      "inputs": [],
      "stateMutability": "nonpayable",
      "type": "constructor"
    },
    {
      "inputs": [
        {
          "internalType": "uint256",
          "name": "_farm_id",
          "type": "uint256"
        }
      ],
      "name": "getAllMeasurementForAFarm",
      "outputs": [
        {
          "components": [
            {
              "internalType": "uint256",
              "name": "timestamp",
              "type": "uint256"
            },
            {
              "internalType": "uint256",
              "name": "value",
              "type": "uint256"
            }
          ],
          "internalType": "struct MeasurementRecord.Measurement[]",
          "name": "",
          "type": "tuple[]"
        }
      ],
      "stateMutability": "view",
      "type": "function"
    },
    {
      "inputs": [
        {
          "internalType": "uint256",
          "name": "_farm_id",
          "type": "uint256"
        },
        {
          "internalType": "uint256",
          "name": "_from_timestamp",
          "type": "uint256"
        },
        {
          "internalType": "uint256",
          "name": "_to_timestamp",
          "type": "uint256"
        }
      ],
      "name": "getAllMeasurementForAFarmInAPeriod",
      "outputs": [
        {
          "components": [
            {
              "internalType": "uint256",
              "name": "timestamp",
              "type": "uint256"
            },
            {
              "internalType": "uint256",
              "name": "value",
              "type": "uint256"
            }
          ],
          "internalType": "struct MeasurementRecord.Measurement[]",
          "name": "",
          "type": "tuple[]"
        }
      ],
      "stateMutability": "view",
      "type": "function"
    },
    {
      "inputs": [
        {
          "internalType": "uint256",
          "name": "_farm_id",
          "type": "uint256"
        },
        {
          "internalType": "uint256",
          "name": "_since_timestamp",
          "type": "uint256"
        }
      ],
      "name": "getAllMeasurementForAFarmSince",
      "outputs": [
        {
          "components": [
            {
              "internalType": "uint256",
              "name": "timestamp",
              "type": "uint256"
            },
            {
              "internalType": "uint256",
              "name": "value",
              "type": "uint256"
            }
          ],
          "internalType": "struct MeasurementRecord.Measurement[]",
          "name": "",
          "type": "tuple[]"
        }
      ],
      "stateMutability": "view",
      "type": "function"
    },
    {
      "inputs": [
        {
          "internalType": "uint256",
          "name": "_farm_id",
          "type": "uint256"
        },
        {
          "internalType": "uint256",
          "name": "_value",
          "type": "uint256"
        }
      ],
      "name": "record",
      "outputs": [
        {
          "components": [
            {
              "internalType": "uint256",
              "name": "timestamp",
              "type": "uint256"
            },
            {
              "internalType": "uint256",
              "name": "value",
              "type": "uint256"
            }
          ],
          "internalType": "struct MeasurementRecord.Measurement",
          "name": "",
          "type": "tuple"
        }
      ],
      "stateMutability": "nonpayable",
      "type": "function"
    }
  ],
  "bytecode": "0x6080604052600080553480156200001557600080fd5b506200002f6001604a6362a4f4406200108460201b60201c565b620000486001604a6362a548a06200108460201b60201c565b620000616001604a6362a59d006200108460201b60201c565b6200007a6001604a6362a5f1606200108460201b60201c565b62000093600160496362a645c06200108460201b60201c565b620000ac600160486362a69a206200108460201b60201c565b620000c5600160496362a6ee806200108460201b60201c565b620000de600160486362a742e06200108460201b60201c565b620000f7600160486362a797406200108460201b60201c565b62000110600160476362a7eba06200108460201b60201c565b62000129600160466362a840006200108460201b60201c565b62000142600160466362a894606200108460201b60201c565b6200015b600160466362a8e8c06200108460201b60201c565b62000174600160456362a93d206200108460201b60201c565b6200018d600160446362a991806200108460201b60201c565b620001a6600160446362a9e5e06200108460201b60201c565b620001bf600160446362aa3a406200108460201b60201c565b620001d8600160436362aa8ea06200108460201b60201c565b620001f1600160446362aae3006200108460201b60201c565b6200020a600160436362ab37606200108460201b60201c565b62000223600160436362ab8bc06200108460201b60201c565b6200023c600160486362abe0206200108460201b60201c565b62000255600160486362ac34806200108460201b60201c565b6200026e600160486362ac88e06200108460201b60201c565b62000287600160476362acdd406200108460201b60201c565b620002a0600160466362ad31a06200108460201b60201c565b620002b9600160476362ad86006200108460201b60201c565b620002d2600160466362adda606200108460201b60201c565b620002eb600160456362ae2ec06200108460201b60201c565b62000304600160456362ae83206200108460201b60201c565b6200031d600160456362aed7806200108460201b60201c565b62000336600160446362af2be06200108460201b60201c565b6200034f600160446362af80406200108460201b60201c565b62000368600160446362afd4a06200108460201b60201c565b62000381600160446362b029006200108460201b60201c565b6200039a600160446362b07d606200108460201b60201c565b620003b3600160436362b0d1c06200108460201b60201c565b620003cc600160436362b126206200108460201b60201c565b620003e5600160426362b17a806200108460201b60201c565b620003fe600160426362b1cee06200108460201b60201c565b62000417600160426362b223406200108460201b60201c565b62000430600160416362b277a06200108460201b60201c565b62000449600160486362b2cc006200108460201b60201c565b62000462600160476362b320606200108460201b60201c565b6200047b600160476362b374c06200108460201b60201c565b62000494600160476362b3c9206200108460201b60201c565b620004ad600160476362b41d806200108460201b60201c565b620004c6600160476362b471e06200108460201b60201c565b620004df600160466362b4c6406200108460201b60201c565b620004f8600160456362b51aa06200108460201b60201c565b62000511600160456362b56f006200108460201b60201c565b6200052a600160456362b5c3606200108460201b60201c565b62000543600160446362b617c06200108460201b60201c565b6200055c600160446362b66c206200108460201b60201c565b62000575600160446362b6c0806200108460201b60201c565b6200058e600160436362b714e06200108460201b60201c565b620005a7600160426362b769406200108460201b60201c565b620005c0600160436362b7bda06200108460201b60201c565b620005d9600160426362b812006200108460201b60201c565b620005f2600160426362b866606200108460201b60201c565b6200060b600160416362b8bac06200108460201b60201c565b62000624600160496362b90f206200108460201b60201c565b6200063d600160486362b963806200108460201b60201c565b62000656600160486362b9b7e06200108460201b60201c565b6200066f600160476362ba0c406200108460201b60201c565b62000688600160476362ba60a06200108460201b60201c565b620006a1600160476362bab5006200108460201b60201c565b620006ba600160466362bb09606200108460201b60201c565b620006d3600160456362bb5dc06200108460201b60201c565b620006ec600160466362bbb2206200108460201b60201c565b62000705600160466362bc06806200108460201b60201c565b6200071e600160456362bc5ae06200108460201b60201c565b62000737600160456362bcaf406200108460201b60201c565b62000750600160446362bd03a06200108460201b60201c565b62000769600160446362bd58006200108460201b60201c565b62000782600160446362bdac606200108460201b60201c565b6200079b600160436362be00c06200108460201b60201c565b620007b4600160436362be55206200108460201b60201c565b620007cd600160426362bea9806200108460201b60201c565b620007e6600160436362befde06200108460201b60201c565b620007ff600160416362bf52406200108460201b60201c565b620008186001604a6362bfa6a06200108460201b60201c565b620008316001604a6362bffb006200108460201b60201c565b6200084a6001604a6362c04f606200108460201b60201c565b62000863600160496362c0a3c06200108460201b60201c565b6200087c600160496362c0f8206200108460201b60201c565b62000895600160496362c14c806200108460201b60201c565b620008ae600160486362c1a0e06200108460201b60201c565b620008c7600160476362c1f5406200108460201b60201c565b620008e0600160476362c249a06200108460201b60201c565b620008f9600160476362c29e006200108460201b60201c565b62000912600160466362c2f2606200108460201b60201c565b6200092b600160466362c346c06200108460201b60201c565b62000944600160466362c39b206200108460201b60201c565b6200095d600160456362c3ef806200108460201b60201c565b62000976600160466362c443e06200108460201b60201c565b6200098f600160456362c498406200108460201b60201c565b620009a8600160456362c4eca06200108460201b60201c565b620009c1600160456362c541006200108460201b60201c565b620009da600160456362c595606200108460201b60201c565b620009f3600160446362c5e9c06200108460201b60201c565b62000a0c600160436362c63e206200108460201b60201c565b62000a25600160446362c692806200108460201b60201c565b62000a3e600160436362c6e6e06200108460201b60201c565b62000a57600160426362c73b406200108460201b60201c565b62000a70600160426362c78fa06200108460201b60201c565b62000a89600160426362c7e4006200108460201b60201c565b62000aa2600160426362c838606200108460201b60201c565b62000abb600160416362c88cc06200108460201b60201c565b62000ad4600160476362c8e1206200108460201b60201c565b62000aed600160486362c935806200108460201b60201c565b62000b06600160476362c989e06200108460201b60201c565b62000b1f600160466362c9de406200108460201b60201c565b62000b38600160466362ca32a06200108460201b60201c565b62000b51600160466362ca87006200108460201b60201c565b62000b6a600160466362cadb606200108460201b60201c565b62000b83600160456362cb2fc06200108460201b60201c565b62000b9c600160456362cb84206200108460201b60201c565b62000bb5600160446362cbd8806200108460201b60201c565b62000bce600160456362cc2ce06200108460201b60201c565b62000be7600160446362cc81406200108460201b60201c565b62000c00600160446362ccd5a06200108460201b60201c565b62000c19600160446362cd2a006200108460201b60201c565b62000c32600160446362cd7e606200108460201b60201c565b62000c4b600160446362cdd2c06200108460201b60201c565b62000c64600160436362ce27206200108460201b60201c565b62000c7d600160436362ce7b806200108460201b60201c565b62000c96600160436362cecfe06200108460201b60201c565b62000caf600160426362cf24406200108460201b60201c565b62000cc8600160436362cf78a06200108460201b60201c565b62000ce1600160426362cfcd006200108460201b60201c565b62000cfa600160426362d021606200108460201b60201c565b62000d13600160416362d075c06200108460201b60201c565b62000d2c600160416362d0ca206200108460201b60201c565b62000d45600160406362d11e806200108460201b60201c565b62000d5e600160416362d172e06200108460201b60201c565b62000d77600160406362d1c7406200108460201b60201c565b62000d90600160486362d21ba06200108460201b60201c565b62000da9600160476362d270006200108460201b60201c565b62000dc2600160476362d2c4606200108460201b60201c565b62000ddb600160476362d318c06200108460201b60201c565b62000df4600160466362d36d206200108460201b60201c565b62000e0d600160466362d3c1806200108460201b60201c565b62000e26600160466362d415e06200108460201b60201c565b62000e3f600160456362d46a406200108460201b60201c565b62000e58600160466362d4bea06200108460201b60201c565b62000e71600160456362d513006200108460201b60201c565b62000e8a600160446362d567606200108460201b60201c565b62000ea3600160446362d5bbc06200108460201b60201c565b62000ebc600160426362d610206200108460201b60201c565b62000ed5600160426362d664806200108460201b60201c565b62000eee600160416362d6b8e06200108460201b60201c565b62000f07600160406362d70d406200108460201b60201c565b62000f20600160486362d761a06200108460201b60201c565b62000f39600160476362d7b6006200108460201b60201c565b62000f52600160476362d80a606200108460201b60201c565b62000f6b600160476362d85ec06200108460201b60201c565b62000f84600160466362d8b3206200108460201b60201c565b62000f9d600160466362d907806200108460201b60201c565b62000fb6600160466362d95be06200108460201b60201c565b62000fcf600160466362d9b0406200108460201b60201c565b62000fe8600160456362da04a06200108460201b60201c565b62001001600160456362da59006200108460201b60201c565b6200101a600160446362daad606200108460201b60201c565b62001033600160436362db01c06200108460201b60201c565b6200104c6001604b6362db56206200108460201b60201c565b620010656001604b6362dbaa806200108460201b60201c565b6200107e6001604a6362dbfee06200108460201b60201c565b620011e6565b6000600160008581526020019081526020016000205403620010bc576001600080828254620010b4919062001189565b925050819055505b6040518060400160405280828152602001838152506002600085815260200190815260200160002060006001600087815260200190815260200160002054815260200190815260200160002060008201518160000155602082015181600101559050506001806000858152602001908152602001600020600082825462001144919062001189565b92505081905550505050565b6000819050919050565b7f4e487b7100000000000000000000000000000000000000000000000000000000600052601160045260246000fd5b6000620011968262001150565b9150620011a38362001150565b9250827fffffffffffffffffffffffffffffffffffffffffffffffffffffffffffffffff03821115620011db57620011da6200115a565b5b828201905092915050565b610b7580620011f66000396000f3fe608060405234801561001057600080fd5b506004361061004c5760003560e01c806317ffa15214610051578063245c19f114610081578063377144a6146100b1578063f238f3ec146100e1575b600080fd5b61006b600480360381019061006691906107c7565b610111565b60405161007891906108e1565b60405180910390f35b61009b60048036038101906100969190610903565b61021a565b6040516100a891906108e1565b60405180910390f35b6100cb60048036038101906100c69190610956565b610444565b6040516100d891906109c5565b60405180910390f35b6100fb60048036038101906100f69190610956565b610577565b60405161010891906108e1565b60405180910390f35b60606000600160008481526020019081526020016000205467ffffffffffffffff811115610142576101416109e0565b5b60405190808252806020026020018201604052801561017b57816020015b610168610772565b8152602001906001900390816101605790505b50905060005b600160008581526020019081526020016000205481101561021057600260008581526020019081526020016000206000828152602001908152602001600020604051806040016040529081600082015481526020016001820154815250508282815181106101f2576101f1610a0f565b5b6020026020010181905250808061020890610a6d565b915050610181565b5080915050919050565b60606000600160008681526020019081526020016000205467ffffffffffffffff81111561024b5761024a6109e0565b5b60405190808252806020026020018201604052801561028457816020015b610271610772565b8152602001906001900390816102695790505b5090506000805b60016000888152602001908152602001600020548110156103865785600260008981526020019081526020016000206000838152602001908152602001600020600001541061037357846002600089815260200190815260200160002060008381526020019081526020016000206000015411610386576002600088815260200190815260200160002060008281526020019081526020016000206040518060400160405290816000820154815260200160018201548152505083838151811061035857610357610a0f565b5b60200260200101819052506001826103709190610ab5565b91505b808061037e90610a6d565b91505061028b565b5060008167ffffffffffffffff8111156103a3576103a26109e0565b5b6040519080825280602002602001820160405280156103dc57816020015b6103c9610772565b8152602001906001900390816103c15790505b50905060005b82811015610436578381815181106103fd576103fc610a0f565b5b602002602001015182828151811061041857610417610a0f565b5b6020026020010181905250808061042e90610a6d565b9150506103e2565b508093505050509392505050565b61044c610772565b60006001600085815260200190815260200160002054036104815760016000808282546104799190610ab5565b925050819055505b604051806040016040528042815260200183815250600260008581526020019081526020016000206000600160008781526020019081526020016000205481526020019081526020016000206000820151816000015560208201518160010155905050600180600085815260200190815260200160002060008282546105079190610ab5565b925050819055506002600084815260200190815260200160002060006001806000878152602001908152602001600020546105429190610b0b565b815260200190815260200160002060405180604001604052908160008201548152602001600182015481525050905092915050565b60606000600160008581526020019081526020016000205467ffffffffffffffff8111156105a8576105a76109e0565b5b6040519080825280602002602001820160405280156105e157816020015b6105ce610772565b8152602001906001900390816105c65790505b5090506000805b60016000878152602001908152602001600020548110156106b5578460026000888152602001908152602001600020600083815260200190815260200160002060000154106106a2576002600087815260200190815260200160002060008281526020019081526020016000206040518060400160405290816000820154815260200160018201548152505083838151811061068757610686610a0f565b5b602002602001018190525060018261069f9190610ab5565b91505b80806106ad90610a6d565b9150506105e8565b5060008167ffffffffffffffff8111156106d2576106d16109e0565b5b60405190808252806020026020018201604052801561070b57816020015b6106f8610772565b8152602001906001900390816106f05790505b50905060005b828110156107655783818151811061072c5761072b610a0f565b5b602002602001015182828151811061074757610746610a0f565b5b6020026020010181905250808061075d90610a6d565b915050610711565b5080935050505092915050565b604051806040016040528060008152602001600081525090565b600080fd5b6000819050919050565b6107a481610791565b81146107af57600080fd5b50565b6000813590506107c18161079b565b92915050565b6000602082840312156107dd576107dc61078c565b5b60006107eb848285016107b2565b91505092915050565b600081519050919050565b600082825260208201905092915050565b6000819050602082019050919050565b61082981610791565b82525050565b6040820160008201516108456000850182610820565b5060208201516108586020850182610820565b50505050565b600061086a838361082f565b60408301905092915050565b6000602082019050919050565b600061088e826107f4565b61089881856107ff565b93506108a383610810565b8060005b838110156108d45781516108bb888261085e565b97506108c683610876565b9250506001810190506108a7565b5085935050505092915050565b600060208201905081810360008301526108fb8184610883565b905092915050565b60008060006060848603121561091c5761091b61078c565b5b600061092a868287016107b2565b935050602061093b868287016107b2565b925050604061094c868287016107b2565b9150509250925092565b6000806040838503121561096d5761096c61078c565b5b600061097b858286016107b2565b925050602061098c858286016107b2565b9150509250929050565b6040820160008201516109ac6000850182610820565b5060208201516109bf6020850182610820565b50505050565b60006040820190506109da6000830184610996565b92915050565b7f4e487b7100000000000000000000000000000000000000000000000000000000600052604160045260246000fd5b7f4e487b7100000000000000000000000000000000000000000000000000000000600052603260045260246000fd5b7f4e487b7100000000000000000000000000000000000000000000000000000000600052601160045260246000fd5b6000610a7882610791565b91507fffffffffffffffffffffffffffffffffffffffffffffffffffffffffffffffff8203610aaa57610aa9610a3e565b5b600182019050919050565b6000610ac082610791565b9150610acb83610791565b9250827fffffffffffffffffffffffffffffffffffffffffffffffffffffffffffffffff03821115610b0057610aff610a3e565b5b828201905092915050565b6000610b1682610791565b9150610b2183610791565b925082821015610b3457610b33610a3e565b5b82820390509291505056fea2646970667358221220050b0c34a738d4dd1e2047143f2ec44e400c10ded09c818589530a3f5d6a3f3164736f6c634300080f0033",
  "immutableReferences": {},
  "source": "// SPDX-License-Identifier: GPL-3.0\n\npragma solidity >=0.7.0 <0.9.0;\n\nimport \"./MeasurementRecord.sol\";\n\n/**\n * @title WaterPHMeasurement\n * @dev Store & retrieve Water PH Measurement\n */\ncontract WaterPHMeasurement is MeasurementRecord {\n\n    // Should be kept between 6.4 - 7.4\n\n    constructor() {\n        // W ----------------------------\n        // 12.06 3, 9, 15, 21\n        recordInit(1, 74, 1654977600);\n        recordInit(1, 74, 1654999200);\n        recordInit(1, 74, 1655020800);\n        recordInit(1, 74, 1655042400);\n        // 13.06 3, 9, 15, 21\n        recordInit(1, 73, 1655064000);\n        recordInit(1, 72, 1655085600);\n        recordInit(1, 73, 1655107200);\n        recordInit(1, 72, 1655128800);\n        // 14.06 3, 9, 15, 21\n        recordInit(1, 72, 1655150400);\n        recordInit(1, 71, 1655172000);\n        recordInit(1, 70, 1655193600);\n        recordInit(1, 70, 1655215200);\n        // 15.06 3, 9, 15, 21\n        recordInit(1, 70, 1655236800);\n        recordInit(1, 69, 1655258400);\n        recordInit(1, 68, 1655280000);\n        recordInit(1, 68, 1655301600);\n        // 16.06 3, 9, 15, 21\n        recordInit(1, 68, 1655323200);\n        recordInit(1, 67, 1655344800);\n        recordInit(1, 68, 1655366400);\n        recordInit(1, 67, 1655388000);\n        // 17.06 3, 9, 15, 21\n        recordInit(1, 67, 1655409600);\n        recordInit(1, 72, 1655431200);\n        recordInit(1, 72, 1655452800);\n        recordInit(1, 72, 1655474400);\n        // 18.06 3, 9, 15, 21\n        recordInit(1, 71, 1655496000);\n        recordInit(1, 70, 1655517600);\n        recordInit(1, 71, 1655539200);\n        recordInit(1, 70, 1655560800);\n\n        // W ----------------------------\n        // 19.06 3, 9, 15, 21\n        recordInit(1, 69, 1655582400);\n        recordInit(1, 69, 1655604000);\n        recordInit(1, 69, 1655625600);\n        recordInit(1, 68, 1655647200);\n        // 20.06 3, 9, 15, 21\n        recordInit(1, 68, 1655668800);\n        recordInit(1, 68, 1655690400);\n        recordInit(1, 68, 1655712000);\n        recordInit(1, 68, 1655733600);\n        // 21.06 3, 9, 15, 21\n        recordInit(1, 67, 1655755200);\n        recordInit(1, 67, 1655776800);\n        recordInit(1, 66, 1655798400);\n        recordInit(1, 66, 1655820000);\n        // 22.06 3, 9, 15, 21\n        recordInit(1, 66, 1655841600);\n        recordInit(1, 65, 1655863200);\n        recordInit(1, 72, 1655884800);\n        recordInit(1, 71, 1655906400);\n        // 23.06 3, 9, 15, 21\n        recordInit(1, 71, 1655928000);\n        recordInit(1, 71, 1655949600);\n        recordInit(1, 71, 1655971200);\n        recordInit(1, 71, 1655992800);\n        // 24.06 3, 9, 15, 21\n        recordInit(1, 70, 1656014400);\n        recordInit(1, 69, 1656036000);\n        recordInit(1, 69, 1656057600);\n        recordInit(1, 69, 1656079200);\n        // 25.06 3, 9, 15, 21\n        recordInit(1, 68, 1656100800);\n        recordInit(1, 68, 1656122400);\n        recordInit(1, 68, 1656144000);\n        recordInit(1, 67, 1656165600);\n\n        // W ----------------------------\n        // 26.06 3, 9, 15, 21\n        recordInit(1, 66, 1656187200);\n        recordInit(1, 67, 1656208800);\n        recordInit(1, 66, 1656230400);\n        recordInit(1, 66, 1656252000);\n        // 27.06 3, 9, 15, 21\n        recordInit(1, 65, 1656273600);\n        recordInit(1, 73, 1656295200);\n        recordInit(1, 72, 1656316800);\n        recordInit(1, 72, 1656338400);\n        // 28.06 3, 9, 15, 21\n        recordInit(1, 71, 1656360000);\n        recordInit(1, 71, 1656381600);\n        recordInit(1, 71, 1656403200);\n        recordInit(1, 70, 1656424800);\n        // 29.06 3, 9, 15, 21\n        recordInit(1, 69, 1656446400);\n        recordInit(1, 70, 1656468000);\n        recordInit(1, 70, 1656489600);\n        recordInit(1, 69, 1656511200);\n        // 30.06 3, 9, 15, 21\n        recordInit(1, 69, 1656532800);\n        recordInit(1, 68, 1656554400);\n        recordInit(1, 68, 1656576000);\n        recordInit(1, 68, 1656597600);\n        // 01.07 3, 9, 15, 21\n        recordInit(1, 67, 1656619200);\n        recordInit(1, 67, 1656640800);\n        recordInit(1, 66, 1656662400);\n        recordInit(1, 67, 1656684000);\n        // 02.07 3, 9, 15, 21\n        recordInit(1, 65, 1656705600);\n        recordInit(1, 74, 1656727200);\n        recordInit(1, 74, 1656748800);\n        recordInit(1, 74, 1656770400);\n\n        // W ----------------------------\n        // 03.07 3, 9, 15, 21\n        recordInit(1, 73, 1656792000);\n        recordInit(1, 73, 1656813600);\n        recordInit(1, 73, 1656835200);\n        recordInit(1, 72, 1656856800);\n        // 04.07 3, 9, 15, 21\n        recordInit(1, 71, 1656878400);\n        recordInit(1, 71, 1656900000);\n        recordInit(1, 71, 1656921600);\n        recordInit(1, 70, 1656943200);\n        // 05.07 3, 9, 15, 21\n        recordInit(1, 70, 1656964800);\n        recordInit(1, 70, 1656986400);\n        recordInit(1, 69, 1657008000);\n        recordInit(1, 70, 1657029600);\n        // 06.07 3, 9, 15, 21\n        recordInit(1, 69, 1657051200);\n        recordInit(1, 69, 1657072800);\n        recordInit(1, 69, 1657094400);\n        recordInit(1, 69, 1657116000);\n        // 07.07 3, 9, 15, 21\n        recordInit(1, 68, 1657137600);\n        recordInit(1, 67, 1657159200);\n        recordInit(1, 68, 1657180800);\n        recordInit(1, 67, 1657202400);\n        // 08.07 3, 9, 15, 21\n        recordInit(1, 66, 1657224000);\n        recordInit(1, 66, 1657245600);\n        recordInit(1, 66, 1657267200);\n        recordInit(1, 66, 1657288800);\n        // 09.07 3, 9, 15, 21\n        recordInit(1, 65, 1657310400);\n        recordInit(1, 71, 1657332000);\n        recordInit(1, 72, 1657353600);\n        recordInit(1, 71, 1657375200);\n\n\n        // W ----------------------------\n        // 10.07 3, 9, 15, 21\n        recordInit(1, 70, 1657396800);\n        recordInit(1, 70, 1657418400);\n        recordInit(1, 70, 1657440000);\n        recordInit(1, 70, 1657461600);\n        // 11.07 3, 9, 15, 21\n        recordInit(1, 69, 1657483200);\n        recordInit(1, 69, 1657504800);\n        recordInit(1, 68, 1657526400);\n        recordInit(1, 69, 1657548000);\n        // 12.07 3, 9, 15, 21\n        recordInit(1, 68, 1657569600);\n        recordInit(1, 68, 1657591200);\n        recordInit(1, 68, 1657612800);\n        recordInit(1, 68, 1657634400);\n        // 13.07 3, 9, 15, 21\n        recordInit(1, 68, 1657656000);\n        recordInit(1, 67, 1657677600);\n        recordInit(1, 67, 1657699200);\n        recordInit(1, 67, 1657720800);\n        // 14.07 3, 9, 15, 21\n        recordInit(1, 66, 1657742400);\n        recordInit(1, 67, 1657764000);\n        recordInit(1, 66, 1657785600);\n        recordInit(1, 66, 1657807200);\n        // 15.07 3, 9, 15, 21\n        recordInit(1, 65, 1657828800);\n        recordInit(1, 65, 1657850400);\n        recordInit(1, 64, 1657872000);\n        recordInit(1, 65, 1657893600);\n        // 16.07 3, 9, 15, 21\n        recordInit(1, 64, 1657915200);\n        recordInit(1, 72, 1657936800);\n        recordInit(1, 71, 1657958400);\n        recordInit(1, 71, 1657980000);\n\n        // W ----------------------------\n\n        // 17.07 3, 9, 15, 21\n        recordInit(1, 71, 1658001600);\n        recordInit(1, 70, 1658023200);\n        recordInit(1, 70, 1658044800);\n        recordInit(1, 70, 1658066400);\n        // 18.07 3, 9, 15, 21\n        recordInit(1, 69, 1658088000);\n        recordInit(1, 70, 1658109600);\n        recordInit(1, 69, 1658131200);\n        recordInit(1, 68, 1658152800);\n        // 19.07 3, 9, 15, 21\n        recordInit(1, 68, 1658174400);\n        recordInit(1, 66, 1658196000);\n        recordInit(1, 66, 1658217600);\n        recordInit(1, 65, 1658239200);\n        // 20.07 3, 9, 15, 21\n        recordInit(1, 64, 1658260800);\n        recordInit(1, 72, 1658282400);\n        recordInit(1, 71, 1658304000);\n        recordInit(1, 71, 1658325600);\n        // 21.07 3, 9, 15, 21\n        recordInit(1, 71, 1658347200);\n        recordInit(1, 70, 1658368800);\n        recordInit(1, 70, 1658390400);\n        recordInit(1, 70, 1658412000);\n        // 22.07 3, 9, 15, 21\n        recordInit(1, 70, 1658433600);\n        recordInit(1, 69, 1658455200);\n        recordInit(1, 69, 1658476800);\n        recordInit(1, 68, 1658498400);\n        // 23.07 3, 9, 15, 21\n        recordInit(1, 67, 1658520000);\n        recordInit(1, 75, 1658541600);\n        recordInit(1, 75, 1658563200);\n        recordInit(1, 74, 1658584800);\n        \n    }\n\n    function recordInit(uint _farm_id, uint _value, uint _timestamp) internal {\n        if(measurementCount[_farm_id] == 0){\n            farmCount += 1;\n        }\n        measurements[_farm_id][measurementCount[_farm_id]] = Measurement(_timestamp, _value);\n        measurementCount[_farm_id] += 1;\n    }\n}",
  "sourcePath": "/Users/pongsit/Documents/iWorks/aquaponic-frontend/contracts/WaterPHMeasurement.sol",
  "compiler": {
    "name": "solc",
    "version": "0.8.15+commit.e14f2714.Emscripten.clang"
  },
  "schemaVersion": "3.4.8",
  "updatedAt": "2022-07-24T14:06:18.595Z",
  "devdoc": {
    "details": "Store & retrieve Water PH Measurement",
    "kind": "dev",
    "methods": {},
    "title": "WaterPHMeasurement",
    "version": 1
  },
  "userdoc": {
    "kind": "user",
    "methods": {},
    "version": 1
  }
}