{
  "contractName": "WaterExchangeRecord",
  "abi": [
    {
      "inputs": [],
      "stateMutability": "nonpayable",
      "type": "constructor"
    },
    {
      "inputs": [
        {
          "internalType": "uint256",
          "name": "_farm_id",
          "type": "uint256"
        }
      ],
      "name": "exchangeWater",
      "outputs": [
        {
          "components": [
            {
              "internalType": "uint256",
              "name": "id",
              "type": "uint256"
            },
            {
              "internalType": "uint256",
              "name": "farm_id",
              "type": "uint256"
            },
            {
              "internalType": "uint256",
              "name": "timestamp",
              "type": "uint256"
            }
          ],
          "internalType": "struct WaterExchangeRecord.ExchangeRecord",
          "name": "",
          "type": "tuple"
        }
      ],
      "stateMutability": "nonpayable",
      "type": "function"
    },
    {
      "inputs": [
        {
          "internalType": "uint256",
          "name": "_farm_id",
          "type": "uint256"
        },
        {
          "internalType": "uint256",
          "name": "_since_timestamp",
          "type": "uint256"
        }
      ],
      "name": "getByFarmIdSince",
      "outputs": [
        {
          "components": [
            {
              "internalType": "uint256",
              "name": "id",
              "type": "uint256"
            },
            {
              "internalType": "uint256",
              "name": "farm_id",
              "type": "uint256"
            },
            {
              "internalType": "uint256",
              "name": "timestamp",
              "type": "uint256"
            }
          ],
          "internalType": "struct WaterExchangeRecord.ExchangeRecord[]",
          "name": "",
          "type": "tuple[]"
        }
      ],
      "stateMutability": "view",
      "type": "function"
    },
    {
      "inputs": [
        {
          "internalType": "uint256",
          "name": "_farm_id",
          "type": "uint256"
        },
        {
          "internalType": "uint256",
          "name": "_from_timestamp",
          "type": "uint256"
        },
        {
          "internalType": "uint256",
          "name": "_to_timestamp",
          "type": "uint256"
        }
      ],
      "name": "getByFarmIdInAPeriod",
      "outputs": [
        {
          "components": [
            {
              "internalType": "uint256",
              "name": "id",
              "type": "uint256"
            },
            {
              "internalType": "uint256",
              "name": "farm_id",
              "type": "uint256"
            },
            {
              "internalType": "uint256",
              "name": "timestamp",
              "type": "uint256"
            }
          ],
          "internalType": "struct WaterExchangeRecord.ExchangeRecord[]",
          "name": "",
          "type": "tuple[]"
        }
      ],
      "stateMutability": "view",
      "type": "function"
    }
  ],
  "bytecode": "0x6080604052600080553480156200001557600080fd5b506200002d60016362aee590620000bd60201b60201c565b6200004460016362b82010620000bd60201b60201c565b6200005b60016362c15a90620000bd60201b60201c565b6200007260016362c94390620000bd60201b60201c565b6200008960016362d12c90620000bd60201b60201c565b620000a060016362d5bbc0620000bd60201b60201c565b620000b760016362db01c0620000bd60201b60201c565b62000213565b6040518060600160405280600054815260200183815260200182815250600260008481526020019081526020016000206000600160008681526020019081526020016000205481526020019081526020016000206000820151816000015560208201518160010155604082015181600201559050506001600080828254620001469190620001b6565b9250508190555060018060008481526020019081526020016000206000828254620001729190620001b6565b925050819055505050565b6000819050919050565b7f4e487b7100000000000000000000000000000000000000000000000000000000600052601160045260246000fd5b6000620001c3826200017d565b9150620001d0836200017d565b9250827fffffffffffffffffffffffffffffffffffffffffffffffffffffffffffffffff0382111562000208576200020762000187565b5b828201905092915050565b610a7180620002236000396000f3fe608060405234801561001057600080fd5b50600436106100415760003560e01c8063416ccf85146100465780637aa747c81461007657806394f62354146100a6575b600080fd5b610060600480360381019061005b919061069d565b6100d6565b60405161006d91906107f0565b60405180910390f35b610090600480360381019061008b9190610812565b61030a565b60405161009d91906107f0565b60405180910390f35b6100c060048036038101906100bb9190610852565b61050f565b6040516100cd91906108c1565b60405180910390f35b60606000600160008681526020019081526020016000205467ffffffffffffffff811115610107576101066108dc565b5b60405190808252806020026020018201604052801561014057816020015b61012d610641565b8152602001906001900390816101255790505b5090506000805b600160008881526020019081526020016000205481101561024c578560026000898152602001908152602001600020600083815260200190815260200160002060020154106102395784600260008981526020019081526020016000206000838152602001908152602001600020600201541161024c57600260008881526020019081526020016000206000828152602001908152602001600020604051806060016040529081600082015481526020016001820154815260200160028201548152505083838151811061021e5761021d61090b565b5b60200260200101819052506001826102369190610969565b91505b8080610244906109bf565b915050610147565b5060008167ffffffffffffffff811115610269576102686108dc565b5b6040519080825280602002602001820160405280156102a257816020015b61028f610641565b8152602001906001900390816102875790505b50905060005b828110156102fc578381815181106102c3576102c261090b565b5b60200260200101518282815181106102de576102dd61090b565b5b602002602001018190525080806102f4906109bf565b9150506102a8565b508093505050509392505050565b60606000600160008581526020019081526020016000205467ffffffffffffffff81111561033b5761033a6108dc565b5b60405190808252806020026020018201604052801561037457816020015b610361610641565b8152602001906001900390816103595790505b5090506000805b60016000878152602001908152602001600020548110156104525784600260008881526020019081526020016000206000838152602001908152602001600020600201541061043f5760026000878152602001908152602001600020600082815260200190815260200160002060405180606001604052908160008201548152602001600182015481526020016002820154815250508383815181106104245761042361090b565b5b602002602001018190525060018261043c9190610969565b91505b808061044a906109bf565b91505061037b565b5060008167ffffffffffffffff81111561046f5761046e6108dc565b5b6040519080825280602002602001820160405280156104a857816020015b610495610641565b81526020019060019003908161048d5790505b50905060005b82811015610502578381815181106104c9576104c861090b565b5b60200260200101518282815181106104e4576104e361090b565b5b602002602001018190525080806104fa906109bf565b9150506104ae565b5080935050505092915050565b610517610641565b604051806060016040528060005481526020018381526020014281525060026000848152602001908152602001600020600060016000868152602001908152602001600020548152602001908152602001600020600082015181600001556020820151816001015560408201518160020155905050600160008082825461059e9190610969565b92505081905550600180600084815260200190815260200160002060008282546105c89190610969565b925050819055506002600083815260200190815260200160002060006001806000868152602001908152602001600020546106039190610a07565b815260200190815260200160002060405180606001604052908160008201548152602001600182015481526020016002820154815250509050919050565b60405180606001604052806000815260200160008152602001600081525090565b600080fd5b6000819050919050565b61067a81610667565b811461068557600080fd5b50565b60008135905061069781610671565b92915050565b6000806000606084860312156106b6576106b5610662565b5b60006106c486828701610688565b93505060206106d586828701610688565b92505060406106e686828701610688565b9150509250925092565b600081519050919050565b600082825260208201905092915050565b6000819050602082019050919050565b61072581610667565b82525050565b606082016000820151610741600085018261071c565b506020820151610754602085018261071c565b506040820151610767604085018261071c565b50505050565b6000610779838361072b565b60608301905092915050565b6000602082019050919050565b600061079d826106f0565b6107a781856106fb565b93506107b28361070c565b8060005b838110156107e35781516107ca888261076d565b97506107d583610785565b9250506001810190506107b6565b5085935050505092915050565b6000602082019050818103600083015261080a8184610792565b905092915050565b6000806040838503121561082957610828610662565b5b600061083785828601610688565b925050602061084885828601610688565b9150509250929050565b60006020828403121561086857610867610662565b5b600061087684828501610688565b91505092915050565b606082016000820151610895600085018261071c565b5060208201516108a8602085018261071c565b5060408201516108bb604085018261071c565b50505050565b60006060820190506108d6600083018461087f565b92915050565b7f4e487b7100000000000000000000000000000000000000000000000000000000600052604160045260246000fd5b7f4e487b7100000000000000000000000000000000000000000000000000000000600052603260045260246000fd5b7f4e487b7100000000000000000000000000000000000000000000000000000000600052601160045260246000fd5b600061097482610667565b915061097f83610667565b9250827fffffffffffffffffffffffffffffffffffffffffffffffffffffffffffffffff038211156109b4576109b361093a565b5b828201905092915050565b60006109ca82610667565b91507fffffffffffffffffffffffffffffffffffffffffffffffffffffffffffffffff82036109fc576109fb61093a565b5b600182019050919050565b6000610a1282610667565b9150610a1d83610667565b925082821015610a3057610a2f61093a565b5b82820390509291505056fea264697066735822122018d71456843a4a15feed27ef729e644d67cca783a65b2762207e6d097eb7ce4764736f6c634300080f0033",
  "immutableReferences": {},
  "source": "// SPDX-License-Identifier: GPL-3.0\n\npragma solidity >=0.7.0 <0.9.0;\n\n\n/**\n * @title WaterExchangeRecord\n * @dev Store & retrieve fish tank water exchange information\n */\ncontract WaterExchangeRecord {\n\n\n    \n    struct ExchangeRecord {\n        uint id;\n        uint farm_id;\n        uint timestamp;\n    }\n\n    uint256 exchangeRecordCount = 0;\n    mapping(uint => uint) exchangeRecordByFarmCount;\n    mapping(uint => mapping(uint => ExchangeRecord)) exchangeRecordByFarmMapping;\n\n    constructor(){\n        recordInit(1, 1655629200);\n        recordInit(1, 1656234000);\n        recordInit(1, 1656838800);\n        recordInit(1, 1657357200);\n        recordInit(1, 1657875600);\n        recordInit(1, 1658174400);\n        recordInit(1, 1658520000);\n    }\n\n    function recordInit(uint _farm_id, uint _timestamp) internal{\n        exchangeRecordByFarmMapping[_farm_id][ exchangeRecordByFarmCount[_farm_id] ] =\n            ExchangeRecord(exchangeRecordCount, _farm_id, _timestamp);\n\n        exchangeRecordCount += 1;\n        exchangeRecordByFarmCount[_farm_id] += 1;\n    }\n\n\n    function exchangeWater(uint _farm_id) public returns(ExchangeRecord memory){\n        exchangeRecordByFarmMapping[_farm_id][ exchangeRecordByFarmCount[_farm_id] ] =\n            ExchangeRecord(exchangeRecordCount, _farm_id, block.timestamp);\n\n        exchangeRecordCount += 1;\n        exchangeRecordByFarmCount[_farm_id] += 1;\n\n        return exchangeRecordByFarmMapping[_farm_id][ exchangeRecordByFarmCount[_farm_id] - 1];\n    }\n\n\n    function getByFarmIdSince(uint _farm_id, uint _since_timestamp) public view returns(ExchangeRecord[] memory){\n        ExchangeRecord[] memory retBuffer = new ExchangeRecord[]( exchangeRecordByFarmCount[_farm_id] );\n\n        uint retBufferCount = 0;\n        for(uint i=0; i<exchangeRecordByFarmCount[_farm_id]; i++){\n            if(exchangeRecordByFarmMapping[_farm_id][i].timestamp < _since_timestamp){\n                continue;\n            } else {\n                retBuffer[retBufferCount] = exchangeRecordByFarmMapping[_farm_id][i];\n                retBufferCount += 1;\n            }\n        }\n\n        ExchangeRecord[] memory ret = new ExchangeRecord[]( retBufferCount );\n        for(uint i=0; i<retBufferCount; i++){\n            ret[i] = retBuffer[i];\n        }\n\n        return ret;\n    }\n\n    function getByFarmIdInAPeriod(uint _farm_id, uint _from_timestamp, uint _to_timestamp) public view returns(ExchangeRecord[] memory){\n        ExchangeRecord[] memory retBuffer = new ExchangeRecord[]( exchangeRecordByFarmCount[_farm_id] );\n\n        uint retBufferCount = 0;\n        for(uint i=0; i<exchangeRecordByFarmCount[_farm_id]; i++){\n            if(exchangeRecordByFarmMapping[_farm_id][i].timestamp < _from_timestamp){\n                continue;\n            } else if (exchangeRecordByFarmMapping[_farm_id][i].timestamp > _to_timestamp) {\n                break;\n            } else {\n                retBuffer[retBufferCount] = exchangeRecordByFarmMapping[_farm_id][i];\n                retBufferCount += 1;\n            }\n        }\n\n        ExchangeRecord[] memory ret = new ExchangeRecord[]( retBufferCount );\n        for(uint i=0; i<retBufferCount; i++){\n            ret[i] = retBuffer[i];\n        }\n\n        return ret;\n    }\n}",
  "sourcePath": "/Users/pongsit/Documents/iWorks/aquaponic-frontend/contracts/WaterExchangeRecord.sol",
  "compiler": {
    "name": "solc",
    "version": "0.8.15+commit.e14f2714.Emscripten.clang"
  },
  "schemaVersion": "3.4.8",
  "updatedAt": "2022-07-24T14:06:18.587Z",
  "devdoc": {
    "details": "Store & retrieve fish tank water exchange information",
    "kind": "dev",
    "methods": {},
    "title": "WaterExchangeRecord",
    "version": 1
  },
  "userdoc": {
    "kind": "user",
    "methods": {},
    "version": 1
  }
}