{
  "contractName": "WaterTempMeasurement",
  "abi": [
    {
      "inputs": [],
      "stateMutability": "nonpayable",
      "type": "constructor"
    },
    {
      "inputs": [
        {
          "internalType": "uint256",
          "name": "_farm_id",
          "type": "uint256"
        }
      ],
      "name": "getAllMeasurementForAFarm",
      "outputs": [
        {
          "components": [
            {
              "internalType": "uint256",
              "name": "timestamp",
              "type": "uint256"
            },
            {
              "internalType": "uint256",
              "name": "value",
              "type": "uint256"
            }
          ],
          "internalType": "struct MeasurementRecord.Measurement[]",
          "name": "",
          "type": "tuple[]"
        }
      ],
      "stateMutability": "view",
      "type": "function"
    },
    {
      "inputs": [
        {
          "internalType": "uint256",
          "name": "_farm_id",
          "type": "uint256"
        },
        {
          "internalType": "uint256",
          "name": "_from_timestamp",
          "type": "uint256"
        },
        {
          "internalType": "uint256",
          "name": "_to_timestamp",
          "type": "uint256"
        }
      ],
      "name": "getAllMeasurementForAFarmInAPeriod",
      "outputs": [
        {
          "components": [
            {
              "internalType": "uint256",
              "name": "timestamp",
              "type": "uint256"
            },
            {
              "internalType": "uint256",
              "name": "value",
              "type": "uint256"
            }
          ],
          "internalType": "struct MeasurementRecord.Measurement[]",
          "name": "",
          "type": "tuple[]"
        }
      ],
      "stateMutability": "view",
      "type": "function"
    },
    {
      "inputs": [
        {
          "internalType": "uint256",
          "name": "_farm_id",
          "type": "uint256"
        },
        {
          "internalType": "uint256",
          "name": "_since_timestamp",
          "type": "uint256"
        }
      ],
      "name": "getAllMeasurementForAFarmSince",
      "outputs": [
        {
          "components": [
            {
              "internalType": "uint256",
              "name": "timestamp",
              "type": "uint256"
            },
            {
              "internalType": "uint256",
              "name": "value",
              "type": "uint256"
            }
          ],
          "internalType": "struct MeasurementRecord.Measurement[]",
          "name": "",
          "type": "tuple[]"
        }
      ],
      "stateMutability": "view",
      "type": "function"
    },
    {
      "inputs": [
        {
          "internalType": "uint256",
          "name": "_farm_id",
          "type": "uint256"
        },
        {
          "internalType": "uint256",
          "name": "_value",
          "type": "uint256"
        }
      ],
      "name": "record",
      "outputs": [
        {
          "internalType": "uint256",
          "name": "",
          "type": "uint256"
        },
        {
          "internalType": "uint256",
          "name": "",
          "type": "uint256"
        },
        {
          "internalType": "uint256",
          "name": "",
          "type": "uint256"
        }
      ],
      "stateMutability": "nonpayable",
      "type": "function"
    }
  ],
  "bytecode": "0x6080604052600080553480156200001557600080fd5b506200002f600160d16362d318c0620002dc60201b60201c565b62000048600160ed6362d36d20620002dc60201b60201c565b62000061600160ea6362d3c180620002dc60201b60201c565b6200007a600160d46362d415e0620002dc60201b60201c565b62000093600160d26362d46a40620002dc60201b60201c565b620000ac600160f26362d4bea0620002dc60201b60201c565b620000c660016101036362d51300620002dc60201b60201c565b620000df600160e26362d56760620002dc60201b60201c565b620000f8600160d36362d5bbc0620002dc60201b60201c565b62000111600160ef6362d61020620002dc60201b60201c565b6200012a600160ec6362d66480620002dc60201b60201c565b62000143600160d56362d6b8e0620002dc60201b60201c565b6200015c600160ce6362d70d40620002dc60201b60201c565b62000175600160f86362d761a0620002dc60201b60201c565b6200018e600160f36362d7b600620002dc60201b60201c565b620001a7600160e76362d80a60620002dc60201b60201c565b620001c0600160ec6362d85ec0620002dc60201b60201c565b620001da60016101216362d8b320620002dc60201b60201c565b620001f4600161011f6362d90780620002dc60201b60201c565b6200020d600160e46362d95be0620002dc60201b60201c565b62000226600160d46362d9b040620002dc60201b60201c565b6200023f600160e06362da04a0620002dc60201b60201c565b62000258600160ec6362da5900620002dc60201b60201c565b62000271600160d26362daad60620002dc60201b60201c565b6200028a600160e06362db01c0620002dc60201b60201c565b620002a3600160f86362db5620620002dc60201b60201c565b620002bd60016101006362dbaa80620002dc60201b60201c565b620002d6600160e66362dbfee0620002dc60201b60201c565b6200043e565b6000600160008581526020019081526020016000205403620003145760016000808282546200030c9190620003e1565b925050819055505b604051806040016040528082815260200183815250600260008581526020019081526020016000206000600160008781526020019081526020016000205481526020019081526020016000206000820151816000015560208201518160010155905050600180600085815260200190815260200160002060008282546200039c9190620003e1565b92505081905550505050565b6000819050919050565b7f4e487b7100000000000000000000000000000000000000000000000000000000600052601160045260246000fd5b6000620003ee82620003a8565b9150620003fb83620003a8565b9250827fffffffffffffffffffffffffffffffffffffffffffffffffffffffffffffffff03821115620004335762000432620003b2565b5b828201905092915050565b610ba0806200044e6000396000f3fe608060405234801561001057600080fd5b506004361061004c5760003560e01c806317ffa15214610051578063245c19f114610081578063377144a6146100b1578063f238f3ec146100e3575b600080fd5b61006b600480360381019061006691906107f6565b610113565b6040516100789190610910565b60405180910390f35b61009b60048036038101906100969190610932565b61021c565b6040516100a89190610910565b60405180910390f35b6100cb60048036038101906100c69190610985565b610446565b6040516100da939291906109d4565b60405180910390f35b6100fd60048036038101906100f89190610985565b6105a6565b60405161010a9190610910565b60405180910390f35b60606000600160008481526020019081526020016000205467ffffffffffffffff81111561014457610143610a0b565b5b60405190808252806020026020018201604052801561017d57816020015b61016a6107a1565b8152602001906001900390816101625790505b50905060005b600160008581526020019081526020016000205481101561021257600260008581526020019081526020016000206000828152602001908152602001600020604051806040016040529081600082015481526020016001820154815250508282815181106101f4576101f3610a3a565b5b6020026020010181905250808061020a90610a98565b915050610183565b5080915050919050565b60606000600160008681526020019081526020016000205467ffffffffffffffff81111561024d5761024c610a0b565b5b60405190808252806020026020018201604052801561028657816020015b6102736107a1565b81526020019060019003908161026b5790505b5090506000805b60016000888152602001908152602001600020548110156103885785600260008981526020019081526020016000206000838152602001908152602001600020600001541061037557846002600089815260200190815260200160002060008381526020019081526020016000206000015411610388576002600088815260200190815260200160002060008281526020019081526020016000206040518060400160405290816000820154815260200160018201548152505083838151811061035a57610359610a3a565b5b60200260200101819052506001826103729190610ae0565b91505b808061038090610a98565b91505061028d565b5060008167ffffffffffffffff8111156103a5576103a4610a0b565b5b6040519080825280602002602001820160405280156103de57816020015b6103cb6107a1565b8152602001906001900390816103c35790505b50905060005b82811015610438578381815181106103ff576103fe610a3a565b5b602002602001015182828151811061041a57610419610a3a565b5b6020026020010181905250808061043090610a98565b9150506103e4565b508093505050509392505050565b60008060008060016000878152602001908152602001600020540361047f5760016000808282546104779190610ae0565b925050819055505b604051806040016040528042815260200185815250600260008781526020019081526020016000206000600160008981526020019081526020016000205481526020019081526020016000206000820151816000015560208201518160010155905050600180600087815260200190815260200160002060008282546105059190610ae0565b925050819055508460026000878152602001908152602001600020600060018060008a8152602001908152602001600020546105419190610b36565b81526020019081526020016000206000015460026000888152602001908152602001600020600060018060008b8152602001908152602001600020546105879190610b36565b8152602001908152602001600020600101549250925092509250925092565b60606000600160008581526020019081526020016000205467ffffffffffffffff8111156105d7576105d6610a0b565b5b60405190808252806020026020018201604052801561061057816020015b6105fd6107a1565b8152602001906001900390816105f55790505b5090506000805b60016000878152602001908152602001600020548110156106e4578460026000888152602001908152602001600020600083815260200190815260200160002060000154106106d157600260008781526020019081526020016000206000828152602001908152602001600020604051806040016040529081600082015481526020016001820154815250508383815181106106b6576106b5610a3a565b5b60200260200101819052506001826106ce9190610ae0565b91505b80806106dc90610a98565b915050610617565b5060008167ffffffffffffffff81111561070157610700610a0b565b5b60405190808252806020026020018201604052801561073a57816020015b6107276107a1565b81526020019060019003908161071f5790505b50905060005b828110156107945783818151811061075b5761075a610a3a565b5b602002602001015182828151811061077657610775610a3a565b5b6020026020010181905250808061078c90610a98565b915050610740565b5080935050505092915050565b604051806040016040528060008152602001600081525090565b600080fd5b6000819050919050565b6107d3816107c0565b81146107de57600080fd5b50565b6000813590506107f0816107ca565b92915050565b60006020828403121561080c5761080b6107bb565b5b600061081a848285016107e1565b91505092915050565b600081519050919050565b600082825260208201905092915050565b6000819050602082019050919050565b610858816107c0565b82525050565b604082016000820151610874600085018261084f565b506020820151610887602085018261084f565b50505050565b6000610899838361085e565b60408301905092915050565b6000602082019050919050565b60006108bd82610823565b6108c7818561082e565b93506108d28361083f565b8060005b838110156109035781516108ea888261088d565b97506108f5836108a5565b9250506001810190506108d6565b5085935050505092915050565b6000602082019050818103600083015261092a81846108b2565b905092915050565b60008060006060848603121561094b5761094a6107bb565b5b6000610959868287016107e1565b935050602061096a868287016107e1565b925050604061097b868287016107e1565b9150509250925092565b6000806040838503121561099c5761099b6107bb565b5b60006109aa858286016107e1565b92505060206109bb858286016107e1565b9150509250929050565b6109ce816107c0565b82525050565b60006060820190506109e960008301866109c5565b6109f660208301856109c5565b610a0360408301846109c5565b949350505050565b7f4e487b7100000000000000000000000000000000000000000000000000000000600052604160045260246000fd5b7f4e487b7100000000000000000000000000000000000000000000000000000000600052603260045260246000fd5b7f4e487b7100000000000000000000000000000000000000000000000000000000600052601160045260246000fd5b6000610aa3826107c0565b91507fffffffffffffffffffffffffffffffffffffffffffffffffffffffffffffffff8203610ad557610ad4610a69565b5b600182019050919050565b6000610aeb826107c0565b9150610af6836107c0565b9250827fffffffffffffffffffffffffffffffffffffffffffffffffffffffffffffffff03821115610b2b57610b2a610a69565b5b828201905092915050565b6000610b41826107c0565b9150610b4c836107c0565b925082821015610b5f57610b5e610a69565b5b82820390509291505056fea2646970667358221220a02ac26646d8da99cca1682bfdfa2d2cd55259afb32e2bfef5c2ddfecca9ba7464736f6c634300080f0033",
  "immutableReferences": {},
  "source": "// SPDX-License-Identifier: GPL-3.0\n\npragma solidity >=0.7.0 <0.9.0;\n\nimport \"./MeasurementRecord.sol\";\n\n/**\n * @title WaterTempMeasurement\n * @dev Store & retrieve Water Temperature Measurement\n */\ncontract WaterTempMeasurement is MeasurementRecord {\n\n    // Should be kept between 18.3 - 29.4\n\n    constructor() {\n        // 17.07 3, 9, 15, 21\n        recordInit(1, 209, 1658001600);\n        recordInit(1, 237, 1658023200);\n        recordInit(1, 234, 1658044800);\n        recordInit(1, 212, 1658066400);\n        // 18.07 3, 9, 15, 21\n        recordInit(1, 210, 1658088000);\n        recordInit(1, 242, 1658109600);\n        recordInit(1, 259, 1658131200);\n        recordInit(1, 226, 1658152800);\n        // 19.07 3, 9, 15, 21\n        recordInit(1, 211, 1658174400);\n        recordInit(1, 239, 1658196000);\n        recordInit(1, 236, 1658217600);\n        recordInit(1, 213, 1658239200);\n        // 20.07 3, 9, 15, 21\n        recordInit(1, 206, 1658260800);\n        recordInit(1, 248, 1658282400);\n        recordInit(1, 243, 1658304000);\n        recordInit(1, 231, 1658325600);\n        // 21.07 3, 9, 15, 21\n        recordInit(1, 236, 1658347200);\n        recordInit(1, 289, 1658368800);\n        recordInit(1, 287, 1658390400);\n        recordInit(1, 228, 1658412000);\n        // 22.07 3, 9, 15, 21\n        recordInit(1, 212, 1658433600);\n        recordInit(1, 224, 1658455200);\n        recordInit(1, 236, 1658476800);\n        recordInit(1, 210, 1658498400);\n        // 23.07 3, 9, 15, 21\n        recordInit(1, 224, 1658520000);\n        recordInit(1, 248, 1658541600);\n        recordInit(1, 256, 1658563200);\n        recordInit(1, 230, 1658584800);\n        \n    }\n\n    function recordInit(uint _farm_id, uint _value, uint _timestamp) internal {\n        if(measurementCount[_farm_id] == 0){\n            farmCount += 1;\n        }\n        measurements[_farm_id][measurementCount[_farm_id]] = Measurement(_timestamp, _value);\n        measurementCount[_farm_id] += 1;\n    }\n    \n}",
  "sourcePath": "/projects/aquaponic-frontend/contracts/WaterTempMeasurement.sol",
  "compiler": {
    "name": "solc",
    "version": "0.8.15+commit.e14f2714.Emscripten.clang"
  },
  "schemaVersion": "3.4.8",
  "updatedAt": "2022-07-24T09:26:47.120Z",
  "devdoc": {
    "details": "Store & retrieve Water Temperature Measurement",
    "kind": "dev",
    "methods": {},
    "title": "WaterTempMeasurement",
    "version": 1
  },
  "userdoc": {
    "kind": "user",
    "methods": {},
    "version": 1
  }
}