{
  "contractName": "WaterTempMeasurement",
  "abi": [
    {
      "inputs": [],
      "stateMutability": "nonpayable",
      "type": "constructor"
    },
    {
      "inputs": [
        {
          "internalType": "uint256",
          "name": "_farm_id",
          "type": "uint256"
        }
      ],
      "name": "getAllMeasurementForAFarm",
      "outputs": [
        {
          "components": [
            {
              "internalType": "uint256",
              "name": "timestamp",
              "type": "uint256"
            },
            {
              "internalType": "uint256",
              "name": "value",
              "type": "uint256"
            }
          ],
          "internalType": "struct MeasurementRecord.Measurement[]",
          "name": "",
          "type": "tuple[]"
        }
      ],
      "stateMutability": "view",
      "type": "function"
    },
    {
      "inputs": [
        {
          "internalType": "uint256",
          "name": "_farm_id",
          "type": "uint256"
        },
        {
          "internalType": "uint256",
          "name": "_from_timestamp",
          "type": "uint256"
        },
        {
          "internalType": "uint256",
          "name": "_to_timestamp",
          "type": "uint256"
        }
      ],
      "name": "getAllMeasurementForAFarmInAPeriod",
      "outputs": [
        {
          "components": [
            {
              "internalType": "uint256",
              "name": "timestamp",
              "type": "uint256"
            },
            {
              "internalType": "uint256",
              "name": "value",
              "type": "uint256"
            }
          ],
          "internalType": "struct MeasurementRecord.Measurement[]",
          "name": "",
          "type": "tuple[]"
        }
      ],
      "stateMutability": "view",
      "type": "function"
    },
    {
      "inputs": [
        {
          "internalType": "uint256",
          "name": "_farm_id",
          "type": "uint256"
        },
        {
          "internalType": "uint256",
          "name": "_since_timestamp",
          "type": "uint256"
        }
      ],
      "name": "getAllMeasurementForAFarmSince",
      "outputs": [
        {
          "components": [
            {
              "internalType": "uint256",
              "name": "timestamp",
              "type": "uint256"
            },
            {
              "internalType": "uint256",
              "name": "value",
              "type": "uint256"
            }
          ],
          "internalType": "struct MeasurementRecord.Measurement[]",
          "name": "",
          "type": "tuple[]"
        }
      ],
      "stateMutability": "view",
      "type": "function"
    },
    {
      "inputs": [
        {
          "internalType": "uint256",
          "name": "_farm_id",
          "type": "uint256"
        },
        {
          "internalType": "uint256",
          "name": "_value",
          "type": "uint256"
        }
      ],
      "name": "record",
      "outputs": [
        {
          "components": [
            {
              "internalType": "uint256",
              "name": "timestamp",
              "type": "uint256"
            },
            {
              "internalType": "uint256",
              "name": "value",
              "type": "uint256"
            }
          ],
          "internalType": "struct MeasurementRecord.Measurement",
          "name": "",
          "type": "tuple"
        }
      ],
      "stateMutability": "nonpayable",
      "type": "function"
    }
  ],
  "bytecode": "0x6080604052600080553480156200001557600080fd5b506200002f600160d26362a4f4406200108e60201b60201c565b62000048600160de6362a548a06200108e60201b60201c565b62000061600160dd6362a59d006200108e60201b60201c565b6200007a600160c56362a5f1606200108e60201b60201c565b62000093600160cd6362a645c06200108e60201b60201c565b620000ac600160e76362a69a206200108e60201b60201c565b620000c5600160ef6362a6ee806200108e60201b60201c565b620000de600160d36362a742e06200108e60201b60201c565b620000f7600160d26362a797406200108e60201b60201c565b62000110600160e56362a7eba06200108e60201b60201c565b62000129600160eb6362a840006200108e60201b60201c565b62000142600160d46362a894606200108e60201b60201c565b6200015b600160d06362a8e8c06200108e60201b60201c565b62000174600160e16362a93d206200108e60201b60201c565b6200018d600160e76362a991806200108e60201b60201c565b620001a6600160d16362a9e5e06200108e60201b60201c565b620001bf600160d36362aa3a406200108e60201b60201c565b620001d8600160ea6362aa8ea06200108e60201b60201c565b620001f1600160eb6362aae3006200108e60201b60201c565b6200020a600160d26362ab37606200108e60201b60201c565b62000223600160c76362ab8bc06200108e60201b60201c565b6200023c600160dd6362abe0206200108e60201b60201c565b62000255600160de6362ac34806200108e60201b60201c565b6200026e600160c96362ac88e06200108e60201b60201c565b62000287600160d46362acdd406200108e60201b60201c565b620002a0600160ea6362ad31a06200108e60201b60201c565b620002b9600160ec6362ad86006200108e60201b60201c565b620002d2600160dd6362adda606200108e60201b60201c565b620002eb600160d46362ae2ec06200108e60201b60201c565b62000304600160f86362ae83206200108e60201b60201c565b6200031d600160f66362aed7806200108e60201b60201c565b62000336600160dc6362af2be06200108e60201b60201c565b6200034f600160d36362af80406200108e60201b60201c565b62000368600160f56362afd4a06200108e60201b60201c565b62000381600160ef6362b029006200108e60201b60201c565b6200039a600160ce6362b07d606200108e60201b60201c565b620003b3600160cc6362b0d1c06200108e60201b60201c565b620003cc600160ef6362b126206200108e60201b60201c565b620003e5600160f16362b17a806200108e60201b60201c565b620003fe600160d36362b1cee06200108e60201b60201c565b62000417600160d26362b223406200108e60201b60201c565b62000430600160fb6362b277a06200108e60201b60201c565b62000449600160f86362b2cc006200108e60201b60201c565b62000462600160e86362b320606200108e60201b60201c565b6200047b600160de6362b374c06200108e60201b60201c565b62000494600160fe6362b3c9206200108e60201b60201c565b620004ad600160f96362b41d806200108e60201b60201c565b620004c6600160d26362b471e06200108e60201b60201c565b620004df600160d06362b4c6406200108e60201b60201c565b620004f8600160ef6362b51aa06200108e60201b60201c565b62000511600160f06362b56f006200108e60201b60201c565b6200052a600160db6362b5c3606200108e60201b60201c565b62000543600160d96362b617c06200108e60201b60201c565b6200055d60016101006362b66c206200108e60201b60201c565b62000576600160f96362b6c0806200108e60201b60201c565b6200058f600160dc6362b714e06200108e60201b60201c565b620005a8600160d36362b769406200108e60201b60201c565b620005c1600160f46362b7bda06200108e60201b60201c565b620005da600160f86362b812006200108e60201b60201c565b620005f3600160d66362b866606200108e60201b60201c565b6200060c600160d56362b8bac06200108e60201b60201c565b62000625600160fa6362b90f206200108e60201b60201c565b6200063e600160ff6362b963806200108e60201b60201c565b62000657600160dc6362b9b7e06200108e60201b60201c565b62000670600160d96362ba0c406200108e60201b60201c565b62000689600160f66362ba60a06200108e60201b60201c565b620006a2600160f16362bab5006200108e60201b60201c565b620006bb600160e56362bb09606200108e60201b60201c565b620006d4600160de6362bb5dc06200108e60201b60201c565b620006ed600160e96362bbb2206200108e60201b60201c565b62000706600160ee6362bc06806200108e60201b60201c565b6200071f600160de6362bc5ae06200108e60201b60201c565b62000738600160dd6362bcaf406200108e60201b60201c565b62000751600160f46362bd03a06200108e60201b60201c565b6200076a600160f56362bd58006200108e60201b60201c565b62000783600160db6362bdac606200108e60201b60201c565b6200079c600160d96362be00c06200108e60201b60201c565b620007b5600160fc6362be55206200108e60201b60201c565b620007ce600160ff6362bea9806200108e60201b60201c565b620007e7600160f16362befde06200108e60201b60201c565b62000800600160d26362bf52406200108e60201b60201c565b62000819600160f46362bfa6a06200108e60201b60201c565b62000832600160ef6362bffb006200108e60201b60201c565b6200084b600160d46362c04f606200108e60201b60201c565b62000864600160db6362c0a3c06200108e60201b60201c565b6200087d600160ff6362c0f8206200108e60201b60201c565b62000896600160fc6362c14c806200108e60201b60201c565b620008af600160e76362c1a0e06200108e60201b60201c565b620008c8600160e46362c1f5406200108e60201b60201c565b620008e260016101006362c249a06200108e60201b60201c565b620008fb600160f96362c29e006200108e60201b60201c565b62000914600160de6362c2f2606200108e60201b60201c565b6200092d600160cd6362c346c06200108e60201b60201c565b62000946600160ef6362c39b206200108e60201b60201c565b6200095f600160f26362c3ef806200108e60201b60201c565b62000978600160c96362c443e06200108e60201b60201c565b62000991600160c56362c498406200108e60201b60201c565b620009aa600160f36362c4eca06200108e60201b60201c565b620009c3600160f46362c541006200108e60201b60201c565b620009dc600160d16362c595606200108e60201b60201c565b620009f5600160cf6362c5e9c06200108e60201b60201c565b62000a0e600160f16362c63e206200108e60201b60201c565b62000a2860016101006362c692806200108e60201b60201c565b62000a41600160c86362c6e6e06200108e60201b60201c565b62000a5a600160d36362c73b406200108e60201b60201c565b62000a73600160fe6362c78fa06200108e60201b60201c565b62000a8c600160fc6362c7e4006200108e60201b60201c565b62000aa5600160d16362c838606200108e60201b60201c565b62000abe600160c96362c88cc06200108e60201b60201c565b62000ad7600160f96362c8e1206200108e60201b60201c565b62000af0600160fe6362c935806200108e60201b60201c565b62000b09600160d36362c989e06200108e60201b60201c565b62000b22600160d16362c9de406200108e60201b60201c565b62000b3b600160f16362ca32a06200108e60201b60201c565b62000b54600160f86362ca87006200108e60201b60201c565b62000b6d600160cf6362cadb606200108e60201b60201c565b62000b86600160d36362cb2fc06200108e60201b60201c565b62000b9f600160fe6362cb84206200108e60201b60201c565b62000bb960016101026362cbd8806200108e60201b60201c565b62000bd2600160d16362cc2ce06200108e60201b60201c565b62000beb600160da6362cc81406200108e60201b60201c565b62000c0560016101006362ccd5a06200108e60201b60201c565b62000c1f60016101006362cd2a006200108e60201b60201c565b62000c38600160d46362cd7e606200108e60201b60201c565b62000c51600160c86362cdd2c06200108e60201b60201c565b62000c6a600160f46362ce27206200108e60201b60201c565b62000c83600160f76362ce7b806200108e60201b60201c565b62000c9c600160cf6362cecfe06200108e60201b60201c565b62000cb5600160c46362cf24406200108e60201b60201c565b62000cce600160ef6362cf78a06200108e60201b60201c565b62000ce7600160f66362cfcd006200108e60201b60201c565b62000d00600160d16362d021606200108e60201b60201c565b62000d19600160d76362d075c06200108e60201b60201c565b62000d32600160f66362d0ca206200108e60201b60201c565b62000d4b600160f86362d11e806200108e60201b60201c565b62000d64600160c86362d172e06200108e60201b60201c565b62000d7d600160c96362d1c7406200108e60201b60201c565b62000d96600160ef6362d21ba06200108e60201b60201c565b62000daf600160f56362d270006200108e60201b60201c565b62000dc8600160d26362d2c4606200108e60201b60201c565b62000de1600160d16362d318c06200108e60201b60201c565b62000dfa600160ed6362d36d206200108e60201b60201c565b62000e13600160ea6362d3c1806200108e60201b60201c565b62000e2c600160d46362d415e06200108e60201b60201c565b62000e45600160d26362d46a406200108e60201b60201c565b62000e5e600160f26362d4bea06200108e60201b60201c565b62000e7860016101036362d513006200108e60201b60201c565b62000e91600160e26362d567606200108e60201b60201c565b62000eaa600160d36362d5bbc06200108e60201b60201c565b62000ec3600160ef6362d610206200108e60201b60201c565b62000edc600160ec6362d664806200108e60201b60201c565b62000ef5600160d56362d6b8e06200108e60201b60201c565b62000f0e600160ce6362d70d406200108e60201b60201c565b62000f27600160f86362d761a06200108e60201b60201c565b62000f40600160f36362d7b6006200108e60201b60201c565b62000f59600160e76362d80a606200108e60201b60201c565b62000f72600160ec6362d85ec06200108e60201b60201c565b62000f8c60016101216362d8b3206200108e60201b60201c565b62000fa6600161011f6362d907806200108e60201b60201c565b62000fbf600160e46362d95be06200108e60201b60201c565b62000fd8600160d46362d9b0406200108e60201b60201c565b62000ff1600160e06362da04a06200108e60201b60201c565b6200100a600160ec6362da59006200108e60201b60201c565b62001023600160d26362daad606200108e60201b60201c565b6200103c600160e06362db01c06200108e60201b60201c565b62001055600160f86362db56206200108e60201b60201c565b6200106f60016101006362dbaa806200108e60201b60201c565b62001088600160e66362dbfee06200108e60201b60201c565b620011f0565b6000600160008581526020019081526020016000205403620010c6576001600080828254620010be919062001193565b925050819055505b604051806040016040528082815260200183815250600260008581526020019081526020016000206000600160008781526020019081526020016000205481526020019081526020016000206000820151816000015560208201518160010155905050600180600085815260200190815260200160002060008282546200114e919062001193565b92505081905550505050565b6000819050919050565b7f4e487b7100000000000000000000000000000000000000000000000000000000600052601160045260246000fd5b6000620011a0826200115a565b9150620011ad836200115a565b9250827fffffffffffffffffffffffffffffffffffffffffffffffffffffffffffffffff03821115620011e557620011e462001164565b5b828201905092915050565b610b7580620012006000396000f3fe608060405234801561001057600080fd5b506004361061004c5760003560e01c806317ffa15214610051578063245c19f114610081578063377144a6146100b1578063f238f3ec146100e1575b600080fd5b61006b600480360381019061006691906107c7565b610111565b60405161007891906108e1565b60405180910390f35b61009b60048036038101906100969190610903565b61021a565b6040516100a891906108e1565b60405180910390f35b6100cb60048036038101906100c69190610956565b610444565b6040516100d891906109c5565b60405180910390f35b6100fb60048036038101906100f69190610956565b610577565b60405161010891906108e1565b60405180910390f35b60606000600160008481526020019081526020016000205467ffffffffffffffff811115610142576101416109e0565b5b60405190808252806020026020018201604052801561017b57816020015b610168610772565b8152602001906001900390816101605790505b50905060005b600160008581526020019081526020016000205481101561021057600260008581526020019081526020016000206000828152602001908152602001600020604051806040016040529081600082015481526020016001820154815250508282815181106101f2576101f1610a0f565b5b6020026020010181905250808061020890610a6d565b915050610181565b5080915050919050565b60606000600160008681526020019081526020016000205467ffffffffffffffff81111561024b5761024a6109e0565b5b60405190808252806020026020018201604052801561028457816020015b610271610772565b8152602001906001900390816102695790505b5090506000805b60016000888152602001908152602001600020548110156103865785600260008981526020019081526020016000206000838152602001908152602001600020600001541061037357846002600089815260200190815260200160002060008381526020019081526020016000206000015411610386576002600088815260200190815260200160002060008281526020019081526020016000206040518060400160405290816000820154815260200160018201548152505083838151811061035857610357610a0f565b5b60200260200101819052506001826103709190610ab5565b91505b808061037e90610a6d565b91505061028b565b5060008167ffffffffffffffff8111156103a3576103a26109e0565b5b6040519080825280602002602001820160405280156103dc57816020015b6103c9610772565b8152602001906001900390816103c15790505b50905060005b82811015610436578381815181106103fd576103fc610a0f565b5b602002602001015182828151811061041857610417610a0f565b5b6020026020010181905250808061042e90610a6d565b9150506103e2565b508093505050509392505050565b61044c610772565b60006001600085815260200190815260200160002054036104815760016000808282546104799190610ab5565b925050819055505b604051806040016040528042815260200183815250600260008581526020019081526020016000206000600160008781526020019081526020016000205481526020019081526020016000206000820151816000015560208201518160010155905050600180600085815260200190815260200160002060008282546105079190610ab5565b925050819055506002600084815260200190815260200160002060006001806000878152602001908152602001600020546105429190610b0b565b815260200190815260200160002060405180604001604052908160008201548152602001600182015481525050905092915050565b60606000600160008581526020019081526020016000205467ffffffffffffffff8111156105a8576105a76109e0565b5b6040519080825280602002602001820160405280156105e157816020015b6105ce610772565b8152602001906001900390816105c65790505b5090506000805b60016000878152602001908152602001600020548110156106b5578460026000888152602001908152602001600020600083815260200190815260200160002060000154106106a2576002600087815260200190815260200160002060008281526020019081526020016000206040518060400160405290816000820154815260200160018201548152505083838151811061068757610686610a0f565b5b602002602001018190525060018261069f9190610ab5565b91505b80806106ad90610a6d565b9150506105e8565b5060008167ffffffffffffffff8111156106d2576106d16109e0565b5b60405190808252806020026020018201604052801561070b57816020015b6106f8610772565b8152602001906001900390816106f05790505b50905060005b828110156107655783818151811061072c5761072b610a0f565b5b602002602001015182828151811061074757610746610a0f565b5b6020026020010181905250808061075d90610a6d565b915050610711565b5080935050505092915050565b604051806040016040528060008152602001600081525090565b600080fd5b6000819050919050565b6107a481610791565b81146107af57600080fd5b50565b6000813590506107c18161079b565b92915050565b6000602082840312156107dd576107dc61078c565b5b60006107eb848285016107b2565b91505092915050565b600081519050919050565b600082825260208201905092915050565b6000819050602082019050919050565b61082981610791565b82525050565b6040820160008201516108456000850182610820565b5060208201516108586020850182610820565b50505050565b600061086a838361082f565b60408301905092915050565b6000602082019050919050565b600061088e826107f4565b61089881856107ff565b93506108a383610810565b8060005b838110156108d45781516108bb888261085e565b97506108c683610876565b9250506001810190506108a7565b5085935050505092915050565b600060208201905081810360008301526108fb8184610883565b905092915050565b60008060006060848603121561091c5761091b61078c565b5b600061092a868287016107b2565b935050602061093b868287016107b2565b925050604061094c868287016107b2565b9150509250925092565b6000806040838503121561096d5761096c61078c565b5b600061097b858286016107b2565b925050602061098c858286016107b2565b9150509250929050565b6040820160008201516109ac6000850182610820565b5060208201516109bf6020850182610820565b50505050565b60006040820190506109da6000830184610996565b92915050565b7f4e487b7100000000000000000000000000000000000000000000000000000000600052604160045260246000fd5b7f4e487b7100000000000000000000000000000000000000000000000000000000600052603260045260246000fd5b7f4e487b7100000000000000000000000000000000000000000000000000000000600052601160045260246000fd5b6000610a7882610791565b91507fffffffffffffffffffffffffffffffffffffffffffffffffffffffffffffffff8203610aaa57610aa9610a3e565b5b600182019050919050565b6000610ac082610791565b9150610acb83610791565b9250827fffffffffffffffffffffffffffffffffffffffffffffffffffffffffffffffff03821115610b0057610aff610a3e565b5b828201905092915050565b6000610b1682610791565b9150610b2183610791565b925082821015610b3457610b33610a3e565b5b82820390509291505056fea264697066735822122048579a02607fe746e753953724c2aff425ee55eb35a48fb67732f41937da988364736f6c634300080f0033",
  "immutableReferences": {},
  "source": "// SPDX-License-Identifier: GPL-3.0\n\npragma solidity >=0.7.0 <0.9.0;\n\nimport \"./MeasurementRecord.sol\";\n\n/**\n * @title WaterTempMeasurement\n * @dev Store & retrieve Water Temperature Measurement\n */\ncontract WaterTempMeasurement is MeasurementRecord {\n\n    // Should be kept between 18.3 - 29.4\n\n    constructor() {\n        // W ----------------------------\n        // 12.06 3, 9, 15, 21\n        recordInit(1, 210, 1654977600);\n        recordInit(1, 222, 1654999200);\n        recordInit(1, 221, 1655020800);\n        recordInit(1, 197, 1655042400);\n        // 13.06 3, 9, 15, 21\n        recordInit(1, 205, 1655064000);\n        recordInit(1, 231, 1655085600);\n        recordInit(1, 239, 1655107200);\n        recordInit(1, 211, 1655128800);\n        // 14.06 3, 9, 15, 21\n        recordInit(1, 210, 1655150400);\n        recordInit(1, 229, 1655172000);\n        recordInit(1, 235, 1655193600);\n        recordInit(1, 212, 1655215200);\n        // 15.06 3, 9, 15, 21\n        recordInit(1, 208, 1655236800);\n        recordInit(1, 225, 1655258400);\n        recordInit(1, 231, 1655280000);\n        recordInit(1, 209, 1655301600);\n        // 16.06 3, 9, 15, 21\n        recordInit(1, 211, 1655323200);\n        recordInit(1, 234, 1655344800);\n        recordInit(1, 235, 1655366400);\n        recordInit(1, 210, 1655388000);\n        // 17.06 3, 9, 15, 21\n        recordInit(1, 199, 1655409600);\n        recordInit(1, 221, 1655431200);\n        recordInit(1, 222, 1655452800);\n        recordInit(1, 201, 1655474400);\n        // 18.06 3, 9, 15, 21\n        recordInit(1, 212, 1655496000);\n        recordInit(1, 234, 1655517600);\n        recordInit(1, 236, 1655539200);\n        recordInit(1, 221, 1655560800);\n\n        // W ----------------------------\n        // 19.06 3, 9, 15, 21\n        recordInit(1, 212, 1655582400);\n        recordInit(1, 248, 1655604000);\n        recordInit(1, 246, 1655625600);\n        recordInit(1, 220, 1655647200);\n        // 20.06 3, 9, 15, 21\n        recordInit(1, 211, 1655668800);\n        recordInit(1, 245, 1655690400);\n        recordInit(1, 239, 1655712000);\n        recordInit(1, 206, 1655733600);\n        // 21.06 3, 9, 15, 21\n        recordInit(1, 204, 1655755200);\n        recordInit(1, 239, 1655776800);\n        recordInit(1, 241, 1655798400);\n        recordInit(1, 211, 1655820000);\n        // 22.06 3, 9, 15, 21\n        recordInit(1, 210, 1655841600);\n        recordInit(1, 251, 1655863200);\n        recordInit(1, 248, 1655884800);\n        recordInit(1, 232, 1655906400);\n        // 23.06 3, 9, 15, 21\n        recordInit(1, 222, 1655928000);\n        recordInit(1, 254, 1655949600);\n        recordInit(1, 249, 1655971200);\n        recordInit(1, 210, 1655992800);\n        // 24.06 3, 9, 15, 21\n        recordInit(1, 208, 1656014400);\n        recordInit(1, 239, 1656036000);\n        recordInit(1, 240, 1656057600);\n        recordInit(1, 219, 1656079200);\n        // 25.06 3, 9, 15, 21\n        recordInit(1, 217, 1656100800);\n        recordInit(1, 256, 1656122400);\n        recordInit(1, 249, 1656144000);\n        recordInit(1, 220, 1656165600);\n\n        // W ----------------------------\n        // 26.06 3, 9, 15, 21\n        recordInit(1, 211, 1656187200);\n        recordInit(1, 244, 1656208800);\n        recordInit(1, 248, 1656230400);\n        recordInit(1, 214, 1656252000);\n        // 27.06 3, 9, 15, 21\n        recordInit(1, 213, 1656273600);\n        recordInit(1, 250, 1656295200);\n        recordInit(1, 255, 1656316800);\n        recordInit(1, 220, 1656338400);\n        // 28.06 3, 9, 15, 21\n        recordInit(1, 217, 1656360000);\n        recordInit(1, 246, 1656381600);\n        recordInit(1, 241, 1656403200);\n        recordInit(1, 229, 1656424800);\n        // 29.06 3, 9, 15, 21\n        recordInit(1, 222, 1656446400);\n        recordInit(1, 233, 1656468000);\n        recordInit(1, 238, 1656489600);\n        recordInit(1, 222, 1656511200);\n        // 30.06 3, 9, 15, 21\n        recordInit(1, 221, 1656532800);\n        recordInit(1, 244, 1656554400);\n        recordInit(1, 245, 1656576000);\n        recordInit(1, 219, 1656597600);\n        // 01.07 3, 9, 15, 21\n        recordInit(1, 217, 1656619200);\n        recordInit(1, 252, 1656640800);\n        recordInit(1, 255, 1656662400);\n        recordInit(1, 241, 1656684000);\n        // 02.07 3, 9, 15, 21\n        recordInit(1, 210, 1656705600);\n        recordInit(1, 244, 1656727200);\n        recordInit(1, 239, 1656748800);\n        recordInit(1, 212, 1656770400);\n\n        // W ----------------------------\n        // 03.07 3, 9, 15, 21\n        recordInit(1, 219, 1656792000);\n        recordInit(1, 255, 1656813600);\n        recordInit(1, 252, 1656835200);\n        recordInit(1, 231, 1656856800);\n        // 04.07 3, 9, 15, 21\n        recordInit(1, 228, 1656878400);\n        recordInit(1, 256, 1656900000);\n        recordInit(1, 249, 1656921600);\n        recordInit(1, 222, 1656943200);\n        // 05.07 3, 9, 15, 21\n        recordInit(1, 205, 1656964800);\n        recordInit(1, 239, 1656986400);\n        recordInit(1, 242, 1657008000);\n        recordInit(1, 201, 1657029600);\n        // 06.07 3, 9, 15, 21\n        recordInit(1, 197, 1657051200);\n        recordInit(1, 243, 1657072800);\n        recordInit(1, 244, 1657094400);\n        recordInit(1, 209, 1657116000);\n        // 07.07 3, 9, 15, 21\n        recordInit(1, 207, 1657137600);\n        recordInit(1, 241, 1657159200);\n        recordInit(1, 256, 1657180800);\n        recordInit(1, 200, 1657202400);\n        // 08.07 3, 9, 15, 21\n        recordInit(1, 211, 1657224000);\n        recordInit(1, 254, 1657245600);\n        recordInit(1, 252, 1657267200);\n        recordInit(1, 209, 1657288800);\n        // 09.07 3, 9, 15, 21\n        recordInit(1, 201, 1657310400);\n        recordInit(1, 249, 1657332000);\n        recordInit(1, 254, 1657353600);\n        recordInit(1, 211, 1657375200);\n\n\n        // W ----------------------------\n        // 10.07 3, 9, 15, 21\n        recordInit(1, 209, 1657396800);\n        recordInit(1, 241, 1657418400);\n        recordInit(1, 248, 1657440000);\n        recordInit(1, 207, 1657461600);\n        // 11.07 3, 9, 15, 21\n        recordInit(1, 211, 1657483200);\n        recordInit(1, 254, 1657504800);\n        recordInit(1, 258, 1657526400);\n        recordInit(1, 209, 1657548000);\n        // 12.07 3, 9, 15, 21\n        recordInit(1, 218, 1657569600);\n        recordInit(1, 256, 1657591200);\n        recordInit(1, 256, 1657612800);\n        recordInit(1, 212, 1657634400);\n        // 13.07 3, 9, 15, 21\n        recordInit(1, 200, 1657656000);\n        recordInit(1, 244, 1657677600);\n        recordInit(1, 247, 1657699200);\n        recordInit(1, 207, 1657720800);\n        // 14.07 3, 9, 15, 21\n        recordInit(1, 196, 1657742400);\n        recordInit(1, 239, 1657764000);\n        recordInit(1, 246, 1657785600);\n        recordInit(1, 209, 1657807200);\n        // 15.07 3, 9, 15, 21\n        recordInit(1, 215, 1657828800);\n        recordInit(1, 246, 1657850400);\n        recordInit(1, 248, 1657872000);\n        recordInit(1, 200, 1657893600);\n        // 16.07 3, 9, 15, 21\n        recordInit(1, 201, 1657915200);\n        recordInit(1, 239, 1657936800);\n        recordInit(1, 245, 1657958400);\n        recordInit(1, 210, 1657980000);\n\n        // W ----------------------------\n        // 17.07 3, 9, 15, 21\n        recordInit(1, 209, 1658001600);\n        recordInit(1, 237, 1658023200);\n        recordInit(1, 234, 1658044800);\n        recordInit(1, 212, 1658066400);\n        // 18.07 3, 9, 15, 21\n        recordInit(1, 210, 1658088000);\n        recordInit(1, 242, 1658109600);\n        recordInit(1, 259, 1658131200);\n        recordInit(1, 226, 1658152800);\n        // 19.07 3, 9, 15, 21\n        recordInit(1, 211, 1658174400);\n        recordInit(1, 239, 1658196000);\n        recordInit(1, 236, 1658217600);\n        recordInit(1, 213, 1658239200);\n        // 20.07 3, 9, 15, 21\n        recordInit(1, 206, 1658260800);\n        recordInit(1, 248, 1658282400);\n        recordInit(1, 243, 1658304000);\n        recordInit(1, 231, 1658325600);\n        // 21.07 3, 9, 15, 21\n        recordInit(1, 236, 1658347200);\n        recordInit(1, 289, 1658368800);\n        recordInit(1, 287, 1658390400);\n        recordInit(1, 228, 1658412000);\n        // 22.07 3, 9, 15, 21\n        recordInit(1, 212, 1658433600);\n        recordInit(1, 224, 1658455200);\n        recordInit(1, 236, 1658476800);\n        recordInit(1, 210, 1658498400);\n        // 23.07 3, 9, 15, 21\n        recordInit(1, 224, 1658520000);\n        recordInit(1, 248, 1658541600);\n        recordInit(1, 256, 1658563200);\n        recordInit(1, 230, 1658584800);\n        \n    }\n\n    function recordInit(uint _farm_id, uint _value, uint _timestamp) internal {\n        if(measurementCount[_farm_id] == 0){\n            farmCount += 1;\n        }\n        measurements[_farm_id][measurementCount[_farm_id]] = Measurement(_timestamp, _value);\n        measurementCount[_farm_id] += 1;\n    }\n    \n}",
  "sourcePath": "/Users/pongsit/Documents/iWorks/aquaponic-frontend/contracts/WaterTempMeasurement.sol",
  "compiler": {
    "name": "solc",
    "version": "0.8.15+commit.e14f2714.Emscripten.clang"
  },
  "schemaVersion": "3.4.8",
  "updatedAt": "2022-07-24T14:06:18.614Z",
  "devdoc": {
    "details": "Store & retrieve Water Temperature Measurement",
    "kind": "dev",
    "methods": {},
    "title": "WaterTempMeasurement",
    "version": 1
  },
  "userdoc": {
    "kind": "user",
    "methods": {},
    "version": 1
  }
}