{
  "contractName": "WaterExchangeRecord",
  "abi": [
    {
      "inputs": [],
      "stateMutability": "nonpayable",
      "type": "constructor"
    },
    {
      "inputs": [
        {
          "internalType": "uint256",
          "name": "_farm_id",
          "type": "uint256"
        }
      ],
      "name": "exchangeWater",
      "outputs": [
        {
          "internalType": "uint256",
          "name": "",
          "type": "uint256"
        },
        {
          "internalType": "uint256",
          "name": "",
          "type": "uint256"
        },
        {
          "internalType": "uint256",
          "name": "",
          "type": "uint256"
        }
      ],
      "stateMutability": "nonpayable",
      "type": "function"
    },
    {
      "inputs": [
        {
          "internalType": "uint256",
          "name": "_farm_id",
          "type": "uint256"
        },
        {
          "internalType": "uint256",
          "name": "_since_timestamp",
          "type": "uint256"
        }
      ],
      "name": "getByFarmIdSince",
      "outputs": [
        {
          "components": [
            {
              "internalType": "uint256",
              "name": "id",
              "type": "uint256"
            },
            {
              "internalType": "uint256",
              "name": "farm_id",
              "type": "uint256"
            },
            {
              "internalType": "uint256",
              "name": "timestamp",
              "type": "uint256"
            }
          ],
          "internalType": "struct WaterExchangeRecord.ExchangeRecord[]",
          "name": "",
          "type": "tuple[]"
        }
      ],
      "stateMutability": "view",
      "type": "function"
    },
    {
      "inputs": [
        {
          "internalType": "uint256",
          "name": "_farm_id",
          "type": "uint256"
        },
        {
          "internalType": "uint256",
          "name": "_from_timestamp",
          "type": "uint256"
        },
        {
          "internalType": "uint256",
          "name": "_to_timestamp",
          "type": "uint256"
        }
      ],
      "name": "getByFarmIdInAPeriod",
      "outputs": [
        {
          "components": [
            {
              "internalType": "uint256",
              "name": "id",
              "type": "uint256"
            },
            {
              "internalType": "uint256",
              "name": "farm_id",
              "type": "uint256"
            },
            {
              "internalType": "uint256",
              "name": "timestamp",
              "type": "uint256"
            }
          ],
          "internalType": "struct WaterExchangeRecord.ExchangeRecord[]",
          "name": "",
          "type": "tuple[]"
        }
      ],
      "stateMutability": "view",
      "type": "function"
    }
  ],
  "bytecode": "0x60806040526000805534801561001457600080fd5b5061002a60016362d5bbc061004460201b60201c565b61003f60016362db01c061004460201b60201c565b61018f565b60405180606001604052806000548152602001838152602001828152506002600084815260200190815260200160002060006001600086815260200190815260200160002054815260200190815260200160002060008201518160000155602082015181600101556040820151816002015590505060016000808282546100cb9190610139565b92505081905550600180600084815260200190815260200160002060008282546100f59190610139565b925050819055505050565b6000819050919050565b7f4e487b7100000000000000000000000000000000000000000000000000000000600052601160045260246000fd5b600061014482610100565b915061014f83610100565b9250827fffffffffffffffffffffffffffffffffffffffffffffffffffffffffffffffff038211156101845761018361010a565b5b828201905092915050565b610a738061019e6000396000f3fe608060405234801561001057600080fd5b50600436106100415760003560e01c8063416ccf85146100465780637aa747c81461007657806394f62354146100a6575b600080fd5b610060600480360381019061005b91906106b6565b6100d8565b60405161006d9190610809565b60405180910390f35b610090600480360381019061008b919061082b565b61030c565b60405161009d9190610809565b60405180910390f35b6100c060048036038101906100bb919061086b565b610511565b6040516100cf939291906108a7565b60405180910390f35b60606000600160008681526020019081526020016000205467ffffffffffffffff811115610109576101086108de565b5b60405190808252806020026020018201604052801561014257816020015b61012f61065a565b8152602001906001900390816101275790505b5090506000805b600160008881526020019081526020016000205481101561024e5785600260008981526020019081526020016000206000838152602001908152602001600020600201541061023b5784600260008981526020019081526020016000206000838152602001908152602001600020600201541161024e5760026000888152602001908152602001600020600082815260200190815260200160002060405180606001604052908160008201548152602001600182015481526020016002820154815250508383815181106102205761021f61090d565b5b6020026020010181905250600182610238919061096b565b91505b8080610246906109c1565b915050610149565b5060008167ffffffffffffffff81111561026b5761026a6108de565b5b6040519080825280602002602001820160405280156102a457816020015b61029161065a565b8152602001906001900390816102895790505b50905060005b828110156102fe578381815181106102c5576102c461090d565b5b60200260200101518282815181106102e0576102df61090d565b5b602002602001018190525080806102f6906109c1565b9150506102aa565b508093505050509392505050565b60606000600160008581526020019081526020016000205467ffffffffffffffff81111561033d5761033c6108de565b5b60405190808252806020026020018201604052801561037657816020015b61036361065a565b81526020019060019003908161035b5790505b5090506000805b6001600087815260200190815260200160002054811015610454578460026000888152602001908152602001600020600083815260200190815260200160002060020154106104415760026000878152602001908152602001600020600082815260200190815260200160002060405180606001604052908160008201548152602001600182015481526020016002820154815250508383815181106104265761042561090d565b5b602002602001018190525060018261043e919061096b565b91505b808061044c906109c1565b91505061037d565b5060008167ffffffffffffffff811115610471576104706108de565b5b6040519080825280602002602001820160405280156104aa57816020015b61049761065a565b81526020019060019003908161048f5790505b50905060005b82811015610504578381815181106104cb576104ca61090d565b5b60200260200101518282815181106104e6576104e561090d565b5b602002602001018190525080806104fc906109c1565b9150506104b0565b5080935050505092915050565b6000806000604051806060016040528060005481526020018581526020014281525060026000868152602001908152602001600020600060016000888152602001908152602001600020548152602001908152602001600020600082015181600001556020820151816001015560408201518160020155905050600160008082825461059d919061096b565b92505081905550600180600086815260200190815260200160002060008282546105c7919061096b565b9250508190555060006002600086815260200190815260200160002060006001806000898152602001908152602001600020546106049190610a09565b815260200190815260200160002060405180606001604052908160008201548152602001600182015481526020016002820154815250509050806000015181602001518260400151935093509350509193909250565b60405180606001604052806000815260200160008152602001600081525090565b600080fd5b6000819050919050565b61069381610680565b811461069e57600080fd5b50565b6000813590506106b08161068a565b92915050565b6000806000606084860312156106cf576106ce61067b565b5b60006106dd868287016106a1565b93505060206106ee868287016106a1565b92505060406106ff868287016106a1565b9150509250925092565b600081519050919050565b600082825260208201905092915050565b6000819050602082019050919050565b61073e81610680565b82525050565b60608201600082015161075a6000850182610735565b50602082015161076d6020850182610735565b5060408201516107806040850182610735565b50505050565b60006107928383610744565b60608301905092915050565b6000602082019050919050565b60006107b682610709565b6107c08185610714565b93506107cb83610725565b8060005b838110156107fc5781516107e38882610786565b97506107ee8361079e565b9250506001810190506107cf565b5085935050505092915050565b6000602082019050818103600083015261082381846107ab565b905092915050565b600080604083850312156108425761084161067b565b5b6000610850858286016106a1565b9250506020610861858286016106a1565b9150509250929050565b6000602082840312156108815761088061067b565b5b600061088f848285016106a1565b91505092915050565b6108a181610680565b82525050565b60006060820190506108bc6000830186610898565b6108c96020830185610898565b6108d66040830184610898565b949350505050565b7f4e487b7100000000000000000000000000000000000000000000000000000000600052604160045260246000fd5b7f4e487b7100000000000000000000000000000000000000000000000000000000600052603260045260246000fd5b7f4e487b7100000000000000000000000000000000000000000000000000000000600052601160045260246000fd5b600061097682610680565b915061098183610680565b9250827fffffffffffffffffffffffffffffffffffffffffffffffffffffffffffffffff038211156109b6576109b561093c565b5b828201905092915050565b60006109cc82610680565b91507fffffffffffffffffffffffffffffffffffffffffffffffffffffffffffffffff82036109fe576109fd61093c565b5b600182019050919050565b6000610a1482610680565b9150610a1f83610680565b925082821015610a3257610a3161093c565b5b82820390509291505056fea2646970667358221220d51ecfd13ead785a290357693c746a12dfec796c8d051a4c974c2afb0f2fc2eb64736f6c634300080f0033",
  "immutableReferences": {},
  "source": "// SPDX-License-Identifier: GPL-3.0\n\npragma solidity >=0.7.0 <0.9.0;\n\n\n/**\n * @title WaterExchangeRecord\n * @dev Store & retrieve fish tank water exchange information\n */\ncontract WaterExchangeRecord {\n\n\n    \n    struct ExchangeRecord {\n        uint id;\n        uint farm_id;\n        uint timestamp;\n    }\n\n    uint256 exchangeRecordCount = 0;\n    mapping(uint => uint) exchangeRecordByFarmCount;\n    mapping(uint => mapping(uint => ExchangeRecord)) exchangeRecordByFarmMapping;\n\n    constructor(){\n        recordInit(1, 1658174400);\n        recordInit(1, 1658520000);\n    }\n\n    function recordInit(uint _farm_id, uint _timestamp) internal{\n        exchangeRecordByFarmMapping[_farm_id][ exchangeRecordByFarmCount[_farm_id] ] =\n            ExchangeRecord(exchangeRecordCount, _farm_id, _timestamp);\n\n        exchangeRecordCount += 1;\n        exchangeRecordByFarmCount[_farm_id] += 1;\n    }\n\n\n    function exchangeWater(uint _farm_id) public returns(uint, uint, uint){\n        exchangeRecordByFarmMapping[_farm_id][ exchangeRecordByFarmCount[_farm_id] ] =\n            ExchangeRecord(exchangeRecordCount, _farm_id, block.timestamp);\n\n        exchangeRecordCount += 1;\n        exchangeRecordByFarmCount[_farm_id] += 1;\n\n        ExchangeRecord memory er = exchangeRecordByFarmMapping[_farm_id][ exchangeRecordByFarmCount[_farm_id] - 1];\n\n        return (\n            er.id,\n            er.farm_id,\n            er.timestamp\n        );\n    }\n\n\n    function getByFarmIdSince(uint _farm_id, uint _since_timestamp) public view returns(ExchangeRecord[] memory){\n        ExchangeRecord[] memory retBuffer = new ExchangeRecord[]( exchangeRecordByFarmCount[_farm_id] );\n\n        uint retBufferCount = 0;\n        for(uint i=0; i<exchangeRecordByFarmCount[_farm_id]; i++){\n            if(exchangeRecordByFarmMapping[_farm_id][i].timestamp < _since_timestamp){\n                continue;\n            } else {\n                retBuffer[retBufferCount] = exchangeRecordByFarmMapping[_farm_id][i];\n                retBufferCount += 1;\n            }\n        }\n\n        ExchangeRecord[] memory ret = new ExchangeRecord[]( retBufferCount );\n        for(uint i=0; i<retBufferCount; i++){\n            ret[i] = retBuffer[i];\n        }\n\n        return ret;\n    }\n\n    function getByFarmIdInAPeriod(uint _farm_id, uint _from_timestamp, uint _to_timestamp) public view returns(ExchangeRecord[] memory){\n        ExchangeRecord[] memory retBuffer = new ExchangeRecord[]( exchangeRecordByFarmCount[_farm_id] );\n\n        uint retBufferCount = 0;\n        for(uint i=0; i<exchangeRecordByFarmCount[_farm_id]; i++){\n            if(exchangeRecordByFarmMapping[_farm_id][i].timestamp < _from_timestamp){\n                continue;\n            } else if (exchangeRecordByFarmMapping[_farm_id][i].timestamp > _to_timestamp) {\n                break;\n            } else {\n                retBuffer[retBufferCount] = exchangeRecordByFarmMapping[_farm_id][i];\n                retBufferCount += 1;\n            }\n        }\n\n        ExchangeRecord[] memory ret = new ExchangeRecord[]( retBufferCount );\n        for(uint i=0; i<retBufferCount; i++){\n            ret[i] = retBuffer[i];\n        }\n\n        return ret;\n    }\n}",
  "sourcePath": "/projects/aquaponic-frontend/contracts/WaterExchangeRecord.sol",
  "compiler": {
    "name": "solc",
    "version": "0.8.15+commit.e14f2714.Emscripten.clang"
  },
  "schemaVersion": "3.4.8",
  "updatedAt": "2022-07-24T09:44:14.364Z",
  "devdoc": {
    "details": "Store & retrieve fish tank water exchange information",
    "kind": "dev",
    "methods": {},
    "title": "WaterExchangeRecord",
    "version": 1
  },
  "userdoc": {
    "kind": "user",
    "methods": {},
    "version": 1
  }
}