{
  "contractName": "WaterTANMeasurement",
  "abi": [
    {
      "inputs": [],
      "stateMutability": "nonpayable",
      "type": "constructor"
    },
    {
      "inputs": [
        {
          "internalType": "uint256",
          "name": "_farm_id",
          "type": "uint256"
        }
      ],
      "name": "getAllMeasurementForAFarm",
      "outputs": [
        {
          "components": [
            {
              "internalType": "uint256",
              "name": "timestamp",
              "type": "uint256"
            },
            {
              "internalType": "uint256",
              "name": "value",
              "type": "uint256"
            }
          ],
          "internalType": "struct MeasurementRecord.Measurement[]",
          "name": "",
          "type": "tuple[]"
        }
      ],
      "stateMutability": "view",
      "type": "function"
    },
    {
      "inputs": [
        {
          "internalType": "uint256",
          "name": "_farm_id",
          "type": "uint256"
        },
        {
          "internalType": "uint256",
          "name": "_from_timestamp",
          "type": "uint256"
        },
        {
          "internalType": "uint256",
          "name": "_to_timestamp",
          "type": "uint256"
        }
      ],
      "name": "getAllMeasurementForAFarmInAPeriod",
      "outputs": [
        {
          "components": [
            {
              "internalType": "uint256",
              "name": "timestamp",
              "type": "uint256"
            },
            {
              "internalType": "uint256",
              "name": "value",
              "type": "uint256"
            }
          ],
          "internalType": "struct MeasurementRecord.Measurement[]",
          "name": "",
          "type": "tuple[]"
        }
      ],
      "stateMutability": "view",
      "type": "function"
    },
    {
      "inputs": [
        {
          "internalType": "uint256",
          "name": "_farm_id",
          "type": "uint256"
        },
        {
          "internalType": "uint256",
          "name": "_since_timestamp",
          "type": "uint256"
        }
      ],
      "name": "getAllMeasurementForAFarmSince",
      "outputs": [
        {
          "components": [
            {
              "internalType": "uint256",
              "name": "timestamp",
              "type": "uint256"
            },
            {
              "internalType": "uint256",
              "name": "value",
              "type": "uint256"
            }
          ],
          "internalType": "struct MeasurementRecord.Measurement[]",
          "name": "",
          "type": "tuple[]"
        }
      ],
      "stateMutability": "view",
      "type": "function"
    },
    {
      "inputs": [
        {
          "internalType": "uint256",
          "name": "_farm_id",
          "type": "uint256"
        },
        {
          "internalType": "uint256",
          "name": "_value",
          "type": "uint256"
        }
      ],
      "name": "record",
      "outputs": [
        {
          "components": [
            {
              "internalType": "uint256",
              "name": "timestamp",
              "type": "uint256"
            },
            {
              "internalType": "uint256",
              "name": "value",
              "type": "uint256"
            }
          ],
          "internalType": "struct MeasurementRecord.Measurement",
          "name": "",
          "type": "tuple"
        }
      ],
      "stateMutability": "nonpayable",
      "type": "function"
    }
  ],
  "bytecode": "0x6080604052600080553480156200001557600080fd5b506200002f600160316362a4f4406200108460201b60201c565b62000048600160326362a548a06200108460201b60201c565b62000061600160336362a59d006200108460201b60201c565b6200007a600160336362a5f1606200108460201b60201c565b62000093600160356362a645c06200108460201b60201c565b620000ac600160366362a69a206200108460201b60201c565b620000c5600160396362a6ee806200108460201b60201c565b620000de6001603a6362a742e06200108460201b60201c565b620000f76001603b6362a797406200108460201b60201c565b620001106001603e6362a7eba06200108460201b60201c565b620001296001603c6362a840006200108460201b60201c565b620001426001603e6362a894606200108460201b60201c565b6200015b600160406362a8e8c06200108460201b60201c565b62000174600160426362a93d206200108460201b60201c565b6200018d600160436362a991806200108460201b60201c565b620001a6600160456362a9e5e06200108460201b60201c565b620001bf600160486362aa3a406200108460201b60201c565b620001d8600160496362aa8ea06200108460201b60201c565b620001f16001604c6362aae3006200108460201b60201c565b6200020a6001604d6362ab37606200108460201b60201c565b620002236001604e6362ab8bc06200108460201b60201c565b6200023c6001604e6362abe0206200108460201b60201c565b62000255600160516362ac34806200108460201b60201c565b6200026e600160526362ac88e06200108460201b60201c565b62000287600160546362acdd406200108460201b60201c565b620002a0600160566362ad31a06200108460201b60201c565b620002b9600160576362ad86006200108460201b60201c565b620002d2600160586362adda606200108460201b60201c565b620002eb600160596362ae2ec06200108460201b60201c565b620003046001602c6362ae83206200108460201b60201c565b6200031d6001602e6362aed7806200108460201b60201c565b620003366001602e6362af2be06200108460201b60201c565b6200034f600160306362af80406200108460201b60201c565b62000368600160316362afd4a06200108460201b60201c565b62000381600160346362b029006200108460201b60201c565b6200039a600160346362b07d606200108460201b60201c565b620003b3600160366362b0d1c06200108460201b60201c565b620003cc600160386362b126206200108460201b60201c565b620003e5600160396362b17a806200108460201b60201c565b620003fe6001603b6362b1cee06200108460201b60201c565b620004176001603e6362b223406200108460201b60201c565b620004306001603f6362b277a06200108460201b60201c565b62000449600160436362b2cc006200108460201b60201c565b62000462600160446362b320606200108460201b60201c565b6200047b600160446362b374c06200108460201b60201c565b62000494600160456362b3c9206200108460201b60201c565b620004ad600160476362b41d806200108460201b60201c565b620004c66001604a6362b471e06200108460201b60201c565b620004df6001604b6362b4c6406200108460201b60201c565b620004f86001604d6362b51aa06200108460201b60201c565b620005116001604e6362b56f006200108460201b60201c565b6200052a600160516362b5c3606200108460201b60201c565b62000543600160526362b617c06200108460201b60201c565b6200055c600160536362b66c206200108460201b60201c565b62000575600160556362b6c0806200108460201b60201c565b6200058e600160566362b714e06200108460201b60201c565b620005a7600160576362b769406200108460201b60201c565b620005c0600160296362b7bda06200108460201b60201c565b620005d96001602c6362b812006200108460201b60201c565b620005f26001602f6362b866606200108460201b60201c565b6200060b600160306362b8bac06200108460201b60201c565b62000624600160336362b90f206200108460201b60201c565b6200063d600160366362b963806200108460201b60201c565b62000656600160376362b9b7e06200108460201b60201c565b6200066f600160386362ba0c406200108460201b60201c565b62000688600160396362ba60a06200108460201b60201c565b620006a16001603b6362bab5006200108460201b60201c565b620006ba6001603e6362bb09606200108460201b60201c565b620006d36001603f6362bb5dc06200108460201b60201c565b620006ec600160416362bbb2206200108460201b60201c565b62000705600160436362bc06806200108460201b60201c565b6200071e600160456362bc5ae06200108460201b60201c565b62000737600160466362bcaf406200108460201b60201c565b62000750600160476362bd03a06200108460201b60201c565b620007696001604c6362bd58006200108460201b60201c565b620007826001604d6362bdac606200108460201b60201c565b6200079b6001604e6362be00c06200108460201b60201c565b620007b4600160506362be55206200108460201b60201c565b620007cd600160516362bea9806200108460201b60201c565b620007e6600160546362befde06200108460201b60201c565b620007ff600160576362bf52406200108460201b60201c565b62000818600160586362bfa6a06200108460201b60201c565b620008316001605a6362bffb006200108460201b60201c565b6200084a6001605b6362c04f606200108460201b60201c565b620008636001605d6362c0a3c06200108460201b60201c565b6200087c6001602f6362c0f8206200108460201b60201c565b62000895600160306362c14c806200108460201b60201c565b620008ae600160336362c1a0e06200108460201b60201c565b620008c7600160346362c1f5406200108460201b60201c565b620008e0600160396362c249a06200108460201b60201c565b620008f96001603a6362c29e006200108460201b60201c565b620009126001603c6362c2f2606200108460201b60201c565b6200092b6001603d6362c346c06200108460201b60201c565b62000944600160406362c39b206200108460201b60201c565b6200095d600160446362c3ef806200108460201b60201c565b62000976600160446362c443e06200108460201b60201c565b6200098f600160456362c498406200108460201b60201c565b620009a8600160486362c4eca06200108460201b60201c565b620009c1600160496362c541006200108460201b60201c565b620009da6001604b6362c595606200108460201b60201c565b620009f36001604d6362c5e9c06200108460201b60201c565b62000a0c6001604e6362c63e206200108460201b60201c565b62000a25600160526362c692806200108460201b60201c565b62000a3e600160536362c6e6e06200108460201b60201c565b62000a57600160546362c73b406200108460201b60201c565b62000a70600160586362c78fa06200108460201b60201c565b62000a89600160596362c7e4006200108460201b60201c565b62000aa26001605c6362c838606200108460201b60201c565b62000abb6001605f6362c88cc06200108460201b60201c565b62000ad4600160336362c8e1206200108460201b60201c565b62000aed600160366362c935806200108460201b60201c565b62000b06600160396362c989e06200108460201b60201c565b62000b1f6001603d6362c9de406200108460201b60201c565b62000b38600160426362ca32a06200108460201b60201c565b62000b51600160436362ca87006200108460201b60201c565b62000b6a600160436362cadb606200108460201b60201c565b62000b83600160456362cb2fc06200108460201b60201c565b62000b9c600160486362cb84206200108460201b60201c565b62000bb5600160496362cbd8806200108460201b60201c565b62000bce6001604c6362cc2ce06200108460201b60201c565b62000be76001604f6362cc81406200108460201b60201c565b62000c00600160526362ccd5a06200108460201b60201c565b62000c19600160526362cd2a006200108460201b60201c565b62000c32600160546362cd7e606200108460201b60201c565b62000c4b600160566362cdd2c06200108460201b60201c565b62000c64600160596362ce27206200108460201b60201c565b62000c7d6001605a6362ce7b806200108460201b60201c565b62000c966001605a6362cecfe06200108460201b60201c565b62000caf6001605c6362cf24406200108460201b60201c565b62000cc86001605e6362cf78a06200108460201b60201c565b62000ce1600160616362cfcd006200108460201b60201c565b62000cfa600160626362d021606200108460201b60201c565b62000d13600160636362d075c06200108460201b60201c565b62000d2c600160316362d0ca206200108460201b60201c565b62000d45600160336362d11e806200108460201b60201c565b62000d5e600160366362d172e06200108460201b60201c565b62000d77600160376362d1c7406200108460201b60201c565b62000d906001603b6362d21ba06200108460201b60201c565b62000da96001603c6362d270006200108460201b60201c565b62000dc26001603e6362d2c4606200108460201b60201c565b62000ddb600160406362d318c06200108460201b60201c565b62000df4600160466362d36d206200108460201b60201c565b62000e0d600160486362d3c1806200108460201b60201c565b62000e26600160496362d415e06200108460201b60201c565b62000e3f6001604a6362d46a406200108460201b60201c565b62000e586001604e6362d4bea06200108460201b60201c565b62000e716001604f6362d513006200108460201b60201c565b62000e8a600160506362d567606200108460201b60201c565b62000ea3600160506362d5bbc06200108460201b60201c565b62000ebc600160346362d610206200108460201b60201c565b62000ed56001603a6362d664806200108460201b60201c565b62000eee6001603b6362d6b8e06200108460201b60201c565b62000f076001603d6362d70d406200108460201b60201c565b62000f20600160406362d761a06200108460201b60201c565b62000f39600160426362d7b6006200108460201b60201c565b62000f52600160436362d80a606200108460201b60201c565b62000f6b600160426362d85ec06200108460201b60201c565b62000f84600160456362d8b3206200108460201b60201c565b62000f9d600160486362d907806200108460201b60201c565b62000fb6600160476362d95be06200108460201b60201c565b62000fcf6001604a6362d9b0406200108460201b60201c565b62000fe86001604f6362da04a06200108460201b60201c565b62001001600160516362da59006200108460201b60201c565b6200101a600160506362daad606200108460201b60201c565b62001033600160546362db01c06200108460201b60201c565b6200104c600160336362db56206200108460201b60201c565b62001065600160366362dbaa806200108460201b60201c565b6200107e600160376362dbfee06200108460201b60201c565b620011e6565b6000600160008581526020019081526020016000205403620010bc576001600080828254620010b4919062001189565b925050819055505b6040518060400160405280828152602001838152506002600085815260200190815260200160002060006001600087815260200190815260200160002054815260200190815260200160002060008201518160000155602082015181600101559050506001806000858152602001908152602001600020600082825462001144919062001189565b92505081905550505050565b6000819050919050565b7f4e487b7100000000000000000000000000000000000000000000000000000000600052601160045260246000fd5b6000620011968262001150565b9150620011a38362001150565b9250827fffffffffffffffffffffffffffffffffffffffffffffffffffffffffffffffff03821115620011db57620011da6200115a565b5b828201905092915050565b610b7580620011f66000396000f3fe608060405234801561001057600080fd5b506004361061004c5760003560e01c806317ffa15214610051578063245c19f114610081578063377144a6146100b1578063f238f3ec146100e1575b600080fd5b61006b600480360381019061006691906107c7565b610111565b60405161007891906108e1565b60405180910390f35b61009b60048036038101906100969190610903565b61021a565b6040516100a891906108e1565b60405180910390f35b6100cb60048036038101906100c69190610956565b610444565b6040516100d891906109c5565b60405180910390f35b6100fb60048036038101906100f69190610956565b610577565b60405161010891906108e1565b60405180910390f35b60606000600160008481526020019081526020016000205467ffffffffffffffff811115610142576101416109e0565b5b60405190808252806020026020018201604052801561017b57816020015b610168610772565b8152602001906001900390816101605790505b50905060005b600160008581526020019081526020016000205481101561021057600260008581526020019081526020016000206000828152602001908152602001600020604051806040016040529081600082015481526020016001820154815250508282815181106101f2576101f1610a0f565b5b6020026020010181905250808061020890610a6d565b915050610181565b5080915050919050565b60606000600160008681526020019081526020016000205467ffffffffffffffff81111561024b5761024a6109e0565b5b60405190808252806020026020018201604052801561028457816020015b610271610772565b8152602001906001900390816102695790505b5090506000805b60016000888152602001908152602001600020548110156103865785600260008981526020019081526020016000206000838152602001908152602001600020600001541061037357846002600089815260200190815260200160002060008381526020019081526020016000206000015411610386576002600088815260200190815260200160002060008281526020019081526020016000206040518060400160405290816000820154815260200160018201548152505083838151811061035857610357610a0f565b5b60200260200101819052506001826103709190610ab5565b91505b808061037e90610a6d565b91505061028b565b5060008167ffffffffffffffff8111156103a3576103a26109e0565b5b6040519080825280602002602001820160405280156103dc57816020015b6103c9610772565b8152602001906001900390816103c15790505b50905060005b82811015610436578381815181106103fd576103fc610a0f565b5b602002602001015182828151811061041857610417610a0f565b5b6020026020010181905250808061042e90610a6d565b9150506103e2565b508093505050509392505050565b61044c610772565b60006001600085815260200190815260200160002054036104815760016000808282546104799190610ab5565b925050819055505b604051806040016040528042815260200183815250600260008581526020019081526020016000206000600160008781526020019081526020016000205481526020019081526020016000206000820151816000015560208201518160010155905050600180600085815260200190815260200160002060008282546105079190610ab5565b925050819055506002600084815260200190815260200160002060006001806000878152602001908152602001600020546105429190610b0b565b815260200190815260200160002060405180604001604052908160008201548152602001600182015481525050905092915050565b60606000600160008581526020019081526020016000205467ffffffffffffffff8111156105a8576105a76109e0565b5b6040519080825280602002602001820160405280156105e157816020015b6105ce610772565b8152602001906001900390816105c65790505b5090506000805b60016000878152602001908152602001600020548110156106b5578460026000888152602001908152602001600020600083815260200190815260200160002060000154106106a2576002600087815260200190815260200160002060008281526020019081526020016000206040518060400160405290816000820154815260200160018201548152505083838151811061068757610686610a0f565b5b602002602001018190525060018261069f9190610ab5565b91505b80806106ad90610a6d565b9150506105e8565b5060008167ffffffffffffffff8111156106d2576106d16109e0565b5b60405190808252806020026020018201604052801561070b57816020015b6106f8610772565b8152602001906001900390816106f05790505b50905060005b828110156107655783818151811061072c5761072b610a0f565b5b602002602001015182828151811061074757610746610a0f565b5b6020026020010181905250808061075d90610a6d565b915050610711565b5080935050505092915050565b604051806040016040528060008152602001600081525090565b600080fd5b6000819050919050565b6107a481610791565b81146107af57600080fd5b50565b6000813590506107c18161079b565b92915050565b6000602082840312156107dd576107dc61078c565b5b60006107eb848285016107b2565b91505092915050565b600081519050919050565b600082825260208201905092915050565b6000819050602082019050919050565b61082981610791565b82525050565b6040820160008201516108456000850182610820565b5060208201516108586020850182610820565b50505050565b600061086a838361082f565b60408301905092915050565b6000602082019050919050565b600061088e826107f4565b61089881856107ff565b93506108a383610810565b8060005b838110156108d45781516108bb888261085e565b97506108c683610876565b9250506001810190506108a7565b5085935050505092915050565b600060208201905081810360008301526108fb8184610883565b905092915050565b60008060006060848603121561091c5761091b61078c565b5b600061092a868287016107b2565b935050602061093b868287016107b2565b925050604061094c868287016107b2565b9150509250925092565b6000806040838503121561096d5761096c61078c565b5b600061097b858286016107b2565b925050602061098c858286016107b2565b9150509250929050565b6040820160008201516109ac6000850182610820565b5060208201516109bf6020850182610820565b50505050565b60006040820190506109da6000830184610996565b92915050565b7f4e487b7100000000000000000000000000000000000000000000000000000000600052604160045260246000fd5b7f4e487b7100000000000000000000000000000000000000000000000000000000600052603260045260246000fd5b7f4e487b7100000000000000000000000000000000000000000000000000000000600052601160045260246000fd5b6000610a7882610791565b91507fffffffffffffffffffffffffffffffffffffffffffffffffffffffffffffffff8203610aaa57610aa9610a3e565b5b600182019050919050565b6000610ac082610791565b9150610acb83610791565b9250827fffffffffffffffffffffffffffffffffffffffffffffffffffffffffffffffff03821115610b0057610aff610a3e565b5b828201905092915050565b6000610b1682610791565b9150610b2183610791565b925082821015610b3457610b33610a3e565b5b82820390509291505056fea264697066735822122064d531b19535ba62992cdcd1d7f23d3d12b620af899f46e42d64db0828e2938064736f6c634300080f0033",
  "immutableReferences": {},
  "source": "// SPDX-License-Identifier: GPL-3.0\n\npragma solidity >=0.7.0 <0.9.0;\n\nimport \"./MeasurementRecord.sol\";\n\n/**\n * @title WaterTANMeasurement\n * @dev Store & retrieve Water Total Ammonia Nitrogen Measurement\n */\ncontract WaterTANMeasurement is MeasurementRecord {\n\n\n    // Should be less than 1ppm\n\n    constructor() {\n        // W ----------------------------\n        // 12.06 3, 9, 15, 21\n        recordInit(1, 49, 1654977600);\n        recordInit(1, 50, 1654999200);\n        recordInit(1, 51, 1655020800);\n        recordInit(1, 51, 1655042400);\n        // 13.06 3, 9, 15, 21\n        recordInit(1, 53, 1655064000);\n        recordInit(1, 54, 1655085600);\n        recordInit(1, 57, 1655107200);\n        recordInit(1, 58, 1655128800);\n        // 14.06 3, 9, 15, 21\n        recordInit(1, 59, 1655150400);\n        recordInit(1, 62, 1655172000);\n        recordInit(1, 60, 1655193600);\n        recordInit(1, 62, 1655215200);\n        // 15.06 3, 9, 15, 21\n        recordInit(1, 64, 1655236800);\n        recordInit(1, 66, 1655258400);\n        recordInit(1, 67, 1655280000);\n        recordInit(1, 69, 1655301600);\n        // 16.06 3, 9, 15, 21\n        recordInit(1, 72, 1655323200);\n        recordInit(1, 73, 1655344800);\n        recordInit(1, 76, 1655366400);\n        recordInit(1, 77, 1655388000);\n        // 17.06 3, 9, 15, 21\n        recordInit(1, 78, 1655409600);\n        recordInit(1, 78, 1655431200);\n        recordInit(1, 81, 1655452800);\n        recordInit(1, 82, 1655474400);\n        // 18.06 3, 9, 15, 21\n        recordInit(1, 84, 1655496000);\n        recordInit(1, 86, 1655517600);\n        recordInit(1, 87, 1655539200);\n        recordInit(1, 88, 1655560800);\n\n        // W ----------------------------\n        // 19.06 3, 9, 15, 21\n        recordInit(1, 89, 1655582400);\n        recordInit(1, 44, 1655604000);\n        recordInit(1, 46, 1655625600);\n        recordInit(1, 46, 1655647200);\n        // 20.06 3, 9, 15, 21\n        recordInit(1, 48, 1655668800);\n        recordInit(1, 49, 1655690400);\n        recordInit(1, 52, 1655712000);\n        recordInit(1, 52, 1655733600);\n        // 21.06 3, 9, 15, 21\n        recordInit(1, 54, 1655755200);\n        recordInit(1, 56, 1655776800);\n        recordInit(1, 57, 1655798400);\n        recordInit(1, 59, 1655820000);\n        // 22.06 3, 9, 15, 21\n        recordInit(1, 62, 1655841600);\n        recordInit(1, 63, 1655863200);\n        recordInit(1, 67, 1655884800);\n        recordInit(1, 68, 1655906400);\n        // 23.06 3, 9, 15, 21\n        recordInit(1, 68, 1655928000);\n        recordInit(1, 69, 1655949600);\n        recordInit(1, 71, 1655971200);\n        recordInit(1, 74, 1655992800);\n        // 24.06 3, 9, 15, 21\n        recordInit(1, 75, 1656014400);\n        recordInit(1, 77, 1656036000);\n        recordInit(1, 78, 1656057600);\n        recordInit(1, 81, 1656079200);\n        // 25.06 3, 9, 15, 21\n        recordInit(1, 82, 1656100800);\n        recordInit(1, 83, 1656122400);\n        recordInit(1, 85, 1656144000);\n        recordInit(1, 86, 1656165600);\n\n        // W ----------------------------\n        // 26.06 3, 9, 15, 21\n        recordInit(1, 87, 1656187200);\n        recordInit(1, 41, 1656208800);\n        recordInit(1, 44, 1656230400);\n        recordInit(1, 47, 1656252000);\n        // 27.06 3, 9, 15, 21\n        recordInit(1, 48, 1656273600);\n        recordInit(1, 51, 1656295200);\n        recordInit(1, 54, 1656316800);\n        recordInit(1, 55, 1656338400);\n        // 28.06 3, 9, 15, 21\n        recordInit(1, 56, 1656360000);\n        recordInit(1, 57, 1656381600);\n        recordInit(1, 59, 1656403200);\n        recordInit(1, 62, 1656424800);\n        // 29.06 3, 9, 15, 21\n        recordInit(1, 63, 1656446400);\n        recordInit(1, 65, 1656468000);\n        recordInit(1, 67, 1656489600);\n        recordInit(1, 69, 1656511200);\n        // 30.06 3, 9, 15, 21\n        recordInit(1, 70, 1656532800);\n        recordInit(1, 71, 1656554400);\n        recordInit(1, 76, 1656576000);\n        recordInit(1, 77, 1656597600);\n        // 01.07 3, 9, 15, 21\n        recordInit(1, 78, 1656619200);\n        recordInit(1, 80, 1656640800);\n        recordInit(1, 81, 1656662400);\n        recordInit(1, 84, 1656684000);\n        // 02.07 3, 9, 15, 21\n        recordInit(1, 87, 1656705600);\n        recordInit(1, 88, 1656727200);\n        recordInit(1, 90, 1656748800);\n        recordInit(1, 91, 1656770400);\n\n        // W ----------------------------\n        // 03.07 3, 9, 15, 21\n        recordInit(1, 93, 1656792000);\n        recordInit(1, 47, 1656813600);\n        recordInit(1, 48, 1656835200);\n        recordInit(1, 51, 1656856800);\n        // 04.07 3, 9, 15, 21\n        recordInit(1, 52, 1656878400);\n        recordInit(1, 57, 1656900000);\n        recordInit(1, 58, 1656921600);\n        recordInit(1, 60, 1656943200);\n        // 05.07 3, 9, 15, 21\n        recordInit(1, 61, 1656964800);\n        recordInit(1, 64, 1656986400);\n        recordInit(1, 68, 1657008000);\n        recordInit(1, 68, 1657029600);\n        // 06.07 3, 9, 15, 21\n        recordInit(1, 69, 1657051200);\n        recordInit(1, 72, 1657072800);\n        recordInit(1, 73, 1657094400);\n        recordInit(1, 75, 1657116000);\n        // 07.07 3, 9, 15, 21\n        recordInit(1, 77, 1657137600);\n        recordInit(1, 78, 1657159200);\n        recordInit(1, 82, 1657180800);\n        recordInit(1, 83, 1657202400);\n        // 08.07 3, 9, 15, 21\n        recordInit(1, 84, 1657224000);\n        recordInit(1, 88, 1657245600);\n        recordInit(1, 89, 1657267200);\n        recordInit(1, 92, 1657288800);\n        // 09.07 3, 9, 15, 21\n        recordInit(1, 95, 1657310400);\n        recordInit(1, 51, 1657332000);\n        recordInit(1, 54, 1657353600);\n        recordInit(1, 57, 1657375200);\n\n\n        // W ----------------------------\n        // 10.07 3, 9, 15, 21\n        recordInit(1, 61, 1657396800);\n        recordInit(1, 66, 1657418400);\n        recordInit(1, 67, 1657440000);\n        recordInit(1, 67, 1657461600);\n        // 11.07 3, 9, 15, 21\n        recordInit(1, 69, 1657483200);\n        recordInit(1, 72, 1657504800);\n        recordInit(1, 73, 1657526400);\n        recordInit(1, 76, 1657548000);\n        // 12.07 3, 9, 15, 21\n        recordInit(1, 79, 1657569600);\n        recordInit(1, 82, 1657591200);\n        recordInit(1, 82, 1657612800);\n        recordInit(1, 84, 1657634400);\n        // 13.07 3, 9, 15, 21\n        recordInit(1, 86, 1657656000);\n        recordInit(1, 89, 1657677600);\n        recordInit(1, 90, 1657699200);\n        recordInit(1, 90, 1657720800);\n        // 14.07 3, 9, 15, 21\n        recordInit(1, 92, 1657742400);\n        recordInit(1, 94, 1657764000);\n        recordInit(1, 97, 1657785600);\n        recordInit(1, 98, 1657807200);\n        // 15.07 3, 9, 15, 21\n        recordInit(1, 99, 1657828800);\n        recordInit(1, 49, 1657850400);\n        recordInit(1, 51, 1657872000);\n        recordInit(1, 54, 1657893600);\n        // 16.07 3, 9, 15, 21\n        recordInit(1, 55, 1657915200);\n        recordInit(1, 59, 1657936800);\n        recordInit(1, 60, 1657958400);\n        recordInit(1, 62, 1657980000);\n\n        // W ----------------------------\n        // 17.07 3, 9, 15, 21\n        recordInit(1, 64, 1658001600);\n        recordInit(1, 70, 1658023200);\n        recordInit(1, 72, 1658044800);\n        recordInit(1, 73, 1658066400);\n        // 18.07 3, 9, 15, 21\n        recordInit(1, 74, 1658088000);\n        recordInit(1, 78, 1658109600);\n        recordInit(1, 79, 1658131200);\n        recordInit(1, 80, 1658152800);\n        // 19.07 3, 9, 15, 21\n        recordInit(1, 80, 1658174400);\n        recordInit(1, 52, 1658196000);\n        recordInit(1, 58, 1658217600);\n        recordInit(1, 59, 1658239200);\n        // 20.07 3, 9, 15, 21\n        recordInit(1, 61, 1658260800);\n        recordInit(1, 64, 1658282400);\n        recordInit(1, 66, 1658304000);\n        recordInit(1, 67, 1658325600);\n        // 21.07 3, 9, 15, 21\n        recordInit(1, 66, 1658347200);\n        recordInit(1, 69, 1658368800);\n        recordInit(1, 72, 1658390400);\n        recordInit(1, 71, 1658412000);\n        // 22.07 3, 9, 15, 21\n        recordInit(1, 74, 1658433600);\n        recordInit(1, 79, 1658455200);\n        recordInit(1, 81, 1658476800);\n        recordInit(1, 80, 1658498400);\n        // 23.07 3, 9, 15, 21\n        recordInit(1, 84, 1658520000);\n        recordInit(1, 51, 1658541600);\n        recordInit(1, 54, 1658563200);\n        recordInit(1, 55, 1658584800);\n        \n    }\n\n    function recordInit(uint _farm_id, uint _value, uint _timestamp) internal {\n        if(measurementCount[_farm_id] == 0){\n            farmCount += 1;\n        }\n        measurements[_farm_id][measurementCount[_farm_id]] = Measurement(_timestamp, _value);\n        measurementCount[_farm_id] += 1;\n    }\n\n \n}",
  "sourcePath": "/Users/pongsit/Documents/iWorks/aquaponic-frontend/contracts/WaterTANMeasurement.sol",
  "compiler": {
    "name": "solc",
    "version": "0.8.15+commit.e14f2714.Emscripten.clang"
  },
  "schemaVersion": "3.4.8",
  "updatedAt": "2022-07-24T14:06:18.604Z",
  "devdoc": {
    "details": "Store & retrieve Water Total Ammonia Nitrogen Measurement",
    "kind": "dev",
    "methods": {},
    "title": "WaterTANMeasurement",
    "version": 1
  },
  "userdoc": {
    "kind": "user",
    "methods": {},
    "version": 1
  }
}